{
	"ERC20_flat.sol": {
		"Token": {
			"abi": [
				{
					"inputs": [
						{
							"internalType": "string",
							"name": "_name",
							"type": "string"
						},
						{
							"internalType": "string",
							"name": "_symbol",
							"type": "string"
						}
					],
					"stateMutability": "nonpayable",
					"type": "constructor"
				},
				{
					"anonymous": false,
					"inputs": [
						{
							"indexed": true,
							"internalType": "address",
							"name": "owner",
							"type": "address"
						},
						{
							"indexed": true,
							"internalType": "address",
							"name": "spender",
							"type": "address"
						},
						{
							"indexed": false,
							"internalType": "uint256",
							"name": "value",
							"type": "uint256"
						}
					],
					"name": "Approval",
					"type": "event"
				},
				{
					"anonymous": false,
					"inputs": [
						{
							"indexed": true,
							"internalType": "address",
							"name": "from",
							"type": "address"
						},
						{
							"indexed": true,
							"internalType": "address",
							"name": "to",
							"type": "address"
						},
						{
							"indexed": false,
							"internalType": "uint256",
							"name": "value",
							"type": "uint256"
						}
					],
					"name": "Transfer",
					"type": "event"
				},
				{
					"inputs": [
						{
							"internalType": "address",
							"name": "owner",
							"type": "address"
						},
						{
							"internalType": "address",
							"name": "spender",
							"type": "address"
						}
					],
					"name": "allowance",
					"outputs": [
						{
							"internalType": "uint256",
							"name": "",
							"type": "uint256"
						}
					],
					"stateMutability": "view",
					"type": "function"
				},
				{
					"inputs": [
						{
							"internalType": "address",
							"name": "spender",
							"type": "address"
						},
						{
							"internalType": "uint256",
							"name": "amount",
							"type": "uint256"
						}
					],
					"name": "approve",
					"outputs": [
						{
							"internalType": "bool",
							"name": "",
							"type": "bool"
						}
					],
					"stateMutability": "nonpayable",
					"type": "function"
				},
				{
					"inputs": [
						{
							"internalType": "address",
							"name": "account",
							"type": "address"
						}
					],
					"name": "balanceOf",
					"outputs": [
						{
							"internalType": "uint256",
							"name": "",
							"type": "uint256"
						}
					],
					"stateMutability": "view",
					"type": "function"
				},
				{
					"inputs": [
						{
							"internalType": "address",
							"name": "receiver",
							"type": "address"
						}
					],
					"name": "buyToken",
					"outputs": [],
					"stateMutability": "payable",
					"type": "function"
				},
				{
					"inputs": [],
					"name": "cost",
					"outputs": [
						{
							"internalType": "uint256",
							"name": "",
							"type": "uint256"
						}
					],
					"stateMutability": "view",
					"type": "function"
				},
				{
					"inputs": [],
					"name": "decimals",
					"outputs": [
						{
							"internalType": "uint8",
							"name": "",
							"type": "uint8"
						}
					],
					"stateMutability": "view",
					"type": "function"
				},
				{
					"inputs": [
						{
							"internalType": "address",
							"name": "spender",
							"type": "address"
						},
						{
							"internalType": "uint256",
							"name": "subtractedValue",
							"type": "uint256"
						}
					],
					"name": "decreaseAllowance",
					"outputs": [
						{
							"internalType": "bool",
							"name": "",
							"type": "bool"
						}
					],
					"stateMutability": "nonpayable",
					"type": "function"
				},
				{
					"inputs": [
						{
							"internalType": "address",
							"name": "spender",
							"type": "address"
						},
						{
							"internalType": "uint256",
							"name": "addedValue",
							"type": "uint256"
						}
					],
					"name": "increaseAllowance",
					"outputs": [
						{
							"internalType": "bool",
							"name": "",
							"type": "bool"
						}
					],
					"stateMutability": "nonpayable",
					"type": "function"
				},
				{
					"inputs": [],
					"name": "name",
					"outputs": [
						{
							"internalType": "string",
							"name": "",
							"type": "string"
						}
					],
					"stateMutability": "view",
					"type": "function"
				},
				{
					"inputs": [],
					"name": "symbol",
					"outputs": [
						{
							"internalType": "string",
							"name": "",
							"type": "string"
						}
					],
					"stateMutability": "view",
					"type": "function"
				},
				{
					"inputs": [],
					"name": "totalSupply",
					"outputs": [
						{
							"internalType": "uint256",
							"name": "",
							"type": "uint256"
						}
					],
					"stateMutability": "view",
					"type": "function"
				},
				{
					"inputs": [
						{
							"internalType": "address",
							"name": "to",
							"type": "address"
						},
						{
							"internalType": "uint256",
							"name": "amount",
							"type": "uint256"
						}
					],
					"name": "transfer",
					"outputs": [
						{
							"internalType": "bool",
							"name": "",
							"type": "bool"
						}
					],
					"stateMutability": "nonpayable",
					"type": "function"
				},
				{
					"inputs": [
						{
							"internalType": "address",
							"name": "from",
							"type": "address"
						},
						{
							"internalType": "address",
							"name": "to",
							"type": "address"
						},
						{
							"internalType": "uint256",
							"name": "amount",
							"type": "uint256"
						}
					],
					"name": "transferFrom",
					"outputs": [
						{
							"internalType": "bool",
							"name": "",
							"type": "bool"
						}
					],
					"stateMutability": "nonpayable",
					"type": "function"
				}
			],
			"devdoc": {
				"kind": "dev",
				"methods": {
					"allowance(address,address)": {
						"details": "See {IERC20-allowance}."
					},
					"approve(address,uint256)": {
						"details": "See {IERC20-approve}. NOTE: If `amount` is the maximum `uint256`, the allowance is not updated on `transferFrom`. This is semantically equivalent to an infinite approval. Requirements: - `spender` cannot be the zero address."
					},
					"balanceOf(address)": {
						"details": "See {IERC20-balanceOf}."
					},
					"decimals()": {
						"details": "Returns the number of decimals used to get its user representation. For example, if `decimals` equals `2`, a balance of `505` tokens should be displayed to a user as `5.05` (`505 / 10 ** 2`). Tokens usually opt for a value of 18, imitating the relationship between Ether and Wei. This is the value {ERC20} uses, unless this function is overridden; NOTE: This information is only used for _display_ purposes: it in no way affects any of the arithmetic of the contract, including {IERC20-balanceOf} and {IERC20-transfer}."
					},
					"decreaseAllowance(address,uint256)": {
						"details": "Atomically decreases the allowance granted to `spender` by the caller. This is an alternative to {approve} that can be used as a mitigation for problems described in {IERC20-approve}. Emits an {Approval} event indicating the updated allowance. Requirements: - `spender` cannot be the zero address. - `spender` must have allowance for the caller of at least `subtractedValue`."
					},
					"increaseAllowance(address,uint256)": {
						"details": "Atomically increases the allowance granted to `spender` by the caller. This is an alternative to {approve} that can be used as a mitigation for problems described in {IERC20-approve}. Emits an {Approval} event indicating the updated allowance. Requirements: - `spender` cannot be the zero address."
					},
					"name()": {
						"details": "Returns the name of the token."
					},
					"symbol()": {
						"details": "Returns the symbol of the token, usually a shorter version of the name."
					},
					"totalSupply()": {
						"details": "See {IERC20-totalSupply}."
					},
					"transfer(address,uint256)": {
						"details": "See {IERC20-transfer}. Requirements: - `to` cannot be the zero address. - the caller must have a balance of at least `amount`."
					},
					"transferFrom(address,address,uint256)": {
						"details": "See {IERC20-transferFrom}. Emits an {Approval} event indicating the updated allowance. This is not required by the EIP. See the note at the beginning of {ERC20}. NOTE: Does not update the allowance if the current allowance is the maximum `uint256`. Requirements: - `from` and `to` cannot be the zero address. - `from` must have a balance of at least `amount`. - the caller must have allowance for ``from``'s tokens of at least `amount`."
					}
				},
				"version": 1
			},
			"evm": {
				"assembly": "    /* \"ERC20_flat.sol\":17077:17411  contract Token is ERC20{... */\n  mstore(0x40, 0x80)\n    /* \"ERC20_flat.sol\":17125:17132  1 ether */\n  0x0de0b6b3a7640000\n    /* \"ERC20_flat.sol\":17106:17132  uint public cost = 1 ether */\n  0x05\n  sstore\n    /* \"ERC20_flat.sol\":17138:17282  constructor(string memory _name, string memory _symbol) ERC20(_name, _symbol) {... */\n  callvalue\n  dup1\n  iszero\n  tag_1\n  jumpi\n  0x00\n  dup1\n  revert\ntag_1:\n  pop\n  mload(0x40)\n  sub(codesize, bytecodeSize)\n  dup1\n  bytecodeSize\n  dup4\n  codecopy\n  dup2\n  add\n  0x40\n  dup2\n  swap1\n  mstore\n  tag_2\n  swap2\n  tag_3\n  jump\t// in\ntag_2:\n    /* \"ERC20_flat.sol\":6404:6417  _name = name_ */\n  dup2\n  mload\n    /* \"ERC20_flat.sol\":17200:17205  _name */\n  dup3\n  swap1\n    /* \"ERC20_flat.sol\":17207:17214  _symbol */\n  dup3\n  swap1\n    /* \"ERC20_flat.sol\":6404:6417  _name = name_ */\n  tag_7\n  swap1\n    /* \"ERC20_flat.sol\":6404:6409  _name */\n  0x03\n  swap1\n    /* \"ERC20_flat.sol\":6404:6417  _name = name_ */\n  0x20\n  dup6\n  add\n  swap1\n  tag_8\n  jump\t// in\ntag_7:\n  pop\n    /* \"ERC20_flat.sol\":6427:6444  _symbol = symbol_ */\n  dup1\n  mload\n  tag_9\n  swap1\n    /* \"ERC20_flat.sol\":6427:6434  _symbol */\n  0x04\n  swap1\n    /* \"ERC20_flat.sol\":6427:6444  _symbol = symbol_ */\n  0x20\n  dup5\n  add\n  swap1\n  tag_8\n  jump\t// in\ntag_9:\n  pop\n    /* \"ERC20_flat.sol\":6338:6451  constructor(string memory name_, string memory symbol_) {... */\n  pop\n  pop\n    /* \"ERC20_flat.sol\":17221:17260  _mint(msg.sender, 1000000 * (10 ** 18)) */\n  tag_11\n    /* \"ERC20_flat.sol\":17227:17237  msg.sender */\n  caller\n    /* \"ERC20_flat.sol\":17239:17259  1000000 * (10 ** 18) */\n  0xd3c21bcecceda1000000\n    /* \"ERC20_flat.sol\":17221:17226  _mint */\n  shl(0x20, tag_12)\n    /* \"ERC20_flat.sol\":17221:17260  _mint(msg.sender, 1000000 * (10 ** 18)) */\n  0x20\n  shr\n  jump\t// in\ntag_11:\n    /* \"ERC20_flat.sol\":17138:17282  constructor(string memory _name, string memory _symbol) ERC20(_name, _symbol) {... */\n  pop\n  pop\n    /* \"ERC20_flat.sol\":17077:17411  contract Token is ERC20{... */\n  jump(tag_43)\n    /* \"ERC20_flat.sol\":12775:13164  function _mint(address account, uint256 amount) internal virtual {... */\ntag_12:\n  sub(shl(0xa0, 0x01), 0x01)\n    /* \"ERC20_flat.sol\":12858:12879  account != address(0) */\n  dup3\n  and\n    /* \"ERC20_flat.sol\":12850:12915  require(account != address(0), \"ERC20: mint to the zero address\") */\n  tag_17\n  jumpi\n  mload(0x40)\n  shl(0xe5, 0x461bcd)\n  dup2\n  mstore\n    /* \"#utility.yul\":1673:1675   */\n  0x20\n    /* \"ERC20_flat.sol\":12850:12915  require(account != address(0), \"ERC20: mint to the zero address\") */\n  0x04\n  dup3\n  add\n    /* \"#utility.yul\":1655:1676   */\n  mstore\n    /* \"#utility.yul\":1712:1714   */\n  0x1f\n    /* \"#utility.yul\":1692:1710   */\n  0x24\n  dup3\n  add\n    /* \"#utility.yul\":1685:1715   */\n  mstore\n    /* \"#utility.yul\":1751:1784   */\n  0x45524332303a206d696e7420746f20746865207a65726f206164647265737300\n    /* \"#utility.yul\":1731:1749   */\n  0x44\n  dup3\n  add\n    /* \"#utility.yul\":1724:1785   */\n  mstore\n    /* \"#utility.yul\":1802:1820   */\n  0x64\n  add\n    /* \"ERC20_flat.sol\":12850:12915  require(account != address(0), \"ERC20: mint to the zero address\") */\n  mload(0x40)\n  dup1\n  swap2\n  sub\n  swap1\n  revert\ntag_17:\n    /* \"ERC20_flat.sol\":13002:13008  amount */\n  dup1\n    /* \"ERC20_flat.sol\":12986:12998  _totalSupply */\n  0x02\n  0x00\n    /* \"ERC20_flat.sol\":12986:13008  _totalSupply += amount */\n  dup3\n  dup3\n  sload\n  tag_22\n  swap2\n  swap1\n  tag_23\n  jump\t// in\ntag_22:\n  swap1\n  swap2\n  sstore\n  pop\n  pop\n  sub(shl(0xa0, 0x01), 0x01)\n    /* \"ERC20_flat.sol\":13018:13036  _balances[account] */\n  dup3\n  and\n    /* \"ERC20_flat.sol\":13018:13027  _balances */\n  0x00\n    /* \"ERC20_flat.sol\":13018:13036  _balances[account] */\n  swap1\n  dup2\n  mstore\n  0x20\n  dup2\n  swap1\n  mstore\n  0x40\n  dup2\n  keccak256\n    /* \"ERC20_flat.sol\":13018:13046  _balances[account] += amount */\n  dup1\n  sload\n    /* \"ERC20_flat.sol\":13040:13046  amount */\n  dup4\n  swap3\n    /* \"ERC20_flat.sol\":13018:13027  _balances */\n  swap1\n    /* \"ERC20_flat.sol\":13018:13046  _balances[account] += amount */\n  tag_24\n  swap1\n    /* \"ERC20_flat.sol\":13040:13046  amount */\n  dup5\n  swap1\n    /* \"ERC20_flat.sol\":13018:13046  _balances[account] += amount */\n  tag_23\n  jump\t// in\ntag_24:\n  swap1\n  swap2\n  sstore\n  pop\n  pop\n    /* \"ERC20_flat.sol\":13061:13098  Transfer(address(0), account, amount) */\n  mload(0x40)\n    /* \"#utility.yul\":1977:2002   */\n  dup2\n  dup2\n  mstore\n  sub(shl(0xa0, 0x01), 0x01)\n    /* \"ERC20_flat.sol\":13061:13098  Transfer(address(0), account, amount) */\n  dup4\n  and\n  swap1\n    /* \"ERC20_flat.sol\":13078:13079  0 */\n  0x00\n  swap1\n    /* \"ERC20_flat.sol\":13061:13098  Transfer(address(0), account, amount) */\n  0xddf252ad1be2c89b69c2b068fc378daa952ba7f163c4a11628f55a4df523b3ef\n  swap1\n    /* \"#utility.yul\":1965:1967   */\n  0x20\n    /* \"#utility.yul\":1950:1968   */\n  add\n    /* \"ERC20_flat.sol\":13061:13098  Transfer(address(0), account, amount) */\n  mload(0x40)\n  dup1\n  swap2\n  sub\n  swap1\n  log3\n    /* \"ERC20_flat.sol\":12775:13164  function _mint(address account, uint256 amount) internal virtual {... */\n  pop\n  pop\n  jump\t// out\n    /* \"ERC20_flat.sol\":17077:17411  contract Token is ERC20{... */\ntag_8:\n  dup3\n  dup1\n  sload\n  tag_32\n  swap1\n  tag_33\n  jump\t// in\ntag_32:\n  swap1\n  0x00\n  mstore\n  keccak256(0x00, 0x20)\n  swap1\n  0x1f\n  add\n  0x20\n  swap1\n  div\n  dup2\n  add\n  swap3\n  dup3\n  tag_35\n  jumpi\n  0x00\n  dup6\n  sstore\n  jump(tag_38)\ntag_35:\n  dup3\n  0x1f\n  lt\n  tag_36\n  jumpi\n  dup1\n  mload\n  not(0xff)\n  and\n  dup4\n  dup1\n  add\n  or\n  dup6\n  sstore\n  jump(tag_38)\ntag_36:\n  dup3\n  dup1\n  add\n  0x01\n  add\n  dup6\n  sstore\n  dup3\n  iszero\n  tag_38\n  jumpi\n  swap2\n  dup3\n  add\ntag_37:\n  dup3\n  dup2\n  gt\n  iszero\n  tag_38\n  jumpi\n  dup3\n  mload\n  dup3\n  sstore\n  swap2\n  0x20\n  add\n  swap2\n  swap1\n  0x01\n  add\n  swap1\n  jump(tag_37)\ntag_38:\n  pop\n  tag_39\n  swap3\n  swap2\n  pop\n  tag_40\n  jump\t// in\ntag_39:\n  pop\n  swap1\n  jump\t// out\ntag_40:\ntag_41:\n  dup1\n  dup3\n  gt\n  iszero\n  tag_39\n  jumpi\n  0x00\n  dup2\n  sstore\n  0x01\n  add\n  jump(tag_41)\n    /* \"#utility.yul\":14:899   */\ntag_44:\n    /* \"#utility.yul\":68:73   */\n  0x00\n    /* \"#utility.yul\":121:124   */\n  dup3\n    /* \"#utility.yul\":114:118   */\n  0x1f\n    /* \"#utility.yul\":106:112   */\n  dup4\n    /* \"#utility.yul\":102:119   */\n  add\n    /* \"#utility.yul\":98:125   */\n  slt\n    /* \"#utility.yul\":88:143   */\n  tag_46\n  jumpi\n    /* \"#utility.yul\":139:140   */\n  0x00\n    /* \"#utility.yul\":136:137   */\n  dup1\n    /* \"#utility.yul\":129:141   */\n  revert\n    /* \"#utility.yul\":88:143   */\ntag_46:\n    /* \"#utility.yul\":162:175   */\n  dup2\n  mload\n  sub(shl(0x40, 0x01), 0x01)\n    /* \"#utility.yul\":224:234   */\n  dup1\n  dup3\n  gt\n    /* \"#utility.yul\":221:257   */\n  iszero\n  tag_48\n  jumpi\n    /* \"#utility.yul\":237:255   */\n  tag_48\n  tag_49\n  jump\t// in\ntag_48:\n    /* \"#utility.yul\":312:314   */\n  0x40\n    /* \"#utility.yul\":306:315   */\n  mload\n    /* \"#utility.yul\":280:282   */\n  0x1f\n    /* \"#utility.yul\":366:379   */\n  dup4\n  add\n  not(0x1f)\n    /* \"#utility.yul\":362:384   */\n  swap1\n  dup2\n  and\n    /* \"#utility.yul\":386:388   */\n  0x3f\n    /* \"#utility.yul\":358:389   */\n  add\n    /* \"#utility.yul\":354:394   */\n  and\n    /* \"#utility.yul\":342:395   */\n  dup2\n  add\n  swap1\n    /* \"#utility.yul\":410:428   */\n  dup3\n  dup3\n  gt\n    /* \"#utility.yul\":430:452   */\n  dup2\n  dup4\n  lt\n    /* \"#utility.yul\":407:453   */\n  or\n    /* \"#utility.yul\":404:476   */\n  iszero\n  tag_51\n  jumpi\n    /* \"#utility.yul\":456:474   */\n  tag_51\n  tag_49\n  jump\t// in\ntag_51:\n    /* \"#utility.yul\":496:506   */\n  dup2\n    /* \"#utility.yul\":492:494   */\n  0x40\n    /* \"#utility.yul\":485:507   */\n  mstore\n    /* \"#utility.yul\":531:533   */\n  dup4\n    /* \"#utility.yul\":523:529   */\n  dup2\n    /* \"#utility.yul\":516:534   */\n  mstore\n    /* \"#utility.yul\":553:557   */\n  0x20\n    /* \"#utility.yul\":543:557   */\n  swap3\n  pop\n    /* \"#utility.yul\":598:601   */\n  dup7\n    /* \"#utility.yul\":593:595   */\n  dup4\n    /* \"#utility.yul\":588:590   */\n  dup6\n    /* \"#utility.yul\":580:586   */\n  dup9\n    /* \"#utility.yul\":576:591   */\n  add\n    /* \"#utility.yul\":572:596   */\n  add\n    /* \"#utility.yul\":569:602   */\n  gt\n    /* \"#utility.yul\":566:619   */\n  iszero\n  tag_52\n  jumpi\n    /* \"#utility.yul\":615:616   */\n  0x00\n    /* \"#utility.yul\":612:613   */\n  dup1\n    /* \"#utility.yul\":605:617   */\n  revert\n    /* \"#utility.yul\":566:619   */\ntag_52:\n    /* \"#utility.yul\":637:638   */\n  0x00\n    /* \"#utility.yul\":628:638   */\n  swap2\n  pop\n    /* \"#utility.yul\":647:780   */\ntag_53:\n    /* \"#utility.yul\":661:663   */\n  dup4\n    /* \"#utility.yul\":658:659   */\n  dup3\n    /* \"#utility.yul\":655:664   */\n  lt\n    /* \"#utility.yul\":647:780   */\n  iszero\n  tag_55\n  jumpi\n    /* \"#utility.yul\":749:763   */\n  dup6\n  dup3\n  add\n    /* \"#utility.yul\":745:768   */\n  dup4\n  add\n    /* \"#utility.yul\":739:769   */\n  mload\n    /* \"#utility.yul\":718:732   */\n  dup2\n  dup4\n  add\n    /* \"#utility.yul\":714:737   */\n  dup5\n  add\n    /* \"#utility.yul\":707:770   */\n  mstore\n    /* \"#utility.yul\":672:682   */\n  swap1\n  dup3\n  add\n  swap1\n    /* \"#utility.yul\":647:780   */\n  jump(tag_53)\ntag_55:\n    /* \"#utility.yul\":798:800   */\n  dup4\n    /* \"#utility.yul\":795:796   */\n  dup3\n    /* \"#utility.yul\":792:801   */\n  gt\n    /* \"#utility.yul\":789:869   */\n  iszero\n  tag_56\n  jumpi\n    /* \"#utility.yul\":857:858   */\n  0x00\n    /* \"#utility.yul\":852:854   */\n  dup4\n    /* \"#utility.yul\":847:849   */\n  dup6\n    /* \"#utility.yul\":839:845   */\n  dup4\n    /* \"#utility.yul\":835:850   */\n  add\n    /* \"#utility.yul\":831:855   */\n  add\n    /* \"#utility.yul\":824:859   */\n  mstore\n    /* \"#utility.yul\":789:869   */\ntag_56:\n    /* \"#utility.yul\":887:893   */\n  swap7\n    /* \"#utility.yul\":14:899   */\n  swap6\n  pop\n  pop\n  pop\n  pop\n  pop\n  pop\n  jump\t// out\n    /* \"#utility.yul\":904:1466   */\ntag_3:\n    /* \"#utility.yul\":1003:1009   */\n  0x00\n    /* \"#utility.yul\":1011:1017   */\n  dup1\n    /* \"#utility.yul\":1064:1066   */\n  0x40\n    /* \"#utility.yul\":1052:1061   */\n  dup4\n    /* \"#utility.yul\":1043:1050   */\n  dup6\n    /* \"#utility.yul\":1039:1062   */\n  sub\n    /* \"#utility.yul\":1035:1067   */\n  slt\n    /* \"#utility.yul\":1032:1084   */\n  iszero\n  tag_58\n  jumpi\n    /* \"#utility.yul\":1080:1081   */\n  0x00\n    /* \"#utility.yul\":1077:1078   */\n  dup1\n    /* \"#utility.yul\":1070:1082   */\n  revert\n    /* \"#utility.yul\":1032:1084   */\ntag_58:\n    /* \"#utility.yul\":1107:1123   */\n  dup3\n  mload\n  sub(shl(0x40, 0x01), 0x01)\n    /* \"#utility.yul\":1172:1186   */\n  dup1\n  dup3\n  gt\n    /* \"#utility.yul\":1169:1203   */\n  iszero\n  tag_59\n  jumpi\n    /* \"#utility.yul\":1199:1200   */\n  0x00\n    /* \"#utility.yul\":1196:1197   */\n  dup1\n    /* \"#utility.yul\":1189:1201   */\n  revert\n    /* \"#utility.yul\":1169:1203   */\ntag_59:\n    /* \"#utility.yul\":1222:1283   */\n  tag_60\n    /* \"#utility.yul\":1275:1282   */\n  dup7\n    /* \"#utility.yul\":1266:1272   */\n  dup4\n    /* \"#utility.yul\":1255:1264   */\n  dup8\n    /* \"#utility.yul\":1251:1273   */\n  add\n    /* \"#utility.yul\":1222:1283   */\n  tag_44\n  jump\t// in\ntag_60:\n    /* \"#utility.yul\":1212:1283   */\n  swap4\n  pop\n    /* \"#utility.yul\":1329:1331   */\n  0x20\n    /* \"#utility.yul\":1318:1327   */\n  dup6\n    /* \"#utility.yul\":1314:1332   */\n  add\n    /* \"#utility.yul\":1308:1333   */\n  mload\n    /* \"#utility.yul\":1292:1333   */\n  swap2\n  pop\n    /* \"#utility.yul\":1358:1360   */\n  dup1\n    /* \"#utility.yul\":1348:1356   */\n  dup3\n    /* \"#utility.yul\":1345:1361   */\n  gt\n    /* \"#utility.yul\":1342:1378   */\n  iszero\n  tag_61\n  jumpi\n    /* \"#utility.yul\":1374:1375   */\n  0x00\n    /* \"#utility.yul\":1371:1372   */\n  dup1\n    /* \"#utility.yul\":1364:1376   */\n  revert\n    /* \"#utility.yul\":1342:1378   */\ntag_61:\n  pop\n    /* \"#utility.yul\":1397:1460   */\n  tag_62\n    /* \"#utility.yul\":1452:1459   */\n  dup6\n    /* \"#utility.yul\":1441:1449   */\n  dup3\n    /* \"#utility.yul\":1430:1439   */\n  dup7\n    /* \"#utility.yul\":1426:1450   */\n  add\n    /* \"#utility.yul\":1397:1460   */\n  tag_44\n  jump\t// in\ntag_62:\n    /* \"#utility.yul\":1387:1460   */\n  swap2\n  pop\n  pop\n    /* \"#utility.yul\":904:1466   */\n  swap3\n  pop\n  swap3\n  swap1\n  pop\n  jump\t// out\n    /* \"#utility.yul\":2013:2238   */\ntag_23:\n    /* \"#utility.yul\":2053:2056   */\n  0x00\n    /* \"#utility.yul\":2084:2085   */\n  dup3\n    /* \"#utility.yul\":2080:2086   */\n  not\n    /* \"#utility.yul\":2077:2078   */\n  dup3\n    /* \"#utility.yul\":2074:2087   */\n  gt\n    /* \"#utility.yul\":2071:2207   */\n  iszero\n  tag_66\n  jumpi\n    /* \"#utility.yul\":2129:2139   */\n  0x4e487b71\n    /* \"#utility.yul\":2124:2127   */\n  0xe0\n    /* \"#utility.yul\":2120:2140   */\n  shl\n    /* \"#utility.yul\":2117:2118   */\n  0x00\n    /* \"#utility.yul\":2110:2141   */\n  mstore\n    /* \"#utility.yul\":2164:2168   */\n  0x11\n    /* \"#utility.yul\":2161:2162   */\n  0x04\n    /* \"#utility.yul\":2154:2169   */\n  mstore\n    /* \"#utility.yul\":2192:2196   */\n  0x24\n    /* \"#utility.yul\":2189:2190   */\n  0x00\n    /* \"#utility.yul\":2182:2197   */\n  revert\n    /* \"#utility.yul\":2071:2207   */\ntag_66:\n  pop\n    /* \"#utility.yul\":2223:2232   */\n  add\n  swap1\n    /* \"#utility.yul\":2013:2238   */\n  jump\t// out\n    /* \"#utility.yul\":2243:2623   */\ntag_33:\n    /* \"#utility.yul\":2322:2323   */\n  0x01\n    /* \"#utility.yul\":2318:2330   */\n  dup2\n  dup2\n  shr\n  swap1\n    /* \"#utility.yul\":2365:2377   */\n  dup3\n  and\n  dup1\n    /* \"#utility.yul\":2386:2447   */\n  tag_68\n  jumpi\n    /* \"#utility.yul\":2440:2444   */\n  0x7f\n    /* \"#utility.yul\":2432:2438   */\n  dup3\n    /* \"#utility.yul\":2428:2445   */\n  and\n    /* \"#utility.yul\":2418:2445   */\n  swap2\n  pop\n    /* \"#utility.yul\":2386:2447   */\ntag_68:\n    /* \"#utility.yul\":2493:2495   */\n  0x20\n    /* \"#utility.yul\":2485:2491   */\n  dup3\n    /* \"#utility.yul\":2482:2496   */\n  lt\n    /* \"#utility.yul\":2462:2480   */\n  dup2\n    /* \"#utility.yul\":2459:2497   */\n  eq\n    /* \"#utility.yul\":2456:2617   */\n  iszero\n  tag_69\n  jumpi\n    /* \"#utility.yul\":2539:2549   */\n  0x4e487b71\n    /* \"#utility.yul\":2534:2537   */\n  0xe0\n    /* \"#utility.yul\":2530:2550   */\n  shl\n    /* \"#utility.yul\":2527:2528   */\n  0x00\n    /* \"#utility.yul\":2520:2551   */\n  mstore\n    /* \"#utility.yul\":2574:2578   */\n  0x22\n    /* \"#utility.yul\":2571:2572   */\n  0x04\n    /* \"#utility.yul\":2564:2579   */\n  mstore\n    /* \"#utility.yul\":2602:2606   */\n  0x24\n    /* \"#utility.yul\":2599:2600   */\n  0x00\n    /* \"#utility.yul\":2592:2607   */\n  revert\n    /* \"#utility.yul\":2456:2617   */\ntag_69:\n  pop\n    /* \"#utility.yul\":2243:2623   */\n  swap2\n  swap1\n  pop\n  jump\t// out\n    /* \"#utility.yul\":2628:2755   */\ntag_49:\n    /* \"#utility.yul\":2689:2699   */\n  0x4e487b71\n    /* \"#utility.yul\":2684:2687   */\n  0xe0\n    /* \"#utility.yul\":2680:2700   */\n  shl\n    /* \"#utility.yul\":2677:2678   */\n  0x00\n    /* \"#utility.yul\":2670:2701   */\n  mstore\n    /* \"#utility.yul\":2720:2724   */\n  0x41\n    /* \"#utility.yul\":2717:2718   */\n  0x04\n    /* \"#utility.yul\":2710:2725   */\n  mstore\n    /* \"#utility.yul\":2744:2748   */\n  0x24\n    /* \"#utility.yul\":2741:2742   */\n  0x00\n    /* \"#utility.yul\":2734:2749   */\n  revert\n    /* \"#utility.yul\":2628:2755   */\ntag_43:\n    /* \"ERC20_flat.sol\":17077:17411  contract Token is ERC20{... */\n  dataSize(sub_0)\n  dup1\n  dataOffset(sub_0)\n  0x00\n  codecopy\n  0x00\n  return\nstop\n\nsub_0: assembly {\n        /* \"ERC20_flat.sol\":17077:17411  contract Token is ERC20{... */\n      mstore(0x40, 0x80)\n      jumpi(tag_1, lt(calldatasize, 0x04))\n      shr(0xe0, calldataload(0x00))\n      dup1\n      0x39509351\n      gt\n      tag_15\n      jumpi\n      dup1\n      0x95d89b41\n      gt\n      tag_16\n      jumpi\n      dup1\n      0x95d89b41\n      eq\n      tag_11\n      jumpi\n      dup1\n      0xa457c2d7\n      eq\n      tag_12\n      jumpi\n      dup1\n      0xa9059cbb\n      eq\n      tag_13\n      jumpi\n      dup1\n      0xdd62ed3e\n      eq\n      tag_14\n      jumpi\n      0x00\n      dup1\n      revert\n    tag_16:\n      dup1\n      0x39509351\n      eq\n      tag_8\n      jumpi\n      dup1\n      0x70a08231\n      eq\n      tag_9\n      jumpi\n      dup1\n      0x7e72fb52\n      eq\n      tag_10\n      jumpi\n      0x00\n      dup1\n      revert\n    tag_15:\n      dup1\n      0x06fdde03\n      eq\n      tag_2\n      jumpi\n      dup1\n      0x095ea7b3\n      eq\n      tag_3\n      jumpi\n      dup1\n      0x13faede6\n      eq\n      tag_4\n      jumpi\n      dup1\n      0x18160ddd\n      eq\n      tag_5\n      jumpi\n      dup1\n      0x23b872dd\n      eq\n      tag_6\n      jumpi\n      dup1\n      0x313ce567\n      eq\n      tag_7\n      jumpi\n    tag_1:\n      0x00\n      dup1\n      revert\n        /* \"ERC20_flat.sol\":6516:6614  function name() public view virtual override returns (string memory) {... */\n    tag_2:\n      callvalue\n      dup1\n      iszero\n      tag_17\n      jumpi\n      0x00\n      dup1\n      revert\n    tag_17:\n      pop\n      tag_18\n      tag_19\n      jump\t// in\n    tag_18:\n      mload(0x40)\n      tag_20\n      swap2\n      swap1\n      tag_21\n      jump\t// in\n    tag_20:\n      mload(0x40)\n      dup1\n      swap2\n      sub\n      swap1\n      return\n        /* \"ERC20_flat.sol\":8793:8990  function approve(address spender, uint256 amount) public virtual override returns (bool) {... */\n    tag_3:\n      callvalue\n      dup1\n      iszero\n      tag_22\n      jumpi\n      0x00\n      dup1\n      revert\n    tag_22:\n      pop\n      tag_23\n      tag_24\n      calldatasize\n      0x04\n      tag_25\n      jump\t// in\n    tag_24:\n      tag_26\n      jump\t// in\n    tag_23:\n      mload(0x40)\n        /* \"#utility.yul\":1405:1419   */\n      swap1\n      iszero\n        /* \"#utility.yul\":1398:1420   */\n      iszero\n        /* \"#utility.yul\":1380:1421   */\n      dup2\n      mstore\n        /* \"#utility.yul\":1368:1370   */\n      0x20\n        /* \"#utility.yul\":1353:1371   */\n      add\n        /* \"ERC20_flat.sol\":8793:8990  function approve(address spender, uint256 amount) public virtual override returns (bool) {... */\n      tag_20\n        /* \"#utility.yul\":1240:1427   */\n      jump\n        /* \"ERC20_flat.sol\":17106:17132  uint public cost = 1 ether */\n    tag_4:\n      callvalue\n      dup1\n      iszero\n      tag_29\n      jumpi\n      0x00\n      dup1\n      revert\n    tag_29:\n      pop\n      tag_30\n      sload(0x05)\n      dup2\n      jump\n    tag_30:\n      mload(0x40)\n        /* \"#utility.yul\":5329:5354   */\n      swap1\n      dup2\n      mstore\n        /* \"#utility.yul\":5317:5319   */\n      0x20\n        /* \"#utility.yul\":5302:5320   */\n      add\n        /* \"ERC20_flat.sol\":17106:17132  uint public cost = 1 ether */\n      tag_20\n        /* \"#utility.yul\":5183:5360   */\n      jump\n        /* \"ERC20_flat.sol\":7604:7710  function totalSupply() public view virtual override returns (uint256) {... */\n    tag_5:\n      callvalue\n      dup1\n      iszero\n      tag_34\n      jumpi\n      0x00\n      dup1\n      revert\n    tag_34:\n      pop\n        /* \"ERC20_flat.sol\":7691:7703  _totalSupply */\n      sload(0x02)\n        /* \"ERC20_flat.sol\":7604:7710  function totalSupply() public view virtual override returns (uint256) {... */\n      jump(tag_30)\n        /* \"ERC20_flat.sol\":9552:9838  function transferFrom(... */\n    tag_6:\n      callvalue\n      dup1\n      iszero\n      tag_38\n      jumpi\n      0x00\n      dup1\n      revert\n    tag_38:\n      pop\n      tag_23\n      tag_40\n      calldatasize\n      0x04\n      tag_41\n      jump\t// in\n    tag_40:\n      tag_42\n      jump\t// in\n        /* \"ERC20_flat.sol\":7453:7544  function decimals() public view virtual override returns (uint8) {... */\n    tag_7:\n      callvalue\n      dup1\n      iszero\n      tag_44\n      jumpi\n      0x00\n      dup1\n      revert\n    tag_44:\n      pop\n      mload(0x40)\n        /* \"ERC20_flat.sol\":7535:7537  18 */\n      0x12\n        /* \"#utility.yul\":5507:5543   */\n      dup2\n      mstore\n        /* \"#utility.yul\":5495:5497   */\n      0x20\n        /* \"#utility.yul\":5480:5498   */\n      add\n        /* \"ERC20_flat.sol\":7453:7544  function decimals() public view virtual override returns (uint8) {... */\n      tag_20\n        /* \"#utility.yul\":5365:5549   */\n      jump\n        /* \"ERC20_flat.sol\":10233:10469  function increaseAllowance(address spender, uint256 addedValue) public virtual returns (bool) {... */\n    tag_8:\n      callvalue\n      dup1\n      iszero\n      tag_49\n      jumpi\n      0x00\n      dup1\n      revert\n    tag_49:\n      pop\n      tag_23\n      tag_51\n      calldatasize\n      0x04\n      tag_25\n      jump\t// in\n    tag_51:\n      tag_52\n      jump\t// in\n        /* \"ERC20_flat.sol\":7768:7893  function balanceOf(address account) public view virtual override returns (uint256) {... */\n    tag_9:\n      callvalue\n      dup1\n      iszero\n      tag_54\n      jumpi\n      0x00\n      dup1\n      revert\n    tag_54:\n      pop\n      tag_30\n      tag_56\n      calldatasize\n      0x04\n      tag_57\n      jump\t// in\n    tag_56:\n      sub(shl(0xa0, 0x01), 0x01)\n        /* \"ERC20_flat.sol\":7868:7886  _balances[account] */\n      and\n        /* \"ERC20_flat.sol\":7842:7849  uint256 */\n      0x00\n        /* \"ERC20_flat.sol\":7868:7886  _balances[account] */\n      swap1\n      dup2\n      mstore\n      0x20\n      dup2\n      swap1\n      mstore\n      0x40\n      swap1\n      keccak256\n      sload\n      swap1\n        /* \"ERC20_flat.sol\":7768:7893  function balanceOf(address account) public view virtual override returns (uint256) {... */\n      jump\n        /* \"ERC20_flat.sol\":17285:17408  function buyToken(address receiver)public payable {... */\n    tag_10:\n      tag_60\n      tag_61\n      calldatasize\n      0x04\n      tag_57\n      jump\t// in\n    tag_61:\n      tag_62\n      jump\t// in\n    tag_60:\n      stop\n        /* \"ERC20_flat.sol\":6727:6829  function symbol() public view virtual override returns (string memory) {... */\n    tag_11:\n      callvalue\n      dup1\n      iszero\n      tag_63\n      jumpi\n      0x00\n      dup1\n      revert\n    tag_63:\n      pop\n      tag_18\n      tag_65\n      jump\t// in\n        /* \"ERC20_flat.sol\":10956:11385  function decreaseAllowance(address spender, uint256 subtractedValue) public virtual returns (bool) {... */\n    tag_12:\n      callvalue\n      dup1\n      iszero\n      tag_67\n      jumpi\n      0x00\n      dup1\n      revert\n    tag_67:\n      pop\n      tag_23\n      tag_69\n      calldatasize\n      0x04\n      tag_25\n      jump\t// in\n    tag_69:\n      tag_70\n      jump\t// in\n        /* \"ERC20_flat.sol\":8089:8278  function transfer(address to, uint256 amount) public virtual override returns (bool) {... */\n    tag_13:\n      callvalue\n      dup1\n      iszero\n      tag_72\n      jumpi\n      0x00\n      dup1\n      revert\n    tag_72:\n      pop\n      tag_23\n      tag_74\n      calldatasize\n      0x04\n      tag_25\n      jump\t// in\n    tag_74:\n      tag_75\n      jump\t// in\n        /* \"ERC20_flat.sol\":8336:8485  function allowance(address owner, address spender) public view virtual override returns (uint256) {... */\n    tag_14:\n      callvalue\n      dup1\n      iszero\n      tag_77\n      jumpi\n      0x00\n      dup1\n      revert\n    tag_77:\n      pop\n      tag_30\n      tag_79\n      calldatasize\n      0x04\n      tag_80\n      jump\t// in\n    tag_79:\n      sub(shl(0xa0, 0x01), 0x01)\n        /* \"ERC20_flat.sol\":8451:8469  _allowances[owner] */\n      swap2\n      dup3\n      and\n        /* \"ERC20_flat.sol\":8425:8432  uint256 */\n      0x00\n        /* \"ERC20_flat.sol\":8451:8469  _allowances[owner] */\n      swap1\n      dup2\n      mstore\n        /* \"ERC20_flat.sol\":8451:8462  _allowances */\n      0x01\n        /* \"ERC20_flat.sol\":8451:8469  _allowances[owner] */\n      0x20\n      swap1\n      dup2\n      mstore\n      0x40\n      dup1\n      dup4\n      keccak256\n        /* \"ERC20_flat.sol\":8451:8478  _allowances[owner][spender] */\n      swap4\n      swap1\n      swap5\n      and\n      dup3\n      mstore\n      swap2\n      swap1\n      swap2\n      mstore\n      keccak256\n      sload\n      swap1\n        /* \"ERC20_flat.sol\":8336:8485  function allowance(address owner, address spender) public view virtual override returns (uint256) {... */\n      jump\n        /* \"ERC20_flat.sol\":6516:6614  function name() public view virtual override returns (string memory) {... */\n    tag_19:\n        /* \"ERC20_flat.sol\":6570:6583  string memory */\n      0x60\n        /* \"ERC20_flat.sol\":6602:6607  _name */\n      0x03\n        /* \"ERC20_flat.sol\":6595:6607  return _name */\n      dup1\n      sload\n      tag_84\n      swap1\n      tag_85\n      jump\t// in\n    tag_84:\n      dup1\n      0x1f\n      add\n      0x20\n      dup1\n      swap2\n      div\n      mul\n      0x20\n      add\n      mload(0x40)\n      swap1\n      dup2\n      add\n      0x40\n      mstore\n      dup1\n      swap3\n      swap2\n      swap1\n      dup2\n      dup2\n      mstore\n      0x20\n      add\n      dup3\n      dup1\n      sload\n      tag_86\n      swap1\n      tag_85\n      jump\t// in\n    tag_86:\n      dup1\n      iszero\n      tag_87\n      jumpi\n      dup1\n      0x1f\n      lt\n      tag_88\n      jumpi\n      0x0100\n      dup1\n      dup4\n      sload\n      div\n      mul\n      dup4\n      mstore\n      swap2\n      0x20\n      add\n      swap2\n      jump(tag_87)\n    tag_88:\n      dup3\n      add\n      swap2\n      swap1\n      0x00\n      mstore\n      keccak256(0x00, 0x20)\n      swap1\n    tag_89:\n      dup2\n      sload\n      dup2\n      mstore\n      swap1\n      0x01\n      add\n      swap1\n      0x20\n      add\n      dup1\n      dup4\n      gt\n      tag_89\n      jumpi\n      dup3\n      swap1\n      sub\n      0x1f\n      and\n      dup3\n      add\n      swap2\n    tag_87:\n      pop\n      pop\n      pop\n      pop\n      pop\n      swap1\n      pop\n        /* \"ERC20_flat.sol\":6516:6614  function name() public view virtual override returns (string memory) {... */\n      swap1\n      jump\t// out\n        /* \"ERC20_flat.sol\":8793:8990  function approve(address spender, uint256 amount) public virtual override returns (bool) {... */\n    tag_26:\n        /* \"ERC20_flat.sol\":8876:8880  bool */\n      0x00\n        /* \"ERC20_flat.sol\":807:817  msg.sender */\n      caller\n        /* \"ERC20_flat.sol\":8930:8962  _approve(owner, spender, amount) */\n      tag_93\n        /* \"ERC20_flat.sol\":807:817  msg.sender */\n      dup2\n        /* \"ERC20_flat.sol\":8946:8953  spender */\n      dup6\n        /* \"ERC20_flat.sol\":8955:8961  amount */\n      dup6\n        /* \"ERC20_flat.sol\":8930:8938  _approve */\n      tag_94\n        /* \"ERC20_flat.sol\":8930:8962  _approve(owner, spender, amount) */\n      jump\t// in\n    tag_93:\n      pop\n        /* \"ERC20_flat.sol\":8979:8983  true */\n      0x01\n      swap4\n        /* \"ERC20_flat.sol\":8793:8990  function approve(address spender, uint256 amount) public virtual override returns (bool) {... */\n      swap3\n      pop\n      pop\n      pop\n      jump\t// out\n        /* \"ERC20_flat.sol\":9552:9838  function transferFrom(... */\n    tag_42:\n        /* \"ERC20_flat.sol\":9679:9683  bool */\n      0x00\n        /* \"ERC20_flat.sol\":807:817  msg.sender */\n      caller\n        /* \"ERC20_flat.sol\":9735:9773  _spendAllowance(from, spender, amount) */\n      tag_98\n        /* \"ERC20_flat.sol\":9751:9755  from */\n      dup6\n        /* \"ERC20_flat.sol\":807:817  msg.sender */\n      dup3\n        /* \"ERC20_flat.sol\":9766:9772  amount */\n      dup6\n        /* \"ERC20_flat.sol\":9735:9750  _spendAllowance */\n      tag_99\n        /* \"ERC20_flat.sol\":9735:9773  _spendAllowance(from, spender, amount) */\n      jump\t// in\n    tag_98:\n        /* \"ERC20_flat.sol\":9783:9810  _transfer(from, to, amount) */\n      tag_100\n        /* \"ERC20_flat.sol\":9793:9797  from */\n      dup6\n        /* \"ERC20_flat.sol\":9799:9801  to */\n      dup6\n        /* \"ERC20_flat.sol\":9803:9809  amount */\n      dup6\n        /* \"ERC20_flat.sol\":9783:9792  _transfer */\n      tag_101\n        /* \"ERC20_flat.sol\":9783:9810  _transfer(from, to, amount) */\n      jump\t// in\n    tag_100:\n      pop\n        /* \"ERC20_flat.sol\":9827:9831  true */\n      0x01\n      swap5\n        /* \"ERC20_flat.sol\":9552:9838  function transferFrom(... */\n      swap4\n      pop\n      pop\n      pop\n      pop\n      jump\t// out\n        /* \"ERC20_flat.sol\":10233:10469  function increaseAllowance(address spender, uint256 addedValue) public virtual returns (bool) {... */\n    tag_52:\n        /* \"ERC20_flat.sol\":807:817  msg.sender */\n      caller\n        /* \"ERC20_flat.sol\":10321:10325  bool */\n      0x00\n        /* \"ERC20_flat.sol\":10400:10418  _allowances[owner] */\n      dup2\n      dup2\n      mstore\n        /* \"ERC20_flat.sol\":10400:10411  _allowances */\n      0x01\n        /* \"ERC20_flat.sol\":10400:10418  _allowances[owner] */\n      0x20\n      swap1\n      dup2\n      mstore\n      0x40\n      dup1\n      dup4\n      keccak256\n      sub(shl(0xa0, 0x01), 0x01)\n        /* \"ERC20_flat.sol\":10400:10427  _allowances[owner][spender] */\n      dup8\n      and\n      dup5\n      mstore\n      swap1\n      swap2\n      mstore\n      dup2\n      keccak256\n      sload\n        /* \"ERC20_flat.sol\":10321:10325  bool */\n      swap1\n      swap2\n        /* \"ERC20_flat.sol\":807:817  msg.sender */\n      swap1\n        /* \"ERC20_flat.sol\":10375:10441  _approve(owner, spender, _allowances[owner][spender] + addedValue) */\n      tag_93\n      swap1\n        /* \"ERC20_flat.sol\":807:817  msg.sender */\n      dup3\n      swap1\n        /* \"ERC20_flat.sol\":10400:10427  _allowances[owner][spender] */\n      dup7\n      swap1\n        /* \"ERC20_flat.sol\":10400:10440  _allowances[owner][spender] + addedValue */\n      tag_106\n      swap1\n        /* \"ERC20_flat.sol\":10430:10440  addedValue */\n      dup8\n      swap1\n        /* \"ERC20_flat.sol\":10400:10440  _allowances[owner][spender] + addedValue */\n      tag_107\n      jump\t// in\n    tag_106:\n        /* \"ERC20_flat.sol\":10375:10383  _approve */\n      tag_94\n        /* \"ERC20_flat.sol\":10375:10441  _approve(owner, spender, _allowances[owner][spender] + addedValue) */\n      jump\t// in\n        /* \"ERC20_flat.sol\":17285:17408  function buyToken(address receiver)public payable {... */\n    tag_62:\n        /* \"ERC20_flat.sol\":17361:17365  cost */\n      sload(0x05)\n        /* \"ERC20_flat.sol\":17348:17357  msg.value */\n      callvalue\n        /* \"ERC20_flat.sol\":17348:17365  msg.value == cost */\n      eq\n        /* \"ERC20_flat.sol\":17340:17366  require(msg.value == cost) */\n      tag_110\n      jumpi\n      0x00\n      dup1\n      revert\n    tag_110:\n        /* \"ERC20_flat.sol\":17370:17404  _mint(receiver, 1000 * (10 ** 18)) */\n      tag_111\n        /* \"ERC20_flat.sol\":17376:17384  receiver */\n      dup2\n        /* \"ERC20_flat.sol\":17386:17403  1000 * (10 ** 18) */\n      0x3635c9adc5dea00000\n        /* \"ERC20_flat.sol\":17370:17375  _mint */\n      tag_112\n        /* \"ERC20_flat.sol\":17370:17404  _mint(receiver, 1000 * (10 ** 18)) */\n      jump\t// in\n    tag_111:\n        /* \"ERC20_flat.sol\":17285:17408  function buyToken(address receiver)public payable {... */\n      pop\n      jump\t// out\n        /* \"ERC20_flat.sol\":6727:6829  function symbol() public view virtual override returns (string memory) {... */\n    tag_65:\n        /* \"ERC20_flat.sol\":6783:6796  string memory */\n      0x60\n        /* \"ERC20_flat.sol\":6815:6822  _symbol */\n      0x04\n        /* \"ERC20_flat.sol\":6808:6822  return _symbol */\n      dup1\n      sload\n      tag_84\n      swap1\n      tag_85\n      jump\t// in\n        /* \"ERC20_flat.sol\":10956:11385  function decreaseAllowance(address spender, uint256 subtractedValue) public virtual returns (bool) {... */\n    tag_70:\n        /* \"ERC20_flat.sol\":807:817  msg.sender */\n      caller\n        /* \"ERC20_flat.sol\":11049:11053  bool */\n      0x00\n        /* \"ERC20_flat.sol\":11130:11148  _allowances[owner] */\n      dup2\n      dup2\n      mstore\n        /* \"ERC20_flat.sol\":11130:11141  _allowances */\n      0x01\n        /* \"ERC20_flat.sol\":11130:11148  _allowances[owner] */\n      0x20\n      swap1\n      dup2\n      mstore\n      0x40\n      dup1\n      dup4\n      keccak256\n      sub(shl(0xa0, 0x01), 0x01)\n        /* \"ERC20_flat.sol\":11130:11157  _allowances[owner][spender] */\n      dup8\n      and\n      dup5\n      mstore\n      swap1\n      swap2\n      mstore\n      dup2\n      keccak256\n      sload\n        /* \"ERC20_flat.sol\":11049:11053  bool */\n      swap1\n      swap2\n        /* \"ERC20_flat.sol\":807:817  msg.sender */\n      swap1\n        /* \"ERC20_flat.sol\":11175:11210  currentAllowance >= subtractedValue */\n      dup4\n      dup2\n      lt\n      iszero\n        /* \"ERC20_flat.sol\":11167:11252  require(currentAllowance >= subtractedValue, \"ERC20: decreased allowance below zero\") */\n      tag_121\n      jumpi\n      mload(0x40)\n      shl(0xe5, 0x461bcd)\n      dup2\n      mstore\n        /* \"#utility.yul\":4619:4621   */\n      0x20\n        /* \"ERC20_flat.sol\":11167:11252  require(currentAllowance >= subtractedValue, \"ERC20: decreased allowance below zero\") */\n      0x04\n      dup3\n      add\n        /* \"#utility.yul\":4601:4622   */\n      mstore\n        /* \"#utility.yul\":4658:4660   */\n      0x25\n        /* \"#utility.yul\":4638:4656   */\n      0x24\n      dup3\n      add\n        /* \"#utility.yul\":4631:4661   */\n      mstore\n        /* \"#utility.yul\":4697:4731   */\n      0x45524332303a2064656372656173656420616c6c6f77616e63652062656c6f77\n        /* \"#utility.yul\":4677:4695   */\n      0x44\n      dup3\n      add\n        /* \"#utility.yul\":4670:4732   */\n      mstore\n      shl(0xd8, 0x207a65726f)\n        /* \"#utility.yul\":4748:4766   */\n      0x64\n      dup3\n      add\n        /* \"#utility.yul\":4741:4776   */\n      mstore\n        /* \"#utility.yul\":4793:4812   */\n      0x84\n      add\n        /* \"ERC20_flat.sol\":11167:11252  require(currentAllowance >= subtractedValue, \"ERC20: decreased allowance below zero\") */\n    tag_122:\n      mload(0x40)\n      dup1\n      swap2\n      sub\n      swap1\n      revert\n    tag_121:\n        /* \"ERC20_flat.sol\":11286:11346  _approve(owner, spender, currentAllowance - subtractedValue) */\n      tag_100\n        /* \"ERC20_flat.sol\":11295:11300  owner */\n      dup3\n        /* \"ERC20_flat.sol\":11302:11309  spender */\n      dup7\n        /* \"ERC20_flat.sol\":11330:11345  subtractedValue */\n      dup7\n        /* \"ERC20_flat.sol\":11311:11327  currentAllowance */\n      dup5\n        /* \"ERC20_flat.sol\":11311:11345  currentAllowance - subtractedValue */\n      sub\n        /* \"ERC20_flat.sol\":11286:11294  _approve */\n      tag_94\n        /* \"ERC20_flat.sol\":11286:11346  _approve(owner, spender, currentAllowance - subtractedValue) */\n      jump\t// in\n        /* \"ERC20_flat.sol\":8089:8278  function transfer(address to, uint256 amount) public virtual override returns (bool) {... */\n    tag_75:\n        /* \"ERC20_flat.sol\":8168:8172  bool */\n      0x00\n        /* \"ERC20_flat.sol\":807:817  msg.sender */\n      caller\n        /* \"ERC20_flat.sol\":8222:8250  _transfer(owner, to, amount) */\n      tag_93\n        /* \"ERC20_flat.sol\":807:817  msg.sender */\n      dup2\n        /* \"ERC20_flat.sol\":8239:8241  to */\n      dup6\n        /* \"ERC20_flat.sol\":8243:8249  amount */\n      dup6\n        /* \"ERC20_flat.sol\":8222:8231  _transfer */\n      tag_101\n        /* \"ERC20_flat.sol\":8222:8250  _transfer(owner, to, amount) */\n      jump\t// in\n        /* \"ERC20_flat.sol\":14483:14853  function _approve(... */\n    tag_94:\n      sub(shl(0xa0, 0x01), 0x01)\n        /* \"ERC20_flat.sol\":14614:14633  owner != address(0) */\n      dup4\n      and\n        /* \"ERC20_flat.sol\":14606:14674  require(owner != address(0), \"ERC20: approve from the zero address\") */\n      tag_131\n      jumpi\n      mload(0x40)\n      shl(0xe5, 0x461bcd)\n      dup2\n      mstore\n        /* \"#utility.yul\":4214:4216   */\n      0x20\n        /* \"ERC20_flat.sol\":14606:14674  require(owner != address(0), \"ERC20: approve from the zero address\") */\n      0x04\n      dup3\n      add\n        /* \"#utility.yul\":4196:4217   */\n      mstore\n        /* \"#utility.yul\":4253:4255   */\n      0x24\n        /* \"#utility.yul\":4233:4251   */\n      dup1\n      dup3\n      add\n        /* \"#utility.yul\":4226:4256   */\n      mstore\n        /* \"#utility.yul\":4292:4326   */\n      0x45524332303a20617070726f76652066726f6d20746865207a65726f20616464\n        /* \"#utility.yul\":4272:4290   */\n      0x44\n      dup3\n      add\n        /* \"#utility.yul\":4265:4327   */\n      mstore\n      shl(0xe0, 0x72657373)\n        /* \"#utility.yul\":4343:4361   */\n      0x64\n      dup3\n      add\n        /* \"#utility.yul\":4336:4370   */\n      mstore\n        /* \"#utility.yul\":4387:4406   */\n      0x84\n      add\n        /* \"ERC20_flat.sol\":14606:14674  require(owner != address(0), \"ERC20: approve from the zero address\") */\n      tag_122\n        /* \"#utility.yul\":4012:4412   */\n      jump\n        /* \"ERC20_flat.sol\":14606:14674  require(owner != address(0), \"ERC20: approve from the zero address\") */\n    tag_131:\n      sub(shl(0xa0, 0x01), 0x01)\n        /* \"ERC20_flat.sol\":14692:14713  spender != address(0) */\n      dup3\n      and\n        /* \"ERC20_flat.sol\":14684:14752  require(spender != address(0), \"ERC20: approve to the zero address\") */\n      tag_134\n      jumpi\n      mload(0x40)\n      shl(0xe5, 0x461bcd)\n      dup2\n      mstore\n        /* \"#utility.yul\":2640:2642   */\n      0x20\n        /* \"ERC20_flat.sol\":14684:14752  require(spender != address(0), \"ERC20: approve to the zero address\") */\n      0x04\n      dup3\n      add\n        /* \"#utility.yul\":2622:2643   */\n      mstore\n        /* \"#utility.yul\":2679:2681   */\n      0x22\n        /* \"#utility.yul\":2659:2677   */\n      0x24\n      dup3\n      add\n        /* \"#utility.yul\":2652:2682   */\n      mstore\n        /* \"#utility.yul\":2718:2752   */\n      0x45524332303a20617070726f766520746f20746865207a65726f206164647265\n        /* \"#utility.yul\":2698:2716   */\n      0x44\n      dup3\n      add\n        /* \"#utility.yul\":2691:2753   */\n      mstore\n      shl(0xf0, 0x7373)\n        /* \"#utility.yul\":2769:2787   */\n      0x64\n      dup3\n      add\n        /* \"#utility.yul\":2762:2794   */\n      mstore\n        /* \"#utility.yul\":2811:2830   */\n      0x84\n      add\n        /* \"ERC20_flat.sol\":14684:14752  require(spender != address(0), \"ERC20: approve to the zero address\") */\n      tag_122\n        /* \"#utility.yul\":2438:2836   */\n      jump\n        /* \"ERC20_flat.sol\":14684:14752  require(spender != address(0), \"ERC20: approve to the zero address\") */\n    tag_134:\n      sub(shl(0xa0, 0x01), 0x01)\n        /* \"ERC20_flat.sol\":14763:14781  _allowances[owner] */\n      dup4\n      dup2\n      and\n      0x00\n      dup2\n      dup2\n      mstore\n        /* \"ERC20_flat.sol\":14763:14774  _allowances */\n      0x01\n        /* \"ERC20_flat.sol\":14763:14781  _allowances[owner] */\n      0x20\n      swap1\n      dup2\n      mstore\n      0x40\n      dup1\n      dup4\n      keccak256\n        /* \"ERC20_flat.sol\":14763:14790  _allowances[owner][spender] */\n      swap5\n      dup8\n      and\n      dup1\n      dup5\n      mstore\n      swap5\n      dup3\n      mstore\n      swap2\n      dup3\n      swap1\n      keccak256\n        /* \"ERC20_flat.sol\":14763:14799  _allowances[owner][spender] = amount */\n      dup6\n      swap1\n      sstore\n        /* \"ERC20_flat.sol\":14814:14846  Approval(owner, spender, amount) */\n      swap1\n      mload\n        /* \"#utility.yul\":5329:5354   */\n      dup5\n      dup2\n      mstore\n        /* \"ERC20_flat.sol\":14814:14846  Approval(owner, spender, amount) */\n      0x8c5be1e5ebec7d5bd14f71427d1e84f3dd0314c0f7b2291e5b200ac8c7c3b925\n      swap2\n        /* \"#utility.yul\":5302:5320   */\n      add\n        /* \"ERC20_flat.sol\":14814:14846  Approval(owner, spender, amount) */\n      mload(0x40)\n      dup1\n      swap2\n      sub\n      swap1\n      log3\n        /* \"ERC20_flat.sol\":14483:14853  function _approve(... */\n      pop\n      pop\n      pop\n      jump\t// out\n        /* \"ERC20_flat.sol\":15130:15571  function _spendAllowance(... */\n    tag_99:\n      sub(shl(0xa0, 0x01), 0x01)\n        /* \"ERC20_flat.sol\":8451:8469  _allowances[owner] */\n      dup4\n      dup2\n      and\n        /* \"ERC20_flat.sol\":15260:15284  uint256 currentAllowance */\n      0x00\n        /* \"ERC20_flat.sol\":8451:8469  _allowances[owner] */\n      swap1\n      dup2\n      mstore\n        /* \"ERC20_flat.sol\":8451:8462  _allowances */\n      0x01\n        /* \"ERC20_flat.sol\":8451:8469  _allowances[owner] */\n      0x20\n      swap1\n      dup2\n      mstore\n      0x40\n      dup1\n      dup4\n      keccak256\n        /* \"ERC20_flat.sol\":8451:8478  _allowances[owner][spender] */\n      swap4\n      dup7\n      and\n      dup4\n      mstore\n      swap3\n      swap1\n      mstore\n      keccak256\n      sload\n      not(0x00)\n        /* \"ERC20_flat.sol\":15326:15363  currentAllowance != type(uint256).max */\n      dup2\n      eq\n        /* \"ERC20_flat.sol\":15322:15565  if (currentAllowance != type(uint256).max) {... */\n      tag_144\n      jumpi\n        /* \"ERC20_flat.sol\":15407:15413  amount */\n      dup2\n        /* \"ERC20_flat.sol\":15387:15403  currentAllowance */\n      dup2\n        /* \"ERC20_flat.sol\":15387:15413  currentAllowance >= amount */\n      lt\n      iszero\n        /* \"ERC20_flat.sol\":15379:15447  require(currentAllowance >= amount, \"ERC20: insufficient allowance\") */\n      tag_141\n      jumpi\n      mload(0x40)\n      shl(0xe5, 0x461bcd)\n      dup2\n      mstore\n        /* \"#utility.yul\":3043:3045   */\n      0x20\n        /* \"ERC20_flat.sol\":15379:15447  require(currentAllowance >= amount, \"ERC20: insufficient allowance\") */\n      0x04\n      dup3\n      add\n        /* \"#utility.yul\":3025:3046   */\n      mstore\n        /* \"#utility.yul\":3082:3084   */\n      0x1d\n        /* \"#utility.yul\":3062:3080   */\n      0x24\n      dup3\n      add\n        /* \"#utility.yul\":3055:3085   */\n      mstore\n        /* \"#utility.yul\":3121:3152   */\n      0x45524332303a20696e73756666696369656e7420616c6c6f77616e6365000000\n        /* \"#utility.yul\":3101:3119   */\n      0x44\n      dup3\n      add\n        /* \"#utility.yul\":3094:3153   */\n      mstore\n        /* \"#utility.yul\":3170:3188   */\n      0x64\n      add\n        /* \"ERC20_flat.sol\":15379:15447  require(currentAllowance >= amount, \"ERC20: insufficient allowance\") */\n      tag_122\n        /* \"#utility.yul\":2841:3194   */\n      jump\n        /* \"ERC20_flat.sol\":15379:15447  require(currentAllowance >= amount, \"ERC20: insufficient allowance\") */\n    tag_141:\n        /* \"ERC20_flat.sol\":15489:15540  _approve(owner, spender, currentAllowance - amount) */\n      tag_144\n        /* \"ERC20_flat.sol\":15498:15503  owner */\n      dup5\n        /* \"ERC20_flat.sol\":15505:15512  spender */\n      dup5\n        /* \"ERC20_flat.sol\":15533:15539  amount */\n      dup5\n        /* \"ERC20_flat.sol\":15514:15530  currentAllowance */\n      dup5\n        /* \"ERC20_flat.sol\":15514:15539  currentAllowance - amount */\n      sub\n        /* \"ERC20_flat.sol\":15489:15497  _approve */\n      tag_94\n        /* \"ERC20_flat.sol\":15489:15540  _approve(owner, spender, currentAllowance - amount) */\n      jump\t// in\n    tag_144:\n        /* \"ERC20_flat.sol\":15250:15571  {... */\n      pop\n        /* \"ERC20_flat.sol\":15130:15571  function _spendAllowance(... */\n      pop\n      pop\n      pop\n      jump\t// out\n        /* \"ERC20_flat.sol\":11848:12499  function _transfer(... */\n    tag_101:\n      sub(shl(0xa0, 0x01), 0x01)\n        /* \"ERC20_flat.sol\":11974:11992  from != address(0) */\n      dup4\n      and\n        /* \"ERC20_flat.sol\":11966:12034  require(from != address(0), \"ERC20: transfer from the zero address\") */\n      tag_146\n      jumpi\n      mload(0x40)\n      shl(0xe5, 0x461bcd)\n      dup2\n      mstore\n        /* \"#utility.yul\":3808:3810   */\n      0x20\n        /* \"ERC20_flat.sol\":11966:12034  require(from != address(0), \"ERC20: transfer from the zero address\") */\n      0x04\n      dup3\n      add\n        /* \"#utility.yul\":3790:3811   */\n      mstore\n        /* \"#utility.yul\":3847:3849   */\n      0x25\n        /* \"#utility.yul\":3827:3845   */\n      0x24\n      dup3\n      add\n        /* \"#utility.yul\":3820:3850   */\n      mstore\n        /* \"#utility.yul\":3886:3920   */\n      0x45524332303a207472616e736665722066726f6d20746865207a65726f206164\n        /* \"#utility.yul\":3866:3884   */\n      0x44\n      dup3\n      add\n        /* \"#utility.yul\":3859:3921   */\n      mstore\n      shl(0xd8, 0x6472657373)\n        /* \"#utility.yul\":3937:3955   */\n      0x64\n      dup3\n      add\n        /* \"#utility.yul\":3930:3965   */\n      mstore\n        /* \"#utility.yul\":3982:4001   */\n      0x84\n      add\n        /* \"ERC20_flat.sol\":11966:12034  require(from != address(0), \"ERC20: transfer from the zero address\") */\n      tag_122\n        /* \"#utility.yul\":3606:4007   */\n      jump\n        /* \"ERC20_flat.sol\":11966:12034  require(from != address(0), \"ERC20: transfer from the zero address\") */\n    tag_146:\n      sub(shl(0xa0, 0x01), 0x01)\n        /* \"ERC20_flat.sol\":12052:12068  to != address(0) */\n      dup3\n      and\n        /* \"ERC20_flat.sol\":12044:12108  require(to != address(0), \"ERC20: transfer to the zero address\") */\n      tag_149\n      jumpi\n      mload(0x40)\n      shl(0xe5, 0x461bcd)\n      dup2\n      mstore\n        /* \"#utility.yul\":2236:2238   */\n      0x20\n        /* \"ERC20_flat.sol\":12044:12108  require(to != address(0), \"ERC20: transfer to the zero address\") */\n      0x04\n      dup3\n      add\n        /* \"#utility.yul\":2218:2239   */\n      mstore\n        /* \"#utility.yul\":2275:2277   */\n      0x23\n        /* \"#utility.yul\":2255:2273   */\n      0x24\n      dup3\n      add\n        /* \"#utility.yul\":2248:2278   */\n      mstore\n        /* \"#utility.yul\":2314:2348   */\n      0x45524332303a207472616e7366657220746f20746865207a65726f2061646472\n        /* \"#utility.yul\":2294:2312   */\n      0x44\n      dup3\n      add\n        /* \"#utility.yul\":2287:2349   */\n      mstore\n      shl(0xe8, 0x657373)\n        /* \"#utility.yul\":2365:2383   */\n      0x64\n      dup3\n      add\n        /* \"#utility.yul\":2358:2391   */\n      mstore\n        /* \"#utility.yul\":2408:2427   */\n      0x84\n      add\n        /* \"ERC20_flat.sol\":12044:12108  require(to != address(0), \"ERC20: transfer to the zero address\") */\n      tag_122\n        /* \"#utility.yul\":2034:2433   */\n      jump\n        /* \"ERC20_flat.sol\":12044:12108  require(to != address(0), \"ERC20: transfer to the zero address\") */\n    tag_149:\n      sub(shl(0xa0, 0x01), 0x01)\n        /* \"ERC20_flat.sol\":12190:12205  _balances[from] */\n      dup4\n      and\n        /* \"ERC20_flat.sol\":12168:12187  uint256 fromBalance */\n      0x00\n        /* \"ERC20_flat.sol\":12190:12205  _balances[from] */\n      swap1\n      dup2\n      mstore\n      0x20\n      dup2\n      swap1\n      mstore\n      0x40\n      swap1\n      keccak256\n      sload\n        /* \"ERC20_flat.sol\":12223:12244  fromBalance >= amount */\n      dup2\n      dup2\n      lt\n      iszero\n        /* \"ERC20_flat.sol\":12215:12287  require(fromBalance >= amount, \"ERC20: transfer amount exceeds balance\") */\n      tag_154\n      jumpi\n      mload(0x40)\n      shl(0xe5, 0x461bcd)\n      dup2\n      mstore\n        /* \"#utility.yul\":3401:3403   */\n      0x20\n        /* \"ERC20_flat.sol\":12215:12287  require(fromBalance >= amount, \"ERC20: transfer amount exceeds balance\") */\n      0x04\n      dup3\n      add\n        /* \"#utility.yul\":3383:3404   */\n      mstore\n        /* \"#utility.yul\":3440:3442   */\n      0x26\n        /* \"#utility.yul\":3420:3438   */\n      0x24\n      dup3\n      add\n        /* \"#utility.yul\":3413:3443   */\n      mstore\n        /* \"#utility.yul\":3479:3513   */\n      0x45524332303a207472616e7366657220616d6f756e7420657863656564732062\n        /* \"#utility.yul\":3459:3477   */\n      0x44\n      dup3\n      add\n        /* \"#utility.yul\":3452:3514   */\n      mstore\n      shl(0xd0, 0x616c616e6365)\n        /* \"#utility.yul\":3530:3548   */\n      0x64\n      dup3\n      add\n        /* \"#utility.yul\":3523:3559   */\n      mstore\n        /* \"#utility.yul\":3576:3595   */\n      0x84\n      add\n        /* \"ERC20_flat.sol\":12215:12287  require(fromBalance >= amount, \"ERC20: transfer amount exceeds balance\") */\n      tag_122\n        /* \"#utility.yul\":3199:3601   */\n      jump\n        /* \"ERC20_flat.sol\":12215:12287  require(fromBalance >= amount, \"ERC20: transfer amount exceeds balance\") */\n    tag_154:\n      sub(shl(0xa0, 0x01), 0x01)\n        /* \"ERC20_flat.sol\":12321:12336  _balances[from] */\n      dup1\n      dup6\n      and\n        /* \"ERC20_flat.sol\":12321:12330  _balances */\n      0x00\n        /* \"ERC20_flat.sol\":12321:12336  _balances[from] */\n      swap1\n      dup2\n      mstore\n      0x20\n      dup2\n      swap1\n      mstore\n      0x40\n      dup1\n      dup3\n      keccak256\n        /* \"ERC20_flat.sol\":12339:12359  fromBalance - amount */\n      dup6\n      dup6\n      sub\n        /* \"ERC20_flat.sol\":12321:12359  _balances[from] = fromBalance - amount */\n      swap1\n      sstore\n        /* \"ERC20_flat.sol\":12379:12392  _balances[to] */\n      swap2\n      dup6\n      and\n      dup2\n      mstore\n      swap1\n      dup2\n      keccak256\n        /* \"ERC20_flat.sol\":12379:12402  _balances[to] += amount */\n      dup1\n      sload\n        /* \"ERC20_flat.sol\":12353:12359  amount */\n      dup5\n      swap3\n        /* \"ERC20_flat.sol\":12321:12330  _balances */\n      swap1\n        /* \"ERC20_flat.sol\":12379:12402  _balances[to] += amount */\n      tag_157\n      swap1\n        /* \"ERC20_flat.sol\":12353:12359  amount */\n      dup5\n      swap1\n        /* \"ERC20_flat.sol\":12379:12402  _balances[to] += amount */\n      tag_107\n      jump\t// in\n    tag_157:\n      swap3\n      pop\n      pop\n      dup2\n      swap1\n      sstore\n      pop\n        /* \"ERC20_flat.sol\":12433:12435  to */\n      dup3\n      sub(shl(0xa0, 0x01), 0x01)\n        /* \"ERC20_flat.sol\":12418:12444  Transfer(from, to, amount) */\n      and\n        /* \"ERC20_flat.sol\":12427:12431  from */\n      dup5\n      sub(shl(0xa0, 0x01), 0x01)\n        /* \"ERC20_flat.sol\":12418:12444  Transfer(from, to, amount) */\n      and\n      0xddf252ad1be2c89b69c2b068fc378daa952ba7f163c4a11628f55a4df523b3ef\n        /* \"ERC20_flat.sol\":12437:12443  amount */\n      dup5\n        /* \"ERC20_flat.sol\":12418:12444  Transfer(from, to, amount) */\n      mload(0x40)\n      tag_158\n      swap2\n        /* \"#utility.yul\":5329:5354   */\n      dup2\n      mstore\n        /* \"#utility.yul\":5317:5319   */\n      0x20\n        /* \"#utility.yul\":5302:5320   */\n      add\n      swap1\n        /* \"#utility.yul\":5183:5360   */\n      jump\n        /* \"ERC20_flat.sol\":12418:12444  Transfer(from, to, amount) */\n    tag_158:\n      mload(0x40)\n      dup1\n      swap2\n      sub\n      swap1\n      log3\n        /* \"ERC20_flat.sol\":12455:12492  _afterTokenTransfer(from, to, amount) */\n      tag_144\n        /* \"ERC20_flat.sol\":16155:16276  function _beforeTokenTransfer(... */\n      jump\n        /* \"ERC20_flat.sol\":12775:13164  function _mint(address account, uint256 amount) internal virtual {... */\n    tag_112:\n      sub(shl(0xa0, 0x01), 0x01)\n        /* \"ERC20_flat.sol\":12858:12879  account != address(0) */\n      dup3\n      and\n        /* \"ERC20_flat.sol\":12850:12915  require(account != address(0), \"ERC20: mint to the zero address\") */\n      tag_162\n      jumpi\n      mload(0x40)\n      shl(0xe5, 0x461bcd)\n      dup2\n      mstore\n        /* \"#utility.yul\":5025:5027   */\n      0x20\n        /* \"ERC20_flat.sol\":12850:12915  require(account != address(0), \"ERC20: mint to the zero address\") */\n      0x04\n      dup3\n      add\n        /* \"#utility.yul\":5007:5028   */\n      mstore\n        /* \"#utility.yul\":5064:5066   */\n      0x1f\n        /* \"#utility.yul\":5044:5062   */\n      0x24\n      dup3\n      add\n        /* \"#utility.yul\":5037:5067   */\n      mstore\n        /* \"#utility.yul\":5103:5136   */\n      0x45524332303a206d696e7420746f20746865207a65726f206164647265737300\n        /* \"#utility.yul\":5083:5101   */\n      0x44\n      dup3\n      add\n        /* \"#utility.yul\":5076:5137   */\n      mstore\n        /* \"#utility.yul\":5154:5172   */\n      0x64\n      add\n        /* \"ERC20_flat.sol\":12850:12915  require(account != address(0), \"ERC20: mint to the zero address\") */\n      tag_122\n        /* \"#utility.yul\":4823:5178   */\n      jump\n        /* \"ERC20_flat.sol\":12850:12915  require(account != address(0), \"ERC20: mint to the zero address\") */\n    tag_162:\n        /* \"ERC20_flat.sol\":13002:13008  amount */\n      dup1\n        /* \"ERC20_flat.sol\":12986:12998  _totalSupply */\n      0x02\n      0x00\n        /* \"ERC20_flat.sol\":12986:13008  _totalSupply += amount */\n      dup3\n      dup3\n      sload\n      tag_166\n      swap2\n      swap1\n      tag_107\n      jump\t// in\n    tag_166:\n      swap1\n      swap2\n      sstore\n      pop\n      pop\n      sub(shl(0xa0, 0x01), 0x01)\n        /* \"ERC20_flat.sol\":13018:13036  _balances[account] */\n      dup3\n      and\n        /* \"ERC20_flat.sol\":13018:13027  _balances */\n      0x00\n        /* \"ERC20_flat.sol\":13018:13036  _balances[account] */\n      swap1\n      dup2\n      mstore\n      0x20\n      dup2\n      swap1\n      mstore\n      0x40\n      dup2\n      keccak256\n        /* \"ERC20_flat.sol\":13018:13046  _balances[account] += amount */\n      dup1\n      sload\n        /* \"ERC20_flat.sol\":13040:13046  amount */\n      dup4\n      swap3\n        /* \"ERC20_flat.sol\":13018:13027  _balances */\n      swap1\n        /* \"ERC20_flat.sol\":13018:13046  _balances[account] += amount */\n      tag_167\n      swap1\n        /* \"ERC20_flat.sol\":13040:13046  amount */\n      dup5\n      swap1\n        /* \"ERC20_flat.sol\":13018:13046  _balances[account] += amount */\n      tag_107\n      jump\t// in\n    tag_167:\n      swap1\n      swap2\n      sstore\n      pop\n      pop\n        /* \"ERC20_flat.sol\":13061:13098  Transfer(address(0), account, amount) */\n      mload(0x40)\n        /* \"#utility.yul\":5329:5354   */\n      dup2\n      dup2\n      mstore\n      sub(shl(0xa0, 0x01), 0x01)\n        /* \"ERC20_flat.sol\":13061:13098  Transfer(address(0), account, amount) */\n      dup4\n      and\n      swap1\n        /* \"ERC20_flat.sol\":13078:13079  0 */\n      0x00\n      swap1\n        /* \"ERC20_flat.sol\":13061:13098  Transfer(address(0), account, amount) */\n      0xddf252ad1be2c89b69c2b068fc378daa952ba7f163c4a11628f55a4df523b3ef\n      swap1\n        /* \"#utility.yul\":5317:5319   */\n      0x20\n        /* \"#utility.yul\":5302:5320   */\n      add\n        /* \"ERC20_flat.sol\":13061:13098  Transfer(address(0), account, amount) */\n      mload(0x40)\n      dup1\n      swap2\n      sub\n      swap1\n      log3\n        /* \"ERC20_flat.sol\":12775:13164  function _mint(address account, uint256 amount) internal virtual {... */\n      pop\n      pop\n      jump\t// out\n        /* \"#utility.yul\":14:187   */\n    tag_173:\n        /* \"#utility.yul\":82:102   */\n      dup1\n      calldataload\n      sub(shl(0xa0, 0x01), 0x01)\n        /* \"#utility.yul\":131:162   */\n      dup2\n      and\n        /* \"#utility.yul\":121:163   */\n      dup2\n      eq\n        /* \"#utility.yul\":111:181   */\n      tag_175\n      jumpi\n        /* \"#utility.yul\":177:178   */\n      0x00\n        /* \"#utility.yul\":174:175   */\n      dup1\n        /* \"#utility.yul\":167:179   */\n      revert\n        /* \"#utility.yul\":111:181   */\n    tag_175:\n        /* \"#utility.yul\":14:187   */\n      swap2\n      swap1\n      pop\n      jump\t// out\n        /* \"#utility.yul\":192:378   */\n    tag_57:\n        /* \"#utility.yul\":251:257   */\n      0x00\n        /* \"#utility.yul\":304:306   */\n      0x20\n        /* \"#utility.yul\":292:301   */\n      dup3\n        /* \"#utility.yul\":283:290   */\n      dup5\n        /* \"#utility.yul\":279:302   */\n      sub\n        /* \"#utility.yul\":275:307   */\n      slt\n        /* \"#utility.yul\":272:324   */\n      iszero\n      tag_177\n      jumpi\n        /* \"#utility.yul\":320:321   */\n      0x00\n        /* \"#utility.yul\":317:318   */\n      dup1\n        /* \"#utility.yul\":310:322   */\n      revert\n        /* \"#utility.yul\":272:324   */\n    tag_177:\n        /* \"#utility.yul\":343:372   */\n      tag_178\n        /* \"#utility.yul\":362:371   */\n      dup3\n        /* \"#utility.yul\":343:372   */\n      tag_173\n      jump\t// in\n    tag_178:\n        /* \"#utility.yul\":333:372   */\n      swap4\n        /* \"#utility.yul\":192:378   */\n      swap3\n      pop\n      pop\n      pop\n      jump\t// out\n        /* \"#utility.yul\":383:643   */\n    tag_80:\n        /* \"#utility.yul\":451:457   */\n      0x00\n        /* \"#utility.yul\":459:465   */\n      dup1\n        /* \"#utility.yul\":512:514   */\n      0x40\n        /* \"#utility.yul\":500:509   */\n      dup4\n        /* \"#utility.yul\":491:498   */\n      dup6\n        /* \"#utility.yul\":487:510   */\n      sub\n        /* \"#utility.yul\":483:515   */\n      slt\n        /* \"#utility.yul\":480:532   */\n      iszero\n      tag_180\n      jumpi\n        /* \"#utility.yul\":528:529   */\n      0x00\n        /* \"#utility.yul\":525:526   */\n      dup1\n        /* \"#utility.yul\":518:530   */\n      revert\n        /* \"#utility.yul\":480:532   */\n    tag_180:\n        /* \"#utility.yul\":551:580   */\n      tag_181\n        /* \"#utility.yul\":570:579   */\n      dup4\n        /* \"#utility.yul\":551:580   */\n      tag_173\n      jump\t// in\n    tag_181:\n        /* \"#utility.yul\":541:580   */\n      swap2\n      pop\n        /* \"#utility.yul\":599:637   */\n      tag_182\n        /* \"#utility.yul\":633:635   */\n      0x20\n        /* \"#utility.yul\":622:631   */\n      dup5\n        /* \"#utility.yul\":618:636   */\n      add\n        /* \"#utility.yul\":599:637   */\n      tag_173\n      jump\t// in\n    tag_182:\n        /* \"#utility.yul\":589:637   */\n      swap1\n      pop\n        /* \"#utility.yul\":383:643   */\n      swap3\n      pop\n      swap3\n      swap1\n      pop\n      jump\t// out\n        /* \"#utility.yul\":648:976   */\n    tag_41:\n        /* \"#utility.yul\":725:731   */\n      0x00\n        /* \"#utility.yul\":733:739   */\n      dup1\n        /* \"#utility.yul\":741:747   */\n      0x00\n        /* \"#utility.yul\":794:796   */\n      0x60\n        /* \"#utility.yul\":782:791   */\n      dup5\n        /* \"#utility.yul\":773:780   */\n      dup7\n        /* \"#utility.yul\":769:792   */\n      sub\n        /* \"#utility.yul\":765:797   */\n      slt\n        /* \"#utility.yul\":762:814   */\n      iszero\n      tag_184\n      jumpi\n        /* \"#utility.yul\":810:811   */\n      0x00\n        /* \"#utility.yul\":807:808   */\n      dup1\n        /* \"#utility.yul\":800:812   */\n      revert\n        /* \"#utility.yul\":762:814   */\n    tag_184:\n        /* \"#utility.yul\":833:862   */\n      tag_185\n        /* \"#utility.yul\":852:861   */\n      dup5\n        /* \"#utility.yul\":833:862   */\n      tag_173\n      jump\t// in\n    tag_185:\n        /* \"#utility.yul\":823:862   */\n      swap3\n      pop\n        /* \"#utility.yul\":881:919   */\n      tag_186\n        /* \"#utility.yul\":915:917   */\n      0x20\n        /* \"#utility.yul\":904:913   */\n      dup6\n        /* \"#utility.yul\":900:918   */\n      add\n        /* \"#utility.yul\":881:919   */\n      tag_173\n      jump\t// in\n    tag_186:\n        /* \"#utility.yul\":871:919   */\n      swap2\n      pop\n        /* \"#utility.yul\":966:968   */\n      0x40\n        /* \"#utility.yul\":955:964   */\n      dup5\n        /* \"#utility.yul\":951:969   */\n      add\n        /* \"#utility.yul\":938:970   */\n      calldataload\n        /* \"#utility.yul\":928:970   */\n      swap1\n      pop\n        /* \"#utility.yul\":648:976   */\n      swap3\n      pop\n      swap3\n      pop\n      swap3\n      jump\t// out\n        /* \"#utility.yul\":981:1235   */\n    tag_25:\n        /* \"#utility.yul\":1049:1055   */\n      0x00\n        /* \"#utility.yul\":1057:1063   */\n      dup1\n        /* \"#utility.yul\":1110:1112   */\n      0x40\n        /* \"#utility.yul\":1098:1107   */\n      dup4\n        /* \"#utility.yul\":1089:1096   */\n      dup6\n        /* \"#utility.yul\":1085:1108   */\n      sub\n        /* \"#utility.yul\":1081:1113   */\n      slt\n        /* \"#utility.yul\":1078:1130   */\n      iszero\n      tag_188\n      jumpi\n        /* \"#utility.yul\":1126:1127   */\n      0x00\n        /* \"#utility.yul\":1123:1124   */\n      dup1\n        /* \"#utility.yul\":1116:1128   */\n      revert\n        /* \"#utility.yul\":1078:1130   */\n    tag_188:\n        /* \"#utility.yul\":1149:1178   */\n      tag_189\n        /* \"#utility.yul\":1168:1177   */\n      dup4\n        /* \"#utility.yul\":1149:1178   */\n      tag_173\n      jump\t// in\n    tag_189:\n        /* \"#utility.yul\":1139:1178   */\n      swap5\n        /* \"#utility.yul\":1225:1227   */\n      0x20\n        /* \"#utility.yul\":1210:1228   */\n      swap4\n      swap1\n      swap4\n      add\n        /* \"#utility.yul\":1197:1229   */\n      calldataload\n      swap4\n      pop\n      pop\n      pop\n        /* \"#utility.yul\":981:1235   */\n      jump\t// out\n        /* \"#utility.yul\":1432:2029   */\n    tag_21:\n        /* \"#utility.yul\":1544:1548   */\n      0x00\n        /* \"#utility.yul\":1573:1575   */\n      0x20\n        /* \"#utility.yul\":1602:1604   */\n      dup1\n        /* \"#utility.yul\":1591:1600   */\n      dup4\n        /* \"#utility.yul\":1584:1605   */\n      mstore\n        /* \"#utility.yul\":1634:1640   */\n      dup4\n        /* \"#utility.yul\":1628:1641   */\n      mload\n        /* \"#utility.yul\":1677:1683   */\n      dup1\n        /* \"#utility.yul\":1672:1674   */\n      dup3\n        /* \"#utility.yul\":1661:1670   */\n      dup6\n        /* \"#utility.yul\":1657:1675   */\n      add\n        /* \"#utility.yul\":1650:1684   */\n      mstore\n        /* \"#utility.yul\":1702:1703   */\n      0x00\n        /* \"#utility.yul\":1712:1852   */\n    tag_192:\n        /* \"#utility.yul\":1726:1732   */\n      dup2\n        /* \"#utility.yul\":1723:1724   */\n      dup2\n        /* \"#utility.yul\":1720:1733   */\n      lt\n        /* \"#utility.yul\":1712:1852   */\n      iszero\n      tag_194\n      jumpi\n        /* \"#utility.yul\":1821:1835   */\n      dup6\n      dup2\n      add\n        /* \"#utility.yul\":1817:1840   */\n      dup4\n      add\n        /* \"#utility.yul\":1811:1841   */\n      mload\n        /* \"#utility.yul\":1787:1804   */\n      dup6\n      dup3\n      add\n        /* \"#utility.yul\":1806:1808   */\n      0x40\n        /* \"#utility.yul\":1783:1809   */\n      add\n        /* \"#utility.yul\":1776:1842   */\n      mstore\n        /* \"#utility.yul\":1741:1751   */\n      dup3\n      add\n        /* \"#utility.yul\":1712:1852   */\n      jump(tag_192)\n    tag_194:\n        /* \"#utility.yul\":1870:1876   */\n      dup2\n        /* \"#utility.yul\":1867:1868   */\n      dup2\n        /* \"#utility.yul\":1864:1877   */\n      gt\n        /* \"#utility.yul\":1861:1952   */\n      iszero\n      tag_195\n      jumpi\n        /* \"#utility.yul\":1940:1941   */\n      0x00\n        /* \"#utility.yul\":1935:1937   */\n      0x40\n        /* \"#utility.yul\":1926:1932   */\n      dup4\n        /* \"#utility.yul\":1915:1924   */\n      dup8\n        /* \"#utility.yul\":1911:1933   */\n      add\n        /* \"#utility.yul\":1907:1938   */\n      add\n        /* \"#utility.yul\":1900:1942   */\n      mstore\n        /* \"#utility.yul\":1861:1952   */\n    tag_195:\n      pop\n        /* \"#utility.yul\":2013:2015   */\n      0x1f\n        /* \"#utility.yul\":1992:2007   */\n      add\n      not(0x1f)\n        /* \"#utility.yul\":1988:2017   */\n      and\n        /* \"#utility.yul\":1973:2018   */\n      swap3\n      swap1\n      swap3\n      add\n        /* \"#utility.yul\":2020:2022   */\n      0x40\n        /* \"#utility.yul\":1969:2023   */\n      add\n      swap4\n        /* \"#utility.yul\":1432:2029   */\n      swap3\n      pop\n      pop\n      pop\n      jump\t// out\n        /* \"#utility.yul\":5554:5779   */\n    tag_107:\n        /* \"#utility.yul\":5594:5597   */\n      0x00\n        /* \"#utility.yul\":5625:5626   */\n      dup3\n        /* \"#utility.yul\":5621:5627   */\n      not\n        /* \"#utility.yul\":5618:5619   */\n      dup3\n        /* \"#utility.yul\":5615:5628   */\n      gt\n        /* \"#utility.yul\":5612:5748   */\n      iszero\n      tag_207\n      jumpi\n        /* \"#utility.yul\":5670:5680   */\n      0x4e487b71\n        /* \"#utility.yul\":5665:5668   */\n      0xe0\n        /* \"#utility.yul\":5661:5681   */\n      shl\n        /* \"#utility.yul\":5658:5659   */\n      0x00\n        /* \"#utility.yul\":5651:5682   */\n      mstore\n        /* \"#utility.yul\":5705:5709   */\n      0x11\n        /* \"#utility.yul\":5702:5703   */\n      0x04\n        /* \"#utility.yul\":5695:5710   */\n      mstore\n        /* \"#utility.yul\":5733:5737   */\n      0x24\n        /* \"#utility.yul\":5730:5731   */\n      0x00\n        /* \"#utility.yul\":5723:5738   */\n      revert\n        /* \"#utility.yul\":5612:5748   */\n    tag_207:\n      pop\n        /* \"#utility.yul\":5764:5773   */\n      add\n      swap1\n        /* \"#utility.yul\":5554:5779   */\n      jump\t// out\n        /* \"#utility.yul\":5784:6164   */\n    tag_85:\n        /* \"#utility.yul\":5863:5864   */\n      0x01\n        /* \"#utility.yul\":5859:5871   */\n      dup2\n      dup2\n      shr\n      swap1\n        /* \"#utility.yul\":5906:5918   */\n      dup3\n      and\n      dup1\n        /* \"#utility.yul\":5927:5988   */\n      tag_209\n      jumpi\n        /* \"#utility.yul\":5981:5985   */\n      0x7f\n        /* \"#utility.yul\":5973:5979   */\n      dup3\n        /* \"#utility.yul\":5969:5986   */\n      and\n        /* \"#utility.yul\":5959:5986   */\n      swap2\n      pop\n        /* \"#utility.yul\":5927:5988   */\n    tag_209:\n        /* \"#utility.yul\":6034:6036   */\n      0x20\n        /* \"#utility.yul\":6026:6032   */\n      dup3\n        /* \"#utility.yul\":6023:6037   */\n      lt\n        /* \"#utility.yul\":6003:6021   */\n      dup2\n        /* \"#utility.yul\":6000:6038   */\n      eq\n        /* \"#utility.yul\":5997:6158   */\n      iszero\n      tag_210\n      jumpi\n        /* \"#utility.yul\":6080:6090   */\n      0x4e487b71\n        /* \"#utility.yul\":6075:6078   */\n      0xe0\n        /* \"#utility.yul\":6071:6091   */\n      shl\n        /* \"#utility.yul\":6068:6069   */\n      0x00\n        /* \"#utility.yul\":6061:6092   */\n      mstore\n        /* \"#utility.yul\":6115:6119   */\n      0x22\n        /* \"#utility.yul\":6112:6113   */\n      0x04\n        /* \"#utility.yul\":6105:6120   */\n      mstore\n        /* \"#utility.yul\":6143:6147   */\n      0x24\n        /* \"#utility.yul\":6140:6141   */\n      0x00\n        /* \"#utility.yul\":6133:6148   */\n      revert\n        /* \"#utility.yul\":5997:6158   */\n    tag_210:\n      pop\n        /* \"#utility.yul\":5784:6164   */\n      swap2\n      swap1\n      pop\n      jump\t// out\n\n    auxdata: 0xa2646970667358221220dc0b64f5c11ce8d1a7c535a7f9b271fa788db8d43eec5f682b34daf7d17577de64736f6c63430008070033\n}\n",
				"bytecode": {
					"linkReferences": {},
					"object": "6080604052670de0b6b3a76400006005553480156200001d57600080fd5b5060405162000e7738038062000e778339810160408190526200004091620002db565b815182908290620000599060039060208501906200017e565b5080516200006f9060049060208401906200017e565b5050506200008e3369d3c21bcecceda10000006200009660201b60201c565b5050620003bf565b6001600160a01b038216620000f15760405162461bcd60e51b815260206004820152601f60248201527f45524332303a206d696e7420746f20746865207a65726f206164647265737300604482015260640160405180910390fd5b806002600082825462000105919062000345565b90915550506001600160a01b038216600090815260208190526040812080548392906200013490849062000345565b90915550506040518181526001600160a01b038316906000907fddf252ad1be2c89b69c2b068fc378daa952ba7f163c4a11628f55a4df523b3ef9060200160405180910390a35050565b8280546200018c906200036c565b90600052602060002090601f016020900481019282620001b05760008555620001fb565b82601f10620001cb57805160ff1916838001178555620001fb565b82800160010185558215620001fb579182015b82811115620001fb578251825591602001919060010190620001de565b50620002099291506200020d565b5090565b5b808211156200020957600081556001016200020e565b600082601f8301126200023657600080fd5b81516001600160401b0380821115620002535762000253620003a9565b604051601f8301601f19908116603f011681019082821181831017156200027e576200027e620003a9565b816040528381526020925086838588010111156200029b57600080fd5b600091505b83821015620002bf5785820183015181830184015290820190620002a0565b83821115620002d15760008385830101525b9695505050505050565b60008060408385031215620002ef57600080fd5b82516001600160401b03808211156200030757600080fd5b620003158683870162000224565b935060208501519150808211156200032c57600080fd5b506200033b8582860162000224565b9150509250929050565b600082198211156200036757634e487b7160e01b600052601160045260246000fd5b500190565b600181811c908216806200038157607f821691505b60208210811415620003a357634e487b7160e01b600052602260045260246000fd5b50919050565b634e487b7160e01b600052604160045260246000fd5b610aa880620003cf6000396000f3fe6080604052600436106100c25760003560e01c8063395093511161007f57806395d89b411161005957806395d89b4114610202578063a457c2d714610217578063a9059cbb14610237578063dd62ed3e1461025757600080fd5b8063395093511461019757806370a08231146101b75780637e72fb52146101ed57600080fd5b806306fdde03146100c7578063095ea7b3146100f257806313faede61461012257806318160ddd1461014657806323b872dd1461015b578063313ce5671461017b575b600080fd5b3480156100d357600080fd5b506100dc61029d565b6040516100e991906109bc565b60405180910390f35b3480156100fe57600080fd5b5061011261010d366004610992565b61032f565b60405190151581526020016100e9565b34801561012e57600080fd5b5061013860055481565b6040519081526020016100e9565b34801561015257600080fd5b50600254610138565b34801561016757600080fd5b50610112610176366004610956565b610347565b34801561018757600080fd5b50604051601281526020016100e9565b3480156101a357600080fd5b506101126101b2366004610992565b61036b565b3480156101c357600080fd5b506101386101d2366004610901565b6001600160a01b031660009081526020819052604090205490565b6102006101fb366004610901565b6103aa565b005b34801561020e57600080fd5b506100dc6103ce565b34801561022357600080fd5b50610112610232366004610992565b6103dd565b34801561024357600080fd5b50610112610252366004610992565b610474565b34801561026357600080fd5b50610138610272366004610923565b6001600160a01b03918216600090815260016020908152604080832093909416825291909152205490565b6060600380546102ac90610a37565b80601f01602080910402602001604051908101604052809291908181526020018280546102d890610a37565b80156103255780601f106102fa57610100808354040283529160200191610325565b820191906000526020600020905b81548152906001019060200180831161030857829003601f168201915b5050505050905090565b60003361033d818585610482565b5060019392505050565b6000336103558582856105a6565b610360858585610638565b506001949350505050565b3360008181526001602090815260408083206001600160a01b038716845290915281205490919061033d90829086906103a5908790610a11565b610482565b60055434146103b857600080fd5b6103cb81683635c9adc5dea00000610806565b50565b6060600480546102ac90610a37565b3360008181526001602090815260408083206001600160a01b0387168452909152812054909190838110156104675760405162461bcd60e51b815260206004820152602560248201527f45524332303a2064656372656173656420616c6c6f77616e63652062656c6f77604482015264207a65726f60d81b60648201526084015b60405180910390fd5b6103608286868403610482565b60003361033d818585610638565b6001600160a01b0383166104e45760405162461bcd60e51b8152602060048201526024808201527f45524332303a20617070726f76652066726f6d20746865207a65726f206164646044820152637265737360e01b606482015260840161045e565b6001600160a01b0382166105455760405162461bcd60e51b815260206004820152602260248201527f45524332303a20617070726f766520746f20746865207a65726f206164647265604482015261737360f01b606482015260840161045e565b6001600160a01b0383811660008181526001602090815260408083209487168084529482529182902085905590518481527f8c5be1e5ebec7d5bd14f71427d1e84f3dd0314c0f7b2291e5b200ac8c7c3b925910160405180910390a3505050565b6001600160a01b03838116600090815260016020908152604080832093861683529290522054600019811461063257818110156106255760405162461bcd60e51b815260206004820152601d60248201527f45524332303a20696e73756666696369656e7420616c6c6f77616e6365000000604482015260640161045e565b6106328484848403610482565b50505050565b6001600160a01b03831661069c5760405162461bcd60e51b815260206004820152602560248201527f45524332303a207472616e736665722066726f6d20746865207a65726f206164604482015264647265737360d81b606482015260840161045e565b6001600160a01b0382166106fe5760405162461bcd60e51b815260206004820152602360248201527f45524332303a207472616e7366657220746f20746865207a65726f206164647260448201526265737360e81b606482015260840161045e565b6001600160a01b038316600090815260208190526040902054818110156107765760405162461bcd60e51b815260206004820152602660248201527f45524332303a207472616e7366657220616d6f756e7420657863656564732062604482015265616c616e636560d01b606482015260840161045e565b6001600160a01b038085166000908152602081905260408082208585039055918516815290812080548492906107ad908490610a11565b92505081905550826001600160a01b0316846001600160a01b03167fddf252ad1be2c89b69c2b068fc378daa952ba7f163c4a11628f55a4df523b3ef846040516107f991815260200190565b60405180910390a3610632565b6001600160a01b03821661085c5760405162461bcd60e51b815260206004820152601f60248201527f45524332303a206d696e7420746f20746865207a65726f206164647265737300604482015260640161045e565b806002600082825461086e9190610a11565b90915550506001600160a01b0382166000908152602081905260408120805483929061089b908490610a11565b90915550506040518181526001600160a01b038316906000907fddf252ad1be2c89b69c2b068fc378daa952ba7f163c4a11628f55a4df523b3ef9060200160405180910390a35050565b80356001600160a01b03811681146108fc57600080fd5b919050565b60006020828403121561091357600080fd5b61091c826108e5565b9392505050565b6000806040838503121561093657600080fd5b61093f836108e5565b915061094d602084016108e5565b90509250929050565b60008060006060848603121561096b57600080fd5b610974846108e5565b9250610982602085016108e5565b9150604084013590509250925092565b600080604083850312156109a557600080fd5b6109ae836108e5565b946020939093013593505050565b600060208083528351808285015260005b818110156109e9578581018301518582016040015282016109cd565b818111156109fb576000604083870101525b50601f01601f1916929092016040019392505050565b60008219821115610a3257634e487b7160e01b600052601160045260246000fd5b500190565b600181811c90821680610a4b57607f821691505b60208210811415610a6c57634e487b7160e01b600052602260045260246000fd5b5091905056fea2646970667358221220dc0b64f5c11ce8d1a7c535a7f9b271fa788db8d43eec5f682b34daf7d17577de64736f6c63430008070033",
					"opcodes": "PUSH1 0x80 PUSH1 0x40 MSTORE PUSH8 0xDE0B6B3A7640000 PUSH1 0x5 SSTORE CALLVALUE DUP1 ISZERO PUSH3 0x1D JUMPI PUSH1 0x0 DUP1 REVERT JUMPDEST POP PUSH1 0x40 MLOAD PUSH3 0xE77 CODESIZE SUB DUP1 PUSH3 0xE77 DUP4 CODECOPY DUP2 ADD PUSH1 0x40 DUP2 SWAP1 MSTORE PUSH3 0x40 SWAP2 PUSH3 0x2DB JUMP JUMPDEST DUP2 MLOAD DUP3 SWAP1 DUP3 SWAP1 PUSH3 0x59 SWAP1 PUSH1 0x3 SWAP1 PUSH1 0x20 DUP6 ADD SWAP1 PUSH3 0x17E JUMP JUMPDEST POP DUP1 MLOAD PUSH3 0x6F SWAP1 PUSH1 0x4 SWAP1 PUSH1 0x20 DUP5 ADD SWAP1 PUSH3 0x17E JUMP JUMPDEST POP POP POP PUSH3 0x8E CALLER PUSH10 0xD3C21BCECCEDA1000000 PUSH3 0x96 PUSH1 0x20 SHL PUSH1 0x20 SHR JUMP JUMPDEST POP POP PUSH3 0x3BF JUMP JUMPDEST PUSH1 0x1 PUSH1 0x1 PUSH1 0xA0 SHL SUB DUP3 AND PUSH3 0xF1 JUMPI PUSH1 0x40 MLOAD PUSH3 0x461BCD PUSH1 0xE5 SHL DUP2 MSTORE PUSH1 0x20 PUSH1 0x4 DUP3 ADD MSTORE PUSH1 0x1F PUSH1 0x24 DUP3 ADD MSTORE PUSH32 0x45524332303A206D696E7420746F20746865207A65726F206164647265737300 PUSH1 0x44 DUP3 ADD MSTORE PUSH1 0x64 ADD PUSH1 0x40 MLOAD DUP1 SWAP2 SUB SWAP1 REVERT JUMPDEST DUP1 PUSH1 0x2 PUSH1 0x0 DUP3 DUP3 SLOAD PUSH3 0x105 SWAP2 SWAP1 PUSH3 0x345 JUMP JUMPDEST SWAP1 SWAP2 SSTORE POP POP PUSH1 0x1 PUSH1 0x1 PUSH1 0xA0 SHL SUB DUP3 AND PUSH1 0x0 SWAP1 DUP2 MSTORE PUSH1 0x20 DUP2 SWAP1 MSTORE PUSH1 0x40 DUP2 KECCAK256 DUP1 SLOAD DUP4 SWAP3 SWAP1 PUSH3 0x134 SWAP1 DUP5 SWAP1 PUSH3 0x345 JUMP JUMPDEST SWAP1 SWAP2 SSTORE POP POP PUSH1 0x40 MLOAD DUP2 DUP2 MSTORE PUSH1 0x1 PUSH1 0x1 PUSH1 0xA0 SHL SUB DUP4 AND SWAP1 PUSH1 0x0 SWAP1 PUSH32 0xDDF252AD1BE2C89B69C2B068FC378DAA952BA7F163C4A11628F55A4DF523B3EF SWAP1 PUSH1 0x20 ADD PUSH1 0x40 MLOAD DUP1 SWAP2 SUB SWAP1 LOG3 POP POP JUMP JUMPDEST DUP3 DUP1 SLOAD PUSH3 0x18C SWAP1 PUSH3 0x36C JUMP JUMPDEST SWAP1 PUSH1 0x0 MSTORE PUSH1 0x20 PUSH1 0x0 KECCAK256 SWAP1 PUSH1 0x1F ADD PUSH1 0x20 SWAP1 DIV DUP2 ADD SWAP3 DUP3 PUSH3 0x1B0 JUMPI PUSH1 0x0 DUP6 SSTORE PUSH3 0x1FB JUMP JUMPDEST DUP3 PUSH1 0x1F LT PUSH3 0x1CB JUMPI DUP1 MLOAD PUSH1 0xFF NOT AND DUP4 DUP1 ADD OR DUP6 SSTORE PUSH3 0x1FB JUMP JUMPDEST DUP3 DUP1 ADD PUSH1 0x1 ADD DUP6 SSTORE DUP3 ISZERO PUSH3 0x1FB JUMPI SWAP2 DUP3 ADD JUMPDEST DUP3 DUP2 GT ISZERO PUSH3 0x1FB JUMPI DUP3 MLOAD DUP3 SSTORE SWAP2 PUSH1 0x20 ADD SWAP2 SWAP1 PUSH1 0x1 ADD SWAP1 PUSH3 0x1DE JUMP JUMPDEST POP PUSH3 0x209 SWAP3 SWAP2 POP PUSH3 0x20D JUMP JUMPDEST POP SWAP1 JUMP JUMPDEST JUMPDEST DUP1 DUP3 GT ISZERO PUSH3 0x209 JUMPI PUSH1 0x0 DUP2 SSTORE PUSH1 0x1 ADD PUSH3 0x20E JUMP JUMPDEST PUSH1 0x0 DUP3 PUSH1 0x1F DUP4 ADD SLT PUSH3 0x236 JUMPI PUSH1 0x0 DUP1 REVERT JUMPDEST DUP2 MLOAD PUSH1 0x1 PUSH1 0x1 PUSH1 0x40 SHL SUB DUP1 DUP3 GT ISZERO PUSH3 0x253 JUMPI PUSH3 0x253 PUSH3 0x3A9 JUMP JUMPDEST PUSH1 0x40 MLOAD PUSH1 0x1F DUP4 ADD PUSH1 0x1F NOT SWAP1 DUP2 AND PUSH1 0x3F ADD AND DUP2 ADD SWAP1 DUP3 DUP3 GT DUP2 DUP4 LT OR ISZERO PUSH3 0x27E JUMPI PUSH3 0x27E PUSH3 0x3A9 JUMP JUMPDEST DUP2 PUSH1 0x40 MSTORE DUP4 DUP2 MSTORE PUSH1 0x20 SWAP3 POP DUP7 DUP4 DUP6 DUP9 ADD ADD GT ISZERO PUSH3 0x29B JUMPI PUSH1 0x0 DUP1 REVERT JUMPDEST PUSH1 0x0 SWAP2 POP JUMPDEST DUP4 DUP3 LT ISZERO PUSH3 0x2BF JUMPI DUP6 DUP3 ADD DUP4 ADD MLOAD DUP2 DUP4 ADD DUP5 ADD MSTORE SWAP1 DUP3 ADD SWAP1 PUSH3 0x2A0 JUMP JUMPDEST DUP4 DUP3 GT ISZERO PUSH3 0x2D1 JUMPI PUSH1 0x0 DUP4 DUP6 DUP4 ADD ADD MSTORE JUMPDEST SWAP7 SWAP6 POP POP POP POP POP POP JUMP JUMPDEST PUSH1 0x0 DUP1 PUSH1 0x40 DUP4 DUP6 SUB SLT ISZERO PUSH3 0x2EF JUMPI PUSH1 0x0 DUP1 REVERT JUMPDEST DUP3 MLOAD PUSH1 0x1 PUSH1 0x1 PUSH1 0x40 SHL SUB DUP1 DUP3 GT ISZERO PUSH3 0x307 JUMPI PUSH1 0x0 DUP1 REVERT JUMPDEST PUSH3 0x315 DUP7 DUP4 DUP8 ADD PUSH3 0x224 JUMP JUMPDEST SWAP4 POP PUSH1 0x20 DUP6 ADD MLOAD SWAP2 POP DUP1 DUP3 GT ISZERO PUSH3 0x32C JUMPI PUSH1 0x0 DUP1 REVERT JUMPDEST POP PUSH3 0x33B DUP6 DUP3 DUP7 ADD PUSH3 0x224 JUMP JUMPDEST SWAP2 POP POP SWAP3 POP SWAP3 SWAP1 POP JUMP JUMPDEST PUSH1 0x0 DUP3 NOT DUP3 GT ISZERO PUSH3 0x367 JUMPI PUSH4 0x4E487B71 PUSH1 0xE0 SHL PUSH1 0x0 MSTORE PUSH1 0x11 PUSH1 0x4 MSTORE PUSH1 0x24 PUSH1 0x0 REVERT JUMPDEST POP ADD SWAP1 JUMP JUMPDEST PUSH1 0x1 DUP2 DUP2 SHR SWAP1 DUP3 AND DUP1 PUSH3 0x381 JUMPI PUSH1 0x7F DUP3 AND SWAP2 POP JUMPDEST PUSH1 0x20 DUP3 LT DUP2 EQ ISZERO PUSH3 0x3A3 JUMPI PUSH4 0x4E487B71 PUSH1 0xE0 SHL PUSH1 0x0 MSTORE PUSH1 0x22 PUSH1 0x4 MSTORE PUSH1 0x24 PUSH1 0x0 REVERT JUMPDEST POP SWAP2 SWAP1 POP JUMP JUMPDEST PUSH4 0x4E487B71 PUSH1 0xE0 SHL PUSH1 0x0 MSTORE PUSH1 0x41 PUSH1 0x4 MSTORE PUSH1 0x24 PUSH1 0x0 REVERT JUMPDEST PUSH2 0xAA8 DUP1 PUSH3 0x3CF PUSH1 0x0 CODECOPY PUSH1 0x0 RETURN INVALID PUSH1 0x80 PUSH1 0x40 MSTORE PUSH1 0x4 CALLDATASIZE LT PUSH2 0xC2 JUMPI PUSH1 0x0 CALLDATALOAD PUSH1 0xE0 SHR DUP1 PUSH4 0x39509351 GT PUSH2 0x7F JUMPI DUP1 PUSH4 0x95D89B41 GT PUSH2 0x59 JUMPI DUP1 PUSH4 0x95D89B41 EQ PUSH2 0x202 JUMPI DUP1 PUSH4 0xA457C2D7 EQ PUSH2 0x217 JUMPI DUP1 PUSH4 0xA9059CBB EQ PUSH2 0x237 JUMPI DUP1 PUSH4 0xDD62ED3E EQ PUSH2 0x257 JUMPI PUSH1 0x0 DUP1 REVERT JUMPDEST DUP1 PUSH4 0x39509351 EQ PUSH2 0x197 JUMPI DUP1 PUSH4 0x70A08231 EQ PUSH2 0x1B7 JUMPI DUP1 PUSH4 0x7E72FB52 EQ PUSH2 0x1ED JUMPI PUSH1 0x0 DUP1 REVERT JUMPDEST DUP1 PUSH4 0x6FDDE03 EQ PUSH2 0xC7 JUMPI DUP1 PUSH4 0x95EA7B3 EQ PUSH2 0xF2 JUMPI DUP1 PUSH4 0x13FAEDE6 EQ PUSH2 0x122 JUMPI DUP1 PUSH4 0x18160DDD EQ PUSH2 0x146 JUMPI DUP1 PUSH4 0x23B872DD EQ PUSH2 0x15B JUMPI DUP1 PUSH4 0x313CE567 EQ PUSH2 0x17B JUMPI JUMPDEST PUSH1 0x0 DUP1 REVERT JUMPDEST CALLVALUE DUP1 ISZERO PUSH2 0xD3 JUMPI PUSH1 0x0 DUP1 REVERT JUMPDEST POP PUSH2 0xDC PUSH2 0x29D JUMP JUMPDEST PUSH1 0x40 MLOAD PUSH2 0xE9 SWAP2 SWAP1 PUSH2 0x9BC JUMP JUMPDEST PUSH1 0x40 MLOAD DUP1 SWAP2 SUB SWAP1 RETURN JUMPDEST CALLVALUE DUP1 ISZERO PUSH2 0xFE JUMPI PUSH1 0x0 DUP1 REVERT JUMPDEST POP PUSH2 0x112 PUSH2 0x10D CALLDATASIZE PUSH1 0x4 PUSH2 0x992 JUMP JUMPDEST PUSH2 0x32F JUMP JUMPDEST PUSH1 0x40 MLOAD SWAP1 ISZERO ISZERO DUP2 MSTORE PUSH1 0x20 ADD PUSH2 0xE9 JUMP JUMPDEST CALLVALUE DUP1 ISZERO PUSH2 0x12E JUMPI PUSH1 0x0 DUP1 REVERT JUMPDEST POP PUSH2 0x138 PUSH1 0x5 SLOAD DUP2 JUMP JUMPDEST PUSH1 0x40 MLOAD SWAP1 DUP2 MSTORE PUSH1 0x20 ADD PUSH2 0xE9 JUMP JUMPDEST CALLVALUE DUP1 ISZERO PUSH2 0x152 JUMPI PUSH1 0x0 DUP1 REVERT JUMPDEST POP PUSH1 0x2 SLOAD PUSH2 0x138 JUMP JUMPDEST CALLVALUE DUP1 ISZERO PUSH2 0x167 JUMPI PUSH1 0x0 DUP1 REVERT JUMPDEST POP PUSH2 0x112 PUSH2 0x176 CALLDATASIZE PUSH1 0x4 PUSH2 0x956 JUMP JUMPDEST PUSH2 0x347 JUMP JUMPDEST CALLVALUE DUP1 ISZERO PUSH2 0x187 JUMPI PUSH1 0x0 DUP1 REVERT JUMPDEST POP PUSH1 0x40 MLOAD PUSH1 0x12 DUP2 MSTORE PUSH1 0x20 ADD PUSH2 0xE9 JUMP JUMPDEST CALLVALUE DUP1 ISZERO PUSH2 0x1A3 JUMPI PUSH1 0x0 DUP1 REVERT JUMPDEST POP PUSH2 0x112 PUSH2 0x1B2 CALLDATASIZE PUSH1 0x4 PUSH2 0x992 JUMP JUMPDEST PUSH2 0x36B JUMP JUMPDEST CALLVALUE DUP1 ISZERO PUSH2 0x1C3 JUMPI PUSH1 0x0 DUP1 REVERT JUMPDEST POP PUSH2 0x138 PUSH2 0x1D2 CALLDATASIZE PUSH1 0x4 PUSH2 0x901 JUMP JUMPDEST PUSH1 0x1 PUSH1 0x1 PUSH1 0xA0 SHL SUB AND PUSH1 0x0 SWAP1 DUP2 MSTORE PUSH1 0x20 DUP2 SWAP1 MSTORE PUSH1 0x40 SWAP1 KECCAK256 SLOAD SWAP1 JUMP JUMPDEST PUSH2 0x200 PUSH2 0x1FB CALLDATASIZE PUSH1 0x4 PUSH2 0x901 JUMP JUMPDEST PUSH2 0x3AA JUMP JUMPDEST STOP JUMPDEST CALLVALUE DUP1 ISZERO PUSH2 0x20E JUMPI PUSH1 0x0 DUP1 REVERT JUMPDEST POP PUSH2 0xDC PUSH2 0x3CE JUMP JUMPDEST CALLVALUE DUP1 ISZERO PUSH2 0x223 JUMPI PUSH1 0x0 DUP1 REVERT JUMPDEST POP PUSH2 0x112 PUSH2 0x232 CALLDATASIZE PUSH1 0x4 PUSH2 0x992 JUMP JUMPDEST PUSH2 0x3DD JUMP JUMPDEST CALLVALUE DUP1 ISZERO PUSH2 0x243 JUMPI PUSH1 0x0 DUP1 REVERT JUMPDEST POP PUSH2 0x112 PUSH2 0x252 CALLDATASIZE PUSH1 0x4 PUSH2 0x992 JUMP JUMPDEST PUSH2 0x474 JUMP JUMPDEST CALLVALUE DUP1 ISZERO PUSH2 0x263 JUMPI PUSH1 0x0 DUP1 REVERT JUMPDEST POP PUSH2 0x138 PUSH2 0x272 CALLDATASIZE PUSH1 0x4 PUSH2 0x923 JUMP JUMPDEST PUSH1 0x1 PUSH1 0x1 PUSH1 0xA0 SHL SUB SWAP2 DUP3 AND PUSH1 0x0 SWAP1 DUP2 MSTORE PUSH1 0x1 PUSH1 0x20 SWAP1 DUP2 MSTORE PUSH1 0x40 DUP1 DUP4 KECCAK256 SWAP4 SWAP1 SWAP5 AND DUP3 MSTORE SWAP2 SWAP1 SWAP2 MSTORE KECCAK256 SLOAD SWAP1 JUMP JUMPDEST PUSH1 0x60 PUSH1 0x3 DUP1 SLOAD PUSH2 0x2AC SWAP1 PUSH2 0xA37 JUMP JUMPDEST DUP1 PUSH1 0x1F ADD PUSH1 0x20 DUP1 SWAP2 DIV MUL PUSH1 0x20 ADD PUSH1 0x40 MLOAD SWAP1 DUP2 ADD PUSH1 0x40 MSTORE DUP1 SWAP3 SWAP2 SWAP1 DUP2 DUP2 MSTORE PUSH1 0x20 ADD DUP3 DUP1 SLOAD PUSH2 0x2D8 SWAP1 PUSH2 0xA37 JUMP JUMPDEST DUP1 ISZERO PUSH2 0x325 JUMPI DUP1 PUSH1 0x1F LT PUSH2 0x2FA JUMPI PUSH2 0x100 DUP1 DUP4 SLOAD DIV MUL DUP4 MSTORE SWAP2 PUSH1 0x20 ADD SWAP2 PUSH2 0x325 JUMP JUMPDEST DUP3 ADD SWAP2 SWAP1 PUSH1 0x0 MSTORE PUSH1 0x20 PUSH1 0x0 KECCAK256 SWAP1 JUMPDEST DUP2 SLOAD DUP2 MSTORE SWAP1 PUSH1 0x1 ADD SWAP1 PUSH1 0x20 ADD DUP1 DUP4 GT PUSH2 0x308 JUMPI DUP3 SWAP1 SUB PUSH1 0x1F AND DUP3 ADD SWAP2 JUMPDEST POP POP POP POP POP SWAP1 POP SWAP1 JUMP JUMPDEST PUSH1 0x0 CALLER PUSH2 0x33D DUP2 DUP6 DUP6 PUSH2 0x482 JUMP JUMPDEST POP PUSH1 0x1 SWAP4 SWAP3 POP POP POP JUMP JUMPDEST PUSH1 0x0 CALLER PUSH2 0x355 DUP6 DUP3 DUP6 PUSH2 0x5A6 JUMP JUMPDEST PUSH2 0x360 DUP6 DUP6 DUP6 PUSH2 0x638 JUMP JUMPDEST POP PUSH1 0x1 SWAP5 SWAP4 POP POP POP POP JUMP JUMPDEST CALLER PUSH1 0x0 DUP2 DUP2 MSTORE PUSH1 0x1 PUSH1 0x20 SWAP1 DUP2 MSTORE PUSH1 0x40 DUP1 DUP4 KECCAK256 PUSH1 0x1 PUSH1 0x1 PUSH1 0xA0 SHL SUB DUP8 AND DUP5 MSTORE SWAP1 SWAP2 MSTORE DUP2 KECCAK256 SLOAD SWAP1 SWAP2 SWAP1 PUSH2 0x33D SWAP1 DUP3 SWAP1 DUP7 SWAP1 PUSH2 0x3A5 SWAP1 DUP8 SWAP1 PUSH2 0xA11 JUMP JUMPDEST PUSH2 0x482 JUMP JUMPDEST PUSH1 0x5 SLOAD CALLVALUE EQ PUSH2 0x3B8 JUMPI PUSH1 0x0 DUP1 REVERT JUMPDEST PUSH2 0x3CB DUP2 PUSH9 0x3635C9ADC5DEA00000 PUSH2 0x806 JUMP JUMPDEST POP JUMP JUMPDEST PUSH1 0x60 PUSH1 0x4 DUP1 SLOAD PUSH2 0x2AC SWAP1 PUSH2 0xA37 JUMP JUMPDEST CALLER PUSH1 0x0 DUP2 DUP2 MSTORE PUSH1 0x1 PUSH1 0x20 SWAP1 DUP2 MSTORE PUSH1 0x40 DUP1 DUP4 KECCAK256 PUSH1 0x1 PUSH1 0x1 PUSH1 0xA0 SHL SUB DUP8 AND DUP5 MSTORE SWAP1 SWAP2 MSTORE DUP2 KECCAK256 SLOAD SWAP1 SWAP2 SWAP1 DUP4 DUP2 LT ISZERO PUSH2 0x467 JUMPI PUSH1 0x40 MLOAD PUSH3 0x461BCD PUSH1 0xE5 SHL DUP2 MSTORE PUSH1 0x20 PUSH1 0x4 DUP3 ADD MSTORE PUSH1 0x25 PUSH1 0x24 DUP3 ADD MSTORE PUSH32 0x45524332303A2064656372656173656420616C6C6F77616E63652062656C6F77 PUSH1 0x44 DUP3 ADD MSTORE PUSH5 0x207A65726F PUSH1 0xD8 SHL PUSH1 0x64 DUP3 ADD MSTORE PUSH1 0x84 ADD JUMPDEST PUSH1 0x40 MLOAD DUP1 SWAP2 SUB SWAP1 REVERT JUMPDEST PUSH2 0x360 DUP3 DUP7 DUP7 DUP5 SUB PUSH2 0x482 JUMP JUMPDEST PUSH1 0x0 CALLER PUSH2 0x33D DUP2 DUP6 DUP6 PUSH2 0x638 JUMP JUMPDEST PUSH1 0x1 PUSH1 0x1 PUSH1 0xA0 SHL SUB DUP4 AND PUSH2 0x4E4 JUMPI PUSH1 0x40 MLOAD PUSH3 0x461BCD PUSH1 0xE5 SHL DUP2 MSTORE PUSH1 0x20 PUSH1 0x4 DUP3 ADD MSTORE PUSH1 0x24 DUP1 DUP3 ADD MSTORE PUSH32 0x45524332303A20617070726F76652066726F6D20746865207A65726F20616464 PUSH1 0x44 DUP3 ADD MSTORE PUSH4 0x72657373 PUSH1 0xE0 SHL PUSH1 0x64 DUP3 ADD MSTORE PUSH1 0x84 ADD PUSH2 0x45E JUMP JUMPDEST PUSH1 0x1 PUSH1 0x1 PUSH1 0xA0 SHL SUB DUP3 AND PUSH2 0x545 JUMPI PUSH1 0x40 MLOAD PUSH3 0x461BCD PUSH1 0xE5 SHL DUP2 MSTORE PUSH1 0x20 PUSH1 0x4 DUP3 ADD MSTORE PUSH1 0x22 PUSH1 0x24 DUP3 ADD MSTORE PUSH32 0x45524332303A20617070726F766520746F20746865207A65726F206164647265 PUSH1 0x44 DUP3 ADD MSTORE PUSH2 0x7373 PUSH1 0xF0 SHL PUSH1 0x64 DUP3 ADD MSTORE PUSH1 0x84 ADD PUSH2 0x45E JUMP JUMPDEST PUSH1 0x1 PUSH1 0x1 PUSH1 0xA0 SHL SUB DUP4 DUP2 AND PUSH1 0x0 DUP2 DUP2 MSTORE PUSH1 0x1 PUSH1 0x20 SWAP1 DUP2 MSTORE PUSH1 0x40 DUP1 DUP4 KECCAK256 SWAP5 DUP8 AND DUP1 DUP5 MSTORE SWAP5 DUP3 MSTORE SWAP2 DUP3 SWAP1 KECCAK256 DUP6 SWAP1 SSTORE SWAP1 MLOAD DUP5 DUP2 MSTORE PUSH32 0x8C5BE1E5EBEC7D5BD14F71427D1E84F3DD0314C0F7B2291E5B200AC8C7C3B925 SWAP2 ADD PUSH1 0x40 MLOAD DUP1 SWAP2 SUB SWAP1 LOG3 POP POP POP JUMP JUMPDEST PUSH1 0x1 PUSH1 0x1 PUSH1 0xA0 SHL SUB DUP4 DUP2 AND PUSH1 0x0 SWAP1 DUP2 MSTORE PUSH1 0x1 PUSH1 0x20 SWAP1 DUP2 MSTORE PUSH1 0x40 DUP1 DUP4 KECCAK256 SWAP4 DUP7 AND DUP4 MSTORE SWAP3 SWAP1 MSTORE KECCAK256 SLOAD PUSH1 0x0 NOT DUP2 EQ PUSH2 0x632 JUMPI DUP2 DUP2 LT ISZERO PUSH2 0x625 JUMPI PUSH1 0x40 MLOAD PUSH3 0x461BCD PUSH1 0xE5 SHL DUP2 MSTORE PUSH1 0x20 PUSH1 0x4 DUP3 ADD MSTORE PUSH1 0x1D PUSH1 0x24 DUP3 ADD MSTORE PUSH32 0x45524332303A20696E73756666696369656E7420616C6C6F77616E6365000000 PUSH1 0x44 DUP3 ADD MSTORE PUSH1 0x64 ADD PUSH2 0x45E JUMP JUMPDEST PUSH2 0x632 DUP5 DUP5 DUP5 DUP5 SUB PUSH2 0x482 JUMP JUMPDEST POP POP POP POP JUMP JUMPDEST PUSH1 0x1 PUSH1 0x1 PUSH1 0xA0 SHL SUB DUP4 AND PUSH2 0x69C JUMPI PUSH1 0x40 MLOAD PUSH3 0x461BCD PUSH1 0xE5 SHL DUP2 MSTORE PUSH1 0x20 PUSH1 0x4 DUP3 ADD MSTORE PUSH1 0x25 PUSH1 0x24 DUP3 ADD MSTORE PUSH32 0x45524332303A207472616E736665722066726F6D20746865207A65726F206164 PUSH1 0x44 DUP3 ADD MSTORE PUSH5 0x6472657373 PUSH1 0xD8 SHL PUSH1 0x64 DUP3 ADD MSTORE PUSH1 0x84 ADD PUSH2 0x45E JUMP JUMPDEST PUSH1 0x1 PUSH1 0x1 PUSH1 0xA0 SHL SUB DUP3 AND PUSH2 0x6FE JUMPI PUSH1 0x40 MLOAD PUSH3 0x461BCD PUSH1 0xE5 SHL DUP2 MSTORE PUSH1 0x20 PUSH1 0x4 DUP3 ADD MSTORE PUSH1 0x23 PUSH1 0x24 DUP3 ADD MSTORE PUSH32 0x45524332303A207472616E7366657220746F20746865207A65726F2061646472 PUSH1 0x44 DUP3 ADD MSTORE PUSH3 0x657373 PUSH1 0xE8 SHL PUSH1 0x64 DUP3 ADD MSTORE PUSH1 0x84 ADD PUSH2 0x45E JUMP JUMPDEST PUSH1 0x1 PUSH1 0x1 PUSH1 0xA0 SHL SUB DUP4 AND PUSH1 0x0 SWAP1 DUP2 MSTORE PUSH1 0x20 DUP2 SWAP1 MSTORE PUSH1 0x40 SWAP1 KECCAK256 SLOAD DUP2 DUP2 LT ISZERO PUSH2 0x776 JUMPI PUSH1 0x40 MLOAD PUSH3 0x461BCD PUSH1 0xE5 SHL DUP2 MSTORE PUSH1 0x20 PUSH1 0x4 DUP3 ADD MSTORE PUSH1 0x26 PUSH1 0x24 DUP3 ADD MSTORE PUSH32 0x45524332303A207472616E7366657220616D6F756E7420657863656564732062 PUSH1 0x44 DUP3 ADD MSTORE PUSH6 0x616C616E6365 PUSH1 0xD0 SHL PUSH1 0x64 DUP3 ADD MSTORE PUSH1 0x84 ADD PUSH2 0x45E JUMP JUMPDEST PUSH1 0x1 PUSH1 0x1 PUSH1 0xA0 SHL SUB DUP1 DUP6 AND PUSH1 0x0 SWAP1 DUP2 MSTORE PUSH1 0x20 DUP2 SWAP1 MSTORE PUSH1 0x40 DUP1 DUP3 KECCAK256 DUP6 DUP6 SUB SWAP1 SSTORE SWAP2 DUP6 AND DUP2 MSTORE SWAP1 DUP2 KECCAK256 DUP1 SLOAD DUP5 SWAP3 SWAP1 PUSH2 0x7AD SWAP1 DUP5 SWAP1 PUSH2 0xA11 JUMP JUMPDEST SWAP3 POP POP DUP2 SWAP1 SSTORE POP DUP3 PUSH1 0x1 PUSH1 0x1 PUSH1 0xA0 SHL SUB AND DUP5 PUSH1 0x1 PUSH1 0x1 PUSH1 0xA0 SHL SUB AND PUSH32 0xDDF252AD1BE2C89B69C2B068FC378DAA952BA7F163C4A11628F55A4DF523B3EF DUP5 PUSH1 0x40 MLOAD PUSH2 0x7F9 SWAP2 DUP2 MSTORE PUSH1 0x20 ADD SWAP1 JUMP JUMPDEST PUSH1 0x40 MLOAD DUP1 SWAP2 SUB SWAP1 LOG3 PUSH2 0x632 JUMP JUMPDEST PUSH1 0x1 PUSH1 0x1 PUSH1 0xA0 SHL SUB DUP3 AND PUSH2 0x85C JUMPI PUSH1 0x40 MLOAD PUSH3 0x461BCD PUSH1 0xE5 SHL DUP2 MSTORE PUSH1 0x20 PUSH1 0x4 DUP3 ADD MSTORE PUSH1 0x1F PUSH1 0x24 DUP3 ADD MSTORE PUSH32 0x45524332303A206D696E7420746F20746865207A65726F206164647265737300 PUSH1 0x44 DUP3 ADD MSTORE PUSH1 0x64 ADD PUSH2 0x45E JUMP JUMPDEST DUP1 PUSH1 0x2 PUSH1 0x0 DUP3 DUP3 SLOAD PUSH2 0x86E SWAP2 SWAP1 PUSH2 0xA11 JUMP JUMPDEST SWAP1 SWAP2 SSTORE POP POP PUSH1 0x1 PUSH1 0x1 PUSH1 0xA0 SHL SUB DUP3 AND PUSH1 0x0 SWAP1 DUP2 MSTORE PUSH1 0x20 DUP2 SWAP1 MSTORE PUSH1 0x40 DUP2 KECCAK256 DUP1 SLOAD DUP4 SWAP3 SWAP1 PUSH2 0x89B SWAP1 DUP5 SWAP1 PUSH2 0xA11 JUMP JUMPDEST SWAP1 SWAP2 SSTORE POP POP PUSH1 0x40 MLOAD DUP2 DUP2 MSTORE PUSH1 0x1 PUSH1 0x1 PUSH1 0xA0 SHL SUB DUP4 AND SWAP1 PUSH1 0x0 SWAP1 PUSH32 0xDDF252AD1BE2C89B69C2B068FC378DAA952BA7F163C4A11628F55A4DF523B3EF SWAP1 PUSH1 0x20 ADD PUSH1 0x40 MLOAD DUP1 SWAP2 SUB SWAP1 LOG3 POP POP JUMP JUMPDEST DUP1 CALLDATALOAD PUSH1 0x1 PUSH1 0x1 PUSH1 0xA0 SHL SUB DUP2 AND DUP2 EQ PUSH2 0x8FC JUMPI PUSH1 0x0 DUP1 REVERT JUMPDEST SWAP2 SWAP1 POP JUMP JUMPDEST PUSH1 0x0 PUSH1 0x20 DUP3 DUP5 SUB SLT ISZERO PUSH2 0x913 JUMPI PUSH1 0x0 DUP1 REVERT JUMPDEST PUSH2 0x91C DUP3 PUSH2 0x8E5 JUMP JUMPDEST SWAP4 SWAP3 POP POP POP JUMP JUMPDEST PUSH1 0x0 DUP1 PUSH1 0x40 DUP4 DUP6 SUB SLT ISZERO PUSH2 0x936 JUMPI PUSH1 0x0 DUP1 REVERT JUMPDEST PUSH2 0x93F DUP4 PUSH2 0x8E5 JUMP JUMPDEST SWAP2 POP PUSH2 0x94D PUSH1 0x20 DUP5 ADD PUSH2 0x8E5 JUMP JUMPDEST SWAP1 POP SWAP3 POP SWAP3 SWAP1 POP JUMP JUMPDEST PUSH1 0x0 DUP1 PUSH1 0x0 PUSH1 0x60 DUP5 DUP7 SUB SLT ISZERO PUSH2 0x96B JUMPI PUSH1 0x0 DUP1 REVERT JUMPDEST PUSH2 0x974 DUP5 PUSH2 0x8E5 JUMP JUMPDEST SWAP3 POP PUSH2 0x982 PUSH1 0x20 DUP6 ADD PUSH2 0x8E5 JUMP JUMPDEST SWAP2 POP PUSH1 0x40 DUP5 ADD CALLDATALOAD SWAP1 POP SWAP3 POP SWAP3 POP SWAP3 JUMP JUMPDEST PUSH1 0x0 DUP1 PUSH1 0x40 DUP4 DUP6 SUB SLT ISZERO PUSH2 0x9A5 JUMPI PUSH1 0x0 DUP1 REVERT JUMPDEST PUSH2 0x9AE DUP4 PUSH2 0x8E5 JUMP JUMPDEST SWAP5 PUSH1 0x20 SWAP4 SWAP1 SWAP4 ADD CALLDATALOAD SWAP4 POP POP POP JUMP JUMPDEST PUSH1 0x0 PUSH1 0x20 DUP1 DUP4 MSTORE DUP4 MLOAD DUP1 DUP3 DUP6 ADD MSTORE PUSH1 0x0 JUMPDEST DUP2 DUP2 LT ISZERO PUSH2 0x9E9 JUMPI DUP6 DUP2 ADD DUP4 ADD MLOAD DUP6 DUP3 ADD PUSH1 0x40 ADD MSTORE DUP3 ADD PUSH2 0x9CD JUMP JUMPDEST DUP2 DUP2 GT ISZERO PUSH2 0x9FB JUMPI PUSH1 0x0 PUSH1 0x40 DUP4 DUP8 ADD ADD MSTORE JUMPDEST POP PUSH1 0x1F ADD PUSH1 0x1F NOT AND SWAP3 SWAP1 SWAP3 ADD PUSH1 0x40 ADD SWAP4 SWAP3 POP POP POP JUMP JUMPDEST PUSH1 0x0 DUP3 NOT DUP3 GT ISZERO PUSH2 0xA32 JUMPI PUSH4 0x4E487B71 PUSH1 0xE0 SHL PUSH1 0x0 MSTORE PUSH1 0x11 PUSH1 0x4 MSTORE PUSH1 0x24 PUSH1 0x0 REVERT JUMPDEST POP ADD SWAP1 JUMP JUMPDEST PUSH1 0x1 DUP2 DUP2 SHR SWAP1 DUP3 AND DUP1 PUSH2 0xA4B JUMPI PUSH1 0x7F DUP3 AND SWAP2 POP JUMPDEST PUSH1 0x20 DUP3 LT DUP2 EQ ISZERO PUSH2 0xA6C JUMPI PUSH4 0x4E487B71 PUSH1 0xE0 SHL PUSH1 0x0 MSTORE PUSH1 0x22 PUSH1 0x4 MSTORE PUSH1 0x24 PUSH1 0x0 REVERT JUMPDEST POP SWAP2 SWAP1 POP JUMP INVALID LOG2 PUSH5 0x6970667358 0x22 SLT KECCAK256 0xDC SIGNEXTEND PUSH5 0xF5C11CE8D1 0xA7 0xC5 CALLDATALOAD 0xA7 0xF9 0xB2 PUSH18 0xFA788DB8D43EEC5F682B34DAF7D17577DE64 PUSH20 0x6F6C634300080700330000000000000000000000 "
				},
				"gasEstimates": {
					"creation": {
						"codeDepositCost": "545600",
						"executionCost": "infinite",
						"totalCost": "infinite"
					},
					"external": {
						"allowance(address,address)": "infinite",
						"approve(address,uint256)": "24624",
						"balanceOf(address)": "2585",
						"buyToken(address)": "infinite",
						"cost()": "2340",
						"decimals()": "288",
						"decreaseAllowance(address,uint256)": "26944",
						"increaseAllowance(address,uint256)": "26968",
						"name()": "infinite",
						"symbol()": "infinite",
						"totalSupply()": "2359",
						"transfer(address,uint256)": "51248",
						"transferFrom(address,address,uint256)": "infinite"
					}
				},
				"methodIdentifiers": {
					"allowance(address,address)": "dd62ed3e",
					"approve(address,uint256)": "095ea7b3",
					"balanceOf(address)": "70a08231",
					"buyToken(address)": "7e72fb52",
					"cost()": "13faede6",
					"decimals()": "313ce567",
					"decreaseAllowance(address,uint256)": "a457c2d7",
					"increaseAllowance(address,uint256)": "39509351",
					"name()": "06fdde03",
					"symbol()": "95d89b41",
					"totalSupply()": "18160ddd",
					"transfer(address,uint256)": "a9059cbb",
					"transferFrom(address,address,uint256)": "23b872dd"
				}
			},
			"userdoc": {
				"kind": "user",
				"methods": {},
				"version": 1
			}
		}
	}
}