{
	"ERC721_flat.sol": {
		"NFT": {
			"abi": [
				{
					"inputs": [
						{
							"internalType": "string",
							"name": "_name",
							"type": "string"
						},
						{
							"internalType": "string",
							"name": "_symbol",
							"type": "string"
						}
					],
					"stateMutability": "nonpayable",
					"type": "constructor"
				},
				{
					"anonymous": false,
					"inputs": [
						{
							"indexed": true,
							"internalType": "address",
							"name": "owner",
							"type": "address"
						},
						{
							"indexed": true,
							"internalType": "address",
							"name": "approved",
							"type": "address"
						},
						{
							"indexed": true,
							"internalType": "uint256",
							"name": "tokenId",
							"type": "uint256"
						}
					],
					"name": "Approval",
					"type": "event"
				},
				{
					"anonymous": false,
					"inputs": [
						{
							"indexed": true,
							"internalType": "address",
							"name": "owner",
							"type": "address"
						},
						{
							"indexed": true,
							"internalType": "address",
							"name": "operator",
							"type": "address"
						},
						{
							"indexed": false,
							"internalType": "bool",
							"name": "approved",
							"type": "bool"
						}
					],
					"name": "ApprovalForAll",
					"type": "event"
				},
				{
					"anonymous": false,
					"inputs": [
						{
							"indexed": true,
							"internalType": "address",
							"name": "previousOwner",
							"type": "address"
						},
						{
							"indexed": true,
							"internalType": "address",
							"name": "newOwner",
							"type": "address"
						}
					],
					"name": "OwnershipTransferred",
					"type": "event"
				},
				{
					"anonymous": false,
					"inputs": [
						{
							"indexed": true,
							"internalType": "address",
							"name": "from",
							"type": "address"
						},
						{
							"indexed": true,
							"internalType": "address",
							"name": "to",
							"type": "address"
						},
						{
							"indexed": true,
							"internalType": "uint256",
							"name": "tokenId",
							"type": "uint256"
						}
					],
					"name": "Transfer",
					"type": "event"
				},
				{
					"inputs": [
						{
							"internalType": "address",
							"name": "to",
							"type": "address"
						},
						{
							"internalType": "uint256",
							"name": "tokenId",
							"type": "uint256"
						}
					],
					"name": "approve",
					"outputs": [],
					"stateMutability": "nonpayable",
					"type": "function"
				},
				{
					"inputs": [
						{
							"internalType": "address",
							"name": "owner",
							"type": "address"
						}
					],
					"name": "balanceOf",
					"outputs": [
						{
							"internalType": "uint256",
							"name": "",
							"type": "uint256"
						}
					],
					"stateMutability": "view",
					"type": "function"
				},
				{
					"inputs": [],
					"name": "baseExtension",
					"outputs": [
						{
							"internalType": "string",
							"name": "",
							"type": "string"
						}
					],
					"stateMutability": "view",
					"type": "function"
				},
				{
					"inputs": [],
					"name": "baseURI",
					"outputs": [
						{
							"internalType": "string",
							"name": "",
							"type": "string"
						}
					],
					"stateMutability": "view",
					"type": "function"
				},
				{
					"inputs": [
						{
							"internalType": "uint256",
							"name": "tokenId",
							"type": "uint256"
						}
					],
					"name": "getApproved",
					"outputs": [
						{
							"internalType": "address",
							"name": "",
							"type": "address"
						}
					],
					"stateMutability": "view",
					"type": "function"
				},
				{
					"inputs": [
						{
							"internalType": "address",
							"name": "owner",
							"type": "address"
						},
						{
							"internalType": "address",
							"name": "operator",
							"type": "address"
						}
					],
					"name": "isApprovedForAll",
					"outputs": [
						{
							"internalType": "bool",
							"name": "",
							"type": "bool"
						}
					],
					"stateMutability": "view",
					"type": "function"
				},
				{
					"inputs": [
						{
							"internalType": "address",
							"name": "_to",
							"type": "address"
						}
					],
					"name": "mint",
					"outputs": [],
					"stateMutability": "payable",
					"type": "function"
				},
				{
					"inputs": [],
					"name": "name",
					"outputs": [
						{
							"internalType": "string",
							"name": "",
							"type": "string"
						}
					],
					"stateMutability": "view",
					"type": "function"
				},
				{
					"inputs": [],
					"name": "owner",
					"outputs": [
						{
							"internalType": "address",
							"name": "",
							"type": "address"
						}
					],
					"stateMutability": "view",
					"type": "function"
				},
				{
					"inputs": [
						{
							"internalType": "uint256",
							"name": "tokenId",
							"type": "uint256"
						}
					],
					"name": "ownerOf",
					"outputs": [
						{
							"internalType": "address",
							"name": "",
							"type": "address"
						}
					],
					"stateMutability": "view",
					"type": "function"
				},
				{
					"inputs": [],
					"name": "renounceOwnership",
					"outputs": [],
					"stateMutability": "nonpayable",
					"type": "function"
				},
				{
					"inputs": [
						{
							"internalType": "address",
							"name": "from",
							"type": "address"
						},
						{
							"internalType": "address",
							"name": "to",
							"type": "address"
						},
						{
							"internalType": "uint256",
							"name": "tokenId",
							"type": "uint256"
						}
					],
					"name": "safeTransferFrom",
					"outputs": [],
					"stateMutability": "nonpayable",
					"type": "function"
				},
				{
					"inputs": [
						{
							"internalType": "address",
							"name": "from",
							"type": "address"
						},
						{
							"internalType": "address",
							"name": "to",
							"type": "address"
						},
						{
							"internalType": "uint256",
							"name": "tokenId",
							"type": "uint256"
						},
						{
							"internalType": "bytes",
							"name": "_data",
							"type": "bytes"
						}
					],
					"name": "safeTransferFrom",
					"outputs": [],
					"stateMutability": "nonpayable",
					"type": "function"
				},
				{
					"inputs": [
						{
							"internalType": "address",
							"name": "operator",
							"type": "address"
						},
						{
							"internalType": "bool",
							"name": "approved",
							"type": "bool"
						}
					],
					"name": "setApprovalForAll",
					"outputs": [],
					"stateMutability": "nonpayable",
					"type": "function"
				},
				{
					"inputs": [
						{
							"internalType": "bytes4",
							"name": "interfaceId",
							"type": "bytes4"
						}
					],
					"name": "supportsInterface",
					"outputs": [
						{
							"internalType": "bool",
							"name": "",
							"type": "bool"
						}
					],
					"stateMutability": "view",
					"type": "function"
				},
				{
					"inputs": [],
					"name": "symbol",
					"outputs": [
						{
							"internalType": "string",
							"name": "",
							"type": "string"
						}
					],
					"stateMutability": "view",
					"type": "function"
				},
				{
					"inputs": [
						{
							"internalType": "uint256",
							"name": "index",
							"type": "uint256"
						}
					],
					"name": "tokenByIndex",
					"outputs": [
						{
							"internalType": "uint256",
							"name": "",
							"type": "uint256"
						}
					],
					"stateMutability": "view",
					"type": "function"
				},
				{
					"inputs": [
						{
							"internalType": "address",
							"name": "owner",
							"type": "address"
						},
						{
							"internalType": "uint256",
							"name": "index",
							"type": "uint256"
						}
					],
					"name": "tokenOfOwnerByIndex",
					"outputs": [
						{
							"internalType": "uint256",
							"name": "",
							"type": "uint256"
						}
					],
					"stateMutability": "view",
					"type": "function"
				},
				{
					"inputs": [
						{
							"internalType": "uint256",
							"name": "tokenId",
							"type": "uint256"
						}
					],
					"name": "tokenURI",
					"outputs": [
						{
							"internalType": "string",
							"name": "",
							"type": "string"
						}
					],
					"stateMutability": "view",
					"type": "function"
				},
				{
					"inputs": [],
					"name": "totalSupply",
					"outputs": [
						{
							"internalType": "uint256",
							"name": "",
							"type": "uint256"
						}
					],
					"stateMutability": "view",
					"type": "function"
				},
				{
					"inputs": [
						{
							"internalType": "address",
							"name": "from",
							"type": "address"
						},
						{
							"internalType": "address",
							"name": "to",
							"type": "address"
						},
						{
							"internalType": "uint256",
							"name": "tokenId",
							"type": "uint256"
						}
					],
					"name": "transferFrom",
					"outputs": [],
					"stateMutability": "nonpayable",
					"type": "function"
				},
				{
					"inputs": [
						{
							"internalType": "address",
							"name": "newOwner",
							"type": "address"
						}
					],
					"name": "transferOwnership",
					"outputs": [],
					"stateMutability": "nonpayable",
					"type": "function"
				}
			],
			"devdoc": {
				"kind": "dev",
				"methods": {
					"approve(address,uint256)": {
						"details": "See {IERC721-approve}."
					},
					"balanceOf(address)": {
						"details": "See {IERC721-balanceOf}."
					},
					"getApproved(uint256)": {
						"details": "See {IERC721-getApproved}."
					},
					"isApprovedForAll(address,address)": {
						"details": "See {IERC721-isApprovedForAll}."
					},
					"name()": {
						"details": "See {IERC721Metadata-name}."
					},
					"owner()": {
						"details": "Returns the address of the current owner."
					},
					"ownerOf(uint256)": {
						"details": "See {IERC721-ownerOf}."
					},
					"renounceOwnership()": {
						"details": "Leaves the contract without owner. It will not be possible to call `onlyOwner` functions anymore. Can only be called by the current owner. NOTE: Renouncing ownership will leave the contract without an owner, thereby removing any functionality that is only available to the owner."
					},
					"safeTransferFrom(address,address,uint256)": {
						"details": "See {IERC721-safeTransferFrom}."
					},
					"safeTransferFrom(address,address,uint256,bytes)": {
						"details": "See {IERC721-safeTransferFrom}."
					},
					"setApprovalForAll(address,bool)": {
						"details": "See {IERC721-setApprovalForAll}."
					},
					"supportsInterface(bytes4)": {
						"details": "See {IERC165-supportsInterface}."
					},
					"symbol()": {
						"details": "See {IERC721Metadata-symbol}."
					},
					"tokenByIndex(uint256)": {
						"details": "See {IERC721Enumerable-tokenByIndex}."
					},
					"tokenOfOwnerByIndex(address,uint256)": {
						"details": "See {IERC721Enumerable-tokenOfOwnerByIndex}."
					},
					"tokenURI(uint256)": {
						"details": "See {IERC721Metadata-tokenURI}."
					},
					"totalSupply()": {
						"details": "See {IERC721Enumerable-totalSupply}."
					},
					"transferFrom(address,address,uint256)": {
						"details": "See {IERC721-transferFrom}."
					},
					"transferOwnership(address)": {
						"details": "Transfers ownership of the contract to a new account (`newOwner`). Can only be called by the current owner."
					}
				},
				"version": 1
			},
			"evm": {
				"assembly": "    /* \"ERC721_flat.sol\":44346:44383  string public baseExtension = \".json\" */\n  0xc0\n    /* \"ERC721_flat.sol\":44245:45210  contract NFT is ERC721Enumerable, Ownable {... */\n  0x40\n    /* \"ERC721_flat.sol\":44346:44383  string public baseExtension = \".json\" */\n  mstore\n  0x05\n    /* \"ERC721_flat.sol\":44245:45210  contract NFT is ERC721Enumerable, Ownable {... */\n  0x80\n    /* \"ERC721_flat.sol\":44346:44383  string public baseExtension = \".json\" */\n  dup2\n  swap1\n  mstore\n  shl(0xd9, 0x173539b7b7)\n  0xa0\n  swap1\n  dup2\n  mstore\n  tag_1\n  swap2\n  0x0c\n  swap2\n  swap1\n  tag_2\n  jump\t// in\ntag_1:\n  pop\n    /* \"ERC721_flat.sol\":44388:44483  constructor(... */\n  callvalue\n  dup1\n  iszero\n  tag_3\n  jumpi\n  0x00\n  dup1\n  revert\ntag_3:\n  pop\n  mload(0x40)\n  sub(codesize, bytecodeSize)\n  dup1\n  bytecodeSize\n  dup4\n  codecopy\n  dup2\n  add\n  0x40\n  dup2\n  swap1\n  mstore\n  tag_4\n  swap2\n  tag_5\n  jump\t// in\ntag_4:\n    /* \"ERC721_flat.sol\":24330:24343  _name = name_ */\n  dup2\n  mload\n    /* \"ERC721_flat.sol\":44463:44468  _name */\n  dup3\n  swap1\n    /* \"ERC721_flat.sol\":44470:44477  _symbol */\n  dup3\n  swap1\n    /* \"ERC721_flat.sol\":24330:24343  _name = name_ */\n  tag_10\n  swap1\n    /* \"ERC721_flat.sol\":24330:24335  _name */\n  0x00\n  swap1\n    /* \"ERC721_flat.sol\":24330:24343  _name = name_ */\n  0x20\n  dup6\n  add\n  swap1\n  tag_2\n  jump\t// in\ntag_10:\n  pop\n    /* \"ERC721_flat.sol\":24353:24370  _symbol = symbol_ */\n  dup1\n  mload\n  tag_11\n  swap1\n    /* \"ERC721_flat.sol\":24353:24360  _symbol */\n  0x01\n  swap1\n    /* \"ERC721_flat.sol\":24353:24370  _symbol = symbol_ */\n  0x20\n  dup5\n  add\n  swap1\n  tag_2\n  jump\t// in\ntag_11:\n  pop\n    /* \"ERC721_flat.sol\":24264:24377  constructor(string memory name_, string memory symbol_) {... */\n  pop\n  pop\n    /* \"ERC721_flat.sol\":3833:3865  _transferOwnership(_msgSender()) */\n  tag_13\n    /* \"ERC721_flat.sol\":3852:3864  _msgSender() */\n  tag_14\n    /* \"ERC721_flat.sol\":3852:3862  _msgSender */\n  shl(0x20, tag_15)\n    /* \"ERC721_flat.sol\":3852:3864  _msgSender() */\n  0x20\n  shr\n  jump\t// in\ntag_14:\n    /* \"ERC721_flat.sol\":3833:3851  _transferOwnership */\n  tag_16\n    /* \"ERC721_flat.sol\":3833:3865  _transferOwnership(_msgSender()) */\n  jump\t// in\ntag_13:\n    /* \"ERC721_flat.sol\":44388:44483  constructor(... */\n  pop\n  pop\n    /* \"ERC721_flat.sol\":44245:45210  contract NFT is ERC721Enumerable, Ownable {... */\n  jump(tag_32)\n    /* \"ERC721_flat.sol\":2716:2812  function _msgSender() internal view virtual returns (address) {... */\ntag_15:\n    /* \"ERC721_flat.sol\":2795:2805  msg.sender */\n  caller\n  swap1\n    /* \"ERC721_flat.sol\":2716:2812  function _msgSender() internal view virtual returns (address) {... */\n  jump\t// out\n    /* \"ERC721_flat.sol\":5182:5369  function _transferOwnership(address newOwner) internal virtual {... */\ntag_16:\n    /* \"ERC721_flat.sol\":5274:5280  _owner */\n  0x0a\n  dup1\n  sload\n  sub(shl(0xa0, 0x01), 0x01)\n    /* \"ERC721_flat.sol\":5290:5307  _owner = newOwner */\n  dup4\n  dup2\n  and\n  not(sub(shl(0xa0, 0x01), 0x01))\n  dup4\n  and\n  dup2\n  or\n  swap1\n  swap4\n  sstore\n    /* \"ERC721_flat.sol\":5322:5362  OwnershipTransferred(oldOwner, newOwner) */\n  mload(0x40)\n    /* \"ERC721_flat.sol\":5274:5280  _owner */\n  swap2\n  and\n  swap2\n    /* \"ERC721_flat.sol\":5290:5307  _owner = newOwner */\n  swap1\n    /* \"ERC721_flat.sol\":5274:5280  _owner */\n  dup3\n  swap1\n    /* \"ERC721_flat.sol\":5322:5362  OwnershipTransferred(oldOwner, newOwner) */\n  0x8be0079c531659141344cd1fd0a4f28419497f9722a3daafe3b4186f6b6457e0\n  swap1\n    /* \"ERC721_flat.sol\":5255:5271  address oldOwner */\n  0x00\n  swap1\n    /* \"ERC721_flat.sol\":5322:5362  OwnershipTransferred(oldOwner, newOwner) */\n  log3\n    /* \"ERC721_flat.sol\":5245:5369  {... */\n  pop\n    /* \"ERC721_flat.sol\":5182:5369  function _transferOwnership(address newOwner) internal virtual {... */\n  pop\n  jump\t// out\n    /* \"ERC721_flat.sol\":44245:45210  contract NFT is ERC721Enumerable, Ownable {... */\ntag_2:\n  dup3\n  dup1\n  sload\n  tag_21\n  swap1\n  tag_22\n  jump\t// in\ntag_21:\n  swap1\n  0x00\n  mstore\n  keccak256(0x00, 0x20)\n  swap1\n  0x1f\n  add\n  0x20\n  swap1\n  div\n  dup2\n  add\n  swap3\n  dup3\n  tag_24\n  jumpi\n  0x00\n  dup6\n  sstore\n  jump(tag_27)\ntag_24:\n  dup3\n  0x1f\n  lt\n  tag_25\n  jumpi\n  dup1\n  mload\n  not(0xff)\n  and\n  dup4\n  dup1\n  add\n  or\n  dup6\n  sstore\n  jump(tag_27)\ntag_25:\n  dup3\n  dup1\n  add\n  0x01\n  add\n  dup6\n  sstore\n  dup3\n  iszero\n  tag_27\n  jumpi\n  swap2\n  dup3\n  add\ntag_26:\n  dup3\n  dup2\n  gt\n  iszero\n  tag_27\n  jumpi\n  dup3\n  mload\n  dup3\n  sstore\n  swap2\n  0x20\n  add\n  swap2\n  swap1\n  0x01\n  add\n  swap1\n  jump(tag_26)\ntag_27:\n  pop\n  tag_28\n  swap3\n  swap2\n  pop\n  tag_29\n  jump\t// in\ntag_28:\n  pop\n  swap1\n  jump\t// out\ntag_29:\ntag_30:\n  dup1\n  dup3\n  gt\n  iszero\n  tag_28\n  jumpi\n  0x00\n  dup2\n  sstore\n  0x01\n  add\n  jump(tag_30)\n    /* \"#utility.yul\":14:899   */\ntag_33:\n    /* \"#utility.yul\":68:73   */\n  0x00\n    /* \"#utility.yul\":121:124   */\n  dup3\n    /* \"#utility.yul\":114:118   */\n  0x1f\n    /* \"#utility.yul\":106:112   */\n  dup4\n    /* \"#utility.yul\":102:119   */\n  add\n    /* \"#utility.yul\":98:125   */\n  slt\n    /* \"#utility.yul\":88:143   */\n  tag_35\n  jumpi\n    /* \"#utility.yul\":139:140   */\n  0x00\n    /* \"#utility.yul\":136:137   */\n  dup1\n    /* \"#utility.yul\":129:141   */\n  revert\n    /* \"#utility.yul\":88:143   */\ntag_35:\n    /* \"#utility.yul\":162:175   */\n  dup2\n  mload\n  sub(shl(0x40, 0x01), 0x01)\n    /* \"#utility.yul\":224:234   */\n  dup1\n  dup3\n  gt\n    /* \"#utility.yul\":221:257   */\n  iszero\n  tag_37\n  jumpi\n    /* \"#utility.yul\":237:255   */\n  tag_37\n  tag_38\n  jump\t// in\ntag_37:\n    /* \"#utility.yul\":312:314   */\n  0x40\n    /* \"#utility.yul\":306:315   */\n  mload\n    /* \"#utility.yul\":280:282   */\n  0x1f\n    /* \"#utility.yul\":366:379   */\n  dup4\n  add\n  not(0x1f)\n    /* \"#utility.yul\":362:384   */\n  swap1\n  dup2\n  and\n    /* \"#utility.yul\":386:388   */\n  0x3f\n    /* \"#utility.yul\":358:389   */\n  add\n    /* \"#utility.yul\":354:394   */\n  and\n    /* \"#utility.yul\":342:395   */\n  dup2\n  add\n  swap1\n    /* \"#utility.yul\":410:428   */\n  dup3\n  dup3\n  gt\n    /* \"#utility.yul\":430:452   */\n  dup2\n  dup4\n  lt\n    /* \"#utility.yul\":407:453   */\n  or\n    /* \"#utility.yul\":404:476   */\n  iszero\n  tag_40\n  jumpi\n    /* \"#utility.yul\":456:474   */\n  tag_40\n  tag_38\n  jump\t// in\ntag_40:\n    /* \"#utility.yul\":496:506   */\n  dup2\n    /* \"#utility.yul\":492:494   */\n  0x40\n    /* \"#utility.yul\":485:507   */\n  mstore\n    /* \"#utility.yul\":531:533   */\n  dup4\n    /* \"#utility.yul\":523:529   */\n  dup2\n    /* \"#utility.yul\":516:534   */\n  mstore\n    /* \"#utility.yul\":553:557   */\n  0x20\n    /* \"#utility.yul\":543:557   */\n  swap3\n  pop\n    /* \"#utility.yul\":598:601   */\n  dup7\n    /* \"#utility.yul\":593:595   */\n  dup4\n    /* \"#utility.yul\":588:590   */\n  dup6\n    /* \"#utility.yul\":580:586   */\n  dup9\n    /* \"#utility.yul\":576:591   */\n  add\n    /* \"#utility.yul\":572:596   */\n  add\n    /* \"#utility.yul\":569:602   */\n  gt\n    /* \"#utility.yul\":566:619   */\n  iszero\n  tag_41\n  jumpi\n    /* \"#utility.yul\":615:616   */\n  0x00\n    /* \"#utility.yul\":612:613   */\n  dup1\n    /* \"#utility.yul\":605:617   */\n  revert\n    /* \"#utility.yul\":566:619   */\ntag_41:\n    /* \"#utility.yul\":637:638   */\n  0x00\n    /* \"#utility.yul\":628:638   */\n  swap2\n  pop\n    /* \"#utility.yul\":647:780   */\ntag_42:\n    /* \"#utility.yul\":661:663   */\n  dup4\n    /* \"#utility.yul\":658:659   */\n  dup3\n    /* \"#utility.yul\":655:664   */\n  lt\n    /* \"#utility.yul\":647:780   */\n  iszero\n  tag_44\n  jumpi\n    /* \"#utility.yul\":749:763   */\n  dup6\n  dup3\n  add\n    /* \"#utility.yul\":745:768   */\n  dup4\n  add\n    /* \"#utility.yul\":739:769   */\n  mload\n    /* \"#utility.yul\":718:732   */\n  dup2\n  dup4\n  add\n    /* \"#utility.yul\":714:737   */\n  dup5\n  add\n    /* \"#utility.yul\":707:770   */\n  mstore\n    /* \"#utility.yul\":672:682   */\n  swap1\n  dup3\n  add\n  swap1\n    /* \"#utility.yul\":647:780   */\n  jump(tag_42)\ntag_44:\n    /* \"#utility.yul\":798:800   */\n  dup4\n    /* \"#utility.yul\":795:796   */\n  dup3\n    /* \"#utility.yul\":792:801   */\n  gt\n    /* \"#utility.yul\":789:869   */\n  iszero\n  tag_45\n  jumpi\n    /* \"#utility.yul\":857:858   */\n  0x00\n    /* \"#utility.yul\":852:854   */\n  dup4\n    /* \"#utility.yul\":847:849   */\n  dup6\n    /* \"#utility.yul\":839:845   */\n  dup4\n    /* \"#utility.yul\":835:850   */\n  add\n    /* \"#utility.yul\":831:855   */\n  add\n    /* \"#utility.yul\":824:859   */\n  mstore\n    /* \"#utility.yul\":789:869   */\ntag_45:\n    /* \"#utility.yul\":887:893   */\n  swap7\n    /* \"#utility.yul\":14:899   */\n  swap6\n  pop\n  pop\n  pop\n  pop\n  pop\n  pop\n  jump\t// out\n    /* \"#utility.yul\":904:1466   */\ntag_5:\n    /* \"#utility.yul\":1003:1009   */\n  0x00\n    /* \"#utility.yul\":1011:1017   */\n  dup1\n    /* \"#utility.yul\":1064:1066   */\n  0x40\n    /* \"#utility.yul\":1052:1061   */\n  dup4\n    /* \"#utility.yul\":1043:1050   */\n  dup6\n    /* \"#utility.yul\":1039:1062   */\n  sub\n    /* \"#utility.yul\":1035:1067   */\n  slt\n    /* \"#utility.yul\":1032:1084   */\n  iszero\n  tag_47\n  jumpi\n    /* \"#utility.yul\":1080:1081   */\n  0x00\n    /* \"#utility.yul\":1077:1078   */\n  dup1\n    /* \"#utility.yul\":1070:1082   */\n  revert\n    /* \"#utility.yul\":1032:1084   */\ntag_47:\n    /* \"#utility.yul\":1107:1123   */\n  dup3\n  mload\n  sub(shl(0x40, 0x01), 0x01)\n    /* \"#utility.yul\":1172:1186   */\n  dup1\n  dup3\n  gt\n    /* \"#utility.yul\":1169:1203   */\n  iszero\n  tag_48\n  jumpi\n    /* \"#utility.yul\":1199:1200   */\n  0x00\n    /* \"#utility.yul\":1196:1197   */\n  dup1\n    /* \"#utility.yul\":1189:1201   */\n  revert\n    /* \"#utility.yul\":1169:1203   */\ntag_48:\n    /* \"#utility.yul\":1222:1283   */\n  tag_49\n    /* \"#utility.yul\":1275:1282   */\n  dup7\n    /* \"#utility.yul\":1266:1272   */\n  dup4\n    /* \"#utility.yul\":1255:1264   */\n  dup8\n    /* \"#utility.yul\":1251:1273   */\n  add\n    /* \"#utility.yul\":1222:1283   */\n  tag_33\n  jump\t// in\ntag_49:\n    /* \"#utility.yul\":1212:1283   */\n  swap4\n  pop\n    /* \"#utility.yul\":1329:1331   */\n  0x20\n    /* \"#utility.yul\":1318:1327   */\n  dup6\n    /* \"#utility.yul\":1314:1332   */\n  add\n    /* \"#utility.yul\":1308:1333   */\n  mload\n    /* \"#utility.yul\":1292:1333   */\n  swap2\n  pop\n    /* \"#utility.yul\":1358:1360   */\n  dup1\n    /* \"#utility.yul\":1348:1356   */\n  dup3\n    /* \"#utility.yul\":1345:1361   */\n  gt\n    /* \"#utility.yul\":1342:1378   */\n  iszero\n  tag_50\n  jumpi\n    /* \"#utility.yul\":1374:1375   */\n  0x00\n    /* \"#utility.yul\":1371:1372   */\n  dup1\n    /* \"#utility.yul\":1364:1376   */\n  revert\n    /* \"#utility.yul\":1342:1378   */\ntag_50:\n  pop\n    /* \"#utility.yul\":1397:1460   */\n  tag_51\n    /* \"#utility.yul\":1452:1459   */\n  dup6\n    /* \"#utility.yul\":1441:1449   */\n  dup3\n    /* \"#utility.yul\":1430:1439   */\n  dup7\n    /* \"#utility.yul\":1426:1450   */\n  add\n    /* \"#utility.yul\":1397:1460   */\n  tag_33\n  jump\t// in\ntag_51:\n    /* \"#utility.yul\":1387:1460   */\n  swap2\n  pop\n  pop\n    /* \"#utility.yul\":904:1466   */\n  swap3\n  pop\n  swap3\n  swap1\n  pop\n  jump\t// out\n    /* \"#utility.yul\":1471:1851   */\ntag_22:\n    /* \"#utility.yul\":1550:1551   */\n  0x01\n    /* \"#utility.yul\":1546:1558   */\n  dup2\n  dup2\n  shr\n  swap1\n    /* \"#utility.yul\":1593:1605   */\n  dup3\n  and\n  dup1\n    /* \"#utility.yul\":1614:1675   */\n  tag_53\n  jumpi\n    /* \"#utility.yul\":1668:1672   */\n  0x7f\n    /* \"#utility.yul\":1660:1666   */\n  dup3\n    /* \"#utility.yul\":1656:1673   */\n  and\n    /* \"#utility.yul\":1646:1673   */\n  swap2\n  pop\n    /* \"#utility.yul\":1614:1675   */\ntag_53:\n    /* \"#utility.yul\":1721:1723   */\n  0x20\n    /* \"#utility.yul\":1713:1719   */\n  dup3\n    /* \"#utility.yul\":1710:1724   */\n  lt\n    /* \"#utility.yul\":1690:1708   */\n  dup2\n    /* \"#utility.yul\":1687:1725   */\n  eq\n    /* \"#utility.yul\":1684:1845   */\n  iszero\n  tag_54\n  jumpi\n    /* \"#utility.yul\":1767:1777   */\n  0x4e487b71\n    /* \"#utility.yul\":1762:1765   */\n  0xe0\n    /* \"#utility.yul\":1758:1778   */\n  shl\n    /* \"#utility.yul\":1755:1756   */\n  0x00\n    /* \"#utility.yul\":1748:1779   */\n  mstore\n    /* \"#utility.yul\":1802:1806   */\n  0x22\n    /* \"#utility.yul\":1799:1800   */\n  0x04\n    /* \"#utility.yul\":1792:1807   */\n  mstore\n    /* \"#utility.yul\":1830:1834   */\n  0x24\n    /* \"#utility.yul\":1827:1828   */\n  0x00\n    /* \"#utility.yul\":1820:1835   */\n  revert\n    /* \"#utility.yul\":1684:1845   */\ntag_54:\n  pop\n    /* \"#utility.yul\":1471:1851   */\n  swap2\n  swap1\n  pop\n  jump\t// out\n    /* \"#utility.yul\":1856:1983   */\ntag_38:\n    /* \"#utility.yul\":1917:1927   */\n  0x4e487b71\n    /* \"#utility.yul\":1912:1915   */\n  0xe0\n    /* \"#utility.yul\":1908:1928   */\n  shl\n    /* \"#utility.yul\":1905:1906   */\n  0x00\n    /* \"#utility.yul\":1898:1929   */\n  mstore\n    /* \"#utility.yul\":1948:1952   */\n  0x41\n    /* \"#utility.yul\":1945:1946   */\n  0x04\n    /* \"#utility.yul\":1938:1953   */\n  mstore\n    /* \"#utility.yul\":1972:1976   */\n  0x24\n    /* \"#utility.yul\":1969:1970   */\n  0x00\n    /* \"#utility.yul\":1962:1977   */\n  revert\n    /* \"#utility.yul\":1856:1983   */\ntag_32:\n    /* \"ERC721_flat.sol\":44245:45210  contract NFT is ERC721Enumerable, Ownable {... */\n  dataSize(sub_0)\n  dup1\n  dataOffset(sub_0)\n  0x00\n  codecopy\n  0x00\n  return\nstop\n\nsub_0: assembly {\n        /* \"ERC721_flat.sol\":44245:45210  contract NFT is ERC721Enumerable, Ownable {... */\n      mstore(0x40, 0x80)\n      jumpi(tag_1, lt(calldatasize, 0x04))\n      shr(0xe0, calldataload(0x00))\n      dup1\n      0x6c0360eb\n      gt\n      tag_24\n      jumpi\n      dup1\n      0xa22cb465\n      gt\n      tag_25\n      jumpi\n      dup1\n      0xa22cb465\n      eq\n      tag_18\n      jumpi\n      dup1\n      0xb88d4fde\n      eq\n      tag_19\n      jumpi\n      dup1\n      0xc6682862\n      eq\n      tag_20\n      jumpi\n      dup1\n      0xc87b56dd\n      eq\n      tag_21\n      jumpi\n      dup1\n      0xe985e9c5\n      eq\n      tag_22\n      jumpi\n      dup1\n      0xf2fde38b\n      eq\n      tag_23\n      jumpi\n      0x00\n      dup1\n      revert\n    tag_25:\n      dup1\n      0x6c0360eb\n      eq\n      tag_13\n      jumpi\n      dup1\n      0x70a08231\n      eq\n      tag_14\n      jumpi\n      dup1\n      0x715018a6\n      eq\n      tag_15\n      jumpi\n      dup1\n      0x8da5cb5b\n      eq\n      tag_16\n      jumpi\n      dup1\n      0x95d89b41\n      eq\n      tag_17\n      jumpi\n      0x00\n      dup1\n      revert\n    tag_24:\n      dup1\n      0x23b872dd\n      gt\n      tag_26\n      jumpi\n      dup1\n      0x23b872dd\n      eq\n      tag_7\n      jumpi\n      dup1\n      0x2f745c59\n      eq\n      tag_8\n      jumpi\n      dup1\n      0x42842e0e\n      eq\n      tag_9\n      jumpi\n      dup1\n      0x4f6ccce7\n      eq\n      tag_10\n      jumpi\n      dup1\n      0x6352211e\n      eq\n      tag_11\n      jumpi\n      dup1\n      0x6a627842\n      eq\n      tag_12\n      jumpi\n      0x00\n      dup1\n      revert\n    tag_26:\n      dup1\n      0x01ffc9a7\n      eq\n      tag_2\n      jumpi\n      dup1\n      0x06fdde03\n      eq\n      tag_3\n      jumpi\n      dup1\n      0x081812fc\n      eq\n      tag_4\n      jumpi\n      dup1\n      0x095ea7b3\n      eq\n      tag_5\n      jumpi\n      dup1\n      0x18160ddd\n      eq\n      tag_6\n      jumpi\n    tag_1:\n      0x00\n      dup1\n      revert\n        /* \"ERC721_flat.sol\":38142:38364  function supportsInterface(bytes4 interfaceId) public view virtual override(IERC165, ERC721) returns (bool) {... */\n    tag_2:\n      callvalue\n      dup1\n      iszero\n      tag_27\n      jumpi\n      0x00\n      dup1\n      revert\n    tag_27:\n      pop\n      tag_28\n      tag_29\n      calldatasize\n      0x04\n      tag_30\n      jump\t// in\n    tag_29:\n      tag_31\n      jump\t// in\n    tag_28:\n      mload(0x40)\n        /* \"#utility.yul\":6084:6098   */\n      swap1\n      iszero\n        /* \"#utility.yul\":6077:6099   */\n      iszero\n        /* \"#utility.yul\":6059:6100   */\n      dup2\n      mstore\n        /* \"#utility.yul\":6047:6049   */\n      0x20\n        /* \"#utility.yul\":6032:6050   */\n      add\n        /* \"ERC721_flat.sol\":38142:38364  function supportsInterface(bytes4 interfaceId) public view virtual override(IERC165, ERC721) returns (bool) {... */\n    tag_32:\n      mload(0x40)\n      dup1\n      swap2\n      sub\n      swap1\n      return\n        /* \"ERC721_flat.sol\":25362:25460  function name() public view virtual override returns (string memory) {... */\n    tag_3:\n      callvalue\n      dup1\n      iszero\n      tag_34\n      jumpi\n      0x00\n      dup1\n      revert\n    tag_34:\n      pop\n      tag_35\n      tag_36\n      jump\t// in\n    tag_35:\n      mload(0x40)\n      tag_32\n      swap2\n      swap1\n      tag_38\n      jump\t// in\n        /* \"ERC721_flat.sol\":26873:27090  function getApproved(uint256 tokenId) public view virtual override returns (address) {... */\n    tag_4:\n      callvalue\n      dup1\n      iszero\n      tag_39\n      jumpi\n      0x00\n      dup1\n      revert\n    tag_39:\n      pop\n      tag_40\n      tag_41\n      calldatasize\n      0x04\n      tag_42\n      jump\t// in\n    tag_41:\n      tag_43\n      jump\t// in\n    tag_40:\n      mload(0x40)\n      sub(shl(0xa0, 0x01), 0x01)\n        /* \"#utility.yul\":5382:5414   */\n      swap1\n      swap2\n      and\n        /* \"#utility.yul\":5364:5415   */\n      dup2\n      mstore\n        /* \"#utility.yul\":5352:5354   */\n      0x20\n        /* \"#utility.yul\":5337:5355   */\n      add\n        /* \"ERC721_flat.sol\":26873:27090  function getApproved(uint256 tokenId) public view virtual override returns (address) {... */\n      tag_32\n        /* \"#utility.yul\":5218:5421   */\n      jump\n        /* \"ERC721_flat.sol\":26411:26812  function approve(address to, uint256 tokenId) public virtual override {... */\n    tag_5:\n      callvalue\n      dup1\n      iszero\n      tag_46\n      jumpi\n      0x00\n      dup1\n      revert\n    tag_46:\n      pop\n      tag_47\n      tag_48\n      calldatasize\n      0x04\n      tag_49\n      jump\t// in\n    tag_48:\n      tag_50\n      jump\t// in\n    tag_47:\n      stop\n        /* \"ERC721_flat.sol\":38767:38878  function totalSupply() public view virtual override returns (uint256) {... */\n    tag_6:\n      callvalue\n      dup1\n      iszero\n      tag_51\n      jumpi\n      0x00\n      dup1\n      revert\n    tag_51:\n      pop\n        /* \"ERC721_flat.sol\":38854:38864  _allTokens */\n      0x08\n        /* \"ERC721_flat.sol\":38854:38871  _allTokens.length */\n      sload\n        /* \"ERC721_flat.sol\":38767:38878  function totalSupply() public view virtual override returns (uint256) {... */\n    tag_52:\n      mload(0x40)\n        /* \"#utility.yul\":13684:13709   */\n      swap1\n      dup2\n      mstore\n        /* \"#utility.yul\":13672:13674   */\n      0x20\n        /* \"#utility.yul\":13657:13675   */\n      add\n        /* \"ERC721_flat.sol\":38767:38878  function totalSupply() public view virtual override returns (uint256) {... */\n      tag_32\n        /* \"#utility.yul\":13538:13715   */\n      jump\n        /* \"ERC721_flat.sol\":27600:27930  function transferFrom(... */\n    tag_7:\n      callvalue\n      dup1\n      iszero\n      tag_56\n      jumpi\n      0x00\n      dup1\n      revert\n    tag_56:\n      pop\n      tag_47\n      tag_58\n      calldatasize\n      0x04\n      tag_59\n      jump\t// in\n    tag_58:\n      tag_60\n      jump\t// in\n        /* \"ERC721_flat.sol\":38443:38696  function tokenOfOwnerByIndex(address owner, uint256 index) public view virtual override returns (uint256) {... */\n    tag_8:\n      callvalue\n      dup1\n      iszero\n      tag_61\n      jumpi\n      0x00\n      dup1\n      revert\n    tag_61:\n      pop\n      tag_52\n      tag_63\n      calldatasize\n      0x04\n      tag_49\n      jump\t// in\n    tag_63:\n      tag_64\n      jump\t// in\n        /* \"ERC721_flat.sol\":27996:28175  function safeTransferFrom(... */\n    tag_9:\n      callvalue\n      dup1\n      iszero\n      tag_66\n      jumpi\n      0x00\n      dup1\n      revert\n    tag_66:\n      pop\n      tag_47\n      tag_68\n      calldatasize\n      0x04\n      tag_59\n      jump\t// in\n    tag_68:\n      tag_69\n      jump\t// in\n        /* \"ERC721_flat.sol\":38950:39180  function tokenByIndex(uint256 index) public view virtual override returns (uint256) {... */\n    tag_10:\n      callvalue\n      dup1\n      iszero\n      tag_70\n      jumpi\n      0x00\n      dup1\n      revert\n    tag_70:\n      pop\n      tag_52\n      tag_72\n      calldatasize\n      0x04\n      tag_42\n      jump\t// in\n    tag_72:\n      tag_73\n      jump\t// in\n        /* \"ERC721_flat.sol\":25065:25300  function ownerOf(uint256 tokenId) public view virtual override returns (address) {... */\n    tag_11:\n      callvalue\n      dup1\n      iszero\n      tag_75\n      jumpi\n      0x00\n      dup1\n      revert\n    tag_75:\n      pop\n      tag_40\n      tag_77\n      calldatasize\n      0x04\n      tag_42\n      jump\t// in\n    tag_77:\n      tag_78\n      jump\t// in\n        /* \"ERC721_flat.sol\":44680:44797  function mint(address _to) public payable {... */\n    tag_12:\n      tag_47\n      tag_81\n      calldatasize\n      0x04\n      tag_82\n      jump\t// in\n    tag_81:\n      tag_83\n      jump\t// in\n        /* \"ERC721_flat.sol\":44321:44342  string public baseURI */\n    tag_13:\n      callvalue\n      dup1\n      iszero\n      tag_84\n      jumpi\n      0x00\n      dup1\n      revert\n    tag_84:\n      pop\n      tag_35\n      tag_86\n      jump\t// in\n        /* \"ERC721_flat.sol\":24803:25008  function balanceOf(address owner) public view virtual override returns (uint256) {... */\n    tag_14:\n      callvalue\n      dup1\n      iszero\n      tag_88\n      jumpi\n      0x00\n      dup1\n      revert\n    tag_88:\n      pop\n      tag_52\n      tag_90\n      calldatasize\n      0x04\n      tag_82\n      jump\t// in\n    tag_90:\n      tag_91\n      jump\t// in\n        /* \"ERC721_flat.sol\":4580:4681  function renounceOwnership() public virtual onlyOwner {... */\n    tag_15:\n      callvalue\n      dup1\n      iszero\n      tag_93\n      jumpi\n      0x00\n      dup1\n      revert\n    tag_93:\n      pop\n      tag_47\n      tag_95\n      jump\t// in\n        /* \"ERC721_flat.sol\":3948:4033  function owner() public view virtual returns (address) {... */\n    tag_16:\n      callvalue\n      dup1\n      iszero\n      tag_96\n      jumpi\n      0x00\n      dup1\n      revert\n    tag_96:\n      pop\n        /* \"ERC721_flat.sol\":4020:4026  _owner */\n      and(sub(shl(0xa0, 0x01), 0x01), sload(0x0a))\n        /* \"ERC721_flat.sol\":3948:4033  function owner() public view virtual returns (address) {... */\n      jump(tag_40)\n        /* \"ERC721_flat.sol\":25524:25626  function symbol() public view virtual override returns (string memory) {... */\n    tag_17:\n      callvalue\n      dup1\n      iszero\n      tag_100\n      jumpi\n      0x00\n      dup1\n      revert\n    tag_100:\n      pop\n      tag_35\n      tag_102\n      jump\t// in\n        /* \"ERC721_flat.sol\":27157:27310  function setApprovalForAll(address operator, bool approved) public virtual override {... */\n    tag_18:\n      callvalue\n      dup1\n      iszero\n      tag_104\n      jumpi\n      0x00\n      dup1\n      revert\n    tag_104:\n      pop\n      tag_47\n      tag_106\n      calldatasize\n      0x04\n      tag_107\n      jump\t// in\n    tag_106:\n      tag_108\n      jump\t// in\n        /* \"ERC721_flat.sol\":28241:28561  function safeTransferFrom(... */\n    tag_19:\n      callvalue\n      dup1\n      iszero\n      tag_109\n      jumpi\n      0x00\n      dup1\n      revert\n    tag_109:\n      pop\n      tag_47\n      tag_111\n      calldatasize\n      0x04\n      tag_112\n      jump\t// in\n    tag_111:\n      tag_113\n      jump\t// in\n        /* \"ERC721_flat.sol\":44346:44383  string public baseExtension = \".json\" */\n    tag_20:\n      callvalue\n      dup1\n      iszero\n      tag_114\n      jumpi\n      0x00\n      dup1\n      revert\n    tag_114:\n      pop\n      tag_35\n      tag_116\n      jump\t// in\n        /* \"ERC721_flat.sol\":44801:45208  function tokenURI(uint256 tokenId)... */\n    tag_21:\n      callvalue\n      dup1\n      iszero\n      tag_118\n      jumpi\n      0x00\n      dup1\n      revert\n    tag_118:\n      pop\n      tag_35\n      tag_120\n      calldatasize\n      0x04\n      tag_42\n      jump\t// in\n    tag_120:\n      tag_121\n      jump\t// in\n        /* \"ERC721_flat.sol\":27376:27538  function isApprovedForAll(address owner, address operator) public view virtual override returns (bool) {... */\n    tag_22:\n      callvalue\n      dup1\n      iszero\n      tag_123\n      jumpi\n      0x00\n      dup1\n      revert\n    tag_123:\n      pop\n      tag_28\n      tag_125\n      calldatasize\n      0x04\n      tag_126\n      jump\t// in\n    tag_125:\n      sub(shl(0xa0, 0x01), 0x01)\n        /* \"ERC721_flat.sol\":27496:27521  _operatorApprovals[owner] */\n      swap2\n      dup3\n      and\n        /* \"ERC721_flat.sol\":27473:27477  bool */\n      0x00\n        /* \"ERC721_flat.sol\":27496:27521  _operatorApprovals[owner] */\n      swap1\n      dup2\n      mstore\n        /* \"ERC721_flat.sol\":27496:27514  _operatorApprovals */\n      0x05\n        /* \"ERC721_flat.sol\":27496:27521  _operatorApprovals[owner] */\n      0x20\n      swap1\n      dup2\n      mstore\n      0x40\n      dup1\n      dup4\n      keccak256\n        /* \"ERC721_flat.sol\":27496:27531  _operatorApprovals[owner][operator] */\n      swap4\n      swap1\n      swap5\n      and\n      dup3\n      mstore\n      swap2\n      swap1\n      swap2\n      mstore\n      keccak256\n      sload\n      0xff\n      and\n      swap1\n        /* \"ERC721_flat.sol\":27376:27538  function isApprovedForAll(address owner, address operator) public view virtual override returns (bool) {... */\n      jump\n        /* \"ERC721_flat.sol\":4830:5028  function transferOwnership(address newOwner) public virtual onlyOwner {... */\n    tag_23:\n      callvalue\n      dup1\n      iszero\n      tag_129\n      jumpi\n      0x00\n      dup1\n      revert\n    tag_129:\n      pop\n      tag_47\n      tag_131\n      calldatasize\n      0x04\n      tag_82\n      jump\t// in\n    tag_131:\n      tag_132\n      jump\t// in\n        /* \"ERC721_flat.sol\":38142:38364  function supportsInterface(bytes4 interfaceId) public view virtual override(IERC165, ERC721) returns (bool) {... */\n    tag_31:\n        /* \"ERC721_flat.sol\":38244:38248  bool */\n      0x00\n      not(sub(shl(0xe0, 0x01), 0x01))\n        /* \"ERC721_flat.sol\":38267:38317  interfaceId == type(IERC721Enumerable).interfaceId */\n      dup3\n      and\n      shl(0xe0, 0x780e9d63)\n      eq\n      dup1\n        /* \"ERC721_flat.sol\":38267:38357  interfaceId == type(IERC721Enumerable).interfaceId || super.supportsInterface(interfaceId) */\n      tag_135\n      jumpi\n      pop\n        /* \"ERC721_flat.sol\":38321:38357  super.supportsInterface(interfaceId) */\n      tag_135\n        /* \"ERC721_flat.sol\":38345:38356  interfaceId */\n      dup3\n        /* \"ERC721_flat.sol\":38321:38344  super.supportsInterface */\n      tag_136\n        /* \"ERC721_flat.sol\":38321:38357  super.supportsInterface(interfaceId) */\n      jump\t// in\n    tag_135:\n        /* \"ERC721_flat.sol\":38260:38357  return interfaceId == type(IERC721Enumerable).interfaceId || super.supportsInterface(interfaceId) */\n      swap3\n        /* \"ERC721_flat.sol\":38142:38364  function supportsInterface(bytes4 interfaceId) public view virtual override(IERC165, ERC721) returns (bool) {... */\n      swap2\n      pop\n      pop\n      jump\t// out\n        /* \"ERC721_flat.sol\":25362:25460  function name() public view virtual override returns (string memory) {... */\n    tag_36:\n        /* \"ERC721_flat.sol\":25416:25429  string memory */\n      0x60\n        /* \"ERC721_flat.sol\":25448:25453  _name */\n      0x00\n        /* \"ERC721_flat.sol\":25441:25453  return _name */\n      dup1\n      sload\n      tag_138\n      swap1\n      tag_139\n      jump\t// in\n    tag_138:\n      dup1\n      0x1f\n      add\n      0x20\n      dup1\n      swap2\n      div\n      mul\n      0x20\n      add\n      mload(0x40)\n      swap1\n      dup2\n      add\n      0x40\n      mstore\n      dup1\n      swap3\n      swap2\n      swap1\n      dup2\n      dup2\n      mstore\n      0x20\n      add\n      dup3\n      dup1\n      sload\n      tag_140\n      swap1\n      tag_139\n      jump\t// in\n    tag_140:\n      dup1\n      iszero\n      tag_141\n      jumpi\n      dup1\n      0x1f\n      lt\n      tag_142\n      jumpi\n      0x0100\n      dup1\n      dup4\n      sload\n      div\n      mul\n      dup4\n      mstore\n      swap2\n      0x20\n      add\n      swap2\n      jump(tag_141)\n    tag_142:\n      dup3\n      add\n      swap2\n      swap1\n      0x00\n      mstore\n      keccak256(0x00, 0x20)\n      swap1\n    tag_143:\n      dup2\n      sload\n      dup2\n      mstore\n      swap1\n      0x01\n      add\n      swap1\n      0x20\n      add\n      dup1\n      dup4\n      gt\n      tag_143\n      jumpi\n      dup3\n      swap1\n      sub\n      0x1f\n      and\n      dup3\n      add\n      swap2\n    tag_141:\n      pop\n      pop\n      pop\n      pop\n      pop\n      swap1\n      pop\n        /* \"ERC721_flat.sol\":25362:25460  function name() public view virtual override returns (string memory) {... */\n      swap1\n      jump\t// out\n        /* \"ERC721_flat.sol\":26873:27090  function getApproved(uint256 tokenId) public view virtual override returns (address) {... */\n    tag_43:\n        /* \"ERC721_flat.sol\":26949:26956  address */\n      0x00\n        /* \"ERC721_flat.sol\":30121:30137  _owners[tokenId] */\n      dup2\n      dup2\n      mstore\n        /* \"ERC721_flat.sol\":30121:30128  _owners */\n      0x02\n        /* \"ERC721_flat.sol\":30121:30137  _owners[tokenId] */\n      0x20\n      mstore\n      0x40\n      dup2\n      keccak256\n      sload\n      sub(shl(0xa0, 0x01), 0x01)\n      and\n        /* \"ERC721_flat.sol\":26968:27041  require(_exists(tokenId), \"ERC721: approved query for nonexistent token\") */\n      tag_147\n      jumpi\n      mload(0x40)\n      shl(0xe5, 0x461bcd)\n      dup2\n      mstore\n        /* \"#utility.yul\":11317:11319   */\n      0x20\n        /* \"ERC721_flat.sol\":26968:27041  require(_exists(tokenId), \"ERC721: approved query for nonexistent token\") */\n      0x04\n      dup3\n      add\n        /* \"#utility.yul\":11299:11320   */\n      mstore\n        /* \"#utility.yul\":11356:11358   */\n      0x2c\n        /* \"#utility.yul\":11336:11354   */\n      0x24\n      dup3\n      add\n        /* \"#utility.yul\":11329:11359   */\n      mstore\n        /* \"#utility.yul\":11395:11429   */\n      0x4552433732313a20617070726f76656420717565727920666f72206e6f6e6578\n        /* \"#utility.yul\":11375:11393   */\n      0x44\n      dup3\n      add\n        /* \"#utility.yul\":11368:11430   */\n      mstore\n      shl(0xa1, 0x34b9ba32b73a103a37b5b2b7)\n        /* \"#utility.yul\":11446:11464   */\n      0x64\n      dup3\n      add\n        /* \"#utility.yul\":11439:11481   */\n      mstore\n        /* \"#utility.yul\":11498:11517   */\n      0x84\n      add\n        /* \"ERC721_flat.sol\":26968:27041  require(_exists(tokenId), \"ERC721: approved query for nonexistent token\") */\n    tag_148:\n      mload(0x40)\n      dup1\n      swap2\n      sub\n      swap1\n      revert\n    tag_147:\n      pop\n        /* \"ERC721_flat.sol\":27059:27083  _tokenApprovals[tokenId] */\n      0x00\n      swap1\n      dup2\n      mstore\n        /* \"ERC721_flat.sol\":27059:27074  _tokenApprovals */\n      0x04\n        /* \"ERC721_flat.sol\":27059:27083  _tokenApprovals[tokenId] */\n      0x20\n      mstore\n      0x40\n      swap1\n      keccak256\n      sload\n      sub(shl(0xa0, 0x01), 0x01)\n      and\n      swap1\n        /* \"ERC721_flat.sol\":26873:27090  function getApproved(uint256 tokenId) public view virtual override returns (address) {... */\n      jump\t// out\n        /* \"ERC721_flat.sol\":26411:26812  function approve(address to, uint256 tokenId) public virtual override {... */\n    tag_50:\n        /* \"ERC721_flat.sol\":26491:26504  address owner */\n      0x00\n        /* \"ERC721_flat.sol\":26507:26530  ERC721.ownerOf(tokenId) */\n      tag_151\n        /* \"ERC721_flat.sol\":26522:26529  tokenId */\n      dup3\n        /* \"ERC721_flat.sol\":26507:26521  ERC721.ownerOf */\n      tag_78\n        /* \"ERC721_flat.sol\":26507:26530  ERC721.ownerOf(tokenId) */\n      jump\t// in\n    tag_151:\n        /* \"ERC721_flat.sol\":26491:26530  address owner = ERC721.ownerOf(tokenId) */\n      swap1\n      pop\n        /* \"ERC721_flat.sol\":26554:26559  owner */\n      dup1\n      sub(shl(0xa0, 0x01), 0x01)\n        /* \"ERC721_flat.sol\":26548:26559  to != owner */\n      and\n        /* \"ERC721_flat.sol\":26548:26550  to */\n      dup4\n      sub(shl(0xa0, 0x01), 0x01)\n        /* \"ERC721_flat.sol\":26548:26559  to != owner */\n      and\n      eq\n      iszero\n        /* \"ERC721_flat.sol\":26540:26597  require(to != owner, \"ERC721: approval to current owner\") */\n      tag_152\n      jumpi\n      mload(0x40)\n      shl(0xe5, 0x461bcd)\n      dup2\n      mstore\n        /* \"#utility.yul\":12507:12509   */\n      0x20\n        /* \"ERC721_flat.sol\":26540:26597  require(to != owner, \"ERC721: approval to current owner\") */\n      0x04\n      dup3\n      add\n        /* \"#utility.yul\":12489:12510   */\n      mstore\n        /* \"#utility.yul\":12546:12548   */\n      0x21\n        /* \"#utility.yul\":12526:12544   */\n      0x24\n      dup3\n      add\n        /* \"#utility.yul\":12519:12549   */\n      mstore\n        /* \"#utility.yul\":12585:12619   */\n      0x4552433732313a20617070726f76616c20746f2063757272656e74206f776e65\n        /* \"#utility.yul\":12565:12583   */\n      0x44\n      dup3\n      add\n        /* \"#utility.yul\":12558:12620   */\n      mstore\n      shl(0xf9, 0x39)\n        /* \"#utility.yul\":12636:12654   */\n      0x64\n      dup3\n      add\n        /* \"#utility.yul\":12629:12660   */\n      mstore\n        /* \"#utility.yul\":12677:12696   */\n      0x84\n      add\n        /* \"ERC721_flat.sol\":26540:26597  require(to != owner, \"ERC721: approval to current owner\") */\n      tag_148\n        /* \"#utility.yul\":12305:12702   */\n      jump\n        /* \"ERC721_flat.sol\":26540:26597  require(to != owner, \"ERC721: approval to current owner\") */\n    tag_152:\n        /* \"ERC721_flat.sol\":2795:2805  msg.sender */\n      caller\n      sub(shl(0xa0, 0x01), 0x01)\n        /* \"ERC721_flat.sol\":26629:26650  _msgSender() == owner */\n      dup3\n      and\n      eq\n      dup1\n        /* \"ERC721_flat.sol\":26629:26691  _msgSender() == owner || isApprovedForAll(owner, _msgSender()) */\n      tag_158\n      jumpi\n      pop\n        /* \"ERC721_flat.sol\":26654:26691  isApprovedForAll(owner, _msgSender()) */\n      tag_158\n        /* \"ERC721_flat.sol\":26671:26676  owner */\n      dup2\n        /* \"ERC721_flat.sol\":2795:2805  msg.sender */\n      caller\n        /* \"ERC721_flat.sol\":27376:27538  function isApprovedForAll(address owner, address operator) public view virtual override returns (bool) {... */\n      tag_125\n      jump\t// in\n        /* \"ERC721_flat.sol\":26654:26691  isApprovedForAll(owner, _msgSender()) */\n    tag_158:\n        /* \"ERC721_flat.sol\":26608:26773  require(... */\n      tag_160\n      jumpi\n      mload(0x40)\n      shl(0xe5, 0x461bcd)\n      dup2\n      mstore\n        /* \"#utility.yul\":9710:9712   */\n      0x20\n        /* \"ERC721_flat.sol\":26608:26773  require(... */\n      0x04\n      dup3\n      add\n        /* \"#utility.yul\":9692:9713   */\n      mstore\n        /* \"#utility.yul\":9749:9751   */\n      0x38\n        /* \"#utility.yul\":9729:9747   */\n      0x24\n      dup3\n      add\n        /* \"#utility.yul\":9722:9752   */\n      mstore\n        /* \"#utility.yul\":9788:9822   */\n      0x4552433732313a20617070726f76652063616c6c6572206973206e6f74206f77\n        /* \"#utility.yul\":9768:9786   */\n      0x44\n      dup3\n      add\n        /* \"#utility.yul\":9761:9823   */\n      mstore\n        /* \"#utility.yul\":9859:9885   */\n      0x6e6572206e6f7220617070726f76656420666f7220616c6c0000000000000000\n        /* \"#utility.yul\":9839:9857   */\n      0x64\n      dup3\n      add\n        /* \"#utility.yul\":9832:9886   */\n      mstore\n        /* \"#utility.yul\":9903:9922   */\n      0x84\n      add\n        /* \"ERC721_flat.sol\":26608:26773  require(... */\n      tag_148\n        /* \"#utility.yul\":9508:9928   */\n      jump\n        /* \"ERC721_flat.sol\":26608:26773  require(... */\n    tag_160:\n        /* \"ERC721_flat.sol\":26784:26805  _approve(to, tokenId) */\n      tag_163\n        /* \"ERC721_flat.sol\":26793:26795  to */\n      dup4\n        /* \"ERC721_flat.sol\":26797:26804  tokenId */\n      dup4\n        /* \"ERC721_flat.sol\":26784:26792  _approve */\n      tag_164\n        /* \"ERC721_flat.sol\":26784:26805  _approve(to, tokenId) */\n      jump\t// in\n    tag_163:\n        /* \"ERC721_flat.sol\":26481:26812  {... */\n      pop\n        /* \"ERC721_flat.sol\":26411:26812  function approve(address to, uint256 tokenId) public virtual override {... */\n      pop\n      pop\n      jump\t// out\n        /* \"ERC721_flat.sol\":27600:27930  function transferFrom(... */\n    tag_60:\n        /* \"ERC721_flat.sol\":27789:27830  _isApprovedOrOwner(_msgSender(), tokenId) */\n      tag_167\n        /* \"ERC721_flat.sol\":2795:2805  msg.sender */\n      caller\n        /* \"ERC721_flat.sol\":27822:27829  tokenId */\n      dup3\n        /* \"ERC721_flat.sol\":27789:27807  _isApprovedOrOwner */\n      tag_169\n        /* \"ERC721_flat.sol\":27789:27830  _isApprovedOrOwner(_msgSender(), tokenId) */\n      jump\t// in\n    tag_167:\n        /* \"ERC721_flat.sol\":27781:27884  require(_isApprovedOrOwner(_msgSender(), tokenId), \"ERC721: transfer caller is not owner nor approved\") */\n      tag_170\n      jumpi\n      mload(0x40)\n      shl(0xe5, 0x461bcd)\n      dup2\n      mstore\n      0x04\n      add\n      tag_148\n      swap1\n      tag_172\n      jump\t// in\n    tag_170:\n        /* \"ERC721_flat.sol\":27895:27923  _transfer(from, to, tokenId) */\n      tag_163\n        /* \"ERC721_flat.sol\":27905:27909  from */\n      dup4\n        /* \"ERC721_flat.sol\":27911:27913  to */\n      dup4\n        /* \"ERC721_flat.sol\":27915:27922  tokenId */\n      dup4\n        /* \"ERC721_flat.sol\":27895:27904  _transfer */\n      tag_174\n        /* \"ERC721_flat.sol\":27895:27923  _transfer(from, to, tokenId) */\n      jump\t// in\n        /* \"ERC721_flat.sol\":38443:38696  function tokenOfOwnerByIndex(address owner, uint256 index) public view virtual override returns (uint256) {... */\n    tag_64:\n        /* \"ERC721_flat.sol\":38540:38547  uint256 */\n      0x00\n        /* \"ERC721_flat.sol\":38575:38598  ERC721.balanceOf(owner) */\n      tag_176\n        /* \"ERC721_flat.sol\":38592:38597  owner */\n      dup4\n        /* \"ERC721_flat.sol\":38575:38591  ERC721.balanceOf */\n      tag_91\n        /* \"ERC721_flat.sol\":38575:38598  ERC721.balanceOf(owner) */\n      jump\t// in\n    tag_176:\n        /* \"ERC721_flat.sol\":38567:38572  index */\n      dup3\n        /* \"ERC721_flat.sol\":38567:38598  index < ERC721.balanceOf(owner) */\n      lt\n        /* \"ERC721_flat.sol\":38559:38646  require(index < ERC721.balanceOf(owner), \"ERC721Enumerable: owner index out of bounds\") */\n      tag_177\n      jumpi\n      mload(0x40)\n      shl(0xe5, 0x461bcd)\n      dup2\n      mstore\n        /* \"#utility.yul\":6537:6539   */\n      0x20\n        /* \"ERC721_flat.sol\":38559:38646  require(index < ERC721.balanceOf(owner), \"ERC721Enumerable: owner index out of bounds\") */\n      0x04\n      dup3\n      add\n        /* \"#utility.yul\":6519:6540   */\n      mstore\n        /* \"#utility.yul\":6576:6578   */\n      0x2b\n        /* \"#utility.yul\":6556:6574   */\n      0x24\n      dup3\n      add\n        /* \"#utility.yul\":6549:6579   */\n      mstore\n        /* \"#utility.yul\":6615:6649   */\n      0x455243373231456e756d657261626c653a206f776e657220696e646578206f75\n        /* \"#utility.yul\":6595:6613   */\n      0x44\n      dup3\n      add\n        /* \"#utility.yul\":6588:6650   */\n      mstore\n      shl(0xa8, 0x74206f6620626f756e6473)\n        /* \"#utility.yul\":6666:6684   */\n      0x64\n      dup3\n      add\n        /* \"#utility.yul\":6659:6700   */\n      mstore\n        /* \"#utility.yul\":6717:6736   */\n      0x84\n      add\n        /* \"ERC721_flat.sol\":38559:38646  require(index < ERC721.balanceOf(owner), \"ERC721Enumerable: owner index out of bounds\") */\n      tag_148\n        /* \"#utility.yul\":6335:6742   */\n      jump\n        /* \"ERC721_flat.sol\":38559:38646  require(index < ERC721.balanceOf(owner), \"ERC721Enumerable: owner index out of bounds\") */\n    tag_177:\n      pop\n      sub(shl(0xa0, 0x01), 0x01)\n        /* \"ERC721_flat.sol\":38663:38682  _ownedTokens[owner] */\n      swap2\n      swap1\n      swap2\n      and\n      0x00\n      swap1\n      dup2\n      mstore\n        /* \"ERC721_flat.sol\":38663:38675  _ownedTokens */\n      0x06\n        /* \"ERC721_flat.sol\":38663:38682  _ownedTokens[owner] */\n      0x20\n      swap1\n      dup2\n      mstore\n      0x40\n      dup1\n      dup4\n      keccak256\n        /* \"ERC721_flat.sol\":38663:38689  _ownedTokens[owner][index] */\n      swap4\n      dup4\n      mstore\n      swap3\n      swap1\n      mstore\n      keccak256\n      sload\n      swap1\n        /* \"ERC721_flat.sol\":38443:38696  function tokenOfOwnerByIndex(address owner, uint256 index) public view virtual override returns (uint256) {... */\n      jump\t// out\n        /* \"ERC721_flat.sol\":27996:28175  function safeTransferFrom(... */\n    tag_69:\n        /* \"ERC721_flat.sol\":28129:28168  safeTransferFrom(from, to, tokenId, \"\") */\n      tag_163\n        /* \"ERC721_flat.sol\":28146:28150  from */\n      dup4\n        /* \"ERC721_flat.sol\":28152:28154  to */\n      dup4\n        /* \"ERC721_flat.sol\":28156:28163  tokenId */\n      dup4\n        /* \"ERC721_flat.sol\":28129:28168  safeTransferFrom(from, to, tokenId, \"\") */\n      mload(0x40)\n      dup1\n      0x20\n      add\n      0x40\n      mstore\n      dup1\n      0x00\n      dup2\n      mstore\n      pop\n        /* \"ERC721_flat.sol\":28129:28145  safeTransferFrom */\n      tag_113\n        /* \"ERC721_flat.sol\":28129:28168  safeTransferFrom(from, to, tokenId, \"\") */\n      jump\t// in\n        /* \"ERC721_flat.sol\":38950:39180  function tokenByIndex(uint256 index) public view virtual override returns (uint256) {... */\n    tag_73:\n        /* \"ERC721_flat.sol\":39025:39032  uint256 */\n      0x00\n        /* \"ERC721_flat.sol\":39060:39090  ERC721Enumerable.totalSupply() */\n      tag_183\n        /* \"ERC721_flat.sol\":38854:38864  _allTokens */\n      0x08\n        /* \"ERC721_flat.sol\":38854:38871  _allTokens.length */\n      sload\n      swap1\n        /* \"ERC721_flat.sol\":38767:38878  function totalSupply() public view virtual override returns (uint256) {... */\n      jump\n        /* \"ERC721_flat.sol\":39060:39090  ERC721Enumerable.totalSupply() */\n    tag_183:\n        /* \"ERC721_flat.sol\":39052:39057  index */\n      dup3\n        /* \"ERC721_flat.sol\":39052:39090  index < ERC721Enumerable.totalSupply() */\n      lt\n        /* \"ERC721_flat.sol\":39044:39139  require(index < ERC721Enumerable.totalSupply(), \"ERC721Enumerable: global index out of bounds\") */\n      tag_184\n      jumpi\n      mload(0x40)\n      shl(0xe5, 0x461bcd)\n      dup2\n      mstore\n        /* \"#utility.yul\":13327:13329   */\n      0x20\n        /* \"ERC721_flat.sol\":39044:39139  require(index < ERC721Enumerable.totalSupply(), \"ERC721Enumerable: global index out of bounds\") */\n      0x04\n      dup3\n      add\n        /* \"#utility.yul\":13309:13330   */\n      mstore\n        /* \"#utility.yul\":13366:13368   */\n      0x2c\n        /* \"#utility.yul\":13346:13364   */\n      0x24\n      dup3\n      add\n        /* \"#utility.yul\":13339:13369   */\n      mstore\n        /* \"#utility.yul\":13405:13439   */\n      0x455243373231456e756d657261626c653a20676c6f62616c20696e646578206f\n        /* \"#utility.yul\":13385:13403   */\n      0x44\n      dup3\n      add\n        /* \"#utility.yul\":13378:13440   */\n      mstore\n      shl(0xa0, 0x7574206f6620626f756e6473)\n        /* \"#utility.yul\":13456:13474   */\n      0x64\n      dup3\n      add\n        /* \"#utility.yul\":13449:13491   */\n      mstore\n        /* \"#utility.yul\":13508:13527   */\n      0x84\n      add\n        /* \"ERC721_flat.sol\":39044:39139  require(index < ERC721Enumerable.totalSupply(), \"ERC721Enumerable: global index out of bounds\") */\n      tag_148\n        /* \"#utility.yul\":13125:13533   */\n      jump\n        /* \"ERC721_flat.sol\":39044:39139  require(index < ERC721Enumerable.totalSupply(), \"ERC721Enumerable: global index out of bounds\") */\n    tag_184:\n        /* \"ERC721_flat.sol\":39156:39166  _allTokens */\n      0x08\n        /* \"ERC721_flat.sol\":39167:39172  index */\n      dup3\n        /* \"ERC721_flat.sol\":39156:39173  _allTokens[index] */\n      dup2\n      sload\n      dup2\n      lt\n      tag_188\n      jumpi\n      tag_188\n      tag_189\n      jump\t// in\n    tag_188:\n      swap1\n      0x00\n      mstore\n      keccak256(0x00, 0x20)\n      add\n      sload\n        /* \"ERC721_flat.sol\":39149:39173  return _allTokens[index] */\n      swap1\n      pop\n        /* \"ERC721_flat.sol\":38950:39180  function tokenByIndex(uint256 index) public view virtual override returns (uint256) {... */\n      swap2\n      swap1\n      pop\n      jump\t// out\n        /* \"ERC721_flat.sol\":25065:25300  function ownerOf(uint256 tokenId) public view virtual override returns (address) {... */\n    tag_78:\n        /* \"ERC721_flat.sol\":25137:25144  address */\n      0x00\n        /* \"ERC721_flat.sol\":25172:25188  _owners[tokenId] */\n      dup2\n      dup2\n      mstore\n        /* \"ERC721_flat.sol\":25172:25179  _owners */\n      0x02\n        /* \"ERC721_flat.sol\":25172:25188  _owners[tokenId] */\n      0x20\n      mstore\n      0x40\n      dup2\n      keccak256\n      sload\n      sub(shl(0xa0, 0x01), 0x01)\n      and\n        /* \"ERC721_flat.sol\":25206:25225  owner != address(0) */\n      dup1\n        /* \"ERC721_flat.sol\":25198:25271  require(owner != address(0), \"ERC721: owner query for nonexistent token\") */\n      tag_135\n      jumpi\n      mload(0x40)\n      shl(0xe5, 0x461bcd)\n      dup2\n      mstore\n        /* \"#utility.yul\":10546:10548   */\n      0x20\n        /* \"ERC721_flat.sol\":25198:25271  require(owner != address(0), \"ERC721: owner query for nonexistent token\") */\n      0x04\n      dup3\n      add\n        /* \"#utility.yul\":10528:10549   */\n      mstore\n        /* \"#utility.yul\":10585:10587   */\n      0x29\n        /* \"#utility.yul\":10565:10583   */\n      0x24\n      dup3\n      add\n        /* \"#utility.yul\":10558:10588   */\n      mstore\n        /* \"#utility.yul\":10624:10658   */\n      0x4552433732313a206f776e657220717565727920666f72206e6f6e6578697374\n        /* \"#utility.yul\":10604:10622   */\n      0x44\n      dup3\n      add\n        /* \"#utility.yul\":10597:10659   */\n      mstore\n      shl(0xb9, 0x32b73a103a37b5b2b7)\n        /* \"#utility.yul\":10675:10693   */\n      0x64\n      dup3\n      add\n        /* \"#utility.yul\":10668:10707   */\n      mstore\n        /* \"#utility.yul\":10724:10743   */\n      0x84\n      add\n        /* \"ERC721_flat.sol\":25198:25271  require(owner != address(0), \"ERC721: owner query for nonexistent token\") */\n      tag_148\n        /* \"#utility.yul\":10344:10749   */\n      jump\n        /* \"ERC721_flat.sol\":44680:44797  function mint(address _to) public payable {... */\n    tag_83:\n        /* \"ERC721_flat.sol\":44728:44742  uint256 supply */\n      0x00\n        /* \"ERC721_flat.sol\":44745:44758  totalSupply() */\n      tag_196\n        /* \"ERC721_flat.sol\":38854:38864  _allTokens */\n      0x08\n        /* \"ERC721_flat.sol\":38854:38871  _allTokens.length */\n      sload\n      swap1\n        /* \"ERC721_flat.sol\":38767:38878  function totalSupply() public view virtual override returns (uint256) {... */\n      jump\n        /* \"ERC721_flat.sol\":44745:44758  totalSupply() */\n    tag_196:\n        /* \"ERC721_flat.sol\":44728:44758  uint256 supply = totalSupply() */\n      swap1\n      pop\n        /* \"ERC721_flat.sol\":44766:44792  _safeMint(_to, supply + 1) */\n      tag_197\n        /* \"ERC721_flat.sol\":44776:44779  _to */\n      dup3\n        /* \"ERC721_flat.sol\":44781:44791  supply + 1 */\n      tag_198\n        /* \"ERC721_flat.sol\":44728:44758  uint256 supply = totalSupply() */\n      dup4\n        /* \"ERC721_flat.sol\":44790:44791  1 */\n      0x01\n        /* \"ERC721_flat.sol\":44781:44791  supply + 1 */\n      tag_199\n      jump\t// in\n    tag_198:\n        /* \"ERC721_flat.sol\":44766:44775  _safeMint */\n      tag_200\n        /* \"ERC721_flat.sol\":44766:44792  _safeMint(_to, supply + 1) */\n      jump\t// in\n    tag_197:\n        /* \"ERC721_flat.sol\":44722:44797  {... */\n      pop\n        /* \"ERC721_flat.sol\":44680:44797  function mint(address _to) public payable {... */\n      pop\n      jump\t// out\n        /* \"ERC721_flat.sol\":44321:44342  string public baseURI */\n    tag_86:\n      0x0b\n      dup1\n      sload\n      tag_201\n      swap1\n      tag_139\n      jump\t// in\n    tag_201:\n      dup1\n      0x1f\n      add\n      0x20\n      dup1\n      swap2\n      div\n      mul\n      0x20\n      add\n      mload(0x40)\n      swap1\n      dup2\n      add\n      0x40\n      mstore\n      dup1\n      swap3\n      swap2\n      swap1\n      dup2\n      dup2\n      mstore\n      0x20\n      add\n      dup3\n      dup1\n      sload\n      tag_202\n      swap1\n      tag_139\n      jump\t// in\n    tag_202:\n      dup1\n      iszero\n      tag_203\n      jumpi\n      dup1\n      0x1f\n      lt\n      tag_204\n      jumpi\n      0x0100\n      dup1\n      dup4\n      sload\n      div\n      mul\n      dup4\n      mstore\n      swap2\n      0x20\n      add\n      swap2\n      jump(tag_203)\n    tag_204:\n      dup3\n      add\n      swap2\n      swap1\n      0x00\n      mstore\n      keccak256(0x00, 0x20)\n      swap1\n    tag_205:\n      dup2\n      sload\n      dup2\n      mstore\n      swap1\n      0x01\n      add\n      swap1\n      0x20\n      add\n      dup1\n      dup4\n      gt\n      tag_205\n      jumpi\n      dup3\n      swap1\n      sub\n      0x1f\n      and\n      dup3\n      add\n      swap2\n    tag_203:\n      pop\n      pop\n      pop\n      pop\n      pop\n      dup2\n      jump\t// out\n        /* \"ERC721_flat.sol\":24803:25008  function balanceOf(address owner) public view virtual override returns (uint256) {... */\n    tag_91:\n        /* \"ERC721_flat.sol\":24875:24882  uint256 */\n      0x00\n      sub(shl(0xa0, 0x01), 0x01)\n        /* \"ERC721_flat.sol\":24902:24921  owner != address(0) */\n      dup3\n      and\n        /* \"ERC721_flat.sol\":24894:24968  require(owner != address(0), \"ERC721: balance query for the zero address\") */\n      tag_207\n      jumpi\n      mload(0x40)\n      shl(0xe5, 0x461bcd)\n      dup2\n      mstore\n        /* \"#utility.yul\":10135:10137   */\n      0x20\n        /* \"ERC721_flat.sol\":24894:24968  require(owner != address(0), \"ERC721: balance query for the zero address\") */\n      0x04\n      dup3\n      add\n        /* \"#utility.yul\":10117:10138   */\n      mstore\n        /* \"#utility.yul\":10174:10176   */\n      0x2a\n        /* \"#utility.yul\":10154:10172   */\n      0x24\n      dup3\n      add\n        /* \"#utility.yul\":10147:10177   */\n      mstore\n        /* \"#utility.yul\":10213:10247   */\n      0x4552433732313a2062616c616e636520717565727920666f7220746865207a65\n        /* \"#utility.yul\":10193:10211   */\n      0x44\n      dup3\n      add\n        /* \"#utility.yul\":10186:10248   */\n      mstore\n      shl(0xb0, 0x726f2061646472657373)\n        /* \"#utility.yul\":10264:10282   */\n      0x64\n      dup3\n      add\n        /* \"#utility.yul\":10257:10297   */\n      mstore\n        /* \"#utility.yul\":10314:10333   */\n      0x84\n      add\n        /* \"ERC721_flat.sol\":24894:24968  require(owner != address(0), \"ERC721: balance query for the zero address\") */\n      tag_148\n        /* \"#utility.yul\":9933:10339   */\n      jump\n        /* \"ERC721_flat.sol\":24894:24968  require(owner != address(0), \"ERC721: balance query for the zero address\") */\n    tag_207:\n      pop\n      sub(shl(0xa0, 0x01), 0x01)\n        /* \"ERC721_flat.sol\":24985:25001  _balances[owner] */\n      and\n      0x00\n      swap1\n      dup2\n      mstore\n        /* \"ERC721_flat.sol\":24985:24994  _balances */\n      0x03\n        /* \"ERC721_flat.sol\":24985:25001  _balances[owner] */\n      0x20\n      mstore\n      0x40\n      swap1\n      keccak256\n      sload\n      swap1\n        /* \"ERC721_flat.sol\":24803:25008  function balanceOf(address owner) public view virtual override returns (uint256) {... */\n      jump\t// out\n        /* \"ERC721_flat.sol\":4580:4681  function renounceOwnership() public virtual onlyOwner {... */\n    tag_95:\n        /* \"ERC721_flat.sol\":4020:4026  _owner */\n      and(sub(shl(0xa0, 0x01), 0x01), sload(0x0a))\n        /* \"ERC721_flat.sol\":2795:2805  msg.sender */\n      caller\n        /* \"ERC721_flat.sol\":4160:4183  owner() == _msgSender() */\n      eq\n        /* \"ERC721_flat.sol\":4152:4220  require(owner() == _msgSender(), \"Ownable: caller is not the owner\") */\n      tag_213\n      jumpi\n      mload(0x40)\n      shl(0xe5, 0x461bcd)\n      dup2\n      mstore\n        /* \"#utility.yul\":11730:11732   */\n      0x20\n        /* \"ERC721_flat.sol\":4152:4220  require(owner() == _msgSender(), \"Ownable: caller is not the owner\") */\n      0x04\n      dup3\n      add\n        /* \"#utility.yul\":11712:11733   */\n      dup2\n      swap1\n      mstore\n        /* \"#utility.yul\":11749:11767   */\n      0x24\n      dup3\n      add\n        /* \"#utility.yul\":11742:11772   */\n      mstore\n        /* \"#utility.yul\":11808:11842   */\n      0x4f776e61626c653a2063616c6c6572206973206e6f7420746865206f776e6572\n        /* \"#utility.yul\":11788:11806   */\n      0x44\n      dup3\n      add\n        /* \"#utility.yul\":11781:11843   */\n      mstore\n        /* \"#utility.yul\":11860:11878   */\n      0x64\n      add\n        /* \"ERC721_flat.sol\":4152:4220  require(owner() == _msgSender(), \"Ownable: caller is not the owner\") */\n      tag_148\n        /* \"#utility.yul\":11528:11884   */\n      jump\n        /* \"ERC721_flat.sol\":4152:4220  require(owner() == _msgSender(), \"Ownable: caller is not the owner\") */\n    tag_213:\n        /* \"ERC721_flat.sol\":4644:4674  _transferOwnership(address(0)) */\n      tag_217\n        /* \"ERC721_flat.sol\":4671:4672  0 */\n      0x00\n        /* \"ERC721_flat.sol\":4644:4662  _transferOwnership */\n      tag_218\n        /* \"ERC721_flat.sol\":4644:4674  _transferOwnership(address(0)) */\n      jump\t// in\n    tag_217:\n        /* \"ERC721_flat.sol\":4580:4681  function renounceOwnership() public virtual onlyOwner {... */\n      jump\t// out\n        /* \"ERC721_flat.sol\":25524:25626  function symbol() public view virtual override returns (string memory) {... */\n    tag_102:\n        /* \"ERC721_flat.sol\":25580:25593  string memory */\n      0x60\n        /* \"ERC721_flat.sol\":25612:25619  _symbol */\n      0x01\n        /* \"ERC721_flat.sol\":25605:25619  return _symbol */\n      dup1\n      sload\n      tag_138\n      swap1\n      tag_139\n      jump\t// in\n        /* \"ERC721_flat.sol\":27157:27310  function setApprovalForAll(address operator, bool approved) public virtual override {... */\n    tag_108:\n        /* \"ERC721_flat.sol\":27251:27303  _setApprovalForAll(_msgSender(), operator, approved) */\n      tag_197\n        /* \"ERC721_flat.sol\":2795:2805  msg.sender */\n      caller\n        /* \"ERC721_flat.sol\":27284:27292  operator */\n      dup4\n        /* \"ERC721_flat.sol\":27294:27302  approved */\n      dup4\n        /* \"ERC721_flat.sol\":27251:27269  _setApprovalForAll */\n      tag_229\n        /* \"ERC721_flat.sol\":27251:27303  _setApprovalForAll(_msgSender(), operator, approved) */\n      jump\t// in\n        /* \"ERC721_flat.sol\":28241:28561  function safeTransferFrom(... */\n    tag_113:\n        /* \"ERC721_flat.sol\":28410:28451  _isApprovedOrOwner(_msgSender(), tokenId) */\n      tag_231\n        /* \"ERC721_flat.sol\":2795:2805  msg.sender */\n      caller\n        /* \"ERC721_flat.sol\":28443:28450  tokenId */\n      dup4\n        /* \"ERC721_flat.sol\":28410:28428  _isApprovedOrOwner */\n      tag_169\n        /* \"ERC721_flat.sol\":28410:28451  _isApprovedOrOwner(_msgSender(), tokenId) */\n      jump\t// in\n    tag_231:\n        /* \"ERC721_flat.sol\":28402:28505  require(_isApprovedOrOwner(_msgSender(), tokenId), \"ERC721: transfer caller is not owner nor approved\") */\n      tag_233\n      jumpi\n      mload(0x40)\n      shl(0xe5, 0x461bcd)\n      dup2\n      mstore\n      0x04\n      add\n      tag_148\n      swap1\n      tag_172\n      jump\t// in\n    tag_233:\n        /* \"ERC721_flat.sol\":28515:28554  _safeTransfer(from, to, tokenId, _data) */\n      tag_235\n        /* \"ERC721_flat.sol\":28529:28533  from */\n      dup5\n        /* \"ERC721_flat.sol\":28535:28537  to */\n      dup5\n        /* \"ERC721_flat.sol\":28539:28546  tokenId */\n      dup5\n        /* \"ERC721_flat.sol\":28548:28553  _data */\n      dup5\n        /* \"ERC721_flat.sol\":28515:28528  _safeTransfer */\n      tag_236\n        /* \"ERC721_flat.sol\":28515:28554  _safeTransfer(from, to, tokenId, _data) */\n      jump\t// in\n    tag_235:\n        /* \"ERC721_flat.sol\":28241:28561  function safeTransferFrom(... */\n      pop\n      pop\n      pop\n      pop\n      jump\t// out\n        /* \"ERC721_flat.sol\":44346:44383  string public baseExtension = \".json\" */\n    tag_116:\n      0x0c\n      dup1\n      sload\n      tag_201\n      swap1\n      tag_139\n      jump\t// in\n        /* \"ERC721_flat.sol\":44801:45208  function tokenURI(uint256 tokenId)... */\n    tag_121:\n        /* \"ERC721_flat.sol\":30098:30102  bool */\n      0x00\n        /* \"ERC721_flat.sol\":30121:30137  _owners[tokenId] */\n      dup2\n      dup2\n      mstore\n        /* \"ERC721_flat.sol\":30121:30128  _owners */\n      0x02\n        /* \"ERC721_flat.sol\":30121:30137  _owners[tokenId] */\n      0x20\n      mstore\n      0x40\n      swap1\n      keccak256\n      sload\n        /* \"ERC721_flat.sol\":44894:44907  string memory */\n      0x60\n      swap1\n      sub(shl(0xa0, 0x01), 0x01)\n        /* \"ERC721_flat.sol\":30121:30137  _owners[tokenId] */\n      and\n        /* \"ERC721_flat.sol\":44917:45011  require(... */\n      tag_244\n      jumpi\n      mload(0x40)\n      shl(0xe5, 0x461bcd)\n      dup2\n      mstore\n        /* \"#utility.yul\":12091:12093   */\n      0x20\n        /* \"ERC721_flat.sol\":44917:45011  require(... */\n      0x04\n      dup3\n      add\n        /* \"#utility.yul\":12073:12094   */\n      mstore\n        /* \"#utility.yul\":12130:12132   */\n      0x2f\n        /* \"#utility.yul\":12110:12128   */\n      0x24\n      dup3\n      add\n        /* \"#utility.yul\":12103:12133   */\n      mstore\n        /* \"#utility.yul\":12169:12203   */\n      0x4552433732314d657461646174613a2055524920717565727920666f72206e6f\n        /* \"#utility.yul\":12149:12167   */\n      0x44\n      dup3\n      add\n        /* \"#utility.yul\":12142:12204   */\n      mstore\n      shl(0x89, 0x3732bc34b9ba32b73a103a37b5b2b7)\n        /* \"#utility.yul\":12220:12238   */\n      0x64\n      dup3\n      add\n        /* \"#utility.yul\":12213:12258   */\n      mstore\n        /* \"#utility.yul\":12275:12294   */\n      0x84\n      add\n        /* \"ERC721_flat.sol\":44917:45011  require(... */\n      tag_148\n        /* \"#utility.yul\":11889:12300   */\n      jump\n        /* \"ERC721_flat.sol\":44917:45011  require(... */\n    tag_244:\n        /* \"ERC721_flat.sol\":45018:45046  string memory currentBaseURI */\n      0x00\n        /* \"ERC721_flat.sol\":45049:45059  _baseURI() */\n      tag_247\n        /* \"ERC721_flat.sol\":45049:45057  _baseURI */\n      tag_248\n        /* \"ERC721_flat.sol\":45049:45059  _baseURI() */\n      jump\t// in\n    tag_247:\n        /* \"ERC721_flat.sol\":45018:45059  string memory currentBaseURI = _baseURI() */\n      swap1\n      pop\n        /* \"ERC721_flat.sol\":45103:45104  0 */\n      0x00\n        /* \"ERC721_flat.sol\":45078:45092  currentBaseURI */\n      dup2\n        /* \"ERC721_flat.sol\":45072:45100  bytes(currentBaseURI).length */\n      mload\n        /* \"ERC721_flat.sol\":45072:45104  bytes(currentBaseURI).length > 0 */\n      gt\n        /* \"ERC721_flat.sol\":45072:45203  bytes(currentBaseURI).length > 0... */\n      tag_249\n      jumpi\n      mload(0x40)\n      dup1\n      0x20\n      add\n      0x40\n      mstore\n      dup1\n      0x00\n      dup2\n      mstore\n      pop\n      jump(tag_250)\n    tag_249:\n        /* \"ERC721_flat.sol\":45139:45153  currentBaseURI */\n      dup1\n        /* \"ERC721_flat.sol\":45155:45173  tokenId.toString() */\n      tag_251\n        /* \"ERC721_flat.sol\":45155:45162  tokenId */\n      dup5\n        /* \"ERC721_flat.sol\":45155:45171  tokenId.toString */\n      tag_252\n        /* \"ERC721_flat.sol\":45155:45173  tokenId.toString() */\n      jump\t// in\n    tag_251:\n        /* \"ERC721_flat.sol\":45175:45188  baseExtension */\n      0x0c\n        /* \"ERC721_flat.sol\":45122:45189  abi.encodePacked(currentBaseURI, tokenId.toString(), baseExtension) */\n      add(0x20, mload(0x40))\n      tag_253\n      swap4\n      swap3\n      swap2\n      swap1\n      tag_254\n      jump\t// in\n    tag_253:\n      mload(0x40)\n      0x20\n      dup2\n      dup4\n      sub\n      sub\n      dup2\n      mstore\n      swap1\n      0x40\n      mstore\n        /* \"ERC721_flat.sol\":45072:45203  bytes(currentBaseURI).length > 0... */\n    tag_250:\n        /* \"ERC721_flat.sol\":45065:45203  return bytes(currentBaseURI).length > 0... */\n      swap4\n        /* \"ERC721_flat.sol\":44801:45208  function tokenURI(uint256 tokenId)... */\n      swap3\n      pop\n      pop\n      pop\n      jump\t// out\n        /* \"ERC721_flat.sol\":4830:5028  function transferOwnership(address newOwner) public virtual onlyOwner {... */\n    tag_132:\n        /* \"ERC721_flat.sol\":4020:4026  _owner */\n      and(sub(shl(0xa0, 0x01), 0x01), sload(0x0a))\n        /* \"ERC721_flat.sol\":2795:2805  msg.sender */\n      caller\n        /* \"ERC721_flat.sol\":4160:4183  owner() == _msgSender() */\n      eq\n        /* \"ERC721_flat.sol\":4152:4220  require(owner() == _msgSender(), \"Ownable: caller is not the owner\") */\n      tag_259\n      jumpi\n      mload(0x40)\n      shl(0xe5, 0x461bcd)\n      dup2\n      mstore\n        /* \"#utility.yul\":11730:11732   */\n      0x20\n        /* \"ERC721_flat.sol\":4152:4220  require(owner() == _msgSender(), \"Ownable: caller is not the owner\") */\n      0x04\n      dup3\n      add\n        /* \"#utility.yul\":11712:11733   */\n      dup2\n      swap1\n      mstore\n        /* \"#utility.yul\":11749:11767   */\n      0x24\n      dup3\n      add\n        /* \"#utility.yul\":11742:11772   */\n      mstore\n        /* \"#utility.yul\":11808:11842   */\n      0x4f776e61626c653a2063616c6c6572206973206e6f7420746865206f776e6572\n        /* \"#utility.yul\":11788:11806   */\n      0x44\n      dup3\n      add\n        /* \"#utility.yul\":11781:11843   */\n      mstore\n        /* \"#utility.yul\":11860:11878   */\n      0x64\n      add\n        /* \"ERC721_flat.sol\":4152:4220  require(owner() == _msgSender(), \"Ownable: caller is not the owner\") */\n      tag_148\n        /* \"#utility.yul\":11528:11884   */\n      jump\n        /* \"ERC721_flat.sol\":4152:4220  require(owner() == _msgSender(), \"Ownable: caller is not the owner\") */\n    tag_259:\n      sub(shl(0xa0, 0x01), 0x01)\n        /* \"ERC721_flat.sol\":4918:4940  newOwner != address(0) */\n      dup2\n      and\n        /* \"ERC721_flat.sol\":4910:4983  require(newOwner != address(0), \"Ownable: new owner is the zero address\") */\n      tag_262\n      jumpi\n      mload(0x40)\n      shl(0xe5, 0x461bcd)\n      dup2\n      mstore\n        /* \"#utility.yul\":7368:7370   */\n      0x20\n        /* \"ERC721_flat.sol\":4910:4983  require(newOwner != address(0), \"Ownable: new owner is the zero address\") */\n      0x04\n      dup3\n      add\n        /* \"#utility.yul\":7350:7371   */\n      mstore\n        /* \"#utility.yul\":7407:7409   */\n      0x26\n        /* \"#utility.yul\":7387:7405   */\n      0x24\n      dup3\n      add\n        /* \"#utility.yul\":7380:7410   */\n      mstore\n        /* \"#utility.yul\":7446:7480   */\n      0x4f776e61626c653a206e6577206f776e657220697320746865207a65726f2061\n        /* \"#utility.yul\":7426:7444   */\n      0x44\n      dup3\n      add\n        /* \"#utility.yul\":7419:7481   */\n      mstore\n      shl(0xd0, 0x646472657373)\n        /* \"#utility.yul\":7497:7515   */\n      0x64\n      dup3\n      add\n        /* \"#utility.yul\":7490:7526   */\n      mstore\n        /* \"#utility.yul\":7543:7562   */\n      0x84\n      add\n        /* \"ERC721_flat.sol\":4910:4983  require(newOwner != address(0), \"Ownable: new owner is the zero address\") */\n      tag_148\n        /* \"#utility.yul\":7166:7568   */\n      jump\n        /* \"ERC721_flat.sol\":4910:4983  require(newOwner != address(0), \"Ownable: new owner is the zero address\") */\n    tag_262:\n        /* \"ERC721_flat.sol\":4993:5021  _transferOwnership(newOwner) */\n      tag_265\n        /* \"ERC721_flat.sol\":5012:5020  newOwner */\n      dup2\n        /* \"ERC721_flat.sol\":4993:5011  _transferOwnership */\n      tag_218\n        /* \"ERC721_flat.sol\":4993:5021  _transferOwnership(newOwner) */\n      jump\t// in\n    tag_265:\n        /* \"ERC721_flat.sol\":4830:5028  function transferOwnership(address newOwner) public virtual onlyOwner {... */\n      pop\n      jump\t// out\n        /* \"ERC721_flat.sol\":24444:24744  function supportsInterface(bytes4 interfaceId) public view virtual override(ERC165, IERC165) returns (bool) {... */\n    tag_136:\n        /* \"ERC721_flat.sol\":24546:24550  bool */\n      0x00\n      not(sub(shl(0xe0, 0x01), 0x01))\n        /* \"ERC721_flat.sol\":24581:24621  interfaceId == type(IERC721).interfaceId */\n      dup3\n      and\n      shl(0xe0, 0x80ac58cd)\n      eq\n      dup1\n        /* \"ERC721_flat.sol\":24581:24685  interfaceId == type(IERC721).interfaceId ||... */\n      tag_267\n      jumpi\n      pop\n      not(sub(shl(0xe0, 0x01), 0x01))\n        /* \"ERC721_flat.sol\":24637:24685  interfaceId == type(IERC721Metadata).interfaceId */\n      dup3\n      and\n      shl(0xe0, 0x5b5e139f)\n      eq\n        /* \"ERC721_flat.sol\":24581:24685  interfaceId == type(IERC721).interfaceId ||... */\n    tag_267:\n        /* \"ERC721_flat.sol\":24581:24737  interfaceId == type(IERC721).interfaceId ||... */\n      dup1\n      tag_135\n      jumpi\n      pop\n      shl(0xe0, 0x01ffc9a7)\n      not(sub(shl(0xe0, 0x01), 0x01))\n        /* \"ERC721_flat.sol\":16488:16528  interfaceId == type(IERC165).interfaceId */\n      dup4\n      and\n      eq\n        /* \"ERC721_flat.sol\":24701:24737  super.supportsInterface(interfaceId) */\n      tag_135\n        /* \"ERC721_flat.sol\":16380:16535  function supportsInterface(bytes4 interfaceId) public view virtual override returns (bool) {... */\n      jump\n        /* \"ERC721_flat.sol\":34042:34213  function _approve(address to, uint256 tokenId) internal virtual {... */\n    tag_164:\n        /* \"ERC721_flat.sol\":34116:34140  _tokenApprovals[tokenId] */\n      0x00\n      dup2\n      dup2\n      mstore\n        /* \"ERC721_flat.sol\":34116:34131  _tokenApprovals */\n      0x04\n        /* \"ERC721_flat.sol\":34116:34140  _tokenApprovals[tokenId] */\n      0x20\n      mstore\n      0x40\n      swap1\n      keccak256\n        /* \"ERC721_flat.sol\":34116:34145  _tokenApprovals[tokenId] = to */\n      dup1\n      sload\n      not(sub(shl(0xa0, 0x01), 0x01))\n      and\n      sub(shl(0xa0, 0x01), 0x01)\n      dup5\n      and\n      swap1\n      dup2\n      or\n      swap1\n      swap2\n      sstore\n        /* \"ERC721_flat.sol\":34116:34140  _tokenApprovals[tokenId] */\n      dup2\n      swap1\n        /* \"ERC721_flat.sol\":34169:34192  ERC721.ownerOf(tokenId) */\n      tag_274\n        /* \"ERC721_flat.sol\":34116:34140  _tokenApprovals[tokenId] */\n      dup3\n        /* \"ERC721_flat.sol\":34169:34183  ERC721.ownerOf */\n      tag_78\n        /* \"ERC721_flat.sol\":34169:34192  ERC721.ownerOf(tokenId) */\n      jump\t// in\n    tag_274:\n      sub(shl(0xa0, 0x01), 0x01)\n        /* \"ERC721_flat.sol\":34160:34206  Approval(ERC721.ownerOf(tokenId), to, tokenId) */\n      and\n      0x8c5be1e5ebec7d5bd14f71427d1e84f3dd0314c0f7b2291e5b200ac8c7c3b925\n      mload(0x40)\n      mload(0x40)\n      dup1\n      swap2\n      sub\n      swap1\n      log4\n        /* \"ERC721_flat.sol\":34042:34213  function _approve(address to, uint256 tokenId) internal virtual {... */\n      pop\n      pop\n      jump\t// out\n        /* \"ERC721_flat.sol\":30316:30660  function _isApprovedOrOwner(address spender, uint256 tokenId) internal view virtual returns (bool) {... */\n    tag_169:\n        /* \"ERC721_flat.sol\":30409:30413  bool */\n      0x00\n        /* \"ERC721_flat.sol\":30121:30137  _owners[tokenId] */\n      dup2\n      dup2\n      mstore\n        /* \"ERC721_flat.sol\":30121:30128  _owners */\n      0x02\n        /* \"ERC721_flat.sol\":30121:30137  _owners[tokenId] */\n      0x20\n      mstore\n      0x40\n      dup2\n      keccak256\n      sload\n      sub(shl(0xa0, 0x01), 0x01)\n      and\n        /* \"ERC721_flat.sol\":30425:30498  require(_exists(tokenId), \"ERC721: operator query for nonexistent token\") */\n      tag_277\n      jumpi\n      mload(0x40)\n      shl(0xe5, 0x461bcd)\n      dup2\n      mstore\n        /* \"#utility.yul\":9297:9299   */\n      0x20\n        /* \"ERC721_flat.sol\":30425:30498  require(_exists(tokenId), \"ERC721: operator query for nonexistent token\") */\n      0x04\n      dup3\n      add\n        /* \"#utility.yul\":9279:9300   */\n      mstore\n        /* \"#utility.yul\":9336:9338   */\n      0x2c\n        /* \"#utility.yul\":9316:9334   */\n      0x24\n      dup3\n      add\n        /* \"#utility.yul\":9309:9339   */\n      mstore\n        /* \"#utility.yul\":9375:9409   */\n      0x4552433732313a206f70657261746f7220717565727920666f72206e6f6e6578\n        /* \"#utility.yul\":9355:9373   */\n      0x44\n      dup3\n      add\n        /* \"#utility.yul\":9348:9410   */\n      mstore\n      shl(0xa1, 0x34b9ba32b73a103a37b5b2b7)\n        /* \"#utility.yul\":9426:9444   */\n      0x64\n      dup3\n      add\n        /* \"#utility.yul\":9419:9461   */\n      mstore\n        /* \"#utility.yul\":9478:9497   */\n      0x84\n      add\n        /* \"ERC721_flat.sol\":30425:30498  require(_exists(tokenId), \"ERC721: operator query for nonexistent token\") */\n      tag_148\n        /* \"#utility.yul\":9095:9503   */\n      jump\n        /* \"ERC721_flat.sol\":30425:30498  require(_exists(tokenId), \"ERC721: operator query for nonexistent token\") */\n    tag_277:\n        /* \"ERC721_flat.sol\":30508:30521  address owner */\n      0x00\n        /* \"ERC721_flat.sol\":30524:30547  ERC721.ownerOf(tokenId) */\n      tag_280\n        /* \"ERC721_flat.sol\":30539:30546  tokenId */\n      dup4\n        /* \"ERC721_flat.sol\":30524:30538  ERC721.ownerOf */\n      tag_78\n        /* \"ERC721_flat.sol\":30524:30547  ERC721.ownerOf(tokenId) */\n      jump\t// in\n    tag_280:\n        /* \"ERC721_flat.sol\":30508:30547  address owner = ERC721.ownerOf(tokenId) */\n      swap1\n      pop\n        /* \"ERC721_flat.sol\":30576:30581  owner */\n      dup1\n      sub(shl(0xa0, 0x01), 0x01)\n        /* \"ERC721_flat.sol\":30565:30581  spender == owner */\n      and\n        /* \"ERC721_flat.sol\":30565:30572  spender */\n      dup5\n      sub(shl(0xa0, 0x01), 0x01)\n        /* \"ERC721_flat.sol\":30565:30581  spender == owner */\n      and\n      eq\n        /* \"ERC721_flat.sol\":30565:30616  spender == owner || getApproved(tokenId) == spender */\n      dup1\n      tag_281\n      jumpi\n      pop\n        /* \"ERC721_flat.sol\":30609:30616  spender */\n      dup4\n      sub(shl(0xa0, 0x01), 0x01)\n        /* \"ERC721_flat.sol\":30585:30616  getApproved(tokenId) == spender */\n      and\n        /* \"ERC721_flat.sol\":30585:30605  getApproved(tokenId) */\n      tag_282\n        /* \"ERC721_flat.sol\":30597:30604  tokenId */\n      dup5\n        /* \"ERC721_flat.sol\":30585:30596  getApproved */\n      tag_43\n        /* \"ERC721_flat.sol\":30585:30605  getApproved(tokenId) */\n      jump\t// in\n    tag_282:\n      sub(shl(0xa0, 0x01), 0x01)\n        /* \"ERC721_flat.sol\":30585:30616  getApproved(tokenId) == spender */\n      and\n      eq\n        /* \"ERC721_flat.sol\":30565:30616  spender == owner || getApproved(tokenId) == spender */\n    tag_281:\n        /* \"ERC721_flat.sol\":30565:30652  spender == owner || getApproved(tokenId) == spender || isApprovedForAll(owner, spender) */\n      dup1\n      tag_284\n      jumpi\n      pop\n      sub(shl(0xa0, 0x01), 0x01)\n        /* \"ERC721_flat.sol\":27496:27521  _operatorApprovals[owner] */\n      dup1\n      dup3\n      and\n        /* \"ERC721_flat.sol\":27473:27477  bool */\n      0x00\n        /* \"ERC721_flat.sol\":27496:27521  _operatorApprovals[owner] */\n      swap1\n      dup2\n      mstore\n        /* \"ERC721_flat.sol\":27496:27514  _operatorApprovals */\n      0x05\n        /* \"ERC721_flat.sol\":27496:27521  _operatorApprovals[owner] */\n      0x20\n      swap1\n      dup2\n      mstore\n      0x40\n      dup1\n      dup4\n      keccak256\n        /* \"ERC721_flat.sol\":27496:27531  _operatorApprovals[owner][operator] */\n      swap4\n      dup9\n      and\n      dup4\n      mstore\n      swap3\n      swap1\n      mstore\n      keccak256\n      sload\n      0xff\n      and\n        /* \"ERC721_flat.sol\":30620:30652  isApprovedForAll(owner, spender) */\n    tag_284:\n        /* \"ERC721_flat.sol\":30557:30653  return (spender == owner || getApproved(tokenId) == spender || isApprovedForAll(owner, spender)) */\n      swap5\n        /* \"ERC721_flat.sol\":30316:30660  function _isApprovedOrOwner(address spender, uint256 tokenId) internal view virtual returns (bool) {... */\n      swap4\n      pop\n      pop\n      pop\n      pop\n      jump\t// out\n        /* \"ERC721_flat.sol\":33326:33931  function _transfer(... */\n    tag_174:\n        /* \"ERC721_flat.sol\":33480:33484  from */\n      dup3\n      sub(shl(0xa0, 0x01), 0x01)\n        /* \"ERC721_flat.sol\":33453:33484  ERC721.ownerOf(tokenId) == from */\n      and\n        /* \"ERC721_flat.sol\":33453:33476  ERC721.ownerOf(tokenId) */\n      tag_286\n        /* \"ERC721_flat.sol\":33468:33475  tokenId */\n      dup3\n        /* \"ERC721_flat.sol\":33453:33467  ERC721.ownerOf */\n      tag_78\n        /* \"ERC721_flat.sol\":33453:33476  ERC721.ownerOf(tokenId) */\n      jump\t// in\n    tag_286:\n      sub(shl(0xa0, 0x01), 0x01)\n        /* \"ERC721_flat.sol\":33453:33484  ERC721.ownerOf(tokenId) == from */\n      and\n      eq\n        /* \"ERC721_flat.sol\":33445:33526  require(ERC721.ownerOf(tokenId) == from, \"ERC721: transfer from incorrect owner\") */\n      tag_287\n      jumpi\n      mload(0x40)\n      shl(0xe5, 0x461bcd)\n      dup2\n      mstore\n        /* \"#utility.yul\":7775:7777   */\n      0x20\n        /* \"ERC721_flat.sol\":33445:33526  require(ERC721.ownerOf(tokenId) == from, \"ERC721: transfer from incorrect owner\") */\n      0x04\n      dup3\n      add\n        /* \"#utility.yul\":7757:7778   */\n      mstore\n        /* \"#utility.yul\":7814:7816   */\n      0x25\n        /* \"#utility.yul\":7794:7812   */\n      0x24\n      dup3\n      add\n        /* \"#utility.yul\":7787:7817   */\n      mstore\n        /* \"#utility.yul\":7853:7887   */\n      0x4552433732313a207472616e736665722066726f6d20696e636f727265637420\n        /* \"#utility.yul\":7833:7851   */\n      0x44\n      dup3\n      add\n        /* \"#utility.yul\":7826:7888   */\n      mstore\n      shl(0xd9, 0x37bbb732b9)\n        /* \"#utility.yul\":7904:7922   */\n      0x64\n      dup3\n      add\n        /* \"#utility.yul\":7897:7932   */\n      mstore\n        /* \"#utility.yul\":7949:7968   */\n      0x84\n      add\n        /* \"ERC721_flat.sol\":33445:33526  require(ERC721.ownerOf(tokenId) == from, \"ERC721: transfer from incorrect owner\") */\n      tag_148\n        /* \"#utility.yul\":7573:7974   */\n      jump\n        /* \"ERC721_flat.sol\":33445:33526  require(ERC721.ownerOf(tokenId) == from, \"ERC721: transfer from incorrect owner\") */\n    tag_287:\n      sub(shl(0xa0, 0x01), 0x01)\n        /* \"ERC721_flat.sol\":33544:33560  to != address(0) */\n      dup3\n      and\n        /* \"ERC721_flat.sol\":33536:33601  require(to != address(0), \"ERC721: transfer to the zero address\") */\n      tag_290\n      jumpi\n      mload(0x40)\n      shl(0xe5, 0x461bcd)\n      dup2\n      mstore\n        /* \"#utility.yul\":8538:8540   */\n      0x20\n        /* \"ERC721_flat.sol\":33536:33601  require(to != address(0), \"ERC721: transfer to the zero address\") */\n      0x04\n      dup3\n      add\n        /* \"#utility.yul\":8520:8541   */\n      mstore\n        /* \"#utility.yul\":8577:8579   */\n      0x24\n        /* \"#utility.yul\":8557:8575   */\n      dup1\n      dup3\n      add\n        /* \"#utility.yul\":8550:8580   */\n      mstore\n        /* \"#utility.yul\":8616:8650   */\n      0x4552433732313a207472616e7366657220746f20746865207a65726f20616464\n        /* \"#utility.yul\":8596:8614   */\n      0x44\n      dup3\n      add\n        /* \"#utility.yul\":8589:8651   */\n      mstore\n      shl(0xe0, 0x72657373)\n        /* \"#utility.yul\":8667:8685   */\n      0x64\n      dup3\n      add\n        /* \"#utility.yul\":8660:8694   */\n      mstore\n        /* \"#utility.yul\":8711:8730   */\n      0x84\n      add\n        /* \"ERC721_flat.sol\":33536:33601  require(to != address(0), \"ERC721: transfer to the zero address\") */\n      tag_148\n        /* \"#utility.yul\":8336:8736   */\n      jump\n        /* \"ERC721_flat.sol\":33536:33601  require(to != address(0), \"ERC721: transfer to the zero address\") */\n    tag_290:\n        /* \"ERC721_flat.sol\":33612:33651  _beforeTokenTransfer(from, to, tokenId) */\n      tag_293\n        /* \"ERC721_flat.sol\":33633:33637  from */\n      dup4\n        /* \"ERC721_flat.sol\":33639:33641  to */\n      dup4\n        /* \"ERC721_flat.sol\":33643:33650  tokenId */\n      dup4\n        /* \"ERC721_flat.sol\":33612:33632  _beforeTokenTransfer */\n      tag_294\n        /* \"ERC721_flat.sol\":33612:33651  _beforeTokenTransfer(from, to, tokenId) */\n      jump\t// in\n    tag_293:\n        /* \"ERC721_flat.sol\":33713:33742  _approve(address(0), tokenId) */\n      tag_295\n        /* \"ERC721_flat.sol\":33730:33731  0 */\n      0x00\n        /* \"ERC721_flat.sol\":33734:33741  tokenId */\n      dup3\n        /* \"ERC721_flat.sol\":33713:33721  _approve */\n      tag_164\n        /* \"ERC721_flat.sol\":33713:33742  _approve(address(0), tokenId) */\n      jump\t// in\n    tag_295:\n      sub(shl(0xa0, 0x01), 0x01)\n        /* \"ERC721_flat.sol\":33753:33768  _balances[from] */\n      dup4\n      and\n      0x00\n      swap1\n      dup2\n      mstore\n        /* \"ERC721_flat.sol\":33753:33762  _balances */\n      0x03\n        /* \"ERC721_flat.sol\":33753:33768  _balances[from] */\n      0x20\n      mstore\n      0x40\n      dup2\n      keccak256\n        /* \"ERC721_flat.sol\":33753:33773  _balances[from] -= 1 */\n      dup1\n      sload\n        /* \"ERC721_flat.sol\":33772:33773  1 */\n      0x01\n      swap3\n        /* \"ERC721_flat.sol\":33753:33768  _balances[from] */\n      swap1\n        /* \"ERC721_flat.sol\":33753:33773  _balances[from] -= 1 */\n      tag_296\n      swap1\n        /* \"ERC721_flat.sol\":33772:33773  1 */\n      dup5\n      swap1\n        /* \"ERC721_flat.sol\":33753:33773  _balances[from] -= 1 */\n      tag_297\n      jump\t// in\n    tag_296:\n      swap1\n      swap2\n      sstore\n      pop\n      pop\n      sub(shl(0xa0, 0x01), 0x01)\n        /* \"ERC721_flat.sol\":33783:33796  _balances[to] */\n      dup3\n      and\n      0x00\n      swap1\n      dup2\n      mstore\n        /* \"ERC721_flat.sol\":33783:33792  _balances */\n      0x03\n        /* \"ERC721_flat.sol\":33783:33796  _balances[to] */\n      0x20\n      mstore\n      0x40\n      dup2\n      keccak256\n        /* \"ERC721_flat.sol\":33783:33801  _balances[to] += 1 */\n      dup1\n      sload\n        /* \"ERC721_flat.sol\":33800:33801  1 */\n      0x01\n      swap3\n        /* \"ERC721_flat.sol\":33783:33796  _balances[to] */\n      swap1\n        /* \"ERC721_flat.sol\":33783:33801  _balances[to] += 1 */\n      tag_298\n      swap1\n        /* \"ERC721_flat.sol\":33800:33801  1 */\n      dup5\n      swap1\n        /* \"ERC721_flat.sol\":33783:33801  _balances[to] += 1 */\n      tag_199\n      jump\t// in\n    tag_298:\n      swap1\n      swap2\n      sstore\n      pop\n      pop\n        /* \"ERC721_flat.sol\":33811:33827  _owners[tokenId] */\n      0x00\n      dup2\n      dup2\n      mstore\n        /* \"ERC721_flat.sol\":33811:33818  _owners */\n      0x02\n        /* \"ERC721_flat.sol\":33811:33827  _owners[tokenId] */\n      0x20\n      mstore\n      0x40\n      dup1\n      dup3\n      keccak256\n        /* \"ERC721_flat.sol\":33811:33832  _owners[tokenId] = to */\n      dup1\n      sload\n      not(sub(shl(0xa0, 0x01), 0x01))\n      and\n      sub(shl(0xa0, 0x01), 0x01)\n      dup7\n      dup2\n      and\n      swap2\n      dup3\n      or\n      swap1\n      swap3\n      sstore\n        /* \"ERC721_flat.sol\":33848:33875  Transfer(from, to, tokenId) */\n      swap2\n      mload\n        /* \"ERC721_flat.sol\":33811:33827  _owners[tokenId] */\n      dup5\n      swap4\n        /* \"ERC721_flat.sol\":33848:33875  Transfer(from, to, tokenId) */\n      swap2\n      dup8\n      and\n      swap2\n      0xddf252ad1be2c89b69c2b068fc378daa952ba7f163c4a11628f55a4df523b3ef\n      swap2\n      log4\n        /* \"ERC721_flat.sol\":26481:26812  {... */\n      pop\n        /* \"ERC721_flat.sol\":26411:26812  function approve(address to, uint256 tokenId) public virtual override {... */\n      pop\n      pop\n      jump\t// out\n        /* \"ERC721_flat.sol\":30990:31098  function _safeMint(address to, uint256 tokenId) internal virtual {... */\n    tag_200:\n        /* \"ERC721_flat.sol\":31065:31091  _safeMint(to, tokenId, \"\") */\n      tag_197\n        /* \"ERC721_flat.sol\":31075:31077  to */\n      dup3\n        /* \"ERC721_flat.sol\":31079:31086  tokenId */\n      dup3\n        /* \"ERC721_flat.sol\":31065:31091  _safeMint(to, tokenId, \"\") */\n      mload(0x40)\n      dup1\n      0x20\n      add\n      0x40\n      mstore\n      dup1\n      0x00\n      dup2\n      mstore\n      pop\n        /* \"ERC721_flat.sol\":31065:31074  _safeMint */\n      tag_303\n        /* \"ERC721_flat.sol\":31065:31091  _safeMint(to, tokenId, \"\") */\n      jump\t// in\n        /* \"ERC721_flat.sol\":5182:5369  function _transferOwnership(address newOwner) internal virtual {... */\n    tag_218:\n        /* \"ERC721_flat.sol\":5274:5280  _owner */\n      0x0a\n      dup1\n      sload\n      sub(shl(0xa0, 0x01), 0x01)\n        /* \"ERC721_flat.sol\":5290:5307  _owner = newOwner */\n      dup4\n      dup2\n      and\n      not(sub(shl(0xa0, 0x01), 0x01))\n      dup4\n      and\n      dup2\n      or\n      swap1\n      swap4\n      sstore\n        /* \"ERC721_flat.sol\":5322:5362  OwnershipTransferred(oldOwner, newOwner) */\n      mload(0x40)\n        /* \"ERC721_flat.sol\":5274:5280  _owner */\n      swap2\n      and\n      swap2\n        /* \"ERC721_flat.sol\":5290:5307  _owner = newOwner */\n      swap1\n        /* \"ERC721_flat.sol\":5274:5280  _owner */\n      dup3\n      swap1\n        /* \"ERC721_flat.sol\":5322:5362  OwnershipTransferred(oldOwner, newOwner) */\n      0x8be0079c531659141344cd1fd0a4f28419497f9722a3daafe3b4186f6b6457e0\n      swap1\n        /* \"ERC721_flat.sol\":5255:5271  address oldOwner */\n      0x00\n      swap1\n        /* \"ERC721_flat.sol\":5322:5362  OwnershipTransferred(oldOwner, newOwner) */\n      log3\n        /* \"ERC721_flat.sol\":5245:5369  {... */\n      pop\n        /* \"ERC721_flat.sol\":5182:5369  function _transferOwnership(address newOwner) internal virtual {... */\n      pop\n      jump\t// out\n        /* \"ERC721_flat.sol\":34348:34655  function _setApprovalForAll(... */\n    tag_229:\n        /* \"ERC721_flat.sol\":34498:34506  operator */\n      dup2\n      sub(shl(0xa0, 0x01), 0x01)\n        /* \"ERC721_flat.sol\":34489:34506  owner != operator */\n      and\n        /* \"ERC721_flat.sol\":34489:34494  owner */\n      dup4\n      sub(shl(0xa0, 0x01), 0x01)\n        /* \"ERC721_flat.sol\":34489:34506  owner != operator */\n      and\n      eq\n      iszero\n        /* \"ERC721_flat.sol\":34481:34536  require(owner != operator, \"ERC721: approve to caller\") */\n      tag_306\n      jumpi\n      mload(0x40)\n      shl(0xe5, 0x461bcd)\n      dup2\n      mstore\n        /* \"#utility.yul\":8943:8945   */\n      0x20\n        /* \"ERC721_flat.sol\":34481:34536  require(owner != operator, \"ERC721: approve to caller\") */\n      0x04\n      dup3\n      add\n        /* \"#utility.yul\":8925:8946   */\n      mstore\n        /* \"#utility.yul\":8982:8984   */\n      0x19\n        /* \"#utility.yul\":8962:8980   */\n      0x24\n      dup3\n      add\n        /* \"#utility.yul\":8955:8985   */\n      mstore\n        /* \"#utility.yul\":9021:9048   */\n      0x4552433732313a20617070726f766520746f2063616c6c657200000000000000\n        /* \"#utility.yul\":9001:9019   */\n      0x44\n      dup3\n      add\n        /* \"#utility.yul\":8994:9049   */\n      mstore\n        /* \"#utility.yul\":9066:9084   */\n      0x64\n      add\n        /* \"ERC721_flat.sol\":34481:34536  require(owner != operator, \"ERC721: approve to caller\") */\n      tag_148\n        /* \"#utility.yul\":8741:9090   */\n      jump\n        /* \"ERC721_flat.sol\":34481:34536  require(owner != operator, \"ERC721: approve to caller\") */\n    tag_306:\n      sub(shl(0xa0, 0x01), 0x01)\n        /* \"ERC721_flat.sol\":34546:34571  _operatorApprovals[owner] */\n      dup4\n      dup2\n      and\n      0x00\n      dup2\n      dup2\n      mstore\n        /* \"ERC721_flat.sol\":34546:34564  _operatorApprovals */\n      0x05\n        /* \"ERC721_flat.sol\":34546:34571  _operatorApprovals[owner] */\n      0x20\n      swap1\n      dup2\n      mstore\n      0x40\n      dup1\n      dup4\n      keccak256\n        /* \"ERC721_flat.sol\":34546:34581  _operatorApprovals[owner][operator] */\n      swap5\n      dup8\n      and\n      dup1\n      dup5\n      mstore\n      swap5\n      dup3\n      mstore\n      swap2\n      dup3\n      swap1\n      keccak256\n        /* \"ERC721_flat.sol\":34546:34592  _operatorApprovals[owner][operator] = approved */\n      dup1\n      sload\n      not(0xff)\n      and\n      dup7\n      iszero\n      iszero\n      swap1\n      dup2\n      or\n      swap1\n      swap2\n      sstore\n        /* \"ERC721_flat.sol\":34607:34648  ApprovalForAll(owner, operator, approved) */\n      swap2\n      mload\n        /* \"#utility.yul\":6059:6100   */\n      swap2\n      dup3\n      mstore\n        /* \"ERC721_flat.sol\":34607:34648  ApprovalForAll(owner, operator, approved) */\n      0x17307eab39ab6107e8899845ad3d59bd9653f200f220920489ca2b5937696c31\n      swap2\n        /* \"#utility.yul\":6032:6050   */\n      add\n        /* \"ERC721_flat.sol\":34607:34648  ApprovalForAll(owner, operator, approved) */\n      mload(0x40)\n      dup1\n      swap2\n      sub\n      swap1\n      log3\n        /* \"ERC721_flat.sol\":34348:34655  function _setApprovalForAll(... */\n      pop\n      pop\n      pop\n      jump\t// out\n        /* \"ERC721_flat.sol\":29423:29730  function _safeTransfer(... */\n    tag_236:\n        /* \"ERC721_flat.sol\":29574:29602  _transfer(from, to, tokenId) */\n      tag_311\n        /* \"ERC721_flat.sol\":29584:29588  from */\n      dup5\n        /* \"ERC721_flat.sol\":29590:29592  to */\n      dup5\n        /* \"ERC721_flat.sol\":29594:29601  tokenId */\n      dup5\n        /* \"ERC721_flat.sol\":29574:29583  _transfer */\n      tag_174\n        /* \"ERC721_flat.sol\":29574:29602  _transfer(from, to, tokenId) */\n      jump\t// in\n    tag_311:\n        /* \"ERC721_flat.sol\":29620:29668  _checkOnERC721Received(from, to, tokenId, _data) */\n      tag_312\n        /* \"ERC721_flat.sol\":29643:29647  from */\n      dup5\n        /* \"ERC721_flat.sol\":29649:29651  to */\n      dup5\n        /* \"ERC721_flat.sol\":29653:29660  tokenId */\n      dup5\n        /* \"ERC721_flat.sol\":29662:29667  _data */\n      dup5\n        /* \"ERC721_flat.sol\":29620:29642  _checkOnERC721Received */\n      tag_313\n        /* \"ERC721_flat.sol\":29620:29668  _checkOnERC721Received(from, to, tokenId, _data) */\n      jump\t// in\n    tag_312:\n        /* \"ERC721_flat.sol\":29612:29723  require(_checkOnERC721Received(from, to, tokenId, _data), \"ERC721: transfer to non ERC721Receiver implementer\") */\n      tag_235\n      jumpi\n      mload(0x40)\n      shl(0xe5, 0x461bcd)\n      dup2\n      mstore\n      0x04\n      add\n      tag_148\n      swap1\n      tag_316\n      jump\t// in\n        /* \"ERC721_flat.sol\":44501:44664  function _baseURI() internal view virtual override returns (string memory) {... */\n    tag_248:\n        /* \"ERC721_flat.sol\":44561:44574  string memory */\n      0x60\n        /* \"ERC721_flat.sol\":44582:44659  return \"https://ipfs.io/ipfs/QmZjgNRNAVdWaVKF7oCoLUkho5h6TZgkstP9yL5Dwuu21h/\" */\n      mload(0x40)\n      dup1\n      0x80\n      add\n      0x40\n      mstore\n      dup1\n      0x44\n      dup2\n      mstore\n      0x20\n      add\n      data_366741a2b0d4aad14ad5584fe1af165223262c5967a4a351666a84bc774ebece\n      0x44\n      swap2\n      codecopy\n      swap1\n      pop\n        /* \"ERC721_flat.sol\":44501:44664  function _baseURI() internal view virtual override returns (string memory) {... */\n      swap1\n      jump\t// out\n        /* \"ERC721_flat.sol\":350:1053  function toString(uint256 value) internal pure returns (string memory) {... */\n    tag_252:\n        /* \"ERC721_flat.sol\":406:419  string memory */\n      0x60\n        /* \"ERC721_flat.sol\":623:633  value == 0 */\n      dup2\n        /* \"ERC721_flat.sol\":619:670  if (value == 0) {... */\n      tag_319\n      jumpi\n      pop\n      pop\n        /* \"ERC721_flat.sol\":649:659  return \"0\" */\n      0x40\n      dup1\n      mload\n      dup1\n      dup3\n      add\n      swap1\n      swap2\n      mstore\n      0x01\n      dup2\n      mstore\n      shl(0xfc, 0x03)\n      0x20\n      dup3\n      add\n      mstore\n      swap1\n        /* \"ERC721_flat.sol\":350:1053  function toString(uint256 value) internal pure returns (string memory) {... */\n      jump\t// out\n        /* \"ERC721_flat.sol\":619:670  if (value == 0) {... */\n    tag_319:\n        /* \"ERC721_flat.sol\":694:699  value */\n      dup2\n        /* \"ERC721_flat.sol\":679:691  uint256 temp */\n      0x00\n        /* \"ERC721_flat.sol\":733:808  while (temp != 0) {... */\n    tag_320:\n        /* \"ERC721_flat.sol\":740:749  temp != 0 */\n      dup2\n      iszero\n        /* \"ERC721_flat.sol\":733:808  while (temp != 0) {... */\n      tag_321\n      jumpi\n        /* \"ERC721_flat.sol\":765:773  digits++ */\n      dup1\n      tag_322\n      dup2\n      tag_323\n      jump\t// in\n    tag_322:\n      swap2\n      pop\n        /* \"ERC721_flat.sol\":787:797  temp /= 10 */\n      tag_324\n      swap1\n      pop\n        /* \"ERC721_flat.sol\":795:797  10 */\n      0x0a\n        /* \"ERC721_flat.sol\":787:797  temp /= 10 */\n      dup4\n      tag_325\n      jump\t// in\n    tag_324:\n      swap2\n      pop\n        /* \"ERC721_flat.sol\":733:808  while (temp != 0) {... */\n      jump(tag_320)\n    tag_321:\n        /* \"ERC721_flat.sol\":817:836  bytes memory buffer */\n      0x00\n        /* \"ERC721_flat.sol\":849:855  digits */\n      dup2\n        /* \"ERC721_flat.sol\":839:856  new bytes(digits) */\n      0xffffffffffffffff\n      dup2\n      gt\n      iszero\n      tag_327\n      jumpi\n      tag_327\n      tag_328\n      jump\t// in\n    tag_327:\n      mload(0x40)\n      swap1\n      dup1\n      dup3\n      mstore\n      dup1\n      0x1f\n      add\n      not(0x1f)\n      and\n      0x20\n      add\n      dup3\n      add\n      0x40\n      mstore\n      dup1\n      iszero\n      tag_329\n      jumpi\n      0x20\n      dup3\n      add\n      dup2\n      dup1\n      calldatasize\n      dup4\n      calldatacopy\n      add\n      swap1\n      pop\n    tag_329:\n      pop\n        /* \"ERC721_flat.sol\":817:856  bytes memory buffer = new bytes(digits) */\n      swap1\n      pop\n        /* \"ERC721_flat.sol\":866:1016  while (value != 0) {... */\n    tag_330:\n        /* \"ERC721_flat.sol\":873:883  value != 0 */\n      dup5\n      iszero\n        /* \"ERC721_flat.sol\":866:1016  while (value != 0) {... */\n      tag_284\n      jumpi\n        /* \"ERC721_flat.sol\":899:910  digits -= 1 */\n      tag_332\n        /* \"ERC721_flat.sol\":909:910  1 */\n      0x01\n        /* \"ERC721_flat.sol\":899:910  digits -= 1 */\n      dup4\n      tag_297\n      jump\t// in\n    tag_332:\n      swap2\n      pop\n        /* \"ERC721_flat.sol\":967:977  value % 10 */\n      tag_333\n        /* \"ERC721_flat.sol\":975:977  10 */\n      0x0a\n        /* \"ERC721_flat.sol\":967:972  value */\n      dup7\n        /* \"ERC721_flat.sol\":967:977  value % 10 */\n      tag_334\n      jump\t// in\n    tag_333:\n        /* \"ERC721_flat.sol\":954:978  48 + uint256(value % 10) */\n      tag_335\n      swap1\n        /* \"ERC721_flat.sol\":954:956  48 */\n      0x30\n        /* \"ERC721_flat.sol\":954:978  48 + uint256(value % 10) */\n      tag_199\n      jump\t// in\n    tag_335:\n        /* \"ERC721_flat.sol\":941:980  bytes1(uint8(48 + uint256(value % 10))) */\n      0xf8\n      shl\n        /* \"ERC721_flat.sol\":924:930  buffer */\n      dup2\n        /* \"ERC721_flat.sol\":931:937  digits */\n      dup4\n        /* \"ERC721_flat.sol\":924:938  buffer[digits] */\n      dup2\n      mload\n      dup2\n      lt\n      tag_337\n      jumpi\n      tag_337\n      tag_189\n      jump\t// in\n    tag_337:\n      0x20\n      add\n      add\n        /* \"ERC721_flat.sol\":924:980  buffer[digits] = bytes1(uint8(48 + uint256(value % 10))) */\n      swap1\n      not(sub(shl(0xf8, 0x01), 0x01))\n      and\n      swap1\n      dup2\n      0x00\n      byte\n      swap1\n      mstore8\n      pop\n        /* \"ERC721_flat.sol\":994:1005  value /= 10 */\n      tag_338\n        /* \"ERC721_flat.sol\":1003:1005  10 */\n      0x0a\n        /* \"ERC721_flat.sol\":994:1005  value /= 10 */\n      dup7\n      tag_325\n      jump\t// in\n    tag_338:\n      swap5\n      pop\n        /* \"ERC721_flat.sol\":866:1016  while (value != 0) {... */\n      jump(tag_330)\n        /* \"ERC721_flat.sol\":39776:40348  function _beforeTokenTransfer(... */\n    tag_294:\n      sub(shl(0xa0, 0x01), 0x01)\n        /* \"ERC721_flat.sol\":39975:39993  from == address(0) */\n      dup4\n      and\n        /* \"ERC721_flat.sol\":39971:40154  if (from == address(0)) {... */\n      tag_343\n      jumpi\n        /* \"ERC721_flat.sol\":40009:40049  _addTokenToAllTokensEnumeration(tokenId) */\n      tag_344\n        /* \"ERC721_flat.sol\":40041:40048  tokenId */\n      dup2\n        /* \"ERC721_flat.sol\":41157:41167  _allTokens */\n      0x08\n        /* \"ERC721_flat.sol\":41157:41174  _allTokens.length */\n      dup1\n      sload\n        /* \"ERC721_flat.sol\":41130:41154  _allTokensIndex[tokenId] */\n      0x00\n      dup4\n      dup2\n      mstore\n        /* \"ERC721_flat.sol\":41130:41145  _allTokensIndex */\n      0x09\n        /* \"ERC721_flat.sol\":41130:41154  _allTokensIndex[tokenId] */\n      0x20\n      mstore\n      0x40\n      dup2\n      keccak256\n        /* \"ERC721_flat.sol\":41130:41174  _allTokensIndex[tokenId] = _allTokens.length */\n      dup3\n      swap1\n      sstore\n        /* \"ERC721_flat.sol\":41184:41208  _allTokens.push(tokenId) */\n      0x01\n      dup3\n      add\n      dup4\n      sstore\n      swap2\n      swap1\n      swap2\n      mstore\n      0xf3f7a9fe364faab93b216da50a3214154f22a0a2b415b23a84c8169e8b636ee3\n      add\n      sstore\n        /* \"ERC721_flat.sol\":41054:41215  function _addTokenToAllTokensEnumeration(uint256 tokenId) private {... */\n      jump\n        /* \"ERC721_flat.sol\":40009:40049  _addTokenToAllTokensEnumeration(tokenId) */\n    tag_344:\n        /* \"ERC721_flat.sol\":39971:40154  if (from == address(0)) {... */\n      jump(tag_348)\n    tag_343:\n        /* \"ERC721_flat.sol\":40078:40080  to */\n      dup2\n      sub(shl(0xa0, 0x01), 0x01)\n        /* \"ERC721_flat.sol\":40070:40080  from != to */\n      and\n        /* \"ERC721_flat.sol\":40070:40074  from */\n      dup4\n      sub(shl(0xa0, 0x01), 0x01)\n        /* \"ERC721_flat.sol\":40070:40080  from != to */\n      and\n      eq\n        /* \"ERC721_flat.sol\":40066:40154  if (from != to) {... */\n      tag_348\n      jumpi\n        /* \"ERC721_flat.sol\":40096:40143  _removeTokenFromOwnerEnumeration(from, tokenId) */\n      tag_348\n        /* \"ERC721_flat.sol\":40129:40133  from */\n      dup4\n        /* \"ERC721_flat.sol\":40135:40142  tokenId */\n      dup3\n        /* \"ERC721_flat.sol\":40096:40128  _removeTokenFromOwnerEnumeration */\n      tag_349\n        /* \"ERC721_flat.sol\":40096:40143  _removeTokenFromOwnerEnumeration(from, tokenId) */\n      jump\t// in\n    tag_348:\n      sub(shl(0xa0, 0x01), 0x01)\n        /* \"ERC721_flat.sol\":40167:40183  to == address(0) */\n      dup3\n      and\n        /* \"ERC721_flat.sol\":40163:40342  if (to == address(0)) {... */\n      tag_350\n      jumpi\n        /* \"ERC721_flat.sol\":40199:40244  _removeTokenFromAllTokensEnumeration(tokenId) */\n      tag_163\n        /* \"ERC721_flat.sol\":40236:40243  tokenId */\n      dup2\n        /* \"ERC721_flat.sol\":40199:40235  _removeTokenFromAllTokensEnumeration */\n      tag_352\n        /* \"ERC721_flat.sol\":40199:40244  _removeTokenFromAllTokensEnumeration(tokenId) */\n      jump\t// in\n        /* \"ERC721_flat.sol\":40163:40342  if (to == address(0)) {... */\n    tag_350:\n        /* \"ERC721_flat.sol\":40271:40275  from */\n      dup3\n      sub(shl(0xa0, 0x01), 0x01)\n        /* \"ERC721_flat.sol\":40265:40275  to != from */\n      and\n        /* \"ERC721_flat.sol\":40265:40267  to */\n      dup3\n      sub(shl(0xa0, 0x01), 0x01)\n        /* \"ERC721_flat.sol\":40265:40275  to != from */\n      and\n      eq\n        /* \"ERC721_flat.sol\":40261:40342  if (to != from) {... */\n      tag_163\n      jumpi\n        /* \"ERC721_flat.sol\":40291:40331  _addTokenToOwnerEnumeration(to, tokenId) */\n      tag_163\n        /* \"ERC721_flat.sol\":40319:40321  to */\n      dup3\n        /* \"ERC721_flat.sol\":40323:40330  tokenId */\n      dup3\n        /* \"ERC721_flat.sol\":40291:40318  _addTokenToOwnerEnumeration */\n      tag_356\n        /* \"ERC721_flat.sol\":40291:40331  _addTokenToOwnerEnumeration(to, tokenId) */\n      jump\t// in\n        /* \"ERC721_flat.sol\":31319:31630  function _safeMint(... */\n    tag_303:\n        /* \"ERC721_flat.sol\":31444:31462  _mint(to, tokenId) */\n      tag_359\n        /* \"ERC721_flat.sol\":31450:31452  to */\n      dup4\n        /* \"ERC721_flat.sol\":31454:31461  tokenId */\n      dup4\n        /* \"ERC721_flat.sol\":31444:31449  _mint */\n      tag_360\n        /* \"ERC721_flat.sol\":31444:31462  _mint(to, tokenId) */\n      jump\t// in\n    tag_359:\n        /* \"ERC721_flat.sol\":31493:31547  _checkOnERC721Received(address(0), to, tokenId, _data) */\n      tag_361\n        /* \"ERC721_flat.sol\":31524:31525  0 */\n      0x00\n        /* \"ERC721_flat.sol\":31528:31530  to */\n      dup5\n        /* \"ERC721_flat.sol\":31532:31539  tokenId */\n      dup5\n        /* \"ERC721_flat.sol\":31541:31546  _data */\n      dup5\n        /* \"ERC721_flat.sol\":31493:31515  _checkOnERC721Received */\n      tag_313\n        /* \"ERC721_flat.sol\":31493:31547  _checkOnERC721Received(address(0), to, tokenId, _data) */\n      jump\t// in\n    tag_361:\n        /* \"ERC721_flat.sol\":31472:31623  require(... */\n      tag_163\n      jumpi\n      mload(0x40)\n      shl(0xe5, 0x461bcd)\n      dup2\n      mstore\n      0x04\n      add\n      tag_148\n      swap1\n      tag_316\n      jump\t// in\n        /* \"ERC721_flat.sol\":35208:35986  function _checkOnERC721Received(... */\n    tag_313:\n        /* \"ERC721_flat.sol\":35358:35362  bool */\n      0x00\n      sub(shl(0xa0, 0x01), 0x01)\n        /* \"ERC721_flat.sol\":35378:35391  to.isContract */\n      dup5\n      and\n        /* \"ERC721_flat.sol\":6859:6878  account.code.length */\n      extcodesize\n        /* \"ERC721_flat.sol\":6859:6882  account.code.length > 0 */\n      iszero\n        /* \"ERC721_flat.sol\":35374:35980  if (to.isContract()) {... */\n      tag_367\n      jumpi\n        /* \"ERC721_flat.sol\":35413:35485  IERC721Receiver(to).onERC721Received(_msgSender(), from, tokenId, _data) */\n      mload(0x40)\n      shl(0xe1, 0x0a85bd01)\n      dup2\n      mstore\n      sub(shl(0xa0, 0x01), 0x01)\n        /* \"ERC721_flat.sol\":35413:35449  IERC721Receiver(to).onERC721Received */\n      dup6\n      and\n      swap1\n      0x150b7a02\n      swap1\n        /* \"ERC721_flat.sol\":35413:35485  IERC721Receiver(to).onERC721Received(_msgSender(), from, tokenId, _data) */\n      tag_369\n      swap1\n        /* \"ERC721_flat.sol\":2795:2805  msg.sender */\n      caller\n      swap1\n        /* \"ERC721_flat.sol\":35464:35468  from */\n      dup10\n      swap1\n        /* \"ERC721_flat.sol\":35470:35477  tokenId */\n      dup9\n      swap1\n        /* \"ERC721_flat.sol\":35479:35484  _data */\n      dup9\n      swap1\n        /* \"ERC721_flat.sol\":35413:35485  IERC721Receiver(to).onERC721Received(_msgSender(), from, tokenId, _data) */\n      0x04\n      add\n      tag_370\n      jump\t// in\n    tag_369:\n      0x20\n      mload(0x40)\n      dup1\n      dup4\n      sub\n      dup2\n      0x00\n      dup8\n      dup1\n      extcodesize\n      iszero\n      dup1\n      iszero\n      tag_371\n      jumpi\n      0x00\n      dup1\n      revert\n    tag_371:\n      pop\n      gas\n      call\n      swap3\n      pop\n      pop\n      pop\n      dup1\n      iszero\n      tag_372\n      jumpi\n      pop\n      0x40\n      dup1\n      mload\n      0x1f\n      returndatasize\n      swap1\n      dup2\n      add\n      not(0x1f)\n      and\n      dup3\n      add\n      swap1\n      swap3\n      mstore\n      tag_373\n      swap2\n      dup2\n      add\n      swap1\n      tag_374\n      jump\t// in\n    tag_373:\n      0x01\n    tag_372:\n        /* \"ERC721_flat.sol\":35409:35928  try IERC721Receiver(to).onERC721Received(_msgSender(), from, tokenId, _data) returns (bytes4 retval) {... */\n      tag_375\n      jumpi\n      returndatasize\n      dup1\n      dup1\n      iszero\n      tag_380\n      jumpi\n      mload(0x40)\n      swap2\n      pop\n      and(add(returndatasize, 0x3f), not(0x1f))\n      dup3\n      add\n      0x40\n      mstore\n      returndatasize\n      dup3\n      mstore\n      returndatasize\n      0x00\n      0x20\n      dup5\n      add\n      returndatacopy\n      jump(tag_379)\n    tag_380:\n      0x60\n      swap2\n      pop\n    tag_379:\n      pop\n        /* \"ERC721_flat.sol\":35652:35665  reason.length */\n      dup1\n      mload\n        /* \"ERC721_flat.sol\":35648:35914  if (reason.length == 0) {... */\n      tag_381\n      jumpi\n        /* \"ERC721_flat.sol\":35694:35754  revert(\"ERC721: transfer to non ERC721Receiver implementer\") */\n      mload(0x40)\n      shl(0xe5, 0x461bcd)\n      dup2\n      mstore\n      0x04\n      add\n      tag_148\n      swap1\n      tag_316\n      jump\t// in\n        /* \"ERC721_flat.sol\":35648:35914  if (reason.length == 0) {... */\n    tag_381:\n        /* \"ERC721_flat.sol\":35866:35872  reason */\n      dup1\n        /* \"ERC721_flat.sol\":35860:35873  mload(reason) */\n      mload\n        /* \"ERC721_flat.sol\":35851:35857  reason */\n      dup2\n        /* \"ERC721_flat.sol\":35847:35849  32 */\n      0x20\n        /* \"ERC721_flat.sol\":35843:35858  add(32, reason) */\n      add\n        /* \"ERC721_flat.sol\":35836:35874  revert(add(32, reason), mload(reason)) */\n      revert\n        /* \"ERC721_flat.sol\":35409:35928  try IERC721Receiver(to).onERC721Received(_msgSender(), from, tokenId, _data) returns (bytes4 retval) {... */\n    tag_375:\n      not(sub(shl(0xe0, 0x01), 0x01))\n        /* \"ERC721_flat.sol\":35535:35586  retval == IERC721Receiver.onERC721Received.selector */\n      and\n      shl(0xe1, 0x0a85bd01)\n      eq\n      swap1\n      pop\n        /* \"ERC721_flat.sol\":35528:35586  return retval == IERC721Receiver.onERC721Received.selector */\n      jump(tag_284)\n        /* \"ERC721_flat.sol\":35374:35980  if (to.isContract()) {... */\n    tag_367:\n      pop\n        /* \"ERC721_flat.sol\":35965:35969  true */\n      0x01\n        /* \"ERC721_flat.sol\":35208:35986  function _checkOnERC721Received(... */\n      swap5\n      swap4\n      pop\n      pop\n      pop\n      pop\n      jump\t// out\n        /* \"ERC721_flat.sol\":41832:42802  function _removeTokenFromOwnerEnumeration(address from, uint256 tokenId) private {... */\n    tag_349:\n        /* \"ERC721_flat.sol\":42094:42116  uint256 lastTokenIndex */\n      0x00\n        /* \"ERC721_flat.sol\":42144:42145  1 */\n      0x01\n        /* \"ERC721_flat.sol\":42119:42141  ERC721.balanceOf(from) */\n      tag_390\n        /* \"ERC721_flat.sol\":42136:42140  from */\n      dup5\n        /* \"ERC721_flat.sol\":42119:42135  ERC721.balanceOf */\n      tag_91\n        /* \"ERC721_flat.sol\":42119:42141  ERC721.balanceOf(from) */\n      jump\t// in\n    tag_390:\n        /* \"ERC721_flat.sol\":42119:42145  ERC721.balanceOf(from) - 1 */\n      tag_391\n      swap2\n      swap1\n      tag_297\n      jump\t// in\n    tag_391:\n        /* \"ERC721_flat.sol\":42155:42173  uint256 tokenIndex */\n      0x00\n        /* \"ERC721_flat.sol\":42176:42202  _ownedTokensIndex[tokenId] */\n      dup4\n      dup2\n      mstore\n        /* \"ERC721_flat.sol\":42176:42193  _ownedTokensIndex */\n      0x07\n        /* \"ERC721_flat.sol\":42176:42202  _ownedTokensIndex[tokenId] */\n      0x20\n      mstore\n      0x40\n      swap1\n      keccak256\n      sload\n        /* \"ERC721_flat.sol\":42094:42145  uint256 lastTokenIndex = ERC721.balanceOf(from) - 1 */\n      swap1\n      swap2\n      pop\n        /* \"ERC721_flat.sol\":42306:42334  tokenIndex != lastTokenIndex */\n      dup1\n      dup3\n      eq\n        /* \"ERC721_flat.sol\":42302:42625  if (tokenIndex != lastTokenIndex) {... */\n      tag_392\n      jumpi\n      sub(shl(0xa0, 0x01), 0x01)\n        /* \"ERC721_flat.sol\":42372:42390  _ownedTokens[from] */\n      dup5\n      and\n        /* \"ERC721_flat.sol\":42350:42369  uint256 lastTokenId */\n      0x00\n        /* \"ERC721_flat.sol\":42372:42390  _ownedTokens[from] */\n      swap1\n      dup2\n      mstore\n        /* \"ERC721_flat.sol\":42372:42384  _ownedTokens */\n      0x06\n        /* \"ERC721_flat.sol\":42372:42390  _ownedTokens[from] */\n      0x20\n      swap1\n      dup2\n      mstore\n      0x40\n      dup1\n      dup4\n      keccak256\n        /* \"ERC721_flat.sol\":42372:42406  _ownedTokens[from][lastTokenIndex] */\n      dup6\n      dup5\n      mstore\n      dup3\n      mstore\n      dup1\n      dup4\n      keccak256\n      sload\n        /* \"ERC721_flat.sol\":42421:42451  _ownedTokens[from][tokenIndex] */\n      dup5\n      dup5\n      mstore\n      dup2\n      dup5\n      keccak256\n        /* \"ERC721_flat.sol\":42421:42465  _ownedTokens[from][tokenIndex] = lastTokenId */\n      dup2\n      swap1\n      sstore\n        /* \"ERC721_flat.sol\":42537:42567  _ownedTokensIndex[lastTokenId] */\n      dup4\n      mstore\n        /* \"ERC721_flat.sol\":42537:42554  _ownedTokensIndex */\n      0x07\n        /* \"ERC721_flat.sol\":42537:42567  _ownedTokensIndex[lastTokenId] */\n      swap1\n      swap2\n      mstore\n      swap1\n      keccak256\n        /* \"ERC721_flat.sol\":42537:42580  _ownedTokensIndex[lastTokenId] = tokenIndex */\n      dup2\n      swap1\n      sstore\n        /* \"ERC721_flat.sol\":42302:42625  if (tokenIndex != lastTokenIndex) {... */\n    tag_392:\n      pop\n        /* \"ERC721_flat.sol\":42718:42744  _ownedTokensIndex[tokenId] */\n      0x00\n      swap2\n      dup3\n      mstore\n        /* \"ERC721_flat.sol\":42718:42735  _ownedTokensIndex */\n      0x07\n        /* \"ERC721_flat.sol\":42718:42744  _ownedTokensIndex[tokenId] */\n      0x20\n      swap1\n      dup2\n      mstore\n      0x40\n      dup1\n      dup5\n      keccak256\n        /* \"ERC721_flat.sol\":42711:42744  delete _ownedTokensIndex[tokenId] */\n      dup5\n      swap1\n      sstore\n      sub(shl(0xa0, 0x01), 0x01)\n        /* \"ERC721_flat.sol\":42761:42779  _ownedTokens[from] */\n      swap1\n      swap5\n      and\n      dup4\n      mstore\n        /* \"ERC721_flat.sol\":42761:42773  _ownedTokens */\n      0x06\n        /* \"ERC721_flat.sol\":42761:42779  _ownedTokens[from] */\n      dup2\n      mstore\n      dup4\n      dup4\n      keccak256\n        /* \"ERC721_flat.sol\":42761:42795  _ownedTokens[from][lastTokenIndex] */\n      swap2\n      dup4\n      mstore\n      mstore\n      swap1\n      dup2\n      keccak256\n        /* \"ERC721_flat.sol\":42754:42795  delete _ownedTokens[from][lastTokenIndex] */\n      sstore\n        /* \"ERC721_flat.sol\":41832:42802  function _removeTokenFromOwnerEnumeration(address from, uint256 tokenId) private {... */\n      jump\t// out\n        /* \"ERC721_flat.sol\":43090:44151  function _removeTokenFromAllTokensEnumeration(uint256 tokenId) private {... */\n    tag_352:\n        /* \"ERC721_flat.sol\":43364:43374  _allTokens */\n      0x08\n        /* \"ERC721_flat.sol\":43364:43381  _allTokens.length */\n      sload\n        /* \"ERC721_flat.sol\":43339:43361  uint256 lastTokenIndex */\n      0x00\n      swap1\n        /* \"ERC721_flat.sol\":43364:43385  _allTokens.length - 1 */\n      tag_394\n      swap1\n        /* \"ERC721_flat.sol\":43384:43385  1 */\n      0x01\n      swap1\n        /* \"ERC721_flat.sol\":43364:43385  _allTokens.length - 1 */\n      tag_297\n      jump\t// in\n    tag_394:\n        /* \"ERC721_flat.sol\":43395:43413  uint256 tokenIndex */\n      0x00\n        /* \"ERC721_flat.sol\":43416:43440  _allTokensIndex[tokenId] */\n      dup4\n      dup2\n      mstore\n        /* \"ERC721_flat.sol\":43416:43431  _allTokensIndex */\n      0x09\n        /* \"ERC721_flat.sol\":43416:43440  _allTokensIndex[tokenId] */\n      0x20\n      mstore\n      0x40\n      dup2\n      keccak256\n      sload\n        /* \"ERC721_flat.sol\":43784:43794  _allTokens */\n      0x08\n        /* \"ERC721_flat.sol\":43784:43810  _allTokens[lastTokenIndex] */\n      dup1\n      sload\n        /* \"ERC721_flat.sol\":43339:43385  uint256 lastTokenIndex = _allTokens.length - 1 */\n      swap4\n      swap5\n      pop\n        /* \"ERC721_flat.sol\":43416:43440  _allTokensIndex[tokenId] */\n      swap1\n      swap3\n        /* \"ERC721_flat.sol\":43339:43385  uint256 lastTokenIndex = _allTokens.length - 1 */\n      dup5\n      swap1\n        /* \"ERC721_flat.sol\":43784:43810  _allTokens[lastTokenIndex] */\n      dup2\n      lt\n      tag_396\n      jumpi\n      tag_396\n      tag_189\n      jump\t// in\n    tag_396:\n      swap1\n      0x00\n      mstore\n      keccak256(0x00, 0x20)\n      add\n      sload\n        /* \"ERC721_flat.sol\":43762:43810  uint256 lastTokenId = _allTokens[lastTokenIndex] */\n      swap1\n      pop\n        /* \"ERC721_flat.sol\":43846:43857  lastTokenId */\n      dup1\n        /* \"ERC721_flat.sol\":43821:43831  _allTokens */\n      0x08\n        /* \"ERC721_flat.sol\":43832:43842  tokenIndex */\n      dup4\n        /* \"ERC721_flat.sol\":43821:43843  _allTokens[tokenIndex] */\n      dup2\n      sload\n      dup2\n      lt\n      tag_399\n      jumpi\n      tag_399\n      tag_189\n      jump\t// in\n    tag_399:\n      0x00\n      swap2\n      dup3\n      mstore\n      0x20\n      dup1\n      dup4\n      keccak256\n      swap1\n      swap2\n      add\n        /* \"ERC721_flat.sol\":43821:43857  _allTokens[tokenIndex] = lastTokenId */\n      swap3\n      swap1\n      swap3\n      sstore\n        /* \"ERC721_flat.sol\":43925:43953  _allTokensIndex[lastTokenId] */\n      dup3\n      dup2\n      mstore\n        /* \"ERC721_flat.sol\":43925:43940  _allTokensIndex */\n      0x09\n        /* \"ERC721_flat.sol\":43925:43953  _allTokensIndex[lastTokenId] */\n      swap1\n      swap2\n      mstore\n      0x40\n      dup1\n      dup3\n      keccak256\n        /* \"ERC721_flat.sol\":43925:43966  _allTokensIndex[lastTokenId] = tokenIndex */\n      dup5\n      swap1\n      sstore\n        /* \"ERC721_flat.sol\":44094:44118  _allTokensIndex[tokenId] */\n      dup6\n      dup3\n      mstore\n      dup2\n      keccak256\n        /* \"ERC721_flat.sol\":44087:44118  delete _allTokensIndex[tokenId] */\n      sstore\n        /* \"ERC721_flat.sol\":44128:44138  _allTokens */\n      0x08\n        /* \"ERC721_flat.sol\":44128:44144  _allTokens.pop() */\n      dup1\n      sload\n      dup1\n      tag_402\n      jumpi\n      tag_402\n      tag_403\n      jump\t// in\n    tag_402:\n      0x01\n      swap1\n      sub\n      dup2\n      dup2\n      swap1\n      0x00\n      mstore\n      keccak256(0x00, 0x20)\n      add\n      0x00\n      swap1\n      sstore\n      swap1\n      sstore\n        /* \"ERC721_flat.sol\":43161:44151  {... */\n      pop\n      pop\n      pop\n        /* \"ERC721_flat.sol\":43090:44151  function _removeTokenFromAllTokensEnumeration(uint256 tokenId) private {... */\n      pop\n      jump\t// out\n        /* \"ERC721_flat.sol\":40642:40859  function _addTokenToOwnerEnumeration(address to, uint256 tokenId) private {... */\n    tag_356:\n        /* \"ERC721_flat.sol\":40726:40740  uint256 length */\n      0x00\n        /* \"ERC721_flat.sol\":40743:40763  ERC721.balanceOf(to) */\n      tag_406\n        /* \"ERC721_flat.sol\":40760:40762  to */\n      dup4\n        /* \"ERC721_flat.sol\":40743:40759  ERC721.balanceOf */\n      tag_91\n        /* \"ERC721_flat.sol\":40743:40763  ERC721.balanceOf(to) */\n      jump\t// in\n    tag_406:\n      sub(shl(0xa0, 0x01), 0x01)\n        /* \"ERC721_flat.sol\":40773:40789  _ownedTokens[to] */\n      swap1\n      swap4\n      and\n      0x00\n      swap1\n      dup2\n      mstore\n        /* \"ERC721_flat.sol\":40773:40785  _ownedTokens */\n      0x06\n        /* \"ERC721_flat.sol\":40773:40789  _ownedTokens[to] */\n      0x20\n      swap1\n      dup2\n      mstore\n      0x40\n      dup1\n      dup4\n      keccak256\n        /* \"ERC721_flat.sol\":40773:40797  _ownedTokens[to][length] */\n      dup7\n      dup5\n      mstore\n      dup3\n      mstore\n      dup1\n      dup4\n      keccak256\n        /* \"ERC721_flat.sol\":40773:40807  _ownedTokens[to][length] = tokenId */\n      dup6\n      swap1\n      sstore\n        /* \"ERC721_flat.sol\":40817:40843  _ownedTokensIndex[tokenId] */\n      swap4\n      dup3\n      mstore\n        /* \"ERC721_flat.sol\":40817:40834  _ownedTokensIndex */\n      0x07\n        /* \"ERC721_flat.sol\":40817:40843  _ownedTokensIndex[tokenId] */\n      swap1\n      mstore\n      swap2\n      swap1\n      swap2\n      keccak256\n        /* \"ERC721_flat.sol\":40817:40852  _ownedTokensIndex[tokenId] = length */\n      swap2\n      swap1\n      swap2\n      sstore\n      pop\n        /* \"ERC721_flat.sol\":40642:40859  function _addTokenToOwnerEnumeration(address to, uint256 tokenId) private {... */\n      jump\t// out\n        /* \"ERC721_flat.sol\":31952:32379  function _mint(address to, uint256 tokenId) internal virtual {... */\n    tag_360:\n      sub(shl(0xa0, 0x01), 0x01)\n        /* \"ERC721_flat.sol\":32031:32047  to != address(0) */\n      dup3\n      and\n        /* \"ERC721_flat.sol\":32023:32084  require(to != address(0), \"ERC721: mint to the zero address\") */\n      tag_408\n      jumpi\n      mload(0x40)\n      shl(0xe5, 0x461bcd)\n      dup2\n      mstore\n        /* \"#utility.yul\":10956:10958   */\n      0x20\n        /* \"ERC721_flat.sol\":32023:32084  require(to != address(0), \"ERC721: mint to the zero address\") */\n      0x04\n      dup3\n      add\n        /* \"#utility.yul\":10938:10959   */\n      dup2\n      swap1\n      mstore\n        /* \"#utility.yul\":10975:10993   */\n      0x24\n      dup3\n      add\n        /* \"#utility.yul\":10968:10998   */\n      mstore\n        /* \"#utility.yul\":11034:11068   */\n      0x4552433732313a206d696e7420746f20746865207a65726f2061646472657373\n        /* \"#utility.yul\":11014:11032   */\n      0x44\n      dup3\n      add\n        /* \"#utility.yul\":11007:11069   */\n      mstore\n        /* \"#utility.yul\":11086:11104   */\n      0x64\n      add\n        /* \"ERC721_flat.sol\":32023:32084  require(to != address(0), \"ERC721: mint to the zero address\") */\n      tag_148\n        /* \"#utility.yul\":10754:11110   */\n      jump\n        /* \"ERC721_flat.sol\":32023:32084  require(to != address(0), \"ERC721: mint to the zero address\") */\n    tag_408:\n        /* \"ERC721_flat.sol\":30098:30102  bool */\n      0x00\n        /* \"ERC721_flat.sol\":30121:30137  _owners[tokenId] */\n      dup2\n      dup2\n      mstore\n        /* \"ERC721_flat.sol\":30121:30128  _owners */\n      0x02\n        /* \"ERC721_flat.sol\":30121:30137  _owners[tokenId] */\n      0x20\n      mstore\n      0x40\n      swap1\n      keccak256\n      sload\n      sub(shl(0xa0, 0x01), 0x01)\n      and\n        /* \"ERC721_flat.sol\":30121:30151  _owners[tokenId] != address(0) */\n      iszero\n        /* \"ERC721_flat.sol\":32094:32152  require(!_exists(tokenId), \"ERC721: token already minted\") */\n      tag_412\n      jumpi\n      mload(0x40)\n      shl(0xe5, 0x461bcd)\n      dup2\n      mstore\n        /* \"#utility.yul\":8181:8183   */\n      0x20\n        /* \"ERC721_flat.sol\":32094:32152  require(!_exists(tokenId), \"ERC721: token already minted\") */\n      0x04\n      dup3\n      add\n        /* \"#utility.yul\":8163:8184   */\n      mstore\n        /* \"#utility.yul\":8220:8222   */\n      0x1c\n        /* \"#utility.yul\":8200:8218   */\n      0x24\n      dup3\n      add\n        /* \"#utility.yul\":8193:8223   */\n      mstore\n        /* \"#utility.yul\":8259:8289   */\n      0x4552433732313a20746f6b656e20616c7265616479206d696e74656400000000\n        /* \"#utility.yul\":8239:8257   */\n      0x44\n      dup3\n      add\n        /* \"#utility.yul\":8232:8290   */\n      mstore\n        /* \"#utility.yul\":8307:8325   */\n      0x64\n      add\n        /* \"ERC721_flat.sol\":32094:32152  require(!_exists(tokenId), \"ERC721: token already minted\") */\n      tag_148\n        /* \"#utility.yul\":7979:8331   */\n      jump\n        /* \"ERC721_flat.sol\":32094:32152  require(!_exists(tokenId), \"ERC721: token already minted\") */\n    tag_412:\n        /* \"ERC721_flat.sol\":32163:32208  _beforeTokenTransfer(address(0), to, tokenId) */\n      tag_415\n        /* \"ERC721_flat.sol\":32192:32193  0 */\n      0x00\n        /* \"ERC721_flat.sol\":32196:32198  to */\n      dup4\n        /* \"ERC721_flat.sol\":32200:32207  tokenId */\n      dup4\n        /* \"ERC721_flat.sol\":32163:32183  _beforeTokenTransfer */\n      tag_294\n        /* \"ERC721_flat.sol\":32163:32208  _beforeTokenTransfer(address(0), to, tokenId) */\n      jump\t// in\n    tag_415:\n      sub(shl(0xa0, 0x01), 0x01)\n        /* \"ERC721_flat.sol\":32219:32232  _balances[to] */\n      dup3\n      and\n      0x00\n      swap1\n      dup2\n      mstore\n        /* \"ERC721_flat.sol\":32219:32228  _balances */\n      0x03\n        /* \"ERC721_flat.sol\":32219:32232  _balances[to] */\n      0x20\n      mstore\n      0x40\n      dup2\n      keccak256\n        /* \"ERC721_flat.sol\":32219:32237  _balances[to] += 1 */\n      dup1\n      sload\n        /* \"ERC721_flat.sol\":32236:32237  1 */\n      0x01\n      swap3\n        /* \"ERC721_flat.sol\":32219:32232  _balances[to] */\n      swap1\n        /* \"ERC721_flat.sol\":32219:32237  _balances[to] += 1 */\n      tag_416\n      swap1\n        /* \"ERC721_flat.sol\":32236:32237  1 */\n      dup5\n      swap1\n        /* \"ERC721_flat.sol\":32219:32237  _balances[to] += 1 */\n      tag_199\n      jump\t// in\n    tag_416:\n      swap1\n      swap2\n      sstore\n      pop\n      pop\n        /* \"ERC721_flat.sol\":32247:32263  _owners[tokenId] */\n      0x00\n      dup2\n      dup2\n      mstore\n        /* \"ERC721_flat.sol\":32247:32254  _owners */\n      0x02\n        /* \"ERC721_flat.sol\":32247:32263  _owners[tokenId] */\n      0x20\n      mstore\n      0x40\n      dup1\n      dup3\n      keccak256\n        /* \"ERC721_flat.sol\":32247:32268  _owners[tokenId] = to */\n      dup1\n      sload\n      not(sub(shl(0xa0, 0x01), 0x01))\n      and\n      sub(shl(0xa0, 0x01), 0x01)\n      dup7\n      and\n      swap1\n      dup2\n      or\n      swap1\n      swap2\n      sstore\n        /* \"ERC721_flat.sol\":32284:32317  Transfer(address(0), to, tokenId) */\n      swap1\n      mload\n        /* \"ERC721_flat.sol\":32247:32263  _owners[tokenId] */\n      dup4\n      swap3\n      swap1\n        /* \"ERC721_flat.sol\":32284:32317  Transfer(address(0), to, tokenId) */\n      0xddf252ad1be2c89b69c2b068fc378daa952ba7f163c4a11628f55a4df523b3ef\n      swap1\n        /* \"ERC721_flat.sol\":32247:32263  _owners[tokenId] */\n      dup3\n      swap1\n        /* \"ERC721_flat.sol\":32284:32317  Transfer(address(0), to, tokenId) */\n      log4\n        /* \"ERC721_flat.sol\":44722:44797  {... */\n      pop\n        /* \"ERC721_flat.sol\":44680:44797  function mint(address _to) public payable {... */\n      pop\n      jump\t// out\n        /* \"#utility.yul\":14:187   */\n    tag_420:\n        /* \"#utility.yul\":82:102   */\n      dup1\n      calldataload\n      sub(shl(0xa0, 0x01), 0x01)\n        /* \"#utility.yul\":131:162   */\n      dup2\n      and\n        /* \"#utility.yul\":121:163   */\n      dup2\n      eq\n        /* \"#utility.yul\":111:181   */\n      tag_422\n      jumpi\n        /* \"#utility.yul\":177:178   */\n      0x00\n        /* \"#utility.yul\":174:175   */\n      dup1\n        /* \"#utility.yul\":167:179   */\n      revert\n        /* \"#utility.yul\":111:181   */\n    tag_422:\n        /* \"#utility.yul\":14:187   */\n      swap2\n      swap1\n      pop\n      jump\t// out\n        /* \"#utility.yul\":192:378   */\n    tag_82:\n        /* \"#utility.yul\":251:257   */\n      0x00\n        /* \"#utility.yul\":304:306   */\n      0x20\n        /* \"#utility.yul\":292:301   */\n      dup3\n        /* \"#utility.yul\":283:290   */\n      dup5\n        /* \"#utility.yul\":279:302   */\n      sub\n        /* \"#utility.yul\":275:307   */\n      slt\n        /* \"#utility.yul\":272:324   */\n      iszero\n      tag_424\n      jumpi\n        /* \"#utility.yul\":320:321   */\n      0x00\n        /* \"#utility.yul\":317:318   */\n      dup1\n        /* \"#utility.yul\":310:322   */\n      revert\n        /* \"#utility.yul\":272:324   */\n    tag_424:\n        /* \"#utility.yul\":343:372   */\n      tag_250\n        /* \"#utility.yul\":362:371   */\n      dup3\n        /* \"#utility.yul\":343:372   */\n      tag_420\n      jump\t// in\n        /* \"#utility.yul\":383:643   */\n    tag_126:\n        /* \"#utility.yul\":451:457   */\n      0x00\n        /* \"#utility.yul\":459:465   */\n      dup1\n        /* \"#utility.yul\":512:514   */\n      0x40\n        /* \"#utility.yul\":500:509   */\n      dup4\n        /* \"#utility.yul\":491:498   */\n      dup6\n        /* \"#utility.yul\":487:510   */\n      sub\n        /* \"#utility.yul\":483:515   */\n      slt\n        /* \"#utility.yul\":480:532   */\n      iszero\n      tag_427\n      jumpi\n        /* \"#utility.yul\":528:529   */\n      0x00\n        /* \"#utility.yul\":525:526   */\n      dup1\n        /* \"#utility.yul\":518:530   */\n      revert\n        /* \"#utility.yul\":480:532   */\n    tag_427:\n        /* \"#utility.yul\":551:580   */\n      tag_428\n        /* \"#utility.yul\":570:579   */\n      dup4\n        /* \"#utility.yul\":551:580   */\n      tag_420\n      jump\t// in\n    tag_428:\n        /* \"#utility.yul\":541:580   */\n      swap2\n      pop\n        /* \"#utility.yul\":599:637   */\n      tag_429\n        /* \"#utility.yul\":633:635   */\n      0x20\n        /* \"#utility.yul\":622:631   */\n      dup5\n        /* \"#utility.yul\":618:636   */\n      add\n        /* \"#utility.yul\":599:637   */\n      tag_420\n      jump\t// in\n    tag_429:\n        /* \"#utility.yul\":589:637   */\n      swap1\n      pop\n        /* \"#utility.yul\":383:643   */\n      swap3\n      pop\n      swap3\n      swap1\n      pop\n      jump\t// out\n        /* \"#utility.yul\":648:976   */\n    tag_59:\n        /* \"#utility.yul\":725:731   */\n      0x00\n        /* \"#utility.yul\":733:739   */\n      dup1\n        /* \"#utility.yul\":741:747   */\n      0x00\n        /* \"#utility.yul\":794:796   */\n      0x60\n        /* \"#utility.yul\":782:791   */\n      dup5\n        /* \"#utility.yul\":773:780   */\n      dup7\n        /* \"#utility.yul\":769:792   */\n      sub\n        /* \"#utility.yul\":765:797   */\n      slt\n        /* \"#utility.yul\":762:814   */\n      iszero\n      tag_431\n      jumpi\n        /* \"#utility.yul\":810:811   */\n      0x00\n        /* \"#utility.yul\":807:808   */\n      dup1\n        /* \"#utility.yul\":800:812   */\n      revert\n        /* \"#utility.yul\":762:814   */\n    tag_431:\n        /* \"#utility.yul\":833:862   */\n      tag_432\n        /* \"#utility.yul\":852:861   */\n      dup5\n        /* \"#utility.yul\":833:862   */\n      tag_420\n      jump\t// in\n    tag_432:\n        /* \"#utility.yul\":823:862   */\n      swap3\n      pop\n        /* \"#utility.yul\":881:919   */\n      tag_433\n        /* \"#utility.yul\":915:917   */\n      0x20\n        /* \"#utility.yul\":904:913   */\n      dup6\n        /* \"#utility.yul\":900:918   */\n      add\n        /* \"#utility.yul\":881:919   */\n      tag_420\n      jump\t// in\n    tag_433:\n        /* \"#utility.yul\":871:919   */\n      swap2\n      pop\n        /* \"#utility.yul\":966:968   */\n      0x40\n        /* \"#utility.yul\":955:964   */\n      dup5\n        /* \"#utility.yul\":951:969   */\n      add\n        /* \"#utility.yul\":938:970   */\n      calldataload\n        /* \"#utility.yul\":928:970   */\n      swap1\n      pop\n        /* \"#utility.yul\":648:976   */\n      swap3\n      pop\n      swap3\n      pop\n      swap3\n      jump\t// out\n        /* \"#utility.yul\":981:2119   */\n    tag_112:\n        /* \"#utility.yul\":1076:1082   */\n      0x00\n        /* \"#utility.yul\":1084:1090   */\n      dup1\n        /* \"#utility.yul\":1092:1098   */\n      0x00\n        /* \"#utility.yul\":1100:1106   */\n      dup1\n        /* \"#utility.yul\":1153:1156   */\n      0x80\n        /* \"#utility.yul\":1141:1150   */\n      dup6\n        /* \"#utility.yul\":1132:1139   */\n      dup8\n        /* \"#utility.yul\":1128:1151   */\n      sub\n        /* \"#utility.yul\":1124:1157   */\n      slt\n        /* \"#utility.yul\":1121:1174   */\n      iszero\n      tag_435\n      jumpi\n        /* \"#utility.yul\":1170:1171   */\n      0x00\n        /* \"#utility.yul\":1167:1168   */\n      dup1\n        /* \"#utility.yul\":1160:1172   */\n      revert\n        /* \"#utility.yul\":1121:1174   */\n    tag_435:\n        /* \"#utility.yul\":1193:1222   */\n      tag_436\n        /* \"#utility.yul\":1212:1221   */\n      dup6\n        /* \"#utility.yul\":1193:1222   */\n      tag_420\n      jump\t// in\n    tag_436:\n        /* \"#utility.yul\":1183:1222   */\n      swap4\n      pop\n        /* \"#utility.yul\":1241:1279   */\n      tag_437\n        /* \"#utility.yul\":1275:1277   */\n      0x20\n        /* \"#utility.yul\":1264:1273   */\n      dup7\n        /* \"#utility.yul\":1260:1278   */\n      add\n        /* \"#utility.yul\":1241:1279   */\n      tag_420\n      jump\t// in\n    tag_437:\n        /* \"#utility.yul\":1231:1279   */\n      swap3\n      pop\n        /* \"#utility.yul\":1326:1328   */\n      0x40\n        /* \"#utility.yul\":1315:1324   */\n      dup6\n        /* \"#utility.yul\":1311:1329   */\n      add\n        /* \"#utility.yul\":1298:1330   */\n      calldataload\n        /* \"#utility.yul\":1288:1330   */\n      swap2\n      pop\n        /* \"#utility.yul\":1381:1383   */\n      0x60\n        /* \"#utility.yul\":1370:1379   */\n      dup6\n        /* \"#utility.yul\":1366:1384   */\n      add\n        /* \"#utility.yul\":1353:1385   */\n      calldataload\n        /* \"#utility.yul\":1404:1422   */\n      0xffffffffffffffff\n        /* \"#utility.yul\":1445:1447   */\n      dup1\n        /* \"#utility.yul\":1437:1443   */\n      dup3\n        /* \"#utility.yul\":1434:1448   */\n      gt\n        /* \"#utility.yul\":1431:1465   */\n      iszero\n      tag_438\n      jumpi\n        /* \"#utility.yul\":1461:1462   */\n      0x00\n        /* \"#utility.yul\":1458:1459   */\n      dup1\n        /* \"#utility.yul\":1451:1463   */\n      revert\n        /* \"#utility.yul\":1431:1465   */\n    tag_438:\n        /* \"#utility.yul\":1499:1505   */\n      dup2\n        /* \"#utility.yul\":1488:1497   */\n      dup8\n        /* \"#utility.yul\":1484:1506   */\n      add\n        /* \"#utility.yul\":1474:1506   */\n      swap2\n      pop\n        /* \"#utility.yul\":1544:1551   */\n      dup8\n        /* \"#utility.yul\":1537:1541   */\n      0x1f\n        /* \"#utility.yul\":1533:1535   */\n      dup4\n        /* \"#utility.yul\":1529:1542   */\n      add\n        /* \"#utility.yul\":1525:1552   */\n      slt\n        /* \"#utility.yul\":1515:1570   */\n      tag_439\n      jumpi\n        /* \"#utility.yul\":1566:1567   */\n      0x00\n        /* \"#utility.yul\":1563:1564   */\n      dup1\n        /* \"#utility.yul\":1556:1568   */\n      revert\n        /* \"#utility.yul\":1515:1570   */\n    tag_439:\n        /* \"#utility.yul\":1602:1604   */\n      dup2\n        /* \"#utility.yul\":1589:1605   */\n      calldataload\n        /* \"#utility.yul\":1624:1626   */\n      dup2\n        /* \"#utility.yul\":1620:1622   */\n      dup2\n        /* \"#utility.yul\":1617:1627   */\n      gt\n        /* \"#utility.yul\":1614:1650   */\n      iszero\n      tag_441\n      jumpi\n        /* \"#utility.yul\":1630:1648   */\n      tag_441\n      tag_328\n      jump\t// in\n    tag_441:\n        /* \"#utility.yul\":1705:1707   */\n      0x40\n        /* \"#utility.yul\":1699:1708   */\n      mload\n        /* \"#utility.yul\":1673:1675   */\n      0x1f\n        /* \"#utility.yul\":1759:1772   */\n      dup3\n      add\n      not(0x1f)\n        /* \"#utility.yul\":1755:1777   */\n      swap1\n      dup2\n      and\n        /* \"#utility.yul\":1779:1781   */\n      0x3f\n        /* \"#utility.yul\":1751:1782   */\n      add\n        /* \"#utility.yul\":1747:1787   */\n      and\n        /* \"#utility.yul\":1735:1788   */\n      dup2\n      add\n      swap1\n        /* \"#utility.yul\":1803:1821   */\n      dup4\n      dup3\n      gt\n        /* \"#utility.yul\":1823:1845   */\n      dup2\n      dup4\n      lt\n        /* \"#utility.yul\":1800:1846   */\n      or\n        /* \"#utility.yul\":1797:1869   */\n      iszero\n      tag_443\n      jumpi\n        /* \"#utility.yul\":1849:1867   */\n      tag_443\n      tag_328\n      jump\t// in\n    tag_443:\n        /* \"#utility.yul\":1889:1899   */\n      dup2\n        /* \"#utility.yul\":1885:1887   */\n      0x40\n        /* \"#utility.yul\":1878:1900   */\n      mstore\n        /* \"#utility.yul\":1924:1926   */\n      dup3\n        /* \"#utility.yul\":1916:1922   */\n      dup2\n        /* \"#utility.yul\":1909:1927   */\n      mstore\n        /* \"#utility.yul\":1964:1971   */\n      dup11\n        /* \"#utility.yul\":1959:1961   */\n      0x20\n        /* \"#utility.yul\":1954:1956   */\n      dup5\n        /* \"#utility.yul\":1950:1952   */\n      dup8\n        /* \"#utility.yul\":1946:1957   */\n      add\n        /* \"#utility.yul\":1942:1962   */\n      add\n        /* \"#utility.yul\":1939:1972   */\n      gt\n        /* \"#utility.yul\":1936:1989   */\n      iszero\n      tag_444\n      jumpi\n        /* \"#utility.yul\":1985:1986   */\n      0x00\n        /* \"#utility.yul\":1982:1983   */\n      dup1\n        /* \"#utility.yul\":1975:1987   */\n      revert\n        /* \"#utility.yul\":1936:1989   */\n    tag_444:\n        /* \"#utility.yul\":2041:2043   */\n      dup3\n        /* \"#utility.yul\":2036:2038   */\n      0x20\n        /* \"#utility.yul\":2032:2034   */\n      dup7\n        /* \"#utility.yul\":2028:2039   */\n      add\n        /* \"#utility.yul\":2023:2025   */\n      0x20\n        /* \"#utility.yul\":2015:2021   */\n      dup4\n        /* \"#utility.yul\":2011:2026   */\n      add\n        /* \"#utility.yul\":1998:2044   */\n      calldatacopy\n        /* \"#utility.yul\":2086:2087   */\n      0x00\n        /* \"#utility.yul\":2081:2083   */\n      0x20\n        /* \"#utility.yul\":2076:2078   */\n      dup5\n        /* \"#utility.yul\":2068:2074   */\n      dup4\n        /* \"#utility.yul\":2064:2079   */\n      add\n        /* \"#utility.yul\":2060:2084   */\n      add\n        /* \"#utility.yul\":2053:2088   */\n      mstore\n        /* \"#utility.yul\":2107:2113   */\n      dup1\n        /* \"#utility.yul\":2097:2113   */\n      swap6\n      pop\n      pop\n      pop\n      pop\n      pop\n      pop\n        /* \"#utility.yul\":981:2119   */\n      swap3\n      swap6\n      swap2\n      swap5\n      pop\n      swap3\n      pop\n      jump\t// out\n        /* \"#utility.yul\":2124:2471   */\n    tag_107:\n        /* \"#utility.yul\":2189:2195   */\n      0x00\n        /* \"#utility.yul\":2197:2203   */\n      dup1\n        /* \"#utility.yul\":2250:2252   */\n      0x40\n        /* \"#utility.yul\":2238:2247   */\n      dup4\n        /* \"#utility.yul\":2229:2236   */\n      dup6\n        /* \"#utility.yul\":2225:2248   */\n      sub\n        /* \"#utility.yul\":2221:2253   */\n      slt\n        /* \"#utility.yul\":2218:2270   */\n      iszero\n      tag_446\n      jumpi\n        /* \"#utility.yul\":2266:2267   */\n      0x00\n        /* \"#utility.yul\":2263:2264   */\n      dup1\n        /* \"#utility.yul\":2256:2268   */\n      revert\n        /* \"#utility.yul\":2218:2270   */\n    tag_446:\n        /* \"#utility.yul\":2289:2318   */\n      tag_447\n        /* \"#utility.yul\":2308:2317   */\n      dup4\n        /* \"#utility.yul\":2289:2318   */\n      tag_420\n      jump\t// in\n    tag_447:\n        /* \"#utility.yul\":2279:2318   */\n      swap2\n      pop\n        /* \"#utility.yul\":2368:2370   */\n      0x20\n        /* \"#utility.yul\":2357:2366   */\n      dup4\n        /* \"#utility.yul\":2353:2371   */\n      add\n        /* \"#utility.yul\":2340:2372   */\n      calldataload\n        /* \"#utility.yul\":2415:2420   */\n      dup1\n        /* \"#utility.yul\":2408:2421   */\n      iszero\n        /* \"#utility.yul\":2401:2422   */\n      iszero\n        /* \"#utility.yul\":2394:2399   */\n      dup2\n        /* \"#utility.yul\":2391:2423   */\n      eq\n        /* \"#utility.yul\":2381:2441   */\n      tag_448\n      jumpi\n        /* \"#utility.yul\":2437:2438   */\n      0x00\n        /* \"#utility.yul\":2434:2435   */\n      dup1\n        /* \"#utility.yul\":2427:2439   */\n      revert\n        /* \"#utility.yul\":2381:2441   */\n    tag_448:\n        /* \"#utility.yul\":2460:2465   */\n      dup1\n        /* \"#utility.yul\":2450:2465   */\n      swap2\n      pop\n      pop\n        /* \"#utility.yul\":2124:2471   */\n      swap3\n      pop\n      swap3\n      swap1\n      pop\n      jump\t// out\n        /* \"#utility.yul\":2476:2730   */\n    tag_49:\n        /* \"#utility.yul\":2544:2550   */\n      0x00\n        /* \"#utility.yul\":2552:2558   */\n      dup1\n        /* \"#utility.yul\":2605:2607   */\n      0x40\n        /* \"#utility.yul\":2593:2602   */\n      dup4\n        /* \"#utility.yul\":2584:2591   */\n      dup6\n        /* \"#utility.yul\":2580:2603   */\n      sub\n        /* \"#utility.yul\":2576:2608   */\n      slt\n        /* \"#utility.yul\":2573:2625   */\n      iszero\n      tag_450\n      jumpi\n        /* \"#utility.yul\":2621:2622   */\n      0x00\n        /* \"#utility.yul\":2618:2619   */\n      dup1\n        /* \"#utility.yul\":2611:2623   */\n      revert\n        /* \"#utility.yul\":2573:2625   */\n    tag_450:\n        /* \"#utility.yul\":2644:2673   */\n      tag_451\n        /* \"#utility.yul\":2663:2672   */\n      dup4\n        /* \"#utility.yul\":2644:2673   */\n      tag_420\n      jump\t// in\n    tag_451:\n        /* \"#utility.yul\":2634:2673   */\n      swap5\n        /* \"#utility.yul\":2720:2722   */\n      0x20\n        /* \"#utility.yul\":2705:2723   */\n      swap4\n      swap1\n      swap4\n      add\n        /* \"#utility.yul\":2692:2724   */\n      calldataload\n      swap4\n      pop\n      pop\n      pop\n        /* \"#utility.yul\":2476:2730   */\n      jump\t// out\n        /* \"#utility.yul\":2735:2980   */\n    tag_30:\n        /* \"#utility.yul\":2793:2799   */\n      0x00\n        /* \"#utility.yul\":2846:2848   */\n      0x20\n        /* \"#utility.yul\":2834:2843   */\n      dup3\n        /* \"#utility.yul\":2825:2832   */\n      dup5\n        /* \"#utility.yul\":2821:2844   */\n      sub\n        /* \"#utility.yul\":2817:2849   */\n      slt\n        /* \"#utility.yul\":2814:2866   */\n      iszero\n      tag_453\n      jumpi\n        /* \"#utility.yul\":2862:2863   */\n      0x00\n        /* \"#utility.yul\":2859:2860   */\n      dup1\n        /* \"#utility.yul\":2852:2864   */\n      revert\n        /* \"#utility.yul\":2814:2866   */\n    tag_453:\n        /* \"#utility.yul\":2901:2910   */\n      dup2\n        /* \"#utility.yul\":2888:2911   */\n      calldataload\n        /* \"#utility.yul\":2920:2950   */\n      tag_250\n        /* \"#utility.yul\":2944:2949   */\n      dup2\n        /* \"#utility.yul\":2920:2950   */\n      tag_455\n      jump\t// in\n        /* \"#utility.yul\":2985:3234   */\n    tag_374:\n        /* \"#utility.yul\":3054:3060   */\n      0x00\n        /* \"#utility.yul\":3107:3109   */\n      0x20\n        /* \"#utility.yul\":3095:3104   */\n      dup3\n        /* \"#utility.yul\":3086:3093   */\n      dup5\n        /* \"#utility.yul\":3082:3105   */\n      sub\n        /* \"#utility.yul\":3078:3110   */\n      slt\n        /* \"#utility.yul\":3075:3127   */\n      iszero\n      tag_457\n      jumpi\n        /* \"#utility.yul\":3123:3124   */\n      0x00\n        /* \"#utility.yul\":3120:3121   */\n      dup1\n        /* \"#utility.yul\":3113:3125   */\n      revert\n        /* \"#utility.yul\":3075:3127   */\n    tag_457:\n        /* \"#utility.yul\":3155:3164   */\n      dup2\n        /* \"#utility.yul\":3149:3165   */\n      mload\n        /* \"#utility.yul\":3174:3204   */\n      tag_250\n        /* \"#utility.yul\":3198:3203   */\n      dup2\n        /* \"#utility.yul\":3174:3204   */\n      tag_455\n      jump\t// in\n        /* \"#utility.yul\":3239:3419   */\n    tag_42:\n        /* \"#utility.yul\":3298:3304   */\n      0x00\n        /* \"#utility.yul\":3351:3353   */\n      0x20\n        /* \"#utility.yul\":3339:3348   */\n      dup3\n        /* \"#utility.yul\":3330:3337   */\n      dup5\n        /* \"#utility.yul\":3326:3349   */\n      sub\n        /* \"#utility.yul\":3322:3354   */\n      slt\n        /* \"#utility.yul\":3319:3371   */\n      iszero\n      tag_460\n      jumpi\n        /* \"#utility.yul\":3367:3368   */\n      0x00\n        /* \"#utility.yul\":3364:3365   */\n      dup1\n        /* \"#utility.yul\":3357:3369   */\n      revert\n        /* \"#utility.yul\":3319:3371   */\n    tag_460:\n      pop\n        /* \"#utility.yul\":3390:3413   */\n      calldataload\n      swap2\n        /* \"#utility.yul\":3239:3419   */\n      swap1\n      pop\n      jump\t// out\n        /* \"#utility.yul\":3424:3681   */\n    tag_461:\n        /* \"#utility.yul\":3465:3468   */\n      0x00\n        /* \"#utility.yul\":3503:3508   */\n      dup2\n        /* \"#utility.yul\":3497:3509   */\n      mload\n        /* \"#utility.yul\":3530:3536   */\n      dup1\n        /* \"#utility.yul\":3525:3528   */\n      dup5\n        /* \"#utility.yul\":3518:3537   */\n      mstore\n        /* \"#utility.yul\":3546:3609   */\n      tag_463\n        /* \"#utility.yul\":3602:3608   */\n      dup2\n        /* \"#utility.yul\":3595:3599   */\n      0x20\n        /* \"#utility.yul\":3590:3593   */\n      dup7\n        /* \"#utility.yul\":3586:3600   */\n      add\n        /* \"#utility.yul\":3579:3583   */\n      0x20\n        /* \"#utility.yul\":3572:3577   */\n      dup7\n        /* \"#utility.yul\":3568:3584   */\n      add\n        /* \"#utility.yul\":3546:3609   */\n      tag_464\n      jump\t// in\n    tag_463:\n        /* \"#utility.yul\":3663:3665   */\n      0x1f\n        /* \"#utility.yul\":3642:3657   */\n      add\n      not(0x1f)\n        /* \"#utility.yul\":3638:3667   */\n      and\n        /* \"#utility.yul\":3629:3668   */\n      swap3\n      swap1\n      swap3\n      add\n        /* \"#utility.yul\":3670:3674   */\n      0x20\n        /* \"#utility.yul\":3625:3675   */\n      add\n      swap3\n        /* \"#utility.yul\":3424:3681   */\n      swap2\n      pop\n      pop\n      jump\t// out\n        /* \"#utility.yul\":3686:5213   */\n    tag_254:\n        /* \"#utility.yul\":3910:3913   */\n      0x00\n        /* \"#utility.yul\":3948:3954   */\n      dup5\n        /* \"#utility.yul\":3942:3955   */\n      mload\n        /* \"#utility.yul\":3974:3978   */\n      0x20\n        /* \"#utility.yul\":3987:4038   */\n      tag_466\n        /* \"#utility.yul\":4031:4037   */\n      dup3\n        /* \"#utility.yul\":4026:4029   */\n      dup6\n        /* \"#utility.yul\":4021:4023   */\n      dup4\n        /* \"#utility.yul\":4013:4019   */\n      dup11\n        /* \"#utility.yul\":4009:4024   */\n      add\n        /* \"#utility.yul\":3987:4038   */\n      tag_464\n      jump\t// in\n    tag_466:\n        /* \"#utility.yul\":4101:4114   */\n      dup6\n      mload\n        /* \"#utility.yul\":4060:4076   */\n      swap2\n      dup5\n      add\n      swap2\n        /* \"#utility.yul\":4123:4178   */\n      tag_467\n        /* \"#utility.yul\":4101:4114   */\n      dup2\n        /* \"#utility.yul\":4060:4076   */\n      dup5\n        /* \"#utility.yul\":4145:4160   */\n      dup5\n      dup11\n      add\n        /* \"#utility.yul\":4123:4178   */\n      tag_464\n      jump\t// in\n    tag_467:\n        /* \"#utility.yul\":4267:4280   */\n      dup6\n      sload\n        /* \"#utility.yul\":4200:4220   */\n      swap3\n      add\n      swap2\n        /* \"#utility.yul\":4240:4241   */\n      0x00\n      swap1\n        /* \"#utility.yul\":4327:4328   */\n      0x01\n        /* \"#utility.yul\":4349:4367   */\n      dup2\n      dup2\n      shr\n      swap1\n        /* \"#utility.yul\":4402:4420   */\n      dup1\n      dup4\n      and\n      dup1\n        /* \"#utility.yul\":4429:4522   */\n      tag_468\n      jumpi\n        /* \"#utility.yul\":4507:4511   */\n      0x7f\n        /* \"#utility.yul\":4497:4505   */\n      dup4\n        /* \"#utility.yul\":4493:4512   */\n      and\n        /* \"#utility.yul\":4481:4512   */\n      swap3\n      pop\n        /* \"#utility.yul\":4429:4522   */\n    tag_468:\n        /* \"#utility.yul\":4570:4572   */\n      dup6\n        /* \"#utility.yul\":4560:4568   */\n      dup4\n        /* \"#utility.yul\":4557:4573   */\n      lt\n        /* \"#utility.yul\":4537:4555   */\n      dup2\n        /* \"#utility.yul\":4534:4574   */\n      eq\n        /* \"#utility.yul\":4531:4698   */\n      iszero\n      tag_469\n      jumpi\n      shl(0xe0, 0x4e487b71)\n        /* \"#utility.yul\":4597:4630   */\n      dup6\n      mstore\n        /* \"#utility.yul\":4653:4657   */\n      0x22\n        /* \"#utility.yul\":4650:4651   */\n      0x04\n        /* \"#utility.yul\":4643:4658   */\n      mstore\n        /* \"#utility.yul\":4683:4687   */\n      0x24\n        /* \"#utility.yul\":4604:4607   */\n      dup6\n        /* \"#utility.yul\":4671:4688   */\n      revert\n        /* \"#utility.yul\":4531:4698   */\n    tag_469:\n        /* \"#utility.yul\":4714:4732   */\n      dup1\n        /* \"#utility.yul\":4741:4851   */\n      dup1\n      iszero\n      tag_471\n      jumpi\n        /* \"#utility.yul\":4865:4866   */\n      0x01\n        /* \"#utility.yul\":4860:5188   */\n      dup2\n      eq\n      tag_472\n      jumpi\n        /* \"#utility.yul\":4707:5188   */\n      jump(tag_470)\n        /* \"#utility.yul\":4741:4851   */\n    tag_471:\n      not(0xff)\n        /* \"#utility.yul\":4776:4800   */\n      dup6\n      and\n        /* \"#utility.yul\":4762:4801   */\n      dup9\n      mstore\n        /* \"#utility.yul\":4821:4841   */\n      dup4\n      dup9\n      add\n      swap6\n      pop\n        /* \"#utility.yul\":4741:4851   */\n      jump(tag_470)\n        /* \"#utility.yul\":4860:5188   */\n    tag_472:\n        /* \"#utility.yul\":13793:13794   */\n      0x00\n        /* \"#utility.yul\":13786:13800   */\n      dup12\n      dup2\n      mstore\n        /* \"#utility.yul\":13830:13834   */\n      0x20\n        /* \"#utility.yul\":13817:13835   */\n      swap1\n      keccak256\n        /* \"#utility.yul\":4955:4956   */\n      0x00\n        /* \"#utility.yul\":4969:5138   */\n    tag_475:\n        /* \"#utility.yul\":4983:4991   */\n      dup6\n        /* \"#utility.yul\":4980:4981   */\n      dup2\n        /* \"#utility.yul\":4977:4992   */\n      lt\n        /* \"#utility.yul\":4969:5138   */\n      iszero\n      tag_477\n      jumpi\n        /* \"#utility.yul\":5065:5079   */\n      dup2\n      sload\n        /* \"#utility.yul\":5050:5063   */\n      dup11\n      dup3\n      add\n        /* \"#utility.yul\":5043:5080   */\n      mstore\n        /* \"#utility.yul\":5108:5124   */\n      swap1\n      dup5\n      add\n      swap1\n        /* \"#utility.yul\":5000:5010   */\n      dup9\n      add\n        /* \"#utility.yul\":4969:5138   */\n      jump(tag_475)\n    tag_477:\n        /* \"#utility.yul\":4973:4976   */\n      pop\n      pop\n        /* \"#utility.yul\":5169:5177   */\n      dup4\n        /* \"#utility.yul\":5162:5167   */\n      dup9\n        /* \"#utility.yul\":5158:5178   */\n      add\n        /* \"#utility.yul\":5151:5178   */\n      swap6\n      pop\n        /* \"#utility.yul\":4707:5188   */\n    tag_470:\n      pop\n        /* \"#utility.yul\":5204:5207   */\n      swap4\n      swap12\n        /* \"#utility.yul\":3686:5213   */\n      swap11\n      pop\n      pop\n      pop\n      pop\n      pop\n      pop\n      pop\n      pop\n      pop\n      pop\n      pop\n      jump\t// out\n        /* \"#utility.yul\":5426:5914   */\n    tag_370:\n      sub(shl(0xa0, 0x01), 0x01)\n        /* \"#utility.yul\":5695:5710   */\n      dup6\n      dup2\n      and\n        /* \"#utility.yul\":5677:5711   */\n      dup3\n      mstore\n        /* \"#utility.yul\":5747:5762   */\n      dup5\n      and\n        /* \"#utility.yul\":5742:5744   */\n      0x20\n        /* \"#utility.yul\":5727:5745   */\n      dup3\n      add\n        /* \"#utility.yul\":5720:5763   */\n      mstore\n        /* \"#utility.yul\":5794:5796   */\n      0x40\n        /* \"#utility.yul\":5779:5797   */\n      dup2\n      add\n        /* \"#utility.yul\":5772:5806   */\n      dup4\n      swap1\n      mstore\n        /* \"#utility.yul\":5842:5845   */\n      0x80\n        /* \"#utility.yul\":5837:5839   */\n      0x60\n        /* \"#utility.yul\":5822:5840   */\n      dup3\n      add\n        /* \"#utility.yul\":5815:5846   */\n      dup2\n      swap1\n      mstore\n        /* \"#utility.yul\":5620:5624   */\n      0x00\n      swap1\n        /* \"#utility.yul\":5863:5908   */\n      tag_480\n      swap1\n        /* \"#utility.yul\":5888:5907   */\n      dup4\n      add\n        /* \"#utility.yul\":5880:5886   */\n      dup5\n        /* \"#utility.yul\":5863:5908   */\n      tag_461\n      jump\t// in\n    tag_480:\n        /* \"#utility.yul\":5855:5908   */\n      swap7\n        /* \"#utility.yul\":5426:5914   */\n      swap6\n      pop\n      pop\n      pop\n      pop\n      pop\n      pop\n      jump\t// out\n        /* \"#utility.yul\":6111:6330   */\n    tag_38:\n        /* \"#utility.yul\":6260:6262   */\n      0x20\n        /* \"#utility.yul\":6249:6258   */\n      dup2\n        /* \"#utility.yul\":6242:6263   */\n      mstore\n        /* \"#utility.yul\":6223:6227   */\n      0x00\n        /* \"#utility.yul\":6280:6324   */\n      tag_250\n        /* \"#utility.yul\":6320:6322   */\n      0x20\n        /* \"#utility.yul\":6309:6318   */\n      dup4\n        /* \"#utility.yul\":6305:6323   */\n      add\n        /* \"#utility.yul\":6297:6303   */\n      dup5\n        /* \"#utility.yul\":6280:6324   */\n      tag_461\n      jump\t// in\n        /* \"#utility.yul\":6747:7161   */\n    tag_316:\n        /* \"#utility.yul\":6949:6951   */\n      0x20\n        /* \"#utility.yul\":6931:6952   */\n      dup1\n      dup3\n      mstore\n        /* \"#utility.yul\":6988:6990   */\n      0x32\n        /* \"#utility.yul\":6968:6986   */\n      swap1\n      dup3\n      add\n        /* \"#utility.yul\":6961:6991   */\n      mstore\n        /* \"#utility.yul\":7027:7061   */\n      0x4552433732313a207472616e7366657220746f206e6f6e204552433732315265\n        /* \"#utility.yul\":7022:7024   */\n      0x40\n        /* \"#utility.yul\":7007:7025   */\n      dup3\n      add\n        /* \"#utility.yul\":7000:7062   */\n      mstore\n      shl(0x71, 0x31b2b4bb32b91034b6b83632b6b2b73a32b9)\n        /* \"#utility.yul\":7093:7095   */\n      0x60\n        /* \"#utility.yul\":7078:7096   */\n      dup3\n      add\n        /* \"#utility.yul\":7071:7119   */\n      mstore\n        /* \"#utility.yul\":7151:7154   */\n      0x80\n        /* \"#utility.yul\":7136:7155   */\n      add\n      swap1\n        /* \"#utility.yul\":6747:7161   */\n      jump\t// out\n        /* \"#utility.yul\":12707:13120   */\n    tag_172:\n        /* \"#utility.yul\":12909:12911   */\n      0x20\n        /* \"#utility.yul\":12891:12912   */\n      dup1\n      dup3\n      mstore\n        /* \"#utility.yul\":12948:12950   */\n      0x31\n        /* \"#utility.yul\":12928:12946   */\n      swap1\n      dup3\n      add\n        /* \"#utility.yul\":12921:12951   */\n      mstore\n        /* \"#utility.yul\":12987:13021   */\n      0x4552433732313a207472616e736665722063616c6c6572206973206e6f74206f\n        /* \"#utility.yul\":12982:12984   */\n      0x40\n        /* \"#utility.yul\":12967:12985   */\n      dup3\n      add\n        /* \"#utility.yul\":12960:13022   */\n      mstore\n      shl(0x7a, 0x1ddb995c881b9bdc88185c1c1c9bdd9959)\n        /* \"#utility.yul\":13053:13055   */\n      0x60\n        /* \"#utility.yul\":13038:13056   */\n      dup3\n      add\n        /* \"#utility.yul\":13031:13078   */\n      mstore\n        /* \"#utility.yul\":13110:13113   */\n      0x80\n        /* \"#utility.yul\":13095:13114   */\n      add\n      swap1\n        /* \"#utility.yul\":12707:13120   */\n      jump\t// out\n        /* \"#utility.yul\":13846:13974   */\n    tag_199:\n        /* \"#utility.yul\":13886:13889   */\n      0x00\n        /* \"#utility.yul\":13917:13918   */\n      dup3\n        /* \"#utility.yul\":13913:13919   */\n      not\n        /* \"#utility.yul\":13910:13911   */\n      dup3\n        /* \"#utility.yul\":13907:13920   */\n      gt\n        /* \"#utility.yul\":13904:13943   */\n      iszero\n      tag_506\n      jumpi\n        /* \"#utility.yul\":13923:13941   */\n      tag_506\n      tag_507\n      jump\t// in\n    tag_506:\n      pop\n        /* \"#utility.yul\":13959:13968   */\n      add\n      swap1\n        /* \"#utility.yul\":13846:13974   */\n      jump\t// out\n        /* \"#utility.yul\":13979:14099   */\n    tag_325:\n        /* \"#utility.yul\":14019:14020   */\n      0x00\n        /* \"#utility.yul\":14045:14046   */\n      dup3\n        /* \"#utility.yul\":14035:14070   */\n      tag_510\n      jumpi\n        /* \"#utility.yul\":14050:14068   */\n      tag_510\n      tag_511\n      jump\t// in\n    tag_510:\n      pop\n        /* \"#utility.yul\":14084:14093   */\n      div\n      swap1\n        /* \"#utility.yul\":13979:14099   */\n      jump\t// out\n        /* \"#utility.yul\":14104:14229   */\n    tag_297:\n        /* \"#utility.yul\":14144:14148   */\n      0x00\n        /* \"#utility.yul\":14172:14173   */\n      dup3\n        /* \"#utility.yul\":14169:14170   */\n      dup3\n        /* \"#utility.yul\":14166:14174   */\n      lt\n        /* \"#utility.yul\":14163:14197   */\n      iszero\n      tag_514\n      jumpi\n        /* \"#utility.yul\":14177:14195   */\n      tag_514\n      tag_507\n      jump\t// in\n    tag_514:\n      pop\n        /* \"#utility.yul\":14214:14223   */\n      sub\n      swap1\n        /* \"#utility.yul\":14104:14229   */\n      jump\t// out\n        /* \"#utility.yul\":14234:14492   */\n    tag_464:\n        /* \"#utility.yul\":14306:14307   */\n      0x00\n        /* \"#utility.yul\":14316:14429   */\n    tag_516:\n        /* \"#utility.yul\":14330:14336   */\n      dup4\n        /* \"#utility.yul\":14327:14328   */\n      dup2\n        /* \"#utility.yul\":14324:14337   */\n      lt\n        /* \"#utility.yul\":14316:14429   */\n      iszero\n      tag_518\n      jumpi\n        /* \"#utility.yul\":14406:14417   */\n      dup2\n      dup2\n      add\n        /* \"#utility.yul\":14400:14418   */\n      mload\n        /* \"#utility.yul\":14387:14398   */\n      dup4\n      dup3\n      add\n        /* \"#utility.yul\":14380:14419   */\n      mstore\n        /* \"#utility.yul\":14352:14354   */\n      0x20\n        /* \"#utility.yul\":14345:14355   */\n      add\n        /* \"#utility.yul\":14316:14429   */\n      jump(tag_516)\n    tag_518:\n        /* \"#utility.yul\":14447:14453   */\n      dup4\n        /* \"#utility.yul\":14444:14445   */\n      dup2\n        /* \"#utility.yul\":14441:14454   */\n      gt\n        /* \"#utility.yul\":14438:14486   */\n      iszero\n      tag_235\n      jumpi\n      pop\n      pop\n        /* \"#utility.yul\":14482:14483   */\n      0x00\n        /* \"#utility.yul\":14464:14480   */\n      swap2\n      add\n        /* \"#utility.yul\":14457:14484   */\n      mstore\n        /* \"#utility.yul\":14234:14492   */\n      jump\t// out\n        /* \"#utility.yul\":14497:14877   */\n    tag_139:\n        /* \"#utility.yul\":14576:14577   */\n      0x01\n        /* \"#utility.yul\":14572:14584   */\n      dup2\n      dup2\n      shr\n      swap1\n        /* \"#utility.yul\":14619:14631   */\n      dup3\n      and\n      dup1\n        /* \"#utility.yul\":14640:14701   */\n      tag_521\n      jumpi\n        /* \"#utility.yul\":14694:14698   */\n      0x7f\n        /* \"#utility.yul\":14686:14692   */\n      dup3\n        /* \"#utility.yul\":14682:14699   */\n      and\n        /* \"#utility.yul\":14672:14699   */\n      swap2\n      pop\n        /* \"#utility.yul\":14640:14701   */\n    tag_521:\n        /* \"#utility.yul\":14747:14749   */\n      0x20\n        /* \"#utility.yul\":14739:14745   */\n      dup3\n        /* \"#utility.yul\":14736:14750   */\n      lt\n        /* \"#utility.yul\":14716:14734   */\n      dup2\n        /* \"#utility.yul\":14713:14751   */\n      eq\n        /* \"#utility.yul\":14710:14871   */\n      iszero\n      tag_522\n      jumpi\n        /* \"#utility.yul\":14793:14803   */\n      0x4e487b71\n        /* \"#utility.yul\":14788:14791   */\n      0xe0\n        /* \"#utility.yul\":14784:14804   */\n      shl\n        /* \"#utility.yul\":14781:14782   */\n      0x00\n        /* \"#utility.yul\":14774:14805   */\n      mstore\n        /* \"#utility.yul\":14828:14832   */\n      0x22\n        /* \"#utility.yul\":14825:14826   */\n      0x04\n        /* \"#utility.yul\":14818:14833   */\n      mstore\n        /* \"#utility.yul\":14856:14860   */\n      0x24\n        /* \"#utility.yul\":14853:14854   */\n      0x00\n        /* \"#utility.yul\":14846:14861   */\n      revert\n        /* \"#utility.yul\":14710:14871   */\n    tag_522:\n      pop\n        /* \"#utility.yul\":14497:14877   */\n      swap2\n      swap1\n      pop\n      jump\t// out\n        /* \"#utility.yul\":14882:15017   */\n    tag_323:\n        /* \"#utility.yul\":14921:14924   */\n      0x00\n      not(0x00)\n        /* \"#utility.yul\":14942:14959   */\n      dup3\n      eq\n        /* \"#utility.yul\":14939:14982   */\n      iszero\n      tag_525\n      jumpi\n        /* \"#utility.yul\":14962:14980   */\n      tag_525\n      tag_507\n      jump\t// in\n    tag_525:\n      pop\n        /* \"#utility.yul\":15009:15010   */\n      0x01\n        /* \"#utility.yul\":14998:15011   */\n      add\n      swap1\n        /* \"#utility.yul\":14882:15017   */\n      jump\t// out\n        /* \"#utility.yul\":15022:15134   */\n    tag_334:\n        /* \"#utility.yul\":15054:15055   */\n      0x00\n        /* \"#utility.yul\":15080:15081   */\n      dup3\n        /* \"#utility.yul\":15070:15105   */\n      tag_528\n      jumpi\n        /* \"#utility.yul\":15085:15103   */\n      tag_528\n      tag_511\n      jump\t// in\n    tag_528:\n      pop\n        /* \"#utility.yul\":15119:15128   */\n      mod\n      swap1\n        /* \"#utility.yul\":15022:15134   */\n      jump\t// out\n        /* \"#utility.yul\":15139:15266   */\n    tag_507:\n        /* \"#utility.yul\":15200:15210   */\n      0x4e487b71\n        /* \"#utility.yul\":15195:15198   */\n      0xe0\n        /* \"#utility.yul\":15191:15211   */\n      shl\n        /* \"#utility.yul\":15188:15189   */\n      0x00\n        /* \"#utility.yul\":15181:15212   */\n      mstore\n        /* \"#utility.yul\":15231:15235   */\n      0x11\n        /* \"#utility.yul\":15228:15229   */\n      0x04\n        /* \"#utility.yul\":15221:15236   */\n      mstore\n        /* \"#utility.yul\":15255:15259   */\n      0x24\n        /* \"#utility.yul\":15252:15253   */\n      0x00\n        /* \"#utility.yul\":15245:15260   */\n      revert\n        /* \"#utility.yul\":15271:15398   */\n    tag_511:\n        /* \"#utility.yul\":15332:15342   */\n      0x4e487b71\n        /* \"#utility.yul\":15327:15330   */\n      0xe0\n        /* \"#utility.yul\":15323:15343   */\n      shl\n        /* \"#utility.yul\":15320:15321   */\n      0x00\n        /* \"#utility.yul\":15313:15344   */\n      mstore\n        /* \"#utility.yul\":15363:15367   */\n      0x12\n        /* \"#utility.yul\":15360:15361   */\n      0x04\n        /* \"#utility.yul\":15353:15368   */\n      mstore\n        /* \"#utility.yul\":15387:15391   */\n      0x24\n        /* \"#utility.yul\":15384:15385   */\n      0x00\n        /* \"#utility.yul\":15377:15392   */\n      revert\n        /* \"#utility.yul\":15403:15530   */\n    tag_403:\n        /* \"#utility.yul\":15464:15474   */\n      0x4e487b71\n        /* \"#utility.yul\":15459:15462   */\n      0xe0\n        /* \"#utility.yul\":15455:15475   */\n      shl\n        /* \"#utility.yul\":15452:15453   */\n      0x00\n        /* \"#utility.yul\":15445:15476   */\n      mstore\n        /* \"#utility.yul\":15495:15499   */\n      0x31\n        /* \"#utility.yul\":15492:15493   */\n      0x04\n        /* \"#utility.yul\":15485:15500   */\n      mstore\n        /* \"#utility.yul\":15519:15523   */\n      0x24\n        /* \"#utility.yul\":15516:15517   */\n      0x00\n        /* \"#utility.yul\":15509:15524   */\n      revert\n        /* \"#utility.yul\":15535:15662   */\n    tag_189:\n        /* \"#utility.yul\":15596:15606   */\n      0x4e487b71\n        /* \"#utility.yul\":15591:15594   */\n      0xe0\n        /* \"#utility.yul\":15587:15607   */\n      shl\n        /* \"#utility.yul\":15584:15585   */\n      0x00\n        /* \"#utility.yul\":15577:15608   */\n      mstore\n        /* \"#utility.yul\":15627:15631   */\n      0x32\n        /* \"#utility.yul\":15624:15625   */\n      0x04\n        /* \"#utility.yul\":15617:15632   */\n      mstore\n        /* \"#utility.yul\":15651:15655   */\n      0x24\n        /* \"#utility.yul\":15648:15649   */\n      0x00\n        /* \"#utility.yul\":15641:15656   */\n      revert\n        /* \"#utility.yul\":15667:15794   */\n    tag_328:\n        /* \"#utility.yul\":15728:15738   */\n      0x4e487b71\n        /* \"#utility.yul\":15723:15726   */\n      0xe0\n        /* \"#utility.yul\":15719:15739   */\n      shl\n        /* \"#utility.yul\":15716:15717   */\n      0x00\n        /* \"#utility.yul\":15709:15740   */\n      mstore\n        /* \"#utility.yul\":15759:15763   */\n      0x41\n        /* \"#utility.yul\":15756:15757   */\n      0x04\n        /* \"#utility.yul\":15749:15764   */\n      mstore\n        /* \"#utility.yul\":15783:15787   */\n      0x24\n        /* \"#utility.yul\":15780:15781   */\n      0x00\n        /* \"#utility.yul\":15773:15788   */\n      revert\n        /* \"#utility.yul\":15799:15930   */\n    tag_455:\n      not(sub(shl(0xe0, 0x01), 0x01))\n        /* \"#utility.yul\":15873:15905   */\n      dup2\n      and\n        /* \"#utility.yul\":15863:15906   */\n      dup2\n      eq\n        /* \"#utility.yul\":15853:15924   */\n      tag_265\n      jumpi\n        /* \"#utility.yul\":15920:15921   */\n      0x00\n        /* \"#utility.yul\":15917:15918   */\n      dup1\n        /* \"#utility.yul\":15910:15922   */\n      revert\n    stop\n    data_366741a2b0d4aad14ad5584fe1af165223262c5967a4a351666a84bc774ebece 68747470733a2f2f697066732e696f2f697066732f516d5a6a674e524e4156645761564b46376f436f4c556b686f356836545a676b73745039794c35447775753231682f\n\n    auxdata: 0xa2646970667358221220d1434ae910b77bb6c8cf9d1aec3e72b78ba3415ca1bafae0d07ab0075ed22be264736f6c63430008070033\n}\n",
				"bytecode": {
					"linkReferences": {},
					"object": "60c06040526005608081905264173539b7b760d91b60a09081526200002891600c919062000103565b503480156200003657600080fd5b5060405162001ff938038062001ff9833981016040819052620000599162000260565b8151829082906200007290600090602085019062000103565b5080516200008890600190602084019062000103565b505050620000a56200009f620000ad60201b60201c565b620000b1565b50506200031d565b3390565b600a80546001600160a01b038381166001600160a01b0319831681179093556040519116919082907f8be0079c531659141344cd1fd0a4f28419497f9722a3daafe3b4186f6b6457e090600090a35050565b8280546200011190620002ca565b90600052602060002090601f01602090048101928262000135576000855562000180565b82601f106200015057805160ff191683800117855562000180565b8280016001018555821562000180579182015b828111156200018057825182559160200191906001019062000163565b506200018e92915062000192565b5090565b5b808211156200018e576000815560010162000193565b600082601f830112620001bb57600080fd5b81516001600160401b0380821115620001d857620001d862000307565b604051601f8301601f19908116603f0116810190828211818310171562000203576200020362000307565b816040528381526020925086838588010111156200022057600080fd5b600091505b8382101562000244578582018301518183018401529082019062000225565b83821115620002565760008385830101525b9695505050505050565b600080604083850312156200027457600080fd5b82516001600160401b03808211156200028c57600080fd5b6200029a86838701620001a9565b93506020850151915080821115620002b157600080fd5b50620002c085828601620001a9565b9150509250929050565b600181811c90821680620002df57607f821691505b602082108114156200030157634e487b7160e01b600052602260045260246000fd5b50919050565b634e487b7160e01b600052604160045260246000fd5b611ccc806200032d6000396000f3fe6080604052600436106101355760003560e01c80636c0360eb116100ab578063a22cb4651161006f578063a22cb4651461033a578063b88d4fde1461035a578063c66828621461037a578063c87b56dd1461038f578063e985e9c5146103af578063f2fde38b146103f857600080fd5b80636c0360eb146102bd57806370a08231146102d2578063715018a6146102f25780638da5cb5b1461030757806395d89b411461032557600080fd5b806323b872dd116100fd57806323b872dd1461020a5780632f745c591461022a57806342842e0e1461024a5780634f6ccce71461026a5780636352211e1461028a5780636a627842146102aa57600080fd5b806301ffc9a71461013a57806306fdde031461016f578063081812fc14610191578063095ea7b3146101c957806318160ddd146101eb575b600080fd5b34801561014657600080fd5b5061015a6101553660046118bf565b610418565b60405190151581526020015b60405180910390f35b34801561017b57600080fd5b50610184610443565b6040516101669190611a3f565b34801561019d57600080fd5b506101b16101ac3660046118f9565b6104d5565b6040516001600160a01b039091168152602001610166565b3480156101d557600080fd5b506101e96101e4366004611895565b61056f565b005b3480156101f757600080fd5b506008545b604051908152602001610166565b34801561021657600080fd5b506101e9610225366004611741565b610685565b34801561023657600080fd5b506101fc610245366004611895565b6106b6565b34801561025657600080fd5b506101e9610265366004611741565b61074c565b34801561027657600080fd5b506101fc6102853660046118f9565b610767565b34801561029657600080fd5b506101b16102a53660046118f9565b6107fa565b6101e96102b83660046116f3565b610871565b3480156102c957600080fd5b50610184610896565b3480156102de57600080fd5b506101fc6102ed3660046116f3565b610924565b3480156102fe57600080fd5b506101e96109ab565b34801561031357600080fd5b50600a546001600160a01b03166101b1565b34801561033157600080fd5b50610184610a11565b34801561034657600080fd5b506101e9610355366004611859565b610a20565b34801561036657600080fd5b506101e961037536600461177d565b610a2b565b34801561038657600080fd5b50610184610a63565b34801561039b57600080fd5b506101846103aa3660046118f9565b610a70565b3480156103bb57600080fd5b5061015a6103ca36600461170e565b6001600160a01b03918216600090815260056020908152604080832093909416825291909152205460ff1690565b34801561040457600080fd5b506101e96104133660046116f3565b610b4e565b60006001600160e01b0319821663780e9d6360e01b148061043d575061043d82610c19565b92915050565b60606000805461045290611b64565b80601f016020809104026020016040519081016040528092919081815260200182805461047e90611b64565b80156104cb5780601f106104a0576101008083540402835291602001916104cb565b820191906000526020600020905b8154815290600101906020018083116104ae57829003601f168201915b5050505050905090565b6000818152600260205260408120546001600160a01b03166105535760405162461bcd60e51b815260206004820152602c60248201527f4552433732313a20617070726f76656420717565727920666f72206e6f6e657860448201526b34b9ba32b73a103a37b5b2b760a11b60648201526084015b60405180910390fd5b506000908152600460205260409020546001600160a01b031690565b600061057a826107fa565b9050806001600160a01b0316836001600160a01b031614156105e85760405162461bcd60e51b815260206004820152602160248201527f4552433732313a20617070726f76616c20746f2063757272656e74206f776e656044820152603960f91b606482015260840161054a565b336001600160a01b0382161480610604575061060481336103ca565b6106765760405162461bcd60e51b815260206004820152603860248201527f4552433732313a20617070726f76652063616c6c6572206973206e6f74206f7760448201527f6e6572206e6f7220617070726f76656420666f7220616c6c0000000000000000606482015260840161054a565b6106808383610c69565b505050565b61068f3382610cd7565b6106ab5760405162461bcd60e51b815260040161054a90611aa4565b610680838383610dce565b60006106c183610924565b82106107235760405162461bcd60e51b815260206004820152602b60248201527f455243373231456e756d657261626c653a206f776e657220696e646578206f7560448201526a74206f6620626f756e647360a81b606482015260840161054a565b506001600160a01b03919091166000908152600660209081526040808320938352929052205490565b61068083838360405180602001604052806000815250610a2b565b600061077260085490565b82106107d55760405162461bcd60e51b815260206004820152602c60248201527f455243373231456e756d657261626c653a20676c6f62616c20696e646578206f60448201526b7574206f6620626f756e647360a01b606482015260840161054a565b600882815481106107e8576107e8611c10565b90600052602060002001549050919050565b6000818152600260205260408120546001600160a01b03168061043d5760405162461bcd60e51b815260206004820152602960248201527f4552433732313a206f776e657220717565727920666f72206e6f6e657869737460448201526832b73a103a37b5b2b760b91b606482015260840161054a565b600061087c60085490565b90506108928261088d836001611af5565b610f75565b5050565b600b80546108a390611b64565b80601f01602080910402602001604051908101604052809291908181526020018280546108cf90611b64565b801561091c5780601f106108f15761010080835404028352916020019161091c565b820191906000526020600020905b8154815290600101906020018083116108ff57829003601f168201915b505050505081565b60006001600160a01b03821661098f5760405162461bcd60e51b815260206004820152602a60248201527f4552433732313a2062616c616e636520717565727920666f7220746865207a65604482015269726f206164647265737360b01b606482015260840161054a565b506001600160a01b031660009081526003602052604090205490565b600a546001600160a01b03163314610a055760405162461bcd60e51b815260206004820181905260248201527f4f776e61626c653a2063616c6c6572206973206e6f7420746865206f776e6572604482015260640161054a565b610a0f6000610f8f565b565b60606001805461045290611b64565b610892338383610fe1565b610a353383610cd7565b610a515760405162461bcd60e51b815260040161054a90611aa4565b610a5d848484846110b0565b50505050565b600c80546108a390611b64565b6000818152600260205260409020546060906001600160a01b0316610aef5760405162461bcd60e51b815260206004820152602f60248201527f4552433732314d657461646174613a2055524920717565727920666f72206e6f60448201526e3732bc34b9ba32b73a103a37b5b2b760891b606482015260840161054a565b6000610af96110e3565b90506000815111610b195760405180602001604052806000815250610b47565b80610b2384611103565b600c604051602001610b379392919061193e565b6040516020818303038152906040525b9392505050565b600a546001600160a01b03163314610ba85760405162461bcd60e51b815260206004820181905260248201527f4f776e61626c653a2063616c6c6572206973206e6f7420746865206f776e6572604482015260640161054a565b6001600160a01b038116610c0d5760405162461bcd60e51b815260206004820152602660248201527f4f776e61626c653a206e6577206f776e657220697320746865207a65726f206160448201526564647265737360d01b606482015260840161054a565b610c1681610f8f565b50565b60006001600160e01b031982166380ac58cd60e01b1480610c4a57506001600160e01b03198216635b5e139f60e01b145b8061043d57506301ffc9a760e01b6001600160e01b031983161461043d565b600081815260046020526040902080546001600160a01b0319166001600160a01b0384169081179091558190610c9e826107fa565b6001600160a01b03167f8c5be1e5ebec7d5bd14f71427d1e84f3dd0314c0f7b2291e5b200ac8c7c3b92560405160405180910390a45050565b6000818152600260205260408120546001600160a01b0316610d505760405162461bcd60e51b815260206004820152602c60248201527f4552433732313a206f70657261746f7220717565727920666f72206e6f6e657860448201526b34b9ba32b73a103a37b5b2b760a11b606482015260840161054a565b6000610d5b836107fa565b9050806001600160a01b0316846001600160a01b03161480610d965750836001600160a01b0316610d8b846104d5565b6001600160a01b0316145b80610dc657506001600160a01b0380821660009081526005602090815260408083209388168352929052205460ff165b949350505050565b826001600160a01b0316610de1826107fa565b6001600160a01b031614610e455760405162461bcd60e51b815260206004820152602560248201527f4552433732313a207472616e736665722066726f6d20696e636f72726563742060448201526437bbb732b960d91b606482015260840161054a565b6001600160a01b038216610ea75760405162461bcd60e51b8152602060048201526024808201527f4552433732313a207472616e7366657220746f20746865207a65726f206164646044820152637265737360e01b606482015260840161054a565b610eb2838383611201565b610ebd600082610c69565b6001600160a01b0383166000908152600360205260408120805460019290610ee6908490611b21565b90915550506001600160a01b0382166000908152600360205260408120805460019290610f14908490611af5565b909155505060008181526002602052604080822080546001600160a01b0319166001600160a01b0386811691821790925591518493918716917fddf252ad1be2c89b69c2b068fc378daa952ba7f163c4a11628f55a4df523b3ef91a4505050565b6108928282604051806020016040528060008152506112b9565b600a80546001600160a01b038381166001600160a01b0319831681179093556040519116919082907f8be0079c531659141344cd1fd0a4f28419497f9722a3daafe3b4186f6b6457e090600090a35050565b816001600160a01b0316836001600160a01b031614156110435760405162461bcd60e51b815260206004820152601960248201527f4552433732313a20617070726f766520746f2063616c6c657200000000000000604482015260640161054a565b6001600160a01b03838116600081815260056020908152604080832094871680845294825291829020805460ff191686151590811790915591519182527f17307eab39ab6107e8899845ad3d59bd9653f200f220920489ca2b5937696c31910160405180910390a3505050565b6110bb848484610dce565b6110c7848484846112ec565b610a5d5760405162461bcd60e51b815260040161054a90611a52565b6060604051806080016040528060448152602001611c5360449139905090565b6060816111275750506040805180820190915260018152600360fc1b602082015290565b8160005b8115611151578061113b81611b9f565b915061114a9050600a83611b0d565b915061112b565b60008167ffffffffffffffff81111561116c5761116c611c26565b6040519080825280601f01601f191660200182016040528015611196576020820181803683370190505b5090505b8415610dc6576111ab600183611b21565b91506111b8600a86611bba565b6111c3906030611af5565b60f81b8183815181106111d8576111d8611c10565b60200101906001600160f81b031916908160001a9053506111fa600a86611b0d565b945061119a565b6001600160a01b03831661125c5761125781600880546000838152600960205260408120829055600182018355919091527ff3f7a9fe364faab93b216da50a3214154f22a0a2b415b23a84c8169e8b636ee30155565b61127f565b816001600160a01b0316836001600160a01b03161461127f5761127f83826113f9565b6001600160a01b0382166112965761068081611496565b826001600160a01b0316826001600160a01b031614610680576106808282611545565b6112c38383611589565b6112d060008484846112ec565b6106805760405162461bcd60e51b815260040161054a90611a52565b60006001600160a01b0384163b156113ee57604051630a85bd0160e11b81526001600160a01b0385169063150b7a0290611330903390899088908890600401611a02565b602060405180830381600087803b15801561134a57600080fd5b505af192505050801561137a575060408051601f3d908101601f19168201909252611377918101906118dc565b60015b6113d4573d8080156113a8576040519150601f19603f3d011682016040523d82523d6000602084013e6113ad565b606091505b5080516113cc5760405162461bcd60e51b815260040161054a90611a52565b805181602001fd5b6001600160e01b031916630a85bd0160e11b149050610dc6565b506001949350505050565b6000600161140684610924565b6114109190611b21565b600083815260076020526040902054909150808214611463576001600160a01b03841660009081526006602090815260408083208584528252808320548484528184208190558352600790915290208190555b5060009182526007602090815260408084208490556001600160a01b039094168352600681528383209183525290812055565b6008546000906114a890600190611b21565b600083815260096020526040812054600880549394509092849081106114d0576114d0611c10565b9060005260206000200154905080600883815481106114f1576114f1611c10565b600091825260208083209091019290925582815260099091526040808220849055858252812055600880548061152957611529611bfa565b6001900381819060005260206000200160009055905550505050565b600061155083610924565b6001600160a01b039093166000908152600660209081526040808320868452825280832085905593825260079052919091209190915550565b6001600160a01b0382166115df5760405162461bcd60e51b815260206004820181905260248201527f4552433732313a206d696e7420746f20746865207a65726f2061646472657373604482015260640161054a565b6000818152600260205260409020546001600160a01b0316156116445760405162461bcd60e51b815260206004820152601c60248201527f4552433732313a20746f6b656e20616c7265616479206d696e74656400000000604482015260640161054a565b61165060008383611201565b6001600160a01b0382166000908152600360205260408120805460019290611679908490611af5565b909155505060008181526002602052604080822080546001600160a01b0319166001600160a01b03861690811790915590518392907fddf252ad1be2c89b69c2b068fc378daa952ba7f163c4a11628f55a4df523b3ef908290a45050565b80356001600160a01b03811681146116ee57600080fd5b919050565b60006020828403121561170557600080fd5b610b47826116d7565b6000806040838503121561172157600080fd5b61172a836116d7565b9150611738602084016116d7565b90509250929050565b60008060006060848603121561175657600080fd5b61175f846116d7565b925061176d602085016116d7565b9150604084013590509250925092565b6000806000806080858703121561179357600080fd5b61179c856116d7565b93506117aa602086016116d7565b925060408501359150606085013567ffffffffffffffff808211156117ce57600080fd5b818701915087601f8301126117e257600080fd5b8135818111156117f4576117f4611c26565b604051601f8201601f19908116603f0116810190838211818310171561181c5761181c611c26565b816040528281528a602084870101111561183557600080fd5b82602086016020830137600060208483010152809550505050505092959194509250565b6000806040838503121561186c57600080fd5b611875836116d7565b91506020830135801515811461188a57600080fd5b809150509250929050565b600080604083850312156118a857600080fd5b6118b1836116d7565b946020939093013593505050565b6000602082840312156118d157600080fd5b8135610b4781611c3c565b6000602082840312156118ee57600080fd5b8151610b4781611c3c565b60006020828403121561190b57600080fd5b5035919050565b6000815180845261192a816020860160208601611b38565b601f01601f19169290920160200192915050565b6000845160206119518285838a01611b38565b8551918401916119648184848a01611b38565b8554920191600090600181811c908083168061198157607f831692505b85831081141561199f57634e487b7160e01b85526022600452602485fd5b8080156119b357600181146119c4576119f1565b60ff198516885283880195506119f1565b60008b81526020902060005b858110156119e95781548a8201529084019088016119d0565b505083880195505b50939b9a5050505050505050505050565b6001600160a01b0385811682528416602082015260408101839052608060608201819052600090611a3590830184611912565b9695505050505050565b602081526000610b476020830184611912565b60208082526032908201527f4552433732313a207472616e7366657220746f206e6f6e20455243373231526560408201527131b2b4bb32b91034b6b83632b6b2b73a32b960711b606082015260800190565b60208082526031908201527f4552433732313a207472616e736665722063616c6c6572206973206e6f74206f6040820152701ddb995c881b9bdc88185c1c1c9bdd9959607a1b606082015260800190565b60008219821115611b0857611b08611bce565b500190565b600082611b1c57611b1c611be4565b500490565b600082821015611b3357611b33611bce565b500390565b60005b83811015611b53578181015183820152602001611b3b565b83811115610a5d5750506000910152565b600181811c90821680611b7857607f821691505b60208210811415611b9957634e487b7160e01b600052602260045260246000fd5b50919050565b6000600019821415611bb357611bb3611bce565b5060010190565b600082611bc957611bc9611be4565b500690565b634e487b7160e01b600052601160045260246000fd5b634e487b7160e01b600052601260045260246000fd5b634e487b7160e01b600052603160045260246000fd5b634e487b7160e01b600052603260045260246000fd5b634e487b7160e01b600052604160045260246000fd5b6001600160e01b031981168114610c1657600080fdfe68747470733a2f2f697066732e696f2f697066732f516d5a6a674e524e4156645761564b46376f436f4c556b686f356836545a676b73745039794c35447775753231682fa2646970667358221220d1434ae910b77bb6c8cf9d1aec3e72b78ba3415ca1bafae0d07ab0075ed22be264736f6c63430008070033",
					"opcodes": "PUSH1 0xC0 PUSH1 0x40 MSTORE PUSH1 0x5 PUSH1 0x80 DUP2 SWAP1 MSTORE PUSH5 0x173539B7B7 PUSH1 0xD9 SHL PUSH1 0xA0 SWAP1 DUP2 MSTORE PUSH3 0x28 SWAP2 PUSH1 0xC SWAP2 SWAP1 PUSH3 0x103 JUMP JUMPDEST POP CALLVALUE DUP1 ISZERO PUSH3 0x36 JUMPI PUSH1 0x0 DUP1 REVERT JUMPDEST POP PUSH1 0x40 MLOAD PUSH3 0x1FF9 CODESIZE SUB DUP1 PUSH3 0x1FF9 DUP4 CODECOPY DUP2 ADD PUSH1 0x40 DUP2 SWAP1 MSTORE PUSH3 0x59 SWAP2 PUSH3 0x260 JUMP JUMPDEST DUP2 MLOAD DUP3 SWAP1 DUP3 SWAP1 PUSH3 0x72 SWAP1 PUSH1 0x0 SWAP1 PUSH1 0x20 DUP6 ADD SWAP1 PUSH3 0x103 JUMP JUMPDEST POP DUP1 MLOAD PUSH3 0x88 SWAP1 PUSH1 0x1 SWAP1 PUSH1 0x20 DUP5 ADD SWAP1 PUSH3 0x103 JUMP JUMPDEST POP POP POP PUSH3 0xA5 PUSH3 0x9F PUSH3 0xAD PUSH1 0x20 SHL PUSH1 0x20 SHR JUMP JUMPDEST PUSH3 0xB1 JUMP JUMPDEST POP POP PUSH3 0x31D JUMP JUMPDEST CALLER SWAP1 JUMP JUMPDEST PUSH1 0xA DUP1 SLOAD PUSH1 0x1 PUSH1 0x1 PUSH1 0xA0 SHL SUB DUP4 DUP2 AND PUSH1 0x1 PUSH1 0x1 PUSH1 0xA0 SHL SUB NOT DUP4 AND DUP2 OR SWAP1 SWAP4 SSTORE PUSH1 0x40 MLOAD SWAP2 AND SWAP2 SWAP1 DUP3 SWAP1 PUSH32 0x8BE0079C531659141344CD1FD0A4F28419497F9722A3DAAFE3B4186F6B6457E0 SWAP1 PUSH1 0x0 SWAP1 LOG3 POP POP JUMP JUMPDEST DUP3 DUP1 SLOAD PUSH3 0x111 SWAP1 PUSH3 0x2CA JUMP JUMPDEST SWAP1 PUSH1 0x0 MSTORE PUSH1 0x20 PUSH1 0x0 KECCAK256 SWAP1 PUSH1 0x1F ADD PUSH1 0x20 SWAP1 DIV DUP2 ADD SWAP3 DUP3 PUSH3 0x135 JUMPI PUSH1 0x0 DUP6 SSTORE PUSH3 0x180 JUMP JUMPDEST DUP3 PUSH1 0x1F LT PUSH3 0x150 JUMPI DUP1 MLOAD PUSH1 0xFF NOT AND DUP4 DUP1 ADD OR DUP6 SSTORE PUSH3 0x180 JUMP JUMPDEST DUP3 DUP1 ADD PUSH1 0x1 ADD DUP6 SSTORE DUP3 ISZERO PUSH3 0x180 JUMPI SWAP2 DUP3 ADD JUMPDEST DUP3 DUP2 GT ISZERO PUSH3 0x180 JUMPI DUP3 MLOAD DUP3 SSTORE SWAP2 PUSH1 0x20 ADD SWAP2 SWAP1 PUSH1 0x1 ADD SWAP1 PUSH3 0x163 JUMP JUMPDEST POP PUSH3 0x18E SWAP3 SWAP2 POP PUSH3 0x192 JUMP JUMPDEST POP SWAP1 JUMP JUMPDEST JUMPDEST DUP1 DUP3 GT ISZERO PUSH3 0x18E JUMPI PUSH1 0x0 DUP2 SSTORE PUSH1 0x1 ADD PUSH3 0x193 JUMP JUMPDEST PUSH1 0x0 DUP3 PUSH1 0x1F DUP4 ADD SLT PUSH3 0x1BB JUMPI PUSH1 0x0 DUP1 REVERT JUMPDEST DUP2 MLOAD PUSH1 0x1 PUSH1 0x1 PUSH1 0x40 SHL SUB DUP1 DUP3 GT ISZERO PUSH3 0x1D8 JUMPI PUSH3 0x1D8 PUSH3 0x307 JUMP JUMPDEST PUSH1 0x40 MLOAD PUSH1 0x1F DUP4 ADD PUSH1 0x1F NOT SWAP1 DUP2 AND PUSH1 0x3F ADD AND DUP2 ADD SWAP1 DUP3 DUP3 GT DUP2 DUP4 LT OR ISZERO PUSH3 0x203 JUMPI PUSH3 0x203 PUSH3 0x307 JUMP JUMPDEST DUP2 PUSH1 0x40 MSTORE DUP4 DUP2 MSTORE PUSH1 0x20 SWAP3 POP DUP7 DUP4 DUP6 DUP9 ADD ADD GT ISZERO PUSH3 0x220 JUMPI PUSH1 0x0 DUP1 REVERT JUMPDEST PUSH1 0x0 SWAP2 POP JUMPDEST DUP4 DUP3 LT ISZERO PUSH3 0x244 JUMPI DUP6 DUP3 ADD DUP4 ADD MLOAD DUP2 DUP4 ADD DUP5 ADD MSTORE SWAP1 DUP3 ADD SWAP1 PUSH3 0x225 JUMP JUMPDEST DUP4 DUP3 GT ISZERO PUSH3 0x256 JUMPI PUSH1 0x0 DUP4 DUP6 DUP4 ADD ADD MSTORE JUMPDEST SWAP7 SWAP6 POP POP POP POP POP POP JUMP JUMPDEST PUSH1 0x0 DUP1 PUSH1 0x40 DUP4 DUP6 SUB SLT ISZERO PUSH3 0x274 JUMPI PUSH1 0x0 DUP1 REVERT JUMPDEST DUP3 MLOAD PUSH1 0x1 PUSH1 0x1 PUSH1 0x40 SHL SUB DUP1 DUP3 GT ISZERO PUSH3 0x28C JUMPI PUSH1 0x0 DUP1 REVERT JUMPDEST PUSH3 0x29A DUP7 DUP4 DUP8 ADD PUSH3 0x1A9 JUMP JUMPDEST SWAP4 POP PUSH1 0x20 DUP6 ADD MLOAD SWAP2 POP DUP1 DUP3 GT ISZERO PUSH3 0x2B1 JUMPI PUSH1 0x0 DUP1 REVERT JUMPDEST POP PUSH3 0x2C0 DUP6 DUP3 DUP7 ADD PUSH3 0x1A9 JUMP JUMPDEST SWAP2 POP POP SWAP3 POP SWAP3 SWAP1 POP JUMP JUMPDEST PUSH1 0x1 DUP2 DUP2 SHR SWAP1 DUP3 AND DUP1 PUSH3 0x2DF JUMPI PUSH1 0x7F DUP3 AND SWAP2 POP JUMPDEST PUSH1 0x20 DUP3 LT DUP2 EQ ISZERO PUSH3 0x301 JUMPI PUSH4 0x4E487B71 PUSH1 0xE0 SHL PUSH1 0x0 MSTORE PUSH1 0x22 PUSH1 0x4 MSTORE PUSH1 0x24 PUSH1 0x0 REVERT JUMPDEST POP SWAP2 SWAP1 POP JUMP JUMPDEST PUSH4 0x4E487B71 PUSH1 0xE0 SHL PUSH1 0x0 MSTORE PUSH1 0x41 PUSH1 0x4 MSTORE PUSH1 0x24 PUSH1 0x0 REVERT JUMPDEST PUSH2 0x1CCC DUP1 PUSH3 0x32D PUSH1 0x0 CODECOPY PUSH1 0x0 RETURN INVALID PUSH1 0x80 PUSH1 0x40 MSTORE PUSH1 0x4 CALLDATASIZE LT PUSH2 0x135 JUMPI PUSH1 0x0 CALLDATALOAD PUSH1 0xE0 SHR DUP1 PUSH4 0x6C0360EB GT PUSH2 0xAB JUMPI DUP1 PUSH4 0xA22CB465 GT PUSH2 0x6F JUMPI DUP1 PUSH4 0xA22CB465 EQ PUSH2 0x33A JUMPI DUP1 PUSH4 0xB88D4FDE EQ PUSH2 0x35A JUMPI DUP1 PUSH4 0xC6682862 EQ PUSH2 0x37A JUMPI DUP1 PUSH4 0xC87B56DD EQ PUSH2 0x38F JUMPI DUP1 PUSH4 0xE985E9C5 EQ PUSH2 0x3AF JUMPI DUP1 PUSH4 0xF2FDE38B EQ PUSH2 0x3F8 JUMPI PUSH1 0x0 DUP1 REVERT JUMPDEST DUP1 PUSH4 0x6C0360EB EQ PUSH2 0x2BD JUMPI DUP1 PUSH4 0x70A08231 EQ PUSH2 0x2D2 JUMPI DUP1 PUSH4 0x715018A6 EQ PUSH2 0x2F2 JUMPI DUP1 PUSH4 0x8DA5CB5B EQ PUSH2 0x307 JUMPI DUP1 PUSH4 0x95D89B41 EQ PUSH2 0x325 JUMPI PUSH1 0x0 DUP1 REVERT JUMPDEST DUP1 PUSH4 0x23B872DD GT PUSH2 0xFD JUMPI DUP1 PUSH4 0x23B872DD EQ PUSH2 0x20A JUMPI DUP1 PUSH4 0x2F745C59 EQ PUSH2 0x22A JUMPI DUP1 PUSH4 0x42842E0E EQ PUSH2 0x24A JUMPI DUP1 PUSH4 0x4F6CCCE7 EQ PUSH2 0x26A JUMPI DUP1 PUSH4 0x6352211E EQ PUSH2 0x28A JUMPI DUP1 PUSH4 0x6A627842 EQ PUSH2 0x2AA JUMPI PUSH1 0x0 DUP1 REVERT JUMPDEST DUP1 PUSH4 0x1FFC9A7 EQ PUSH2 0x13A JUMPI DUP1 PUSH4 0x6FDDE03 EQ PUSH2 0x16F JUMPI DUP1 PUSH4 0x81812FC EQ PUSH2 0x191 JUMPI DUP1 PUSH4 0x95EA7B3 EQ PUSH2 0x1C9 JUMPI DUP1 PUSH4 0x18160DDD EQ PUSH2 0x1EB JUMPI JUMPDEST PUSH1 0x0 DUP1 REVERT JUMPDEST CALLVALUE DUP1 ISZERO PUSH2 0x146 JUMPI PUSH1 0x0 DUP1 REVERT JUMPDEST POP PUSH2 0x15A PUSH2 0x155 CALLDATASIZE PUSH1 0x4 PUSH2 0x18BF JUMP JUMPDEST PUSH2 0x418 JUMP JUMPDEST PUSH1 0x40 MLOAD SWAP1 ISZERO ISZERO DUP2 MSTORE PUSH1 0x20 ADD JUMPDEST PUSH1 0x40 MLOAD DUP1 SWAP2 SUB SWAP1 RETURN JUMPDEST CALLVALUE DUP1 ISZERO PUSH2 0x17B JUMPI PUSH1 0x0 DUP1 REVERT JUMPDEST POP PUSH2 0x184 PUSH2 0x443 JUMP JUMPDEST PUSH1 0x40 MLOAD PUSH2 0x166 SWAP2 SWAP1 PUSH2 0x1A3F JUMP JUMPDEST CALLVALUE DUP1 ISZERO PUSH2 0x19D JUMPI PUSH1 0x0 DUP1 REVERT JUMPDEST POP PUSH2 0x1B1 PUSH2 0x1AC CALLDATASIZE PUSH1 0x4 PUSH2 0x18F9 JUMP JUMPDEST PUSH2 0x4D5 JUMP JUMPDEST PUSH1 0x40 MLOAD PUSH1 0x1 PUSH1 0x1 PUSH1 0xA0 SHL SUB SWAP1 SWAP2 AND DUP2 MSTORE PUSH1 0x20 ADD PUSH2 0x166 JUMP JUMPDEST CALLVALUE DUP1 ISZERO PUSH2 0x1D5 JUMPI PUSH1 0x0 DUP1 REVERT JUMPDEST POP PUSH2 0x1E9 PUSH2 0x1E4 CALLDATASIZE PUSH1 0x4 PUSH2 0x1895 JUMP JUMPDEST PUSH2 0x56F JUMP JUMPDEST STOP JUMPDEST CALLVALUE DUP1 ISZERO PUSH2 0x1F7 JUMPI PUSH1 0x0 DUP1 REVERT JUMPDEST POP PUSH1 0x8 SLOAD JUMPDEST PUSH1 0x40 MLOAD SWAP1 DUP2 MSTORE PUSH1 0x20 ADD PUSH2 0x166 JUMP JUMPDEST CALLVALUE DUP1 ISZERO PUSH2 0x216 JUMPI PUSH1 0x0 DUP1 REVERT JUMPDEST POP PUSH2 0x1E9 PUSH2 0x225 CALLDATASIZE PUSH1 0x4 PUSH2 0x1741 JUMP JUMPDEST PUSH2 0x685 JUMP JUMPDEST CALLVALUE DUP1 ISZERO PUSH2 0x236 JUMPI PUSH1 0x0 DUP1 REVERT JUMPDEST POP PUSH2 0x1FC PUSH2 0x245 CALLDATASIZE PUSH1 0x4 PUSH2 0x1895 JUMP JUMPDEST PUSH2 0x6B6 JUMP JUMPDEST CALLVALUE DUP1 ISZERO PUSH2 0x256 JUMPI PUSH1 0x0 DUP1 REVERT JUMPDEST POP PUSH2 0x1E9 PUSH2 0x265 CALLDATASIZE PUSH1 0x4 PUSH2 0x1741 JUMP JUMPDEST PUSH2 0x74C JUMP JUMPDEST CALLVALUE DUP1 ISZERO PUSH2 0x276 JUMPI PUSH1 0x0 DUP1 REVERT JUMPDEST POP PUSH2 0x1FC PUSH2 0x285 CALLDATASIZE PUSH1 0x4 PUSH2 0x18F9 JUMP JUMPDEST PUSH2 0x767 JUMP JUMPDEST CALLVALUE DUP1 ISZERO PUSH2 0x296 JUMPI PUSH1 0x0 DUP1 REVERT JUMPDEST POP PUSH2 0x1B1 PUSH2 0x2A5 CALLDATASIZE PUSH1 0x4 PUSH2 0x18F9 JUMP JUMPDEST PUSH2 0x7FA JUMP JUMPDEST PUSH2 0x1E9 PUSH2 0x2B8 CALLDATASIZE PUSH1 0x4 PUSH2 0x16F3 JUMP JUMPDEST PUSH2 0x871 JUMP JUMPDEST CALLVALUE DUP1 ISZERO PUSH2 0x2C9 JUMPI PUSH1 0x0 DUP1 REVERT JUMPDEST POP PUSH2 0x184 PUSH2 0x896 JUMP JUMPDEST CALLVALUE DUP1 ISZERO PUSH2 0x2DE JUMPI PUSH1 0x0 DUP1 REVERT JUMPDEST POP PUSH2 0x1FC PUSH2 0x2ED CALLDATASIZE PUSH1 0x4 PUSH2 0x16F3 JUMP JUMPDEST PUSH2 0x924 JUMP JUMPDEST CALLVALUE DUP1 ISZERO PUSH2 0x2FE JUMPI PUSH1 0x0 DUP1 REVERT JUMPDEST POP PUSH2 0x1E9 PUSH2 0x9AB JUMP JUMPDEST CALLVALUE DUP1 ISZERO PUSH2 0x313 JUMPI PUSH1 0x0 DUP1 REVERT JUMPDEST POP PUSH1 0xA SLOAD PUSH1 0x1 PUSH1 0x1 PUSH1 0xA0 SHL SUB AND PUSH2 0x1B1 JUMP JUMPDEST CALLVALUE DUP1 ISZERO PUSH2 0x331 JUMPI PUSH1 0x0 DUP1 REVERT JUMPDEST POP PUSH2 0x184 PUSH2 0xA11 JUMP JUMPDEST CALLVALUE DUP1 ISZERO PUSH2 0x346 JUMPI PUSH1 0x0 DUP1 REVERT JUMPDEST POP PUSH2 0x1E9 PUSH2 0x355 CALLDATASIZE PUSH1 0x4 PUSH2 0x1859 JUMP JUMPDEST PUSH2 0xA20 JUMP JUMPDEST CALLVALUE DUP1 ISZERO PUSH2 0x366 JUMPI PUSH1 0x0 DUP1 REVERT JUMPDEST POP PUSH2 0x1E9 PUSH2 0x375 CALLDATASIZE PUSH1 0x4 PUSH2 0x177D JUMP JUMPDEST PUSH2 0xA2B JUMP JUMPDEST CALLVALUE DUP1 ISZERO PUSH2 0x386 JUMPI PUSH1 0x0 DUP1 REVERT JUMPDEST POP PUSH2 0x184 PUSH2 0xA63 JUMP JUMPDEST CALLVALUE DUP1 ISZERO PUSH2 0x39B JUMPI PUSH1 0x0 DUP1 REVERT JUMPDEST POP PUSH2 0x184 PUSH2 0x3AA CALLDATASIZE PUSH1 0x4 PUSH2 0x18F9 JUMP JUMPDEST PUSH2 0xA70 JUMP JUMPDEST CALLVALUE DUP1 ISZERO PUSH2 0x3BB JUMPI PUSH1 0x0 DUP1 REVERT JUMPDEST POP PUSH2 0x15A PUSH2 0x3CA CALLDATASIZE PUSH1 0x4 PUSH2 0x170E JUMP JUMPDEST PUSH1 0x1 PUSH1 0x1 PUSH1 0xA0 SHL SUB SWAP2 DUP3 AND PUSH1 0x0 SWAP1 DUP2 MSTORE PUSH1 0x5 PUSH1 0x20 SWAP1 DUP2 MSTORE PUSH1 0x40 DUP1 DUP4 KECCAK256 SWAP4 SWAP1 SWAP5 AND DUP3 MSTORE SWAP2 SWAP1 SWAP2 MSTORE KECCAK256 SLOAD PUSH1 0xFF AND SWAP1 JUMP JUMPDEST CALLVALUE DUP1 ISZERO PUSH2 0x404 JUMPI PUSH1 0x0 DUP1 REVERT JUMPDEST POP PUSH2 0x1E9 PUSH2 0x413 CALLDATASIZE PUSH1 0x4 PUSH2 0x16F3 JUMP JUMPDEST PUSH2 0xB4E JUMP JUMPDEST PUSH1 0x0 PUSH1 0x1 PUSH1 0x1 PUSH1 0xE0 SHL SUB NOT DUP3 AND PUSH4 0x780E9D63 PUSH1 0xE0 SHL EQ DUP1 PUSH2 0x43D JUMPI POP PUSH2 0x43D DUP3 PUSH2 0xC19 JUMP JUMPDEST SWAP3 SWAP2 POP POP JUMP JUMPDEST PUSH1 0x60 PUSH1 0x0 DUP1 SLOAD PUSH2 0x452 SWAP1 PUSH2 0x1B64 JUMP JUMPDEST DUP1 PUSH1 0x1F ADD PUSH1 0x20 DUP1 SWAP2 DIV MUL PUSH1 0x20 ADD PUSH1 0x40 MLOAD SWAP1 DUP2 ADD PUSH1 0x40 MSTORE DUP1 SWAP3 SWAP2 SWAP1 DUP2 DUP2 MSTORE PUSH1 0x20 ADD DUP3 DUP1 SLOAD PUSH2 0x47E SWAP1 PUSH2 0x1B64 JUMP JUMPDEST DUP1 ISZERO PUSH2 0x4CB JUMPI DUP1 PUSH1 0x1F LT PUSH2 0x4A0 JUMPI PUSH2 0x100 DUP1 DUP4 SLOAD DIV MUL DUP4 MSTORE SWAP2 PUSH1 0x20 ADD SWAP2 PUSH2 0x4CB JUMP JUMPDEST DUP3 ADD SWAP2 SWAP1 PUSH1 0x0 MSTORE PUSH1 0x20 PUSH1 0x0 KECCAK256 SWAP1 JUMPDEST DUP2 SLOAD DUP2 MSTORE SWAP1 PUSH1 0x1 ADD SWAP1 PUSH1 0x20 ADD DUP1 DUP4 GT PUSH2 0x4AE JUMPI DUP3 SWAP1 SUB PUSH1 0x1F AND DUP3 ADD SWAP2 JUMPDEST POP POP POP POP POP SWAP1 POP SWAP1 JUMP JUMPDEST PUSH1 0x0 DUP2 DUP2 MSTORE PUSH1 0x2 PUSH1 0x20 MSTORE PUSH1 0x40 DUP2 KECCAK256 SLOAD PUSH1 0x1 PUSH1 0x1 PUSH1 0xA0 SHL SUB AND PUSH2 0x553 JUMPI PUSH1 0x40 MLOAD PUSH3 0x461BCD PUSH1 0xE5 SHL DUP2 MSTORE PUSH1 0x20 PUSH1 0x4 DUP3 ADD MSTORE PUSH1 0x2C PUSH1 0x24 DUP3 ADD MSTORE PUSH32 0x4552433732313A20617070726F76656420717565727920666F72206E6F6E6578 PUSH1 0x44 DUP3 ADD MSTORE PUSH12 0x34B9BA32B73A103A37B5B2B7 PUSH1 0xA1 SHL PUSH1 0x64 DUP3 ADD MSTORE PUSH1 0x84 ADD JUMPDEST PUSH1 0x40 MLOAD DUP1 SWAP2 SUB SWAP1 REVERT JUMPDEST POP PUSH1 0x0 SWAP1 DUP2 MSTORE PUSH1 0x4 PUSH1 0x20 MSTORE PUSH1 0x40 SWAP1 KECCAK256 SLOAD PUSH1 0x1 PUSH1 0x1 PUSH1 0xA0 SHL SUB AND SWAP1 JUMP JUMPDEST PUSH1 0x0 PUSH2 0x57A DUP3 PUSH2 0x7FA JUMP JUMPDEST SWAP1 POP DUP1 PUSH1 0x1 PUSH1 0x1 PUSH1 0xA0 SHL SUB AND DUP4 PUSH1 0x1 PUSH1 0x1 PUSH1 0xA0 SHL SUB AND EQ ISZERO PUSH2 0x5E8 JUMPI PUSH1 0x40 MLOAD PUSH3 0x461BCD PUSH1 0xE5 SHL DUP2 MSTORE PUSH1 0x20 PUSH1 0x4 DUP3 ADD MSTORE PUSH1 0x21 PUSH1 0x24 DUP3 ADD MSTORE PUSH32 0x4552433732313A20617070726F76616C20746F2063757272656E74206F776E65 PUSH1 0x44 DUP3 ADD MSTORE PUSH1 0x39 PUSH1 0xF9 SHL PUSH1 0x64 DUP3 ADD MSTORE PUSH1 0x84 ADD PUSH2 0x54A JUMP JUMPDEST CALLER PUSH1 0x1 PUSH1 0x1 PUSH1 0xA0 SHL SUB DUP3 AND EQ DUP1 PUSH2 0x604 JUMPI POP PUSH2 0x604 DUP2 CALLER PUSH2 0x3CA JUMP JUMPDEST PUSH2 0x676 JUMPI PUSH1 0x40 MLOAD PUSH3 0x461BCD PUSH1 0xE5 SHL DUP2 MSTORE PUSH1 0x20 PUSH1 0x4 DUP3 ADD MSTORE PUSH1 0x38 PUSH1 0x24 DUP3 ADD MSTORE PUSH32 0x4552433732313A20617070726F76652063616C6C6572206973206E6F74206F77 PUSH1 0x44 DUP3 ADD MSTORE PUSH32 0x6E6572206E6F7220617070726F76656420666F7220616C6C0000000000000000 PUSH1 0x64 DUP3 ADD MSTORE PUSH1 0x84 ADD PUSH2 0x54A JUMP JUMPDEST PUSH2 0x680 DUP4 DUP4 PUSH2 0xC69 JUMP JUMPDEST POP POP POP JUMP JUMPDEST PUSH2 0x68F CALLER DUP3 PUSH2 0xCD7 JUMP JUMPDEST PUSH2 0x6AB JUMPI PUSH1 0x40 MLOAD PUSH3 0x461BCD PUSH1 0xE5 SHL DUP2 MSTORE PUSH1 0x4 ADD PUSH2 0x54A SWAP1 PUSH2 0x1AA4 JUMP JUMPDEST PUSH2 0x680 DUP4 DUP4 DUP4 PUSH2 0xDCE JUMP JUMPDEST PUSH1 0x0 PUSH2 0x6C1 DUP4 PUSH2 0x924 JUMP JUMPDEST DUP3 LT PUSH2 0x723 JUMPI PUSH1 0x40 MLOAD PUSH3 0x461BCD PUSH1 0xE5 SHL DUP2 MSTORE PUSH1 0x20 PUSH1 0x4 DUP3 ADD MSTORE PUSH1 0x2B PUSH1 0x24 DUP3 ADD MSTORE PUSH32 0x455243373231456E756D657261626C653A206F776E657220696E646578206F75 PUSH1 0x44 DUP3 ADD MSTORE PUSH11 0x74206F6620626F756E6473 PUSH1 0xA8 SHL PUSH1 0x64 DUP3 ADD MSTORE PUSH1 0x84 ADD PUSH2 0x54A JUMP JUMPDEST POP PUSH1 0x1 PUSH1 0x1 PUSH1 0xA0 SHL SUB SWAP2 SWAP1 SWAP2 AND PUSH1 0x0 SWAP1 DUP2 MSTORE PUSH1 0x6 PUSH1 0x20 SWAP1 DUP2 MSTORE PUSH1 0x40 DUP1 DUP4 KECCAK256 SWAP4 DUP4 MSTORE SWAP3 SWAP1 MSTORE KECCAK256 SLOAD SWAP1 JUMP JUMPDEST PUSH2 0x680 DUP4 DUP4 DUP4 PUSH1 0x40 MLOAD DUP1 PUSH1 0x20 ADD PUSH1 0x40 MSTORE DUP1 PUSH1 0x0 DUP2 MSTORE POP PUSH2 0xA2B JUMP JUMPDEST PUSH1 0x0 PUSH2 0x772 PUSH1 0x8 SLOAD SWAP1 JUMP JUMPDEST DUP3 LT PUSH2 0x7D5 JUMPI PUSH1 0x40 MLOAD PUSH3 0x461BCD PUSH1 0xE5 SHL DUP2 MSTORE PUSH1 0x20 PUSH1 0x4 DUP3 ADD MSTORE PUSH1 0x2C PUSH1 0x24 DUP3 ADD MSTORE PUSH32 0x455243373231456E756D657261626C653A20676C6F62616C20696E646578206F PUSH1 0x44 DUP3 ADD MSTORE PUSH12 0x7574206F6620626F756E6473 PUSH1 0xA0 SHL PUSH1 0x64 DUP3 ADD MSTORE PUSH1 0x84 ADD PUSH2 0x54A JUMP JUMPDEST PUSH1 0x8 DUP3 DUP2 SLOAD DUP2 LT PUSH2 0x7E8 JUMPI PUSH2 0x7E8 PUSH2 0x1C10 JUMP JUMPDEST SWAP1 PUSH1 0x0 MSTORE PUSH1 0x20 PUSH1 0x0 KECCAK256 ADD SLOAD SWAP1 POP SWAP2 SWAP1 POP JUMP JUMPDEST PUSH1 0x0 DUP2 DUP2 MSTORE PUSH1 0x2 PUSH1 0x20 MSTORE PUSH1 0x40 DUP2 KECCAK256 SLOAD PUSH1 0x1 PUSH1 0x1 PUSH1 0xA0 SHL SUB AND DUP1 PUSH2 0x43D JUMPI PUSH1 0x40 MLOAD PUSH3 0x461BCD PUSH1 0xE5 SHL DUP2 MSTORE PUSH1 0x20 PUSH1 0x4 DUP3 ADD MSTORE PUSH1 0x29 PUSH1 0x24 DUP3 ADD MSTORE PUSH32 0x4552433732313A206F776E657220717565727920666F72206E6F6E6578697374 PUSH1 0x44 DUP3 ADD MSTORE PUSH9 0x32B73A103A37B5B2B7 PUSH1 0xB9 SHL PUSH1 0x64 DUP3 ADD MSTORE PUSH1 0x84 ADD PUSH2 0x54A JUMP JUMPDEST PUSH1 0x0 PUSH2 0x87C PUSH1 0x8 SLOAD SWAP1 JUMP JUMPDEST SWAP1 POP PUSH2 0x892 DUP3 PUSH2 0x88D DUP4 PUSH1 0x1 PUSH2 0x1AF5 JUMP JUMPDEST PUSH2 0xF75 JUMP JUMPDEST POP POP JUMP JUMPDEST PUSH1 0xB DUP1 SLOAD PUSH2 0x8A3 SWAP1 PUSH2 0x1B64 JUMP JUMPDEST DUP1 PUSH1 0x1F ADD PUSH1 0x20 DUP1 SWAP2 DIV MUL PUSH1 0x20 ADD PUSH1 0x40 MLOAD SWAP1 DUP2 ADD PUSH1 0x40 MSTORE DUP1 SWAP3 SWAP2 SWAP1 DUP2 DUP2 MSTORE PUSH1 0x20 ADD DUP3 DUP1 SLOAD PUSH2 0x8CF SWAP1 PUSH2 0x1B64 JUMP JUMPDEST DUP1 ISZERO PUSH2 0x91C JUMPI DUP1 PUSH1 0x1F LT PUSH2 0x8F1 JUMPI PUSH2 0x100 DUP1 DUP4 SLOAD DIV MUL DUP4 MSTORE SWAP2 PUSH1 0x20 ADD SWAP2 PUSH2 0x91C JUMP JUMPDEST DUP3 ADD SWAP2 SWAP1 PUSH1 0x0 MSTORE PUSH1 0x20 PUSH1 0x0 KECCAK256 SWAP1 JUMPDEST DUP2 SLOAD DUP2 MSTORE SWAP1 PUSH1 0x1 ADD SWAP1 PUSH1 0x20 ADD DUP1 DUP4 GT PUSH2 0x8FF JUMPI DUP3 SWAP1 SUB PUSH1 0x1F AND DUP3 ADD SWAP2 JUMPDEST POP POP POP POP POP DUP2 JUMP JUMPDEST PUSH1 0x0 PUSH1 0x1 PUSH1 0x1 PUSH1 0xA0 SHL SUB DUP3 AND PUSH2 0x98F JUMPI PUSH1 0x40 MLOAD PUSH3 0x461BCD PUSH1 0xE5 SHL DUP2 MSTORE PUSH1 0x20 PUSH1 0x4 DUP3 ADD MSTORE PUSH1 0x2A PUSH1 0x24 DUP3 ADD MSTORE PUSH32 0x4552433732313A2062616C616E636520717565727920666F7220746865207A65 PUSH1 0x44 DUP3 ADD MSTORE PUSH10 0x726F2061646472657373 PUSH1 0xB0 SHL PUSH1 0x64 DUP3 ADD MSTORE PUSH1 0x84 ADD PUSH2 0x54A JUMP JUMPDEST POP PUSH1 0x1 PUSH1 0x1 PUSH1 0xA0 SHL SUB AND PUSH1 0x0 SWAP1 DUP2 MSTORE PUSH1 0x3 PUSH1 0x20 MSTORE PUSH1 0x40 SWAP1 KECCAK256 SLOAD SWAP1 JUMP JUMPDEST PUSH1 0xA SLOAD PUSH1 0x1 PUSH1 0x1 PUSH1 0xA0 SHL SUB AND CALLER EQ PUSH2 0xA05 JUMPI PUSH1 0x40 MLOAD PUSH3 0x461BCD PUSH1 0xE5 SHL DUP2 MSTORE PUSH1 0x20 PUSH1 0x4 DUP3 ADD DUP2 SWAP1 MSTORE PUSH1 0x24 DUP3 ADD MSTORE PUSH32 0x4F776E61626C653A2063616C6C6572206973206E6F7420746865206F776E6572 PUSH1 0x44 DUP3 ADD MSTORE PUSH1 0x64 ADD PUSH2 0x54A JUMP JUMPDEST PUSH2 0xA0F PUSH1 0x0 PUSH2 0xF8F JUMP JUMPDEST JUMP JUMPDEST PUSH1 0x60 PUSH1 0x1 DUP1 SLOAD PUSH2 0x452 SWAP1 PUSH2 0x1B64 JUMP JUMPDEST PUSH2 0x892 CALLER DUP4 DUP4 PUSH2 0xFE1 JUMP JUMPDEST PUSH2 0xA35 CALLER DUP4 PUSH2 0xCD7 JUMP JUMPDEST PUSH2 0xA51 JUMPI PUSH1 0x40 MLOAD PUSH3 0x461BCD PUSH1 0xE5 SHL DUP2 MSTORE PUSH1 0x4 ADD PUSH2 0x54A SWAP1 PUSH2 0x1AA4 JUMP JUMPDEST PUSH2 0xA5D DUP5 DUP5 DUP5 DUP5 PUSH2 0x10B0 JUMP JUMPDEST POP POP POP POP JUMP JUMPDEST PUSH1 0xC DUP1 SLOAD PUSH2 0x8A3 SWAP1 PUSH2 0x1B64 JUMP JUMPDEST PUSH1 0x0 DUP2 DUP2 MSTORE PUSH1 0x2 PUSH1 0x20 MSTORE PUSH1 0x40 SWAP1 KECCAK256 SLOAD PUSH1 0x60 SWAP1 PUSH1 0x1 PUSH1 0x1 PUSH1 0xA0 SHL SUB AND PUSH2 0xAEF JUMPI PUSH1 0x40 MLOAD PUSH3 0x461BCD PUSH1 0xE5 SHL DUP2 MSTORE PUSH1 0x20 PUSH1 0x4 DUP3 ADD MSTORE PUSH1 0x2F PUSH1 0x24 DUP3 ADD MSTORE PUSH32 0x4552433732314D657461646174613A2055524920717565727920666F72206E6F PUSH1 0x44 DUP3 ADD MSTORE PUSH15 0x3732BC34B9BA32B73A103A37B5B2B7 PUSH1 0x89 SHL PUSH1 0x64 DUP3 ADD MSTORE PUSH1 0x84 ADD PUSH2 0x54A JUMP JUMPDEST PUSH1 0x0 PUSH2 0xAF9 PUSH2 0x10E3 JUMP JUMPDEST SWAP1 POP PUSH1 0x0 DUP2 MLOAD GT PUSH2 0xB19 JUMPI PUSH1 0x40 MLOAD DUP1 PUSH1 0x20 ADD PUSH1 0x40 MSTORE DUP1 PUSH1 0x0 DUP2 MSTORE POP PUSH2 0xB47 JUMP JUMPDEST DUP1 PUSH2 0xB23 DUP5 PUSH2 0x1103 JUMP JUMPDEST PUSH1 0xC PUSH1 0x40 MLOAD PUSH1 0x20 ADD PUSH2 0xB37 SWAP4 SWAP3 SWAP2 SWAP1 PUSH2 0x193E JUMP JUMPDEST PUSH1 0x40 MLOAD PUSH1 0x20 DUP2 DUP4 SUB SUB DUP2 MSTORE SWAP1 PUSH1 0x40 MSTORE JUMPDEST SWAP4 SWAP3 POP POP POP JUMP JUMPDEST PUSH1 0xA SLOAD PUSH1 0x1 PUSH1 0x1 PUSH1 0xA0 SHL SUB AND CALLER EQ PUSH2 0xBA8 JUMPI PUSH1 0x40 MLOAD PUSH3 0x461BCD PUSH1 0xE5 SHL DUP2 MSTORE PUSH1 0x20 PUSH1 0x4 DUP3 ADD DUP2 SWAP1 MSTORE PUSH1 0x24 DUP3 ADD MSTORE PUSH32 0x4F776E61626C653A2063616C6C6572206973206E6F7420746865206F776E6572 PUSH1 0x44 DUP3 ADD MSTORE PUSH1 0x64 ADD PUSH2 0x54A JUMP JUMPDEST PUSH1 0x1 PUSH1 0x1 PUSH1 0xA0 SHL SUB DUP2 AND PUSH2 0xC0D JUMPI PUSH1 0x40 MLOAD PUSH3 0x461BCD PUSH1 0xE5 SHL DUP2 MSTORE PUSH1 0x20 PUSH1 0x4 DUP3 ADD MSTORE PUSH1 0x26 PUSH1 0x24 DUP3 ADD MSTORE PUSH32 0x4F776E61626C653A206E6577206F776E657220697320746865207A65726F2061 PUSH1 0x44 DUP3 ADD MSTORE PUSH6 0x646472657373 PUSH1 0xD0 SHL PUSH1 0x64 DUP3 ADD MSTORE PUSH1 0x84 ADD PUSH2 0x54A JUMP JUMPDEST PUSH2 0xC16 DUP2 PUSH2 0xF8F JUMP JUMPDEST POP JUMP JUMPDEST PUSH1 0x0 PUSH1 0x1 PUSH1 0x1 PUSH1 0xE0 SHL SUB NOT DUP3 AND PUSH4 0x80AC58CD PUSH1 0xE0 SHL EQ DUP1 PUSH2 0xC4A JUMPI POP PUSH1 0x1 PUSH1 0x1 PUSH1 0xE0 SHL SUB NOT DUP3 AND PUSH4 0x5B5E139F PUSH1 0xE0 SHL EQ JUMPDEST DUP1 PUSH2 0x43D JUMPI POP PUSH4 0x1FFC9A7 PUSH1 0xE0 SHL PUSH1 0x1 PUSH1 0x1 PUSH1 0xE0 SHL SUB NOT DUP4 AND EQ PUSH2 0x43D JUMP JUMPDEST PUSH1 0x0 DUP2 DUP2 MSTORE PUSH1 0x4 PUSH1 0x20 MSTORE PUSH1 0x40 SWAP1 KECCAK256 DUP1 SLOAD PUSH1 0x1 PUSH1 0x1 PUSH1 0xA0 SHL SUB NOT AND PUSH1 0x1 PUSH1 0x1 PUSH1 0xA0 SHL SUB DUP5 AND SWAP1 DUP2 OR SWAP1 SWAP2 SSTORE DUP2 SWAP1 PUSH2 0xC9E DUP3 PUSH2 0x7FA JUMP JUMPDEST PUSH1 0x1 PUSH1 0x1 PUSH1 0xA0 SHL SUB AND PUSH32 0x8C5BE1E5EBEC7D5BD14F71427D1E84F3DD0314C0F7B2291E5B200AC8C7C3B925 PUSH1 0x40 MLOAD PUSH1 0x40 MLOAD DUP1 SWAP2 SUB SWAP1 LOG4 POP POP JUMP JUMPDEST PUSH1 0x0 DUP2 DUP2 MSTORE PUSH1 0x2 PUSH1 0x20 MSTORE PUSH1 0x40 DUP2 KECCAK256 SLOAD PUSH1 0x1 PUSH1 0x1 PUSH1 0xA0 SHL SUB AND PUSH2 0xD50 JUMPI PUSH1 0x40 MLOAD PUSH3 0x461BCD PUSH1 0xE5 SHL DUP2 MSTORE PUSH1 0x20 PUSH1 0x4 DUP3 ADD MSTORE PUSH1 0x2C PUSH1 0x24 DUP3 ADD MSTORE PUSH32 0x4552433732313A206F70657261746F7220717565727920666F72206E6F6E6578 PUSH1 0x44 DUP3 ADD MSTORE PUSH12 0x34B9BA32B73A103A37B5B2B7 PUSH1 0xA1 SHL PUSH1 0x64 DUP3 ADD MSTORE PUSH1 0x84 ADD PUSH2 0x54A JUMP JUMPDEST PUSH1 0x0 PUSH2 0xD5B DUP4 PUSH2 0x7FA JUMP JUMPDEST SWAP1 POP DUP1 PUSH1 0x1 PUSH1 0x1 PUSH1 0xA0 SHL SUB AND DUP5 PUSH1 0x1 PUSH1 0x1 PUSH1 0xA0 SHL SUB AND EQ DUP1 PUSH2 0xD96 JUMPI POP DUP4 PUSH1 0x1 PUSH1 0x1 PUSH1 0xA0 SHL SUB AND PUSH2 0xD8B DUP5 PUSH2 0x4D5 JUMP JUMPDEST PUSH1 0x1 PUSH1 0x1 PUSH1 0xA0 SHL SUB AND EQ JUMPDEST DUP1 PUSH2 0xDC6 JUMPI POP PUSH1 0x1 PUSH1 0x1 PUSH1 0xA0 SHL SUB DUP1 DUP3 AND PUSH1 0x0 SWAP1 DUP2 MSTORE PUSH1 0x5 PUSH1 0x20 SWAP1 DUP2 MSTORE PUSH1 0x40 DUP1 DUP4 KECCAK256 SWAP4 DUP9 AND DUP4 MSTORE SWAP3 SWAP1 MSTORE KECCAK256 SLOAD PUSH1 0xFF AND JUMPDEST SWAP5 SWAP4 POP POP POP POP JUMP JUMPDEST DUP3 PUSH1 0x1 PUSH1 0x1 PUSH1 0xA0 SHL SUB AND PUSH2 0xDE1 DUP3 PUSH2 0x7FA JUMP JUMPDEST PUSH1 0x1 PUSH1 0x1 PUSH1 0xA0 SHL SUB AND EQ PUSH2 0xE45 JUMPI PUSH1 0x40 MLOAD PUSH3 0x461BCD PUSH1 0xE5 SHL DUP2 MSTORE PUSH1 0x20 PUSH1 0x4 DUP3 ADD MSTORE PUSH1 0x25 PUSH1 0x24 DUP3 ADD MSTORE PUSH32 0x4552433732313A207472616E736665722066726F6D20696E636F727265637420 PUSH1 0x44 DUP3 ADD MSTORE PUSH5 0x37BBB732B9 PUSH1 0xD9 SHL PUSH1 0x64 DUP3 ADD MSTORE PUSH1 0x84 ADD PUSH2 0x54A JUMP JUMPDEST PUSH1 0x1 PUSH1 0x1 PUSH1 0xA0 SHL SUB DUP3 AND PUSH2 0xEA7 JUMPI PUSH1 0x40 MLOAD PUSH3 0x461BCD PUSH1 0xE5 SHL DUP2 MSTORE PUSH1 0x20 PUSH1 0x4 DUP3 ADD MSTORE PUSH1 0x24 DUP1 DUP3 ADD MSTORE PUSH32 0x4552433732313A207472616E7366657220746F20746865207A65726F20616464 PUSH1 0x44 DUP3 ADD MSTORE PUSH4 0x72657373 PUSH1 0xE0 SHL PUSH1 0x64 DUP3 ADD MSTORE PUSH1 0x84 ADD PUSH2 0x54A JUMP JUMPDEST PUSH2 0xEB2 DUP4 DUP4 DUP4 PUSH2 0x1201 JUMP JUMPDEST PUSH2 0xEBD PUSH1 0x0 DUP3 PUSH2 0xC69 JUMP JUMPDEST PUSH1 0x1 PUSH1 0x1 PUSH1 0xA0 SHL SUB DUP4 AND PUSH1 0x0 SWAP1 DUP2 MSTORE PUSH1 0x3 PUSH1 0x20 MSTORE PUSH1 0x40 DUP2 KECCAK256 DUP1 SLOAD PUSH1 0x1 SWAP3 SWAP1 PUSH2 0xEE6 SWAP1 DUP5 SWAP1 PUSH2 0x1B21 JUMP JUMPDEST SWAP1 SWAP2 SSTORE POP POP PUSH1 0x1 PUSH1 0x1 PUSH1 0xA0 SHL SUB DUP3 AND PUSH1 0x0 SWAP1 DUP2 MSTORE PUSH1 0x3 PUSH1 0x20 MSTORE PUSH1 0x40 DUP2 KECCAK256 DUP1 SLOAD PUSH1 0x1 SWAP3 SWAP1 PUSH2 0xF14 SWAP1 DUP5 SWAP1 PUSH2 0x1AF5 JUMP JUMPDEST SWAP1 SWAP2 SSTORE POP POP PUSH1 0x0 DUP2 DUP2 MSTORE PUSH1 0x2 PUSH1 0x20 MSTORE PUSH1 0x40 DUP1 DUP3 KECCAK256 DUP1 SLOAD PUSH1 0x1 PUSH1 0x1 PUSH1 0xA0 SHL SUB NOT AND PUSH1 0x1 PUSH1 0x1 PUSH1 0xA0 SHL SUB DUP7 DUP2 AND SWAP2 DUP3 OR SWAP1 SWAP3 SSTORE SWAP2 MLOAD DUP5 SWAP4 SWAP2 DUP8 AND SWAP2 PUSH32 0xDDF252AD1BE2C89B69C2B068FC378DAA952BA7F163C4A11628F55A4DF523B3EF SWAP2 LOG4 POP POP POP JUMP JUMPDEST PUSH2 0x892 DUP3 DUP3 PUSH1 0x40 MLOAD DUP1 PUSH1 0x20 ADD PUSH1 0x40 MSTORE DUP1 PUSH1 0x0 DUP2 MSTORE POP PUSH2 0x12B9 JUMP JUMPDEST PUSH1 0xA DUP1 SLOAD PUSH1 0x1 PUSH1 0x1 PUSH1 0xA0 SHL SUB DUP4 DUP2 AND PUSH1 0x1 PUSH1 0x1 PUSH1 0xA0 SHL SUB NOT DUP4 AND DUP2 OR SWAP1 SWAP4 SSTORE PUSH1 0x40 MLOAD SWAP2 AND SWAP2 SWAP1 DUP3 SWAP1 PUSH32 0x8BE0079C531659141344CD1FD0A4F28419497F9722A3DAAFE3B4186F6B6457E0 SWAP1 PUSH1 0x0 SWAP1 LOG3 POP POP JUMP JUMPDEST DUP2 PUSH1 0x1 PUSH1 0x1 PUSH1 0xA0 SHL SUB AND DUP4 PUSH1 0x1 PUSH1 0x1 PUSH1 0xA0 SHL SUB AND EQ ISZERO PUSH2 0x1043 JUMPI PUSH1 0x40 MLOAD PUSH3 0x461BCD PUSH1 0xE5 SHL DUP2 MSTORE PUSH1 0x20 PUSH1 0x4 DUP3 ADD MSTORE PUSH1 0x19 PUSH1 0x24 DUP3 ADD MSTORE PUSH32 0x4552433732313A20617070726F766520746F2063616C6C657200000000000000 PUSH1 0x44 DUP3 ADD MSTORE PUSH1 0x64 ADD PUSH2 0x54A JUMP JUMPDEST PUSH1 0x1 PUSH1 0x1 PUSH1 0xA0 SHL SUB DUP4 DUP2 AND PUSH1 0x0 DUP2 DUP2 MSTORE PUSH1 0x5 PUSH1 0x20 SWAP1 DUP2 MSTORE PUSH1 0x40 DUP1 DUP4 KECCAK256 SWAP5 DUP8 AND DUP1 DUP5 MSTORE SWAP5 DUP3 MSTORE SWAP2 DUP3 SWAP1 KECCAK256 DUP1 SLOAD PUSH1 0xFF NOT AND DUP7 ISZERO ISZERO SWAP1 DUP2 OR SWAP1 SWAP2 SSTORE SWAP2 MLOAD SWAP2 DUP3 MSTORE PUSH32 0x17307EAB39AB6107E8899845AD3D59BD9653F200F220920489CA2B5937696C31 SWAP2 ADD PUSH1 0x40 MLOAD DUP1 SWAP2 SUB SWAP1 LOG3 POP POP POP JUMP JUMPDEST PUSH2 0x10BB DUP5 DUP5 DUP5 PUSH2 0xDCE JUMP JUMPDEST PUSH2 0x10C7 DUP5 DUP5 DUP5 DUP5 PUSH2 0x12EC JUMP JUMPDEST PUSH2 0xA5D JUMPI PUSH1 0x40 MLOAD PUSH3 0x461BCD PUSH1 0xE5 SHL DUP2 MSTORE PUSH1 0x4 ADD PUSH2 0x54A SWAP1 PUSH2 0x1A52 JUMP JUMPDEST PUSH1 0x60 PUSH1 0x40 MLOAD DUP1 PUSH1 0x80 ADD PUSH1 0x40 MSTORE DUP1 PUSH1 0x44 DUP2 MSTORE PUSH1 0x20 ADD PUSH2 0x1C53 PUSH1 0x44 SWAP2 CODECOPY SWAP1 POP SWAP1 JUMP JUMPDEST PUSH1 0x60 DUP2 PUSH2 0x1127 JUMPI POP POP PUSH1 0x40 DUP1 MLOAD DUP1 DUP3 ADD SWAP1 SWAP2 MSTORE PUSH1 0x1 DUP2 MSTORE PUSH1 0x3 PUSH1 0xFC SHL PUSH1 0x20 DUP3 ADD MSTORE SWAP1 JUMP JUMPDEST DUP2 PUSH1 0x0 JUMPDEST DUP2 ISZERO PUSH2 0x1151 JUMPI DUP1 PUSH2 0x113B DUP2 PUSH2 0x1B9F JUMP JUMPDEST SWAP2 POP PUSH2 0x114A SWAP1 POP PUSH1 0xA DUP4 PUSH2 0x1B0D JUMP JUMPDEST SWAP2 POP PUSH2 0x112B JUMP JUMPDEST PUSH1 0x0 DUP2 PUSH8 0xFFFFFFFFFFFFFFFF DUP2 GT ISZERO PUSH2 0x116C JUMPI PUSH2 0x116C PUSH2 0x1C26 JUMP JUMPDEST PUSH1 0x40 MLOAD SWAP1 DUP1 DUP3 MSTORE DUP1 PUSH1 0x1F ADD PUSH1 0x1F NOT AND PUSH1 0x20 ADD DUP3 ADD PUSH1 0x40 MSTORE DUP1 ISZERO PUSH2 0x1196 JUMPI PUSH1 0x20 DUP3 ADD DUP2 DUP1 CALLDATASIZE DUP4 CALLDATACOPY ADD SWAP1 POP JUMPDEST POP SWAP1 POP JUMPDEST DUP5 ISZERO PUSH2 0xDC6 JUMPI PUSH2 0x11AB PUSH1 0x1 DUP4 PUSH2 0x1B21 JUMP JUMPDEST SWAP2 POP PUSH2 0x11B8 PUSH1 0xA DUP7 PUSH2 0x1BBA JUMP JUMPDEST PUSH2 0x11C3 SWAP1 PUSH1 0x30 PUSH2 0x1AF5 JUMP JUMPDEST PUSH1 0xF8 SHL DUP2 DUP4 DUP2 MLOAD DUP2 LT PUSH2 0x11D8 JUMPI PUSH2 0x11D8 PUSH2 0x1C10 JUMP JUMPDEST PUSH1 0x20 ADD ADD SWAP1 PUSH1 0x1 PUSH1 0x1 PUSH1 0xF8 SHL SUB NOT AND SWAP1 DUP2 PUSH1 0x0 BYTE SWAP1 MSTORE8 POP PUSH2 0x11FA PUSH1 0xA DUP7 PUSH2 0x1B0D JUMP JUMPDEST SWAP5 POP PUSH2 0x119A JUMP JUMPDEST PUSH1 0x1 PUSH1 0x1 PUSH1 0xA0 SHL SUB DUP4 AND PUSH2 0x125C JUMPI PUSH2 0x1257 DUP2 PUSH1 0x8 DUP1 SLOAD PUSH1 0x0 DUP4 DUP2 MSTORE PUSH1 0x9 PUSH1 0x20 MSTORE PUSH1 0x40 DUP2 KECCAK256 DUP3 SWAP1 SSTORE PUSH1 0x1 DUP3 ADD DUP4 SSTORE SWAP2 SWAP1 SWAP2 MSTORE PUSH32 0xF3F7A9FE364FAAB93B216DA50A3214154F22A0A2B415B23A84C8169E8B636EE3 ADD SSTORE JUMP JUMPDEST PUSH2 0x127F JUMP JUMPDEST DUP2 PUSH1 0x1 PUSH1 0x1 PUSH1 0xA0 SHL SUB AND DUP4 PUSH1 0x1 PUSH1 0x1 PUSH1 0xA0 SHL SUB AND EQ PUSH2 0x127F JUMPI PUSH2 0x127F DUP4 DUP3 PUSH2 0x13F9 JUMP JUMPDEST PUSH1 0x1 PUSH1 0x1 PUSH1 0xA0 SHL SUB DUP3 AND PUSH2 0x1296 JUMPI PUSH2 0x680 DUP2 PUSH2 0x1496 JUMP JUMPDEST DUP3 PUSH1 0x1 PUSH1 0x1 PUSH1 0xA0 SHL SUB AND DUP3 PUSH1 0x1 PUSH1 0x1 PUSH1 0xA0 SHL SUB AND EQ PUSH2 0x680 JUMPI PUSH2 0x680 DUP3 DUP3 PUSH2 0x1545 JUMP JUMPDEST PUSH2 0x12C3 DUP4 DUP4 PUSH2 0x1589 JUMP JUMPDEST PUSH2 0x12D0 PUSH1 0x0 DUP5 DUP5 DUP5 PUSH2 0x12EC JUMP JUMPDEST PUSH2 0x680 JUMPI PUSH1 0x40 MLOAD PUSH3 0x461BCD PUSH1 0xE5 SHL DUP2 MSTORE PUSH1 0x4 ADD PUSH2 0x54A SWAP1 PUSH2 0x1A52 JUMP JUMPDEST PUSH1 0x0 PUSH1 0x1 PUSH1 0x1 PUSH1 0xA0 SHL SUB DUP5 AND EXTCODESIZE ISZERO PUSH2 0x13EE JUMPI PUSH1 0x40 MLOAD PUSH4 0xA85BD01 PUSH1 0xE1 SHL DUP2 MSTORE PUSH1 0x1 PUSH1 0x1 PUSH1 0xA0 SHL SUB DUP6 AND SWAP1 PUSH4 0x150B7A02 SWAP1 PUSH2 0x1330 SWAP1 CALLER SWAP1 DUP10 SWAP1 DUP9 SWAP1 DUP9 SWAP1 PUSH1 0x4 ADD PUSH2 0x1A02 JUMP JUMPDEST PUSH1 0x20 PUSH1 0x40 MLOAD DUP1 DUP4 SUB DUP2 PUSH1 0x0 DUP8 DUP1 EXTCODESIZE ISZERO DUP1 ISZERO PUSH2 0x134A JUMPI PUSH1 0x0 DUP1 REVERT JUMPDEST POP GAS CALL SWAP3 POP POP POP DUP1 ISZERO PUSH2 0x137A JUMPI POP PUSH1 0x40 DUP1 MLOAD PUSH1 0x1F RETURNDATASIZE SWAP1 DUP2 ADD PUSH1 0x1F NOT AND DUP3 ADD SWAP1 SWAP3 MSTORE PUSH2 0x1377 SWAP2 DUP2 ADD SWAP1 PUSH2 0x18DC JUMP JUMPDEST PUSH1 0x1 JUMPDEST PUSH2 0x13D4 JUMPI RETURNDATASIZE DUP1 DUP1 ISZERO PUSH2 0x13A8 JUMPI PUSH1 0x40 MLOAD SWAP2 POP PUSH1 0x1F NOT PUSH1 0x3F RETURNDATASIZE ADD AND DUP3 ADD PUSH1 0x40 MSTORE RETURNDATASIZE DUP3 MSTORE RETURNDATASIZE PUSH1 0x0 PUSH1 0x20 DUP5 ADD RETURNDATACOPY PUSH2 0x13AD JUMP JUMPDEST PUSH1 0x60 SWAP2 POP JUMPDEST POP DUP1 MLOAD PUSH2 0x13CC JUMPI PUSH1 0x40 MLOAD PUSH3 0x461BCD PUSH1 0xE5 SHL DUP2 MSTORE PUSH1 0x4 ADD PUSH2 0x54A SWAP1 PUSH2 0x1A52 JUMP JUMPDEST DUP1 MLOAD DUP2 PUSH1 0x20 ADD REVERT JUMPDEST PUSH1 0x1 PUSH1 0x1 PUSH1 0xE0 SHL SUB NOT AND PUSH4 0xA85BD01 PUSH1 0xE1 SHL EQ SWAP1 POP PUSH2 0xDC6 JUMP JUMPDEST POP PUSH1 0x1 SWAP5 SWAP4 POP POP POP POP JUMP JUMPDEST PUSH1 0x0 PUSH1 0x1 PUSH2 0x1406 DUP5 PUSH2 0x924 JUMP JUMPDEST PUSH2 0x1410 SWAP2 SWAP1 PUSH2 0x1B21 JUMP JUMPDEST PUSH1 0x0 DUP4 DUP2 MSTORE PUSH1 0x7 PUSH1 0x20 MSTORE PUSH1 0x40 SWAP1 KECCAK256 SLOAD SWAP1 SWAP2 POP DUP1 DUP3 EQ PUSH2 0x1463 JUMPI PUSH1 0x1 PUSH1 0x1 PUSH1 0xA0 SHL SUB DUP5 AND PUSH1 0x0 SWAP1 DUP2 MSTORE PUSH1 0x6 PUSH1 0x20 SWAP1 DUP2 MSTORE PUSH1 0x40 DUP1 DUP4 KECCAK256 DUP6 DUP5 MSTORE DUP3 MSTORE DUP1 DUP4 KECCAK256 SLOAD DUP5 DUP5 MSTORE DUP2 DUP5 KECCAK256 DUP2 SWAP1 SSTORE DUP4 MSTORE PUSH1 0x7 SWAP1 SWAP2 MSTORE SWAP1 KECCAK256 DUP2 SWAP1 SSTORE JUMPDEST POP PUSH1 0x0 SWAP2 DUP3 MSTORE PUSH1 0x7 PUSH1 0x20 SWAP1 DUP2 MSTORE PUSH1 0x40 DUP1 DUP5 KECCAK256 DUP5 SWAP1 SSTORE PUSH1 0x1 PUSH1 0x1 PUSH1 0xA0 SHL SUB SWAP1 SWAP5 AND DUP4 MSTORE PUSH1 0x6 DUP2 MSTORE DUP4 DUP4 KECCAK256 SWAP2 DUP4 MSTORE MSTORE SWAP1 DUP2 KECCAK256 SSTORE JUMP JUMPDEST PUSH1 0x8 SLOAD PUSH1 0x0 SWAP1 PUSH2 0x14A8 SWAP1 PUSH1 0x1 SWAP1 PUSH2 0x1B21 JUMP JUMPDEST PUSH1 0x0 DUP4 DUP2 MSTORE PUSH1 0x9 PUSH1 0x20 MSTORE PUSH1 0x40 DUP2 KECCAK256 SLOAD PUSH1 0x8 DUP1 SLOAD SWAP4 SWAP5 POP SWAP1 SWAP3 DUP5 SWAP1 DUP2 LT PUSH2 0x14D0 JUMPI PUSH2 0x14D0 PUSH2 0x1C10 JUMP JUMPDEST SWAP1 PUSH1 0x0 MSTORE PUSH1 0x20 PUSH1 0x0 KECCAK256 ADD SLOAD SWAP1 POP DUP1 PUSH1 0x8 DUP4 DUP2 SLOAD DUP2 LT PUSH2 0x14F1 JUMPI PUSH2 0x14F1 PUSH2 0x1C10 JUMP JUMPDEST PUSH1 0x0 SWAP2 DUP3 MSTORE PUSH1 0x20 DUP1 DUP4 KECCAK256 SWAP1 SWAP2 ADD SWAP3 SWAP1 SWAP3 SSTORE DUP3 DUP2 MSTORE PUSH1 0x9 SWAP1 SWAP2 MSTORE PUSH1 0x40 DUP1 DUP3 KECCAK256 DUP5 SWAP1 SSTORE DUP6 DUP3 MSTORE DUP2 KECCAK256 SSTORE PUSH1 0x8 DUP1 SLOAD DUP1 PUSH2 0x1529 JUMPI PUSH2 0x1529 PUSH2 0x1BFA JUMP JUMPDEST PUSH1 0x1 SWAP1 SUB DUP2 DUP2 SWAP1 PUSH1 0x0 MSTORE PUSH1 0x20 PUSH1 0x0 KECCAK256 ADD PUSH1 0x0 SWAP1 SSTORE SWAP1 SSTORE POP POP POP POP JUMP JUMPDEST PUSH1 0x0 PUSH2 0x1550 DUP4 PUSH2 0x924 JUMP JUMPDEST PUSH1 0x1 PUSH1 0x1 PUSH1 0xA0 SHL SUB SWAP1 SWAP4 AND PUSH1 0x0 SWAP1 DUP2 MSTORE PUSH1 0x6 PUSH1 0x20 SWAP1 DUP2 MSTORE PUSH1 0x40 DUP1 DUP4 KECCAK256 DUP7 DUP5 MSTORE DUP3 MSTORE DUP1 DUP4 KECCAK256 DUP6 SWAP1 SSTORE SWAP4 DUP3 MSTORE PUSH1 0x7 SWAP1 MSTORE SWAP2 SWAP1 SWAP2 KECCAK256 SWAP2 SWAP1 SWAP2 SSTORE POP JUMP JUMPDEST PUSH1 0x1 PUSH1 0x1 PUSH1 0xA0 SHL SUB DUP3 AND PUSH2 0x15DF JUMPI PUSH1 0x40 MLOAD PUSH3 0x461BCD PUSH1 0xE5 SHL DUP2 MSTORE PUSH1 0x20 PUSH1 0x4 DUP3 ADD DUP2 SWAP1 MSTORE PUSH1 0x24 DUP3 ADD MSTORE PUSH32 0x4552433732313A206D696E7420746F20746865207A65726F2061646472657373 PUSH1 0x44 DUP3 ADD MSTORE PUSH1 0x64 ADD PUSH2 0x54A JUMP JUMPDEST PUSH1 0x0 DUP2 DUP2 MSTORE PUSH1 0x2 PUSH1 0x20 MSTORE PUSH1 0x40 SWAP1 KECCAK256 SLOAD PUSH1 0x1 PUSH1 0x1 PUSH1 0xA0 SHL SUB AND ISZERO PUSH2 0x1644 JUMPI PUSH1 0x40 MLOAD PUSH3 0x461BCD PUSH1 0xE5 SHL DUP2 MSTORE PUSH1 0x20 PUSH1 0x4 DUP3 ADD MSTORE PUSH1 0x1C PUSH1 0x24 DUP3 ADD MSTORE PUSH32 0x4552433732313A20746F6B656E20616C7265616479206D696E74656400000000 PUSH1 0x44 DUP3 ADD MSTORE PUSH1 0x64 ADD PUSH2 0x54A JUMP JUMPDEST PUSH2 0x1650 PUSH1 0x0 DUP4 DUP4 PUSH2 0x1201 JUMP JUMPDEST PUSH1 0x1 PUSH1 0x1 PUSH1 0xA0 SHL SUB DUP3 AND PUSH1 0x0 SWAP1 DUP2 MSTORE PUSH1 0x3 PUSH1 0x20 MSTORE PUSH1 0x40 DUP2 KECCAK256 DUP1 SLOAD PUSH1 0x1 SWAP3 SWAP1 PUSH2 0x1679 SWAP1 DUP5 SWAP1 PUSH2 0x1AF5 JUMP JUMPDEST SWAP1 SWAP2 SSTORE POP POP PUSH1 0x0 DUP2 DUP2 MSTORE PUSH1 0x2 PUSH1 0x20 MSTORE PUSH1 0x40 DUP1 DUP3 KECCAK256 DUP1 SLOAD PUSH1 0x1 PUSH1 0x1 PUSH1 0xA0 SHL SUB NOT AND PUSH1 0x1 PUSH1 0x1 PUSH1 0xA0 SHL SUB DUP7 AND SWAP1 DUP2 OR SWAP1 SWAP2 SSTORE SWAP1 MLOAD DUP4 SWAP3 SWAP1 PUSH32 0xDDF252AD1BE2C89B69C2B068FC378DAA952BA7F163C4A11628F55A4DF523B3EF SWAP1 DUP3 SWAP1 LOG4 POP POP JUMP JUMPDEST DUP1 CALLDATALOAD PUSH1 0x1 PUSH1 0x1 PUSH1 0xA0 SHL SUB DUP2 AND DUP2 EQ PUSH2 0x16EE JUMPI PUSH1 0x0 DUP1 REVERT JUMPDEST SWAP2 SWAP1 POP JUMP JUMPDEST PUSH1 0x0 PUSH1 0x20 DUP3 DUP5 SUB SLT ISZERO PUSH2 0x1705 JUMPI PUSH1 0x0 DUP1 REVERT JUMPDEST PUSH2 0xB47 DUP3 PUSH2 0x16D7 JUMP JUMPDEST PUSH1 0x0 DUP1 PUSH1 0x40 DUP4 DUP6 SUB SLT ISZERO PUSH2 0x1721 JUMPI PUSH1 0x0 DUP1 REVERT JUMPDEST PUSH2 0x172A DUP4 PUSH2 0x16D7 JUMP JUMPDEST SWAP2 POP PUSH2 0x1738 PUSH1 0x20 DUP5 ADD PUSH2 0x16D7 JUMP JUMPDEST SWAP1 POP SWAP3 POP SWAP3 SWAP1 POP JUMP JUMPDEST PUSH1 0x0 DUP1 PUSH1 0x0 PUSH1 0x60 DUP5 DUP7 SUB SLT ISZERO PUSH2 0x1756 JUMPI PUSH1 0x0 DUP1 REVERT JUMPDEST PUSH2 0x175F DUP5 PUSH2 0x16D7 JUMP JUMPDEST SWAP3 POP PUSH2 0x176D PUSH1 0x20 DUP6 ADD PUSH2 0x16D7 JUMP JUMPDEST SWAP2 POP PUSH1 0x40 DUP5 ADD CALLDATALOAD SWAP1 POP SWAP3 POP SWAP3 POP SWAP3 JUMP JUMPDEST PUSH1 0x0 DUP1 PUSH1 0x0 DUP1 PUSH1 0x80 DUP6 DUP8 SUB SLT ISZERO PUSH2 0x1793 JUMPI PUSH1 0x0 DUP1 REVERT JUMPDEST PUSH2 0x179C DUP6 PUSH2 0x16D7 JUMP JUMPDEST SWAP4 POP PUSH2 0x17AA PUSH1 0x20 DUP7 ADD PUSH2 0x16D7 JUMP JUMPDEST SWAP3 POP PUSH1 0x40 DUP6 ADD CALLDATALOAD SWAP2 POP PUSH1 0x60 DUP6 ADD CALLDATALOAD PUSH8 0xFFFFFFFFFFFFFFFF DUP1 DUP3 GT ISZERO PUSH2 0x17CE JUMPI PUSH1 0x0 DUP1 REVERT JUMPDEST DUP2 DUP8 ADD SWAP2 POP DUP8 PUSH1 0x1F DUP4 ADD SLT PUSH2 0x17E2 JUMPI PUSH1 0x0 DUP1 REVERT JUMPDEST DUP2 CALLDATALOAD DUP2 DUP2 GT ISZERO PUSH2 0x17F4 JUMPI PUSH2 0x17F4 PUSH2 0x1C26 JUMP JUMPDEST PUSH1 0x40 MLOAD PUSH1 0x1F DUP3 ADD PUSH1 0x1F NOT SWAP1 DUP2 AND PUSH1 0x3F ADD AND DUP2 ADD SWAP1 DUP4 DUP3 GT DUP2 DUP4 LT OR ISZERO PUSH2 0x181C JUMPI PUSH2 0x181C PUSH2 0x1C26 JUMP JUMPDEST DUP2 PUSH1 0x40 MSTORE DUP3 DUP2 MSTORE DUP11 PUSH1 0x20 DUP5 DUP8 ADD ADD GT ISZERO PUSH2 0x1835 JUMPI PUSH1 0x0 DUP1 REVERT JUMPDEST DUP3 PUSH1 0x20 DUP7 ADD PUSH1 0x20 DUP4 ADD CALLDATACOPY PUSH1 0x0 PUSH1 0x20 DUP5 DUP4 ADD ADD MSTORE DUP1 SWAP6 POP POP POP POP POP POP SWAP3 SWAP6 SWAP2 SWAP5 POP SWAP3 POP JUMP JUMPDEST PUSH1 0x0 DUP1 PUSH1 0x40 DUP4 DUP6 SUB SLT ISZERO PUSH2 0x186C JUMPI PUSH1 0x0 DUP1 REVERT JUMPDEST PUSH2 0x1875 DUP4 PUSH2 0x16D7 JUMP JUMPDEST SWAP2 POP PUSH1 0x20 DUP4 ADD CALLDATALOAD DUP1 ISZERO ISZERO DUP2 EQ PUSH2 0x188A JUMPI PUSH1 0x0 DUP1 REVERT JUMPDEST DUP1 SWAP2 POP POP SWAP3 POP SWAP3 SWAP1 POP JUMP JUMPDEST PUSH1 0x0 DUP1 PUSH1 0x40 DUP4 DUP6 SUB SLT ISZERO PUSH2 0x18A8 JUMPI PUSH1 0x0 DUP1 REVERT JUMPDEST PUSH2 0x18B1 DUP4 PUSH2 0x16D7 JUMP JUMPDEST SWAP5 PUSH1 0x20 SWAP4 SWAP1 SWAP4 ADD CALLDATALOAD SWAP4 POP POP POP JUMP JUMPDEST PUSH1 0x0 PUSH1 0x20 DUP3 DUP5 SUB SLT ISZERO PUSH2 0x18D1 JUMPI PUSH1 0x0 DUP1 REVERT JUMPDEST DUP2 CALLDATALOAD PUSH2 0xB47 DUP2 PUSH2 0x1C3C JUMP JUMPDEST PUSH1 0x0 PUSH1 0x20 DUP3 DUP5 SUB SLT ISZERO PUSH2 0x18EE JUMPI PUSH1 0x0 DUP1 REVERT JUMPDEST DUP2 MLOAD PUSH2 0xB47 DUP2 PUSH2 0x1C3C JUMP JUMPDEST PUSH1 0x0 PUSH1 0x20 DUP3 DUP5 SUB SLT ISZERO PUSH2 0x190B JUMPI PUSH1 0x0 DUP1 REVERT JUMPDEST POP CALLDATALOAD SWAP2 SWAP1 POP JUMP JUMPDEST PUSH1 0x0 DUP2 MLOAD DUP1 DUP5 MSTORE PUSH2 0x192A DUP2 PUSH1 0x20 DUP7 ADD PUSH1 0x20 DUP7 ADD PUSH2 0x1B38 JUMP JUMPDEST PUSH1 0x1F ADD PUSH1 0x1F NOT AND SWAP3 SWAP1 SWAP3 ADD PUSH1 0x20 ADD SWAP3 SWAP2 POP POP JUMP JUMPDEST PUSH1 0x0 DUP5 MLOAD PUSH1 0x20 PUSH2 0x1951 DUP3 DUP6 DUP4 DUP11 ADD PUSH2 0x1B38 JUMP JUMPDEST DUP6 MLOAD SWAP2 DUP5 ADD SWAP2 PUSH2 0x1964 DUP2 DUP5 DUP5 DUP11 ADD PUSH2 0x1B38 JUMP JUMPDEST DUP6 SLOAD SWAP3 ADD SWAP2 PUSH1 0x0 SWAP1 PUSH1 0x1 DUP2 DUP2 SHR SWAP1 DUP1 DUP4 AND DUP1 PUSH2 0x1981 JUMPI PUSH1 0x7F DUP4 AND SWAP3 POP JUMPDEST DUP6 DUP4 LT DUP2 EQ ISZERO PUSH2 0x199F JUMPI PUSH4 0x4E487B71 PUSH1 0xE0 SHL DUP6 MSTORE PUSH1 0x22 PUSH1 0x4 MSTORE PUSH1 0x24 DUP6 REVERT JUMPDEST DUP1 DUP1 ISZERO PUSH2 0x19B3 JUMPI PUSH1 0x1 DUP2 EQ PUSH2 0x19C4 JUMPI PUSH2 0x19F1 JUMP JUMPDEST PUSH1 0xFF NOT DUP6 AND DUP9 MSTORE DUP4 DUP9 ADD SWAP6 POP PUSH2 0x19F1 JUMP JUMPDEST PUSH1 0x0 DUP12 DUP2 MSTORE PUSH1 0x20 SWAP1 KECCAK256 PUSH1 0x0 JUMPDEST DUP6 DUP2 LT ISZERO PUSH2 0x19E9 JUMPI DUP2 SLOAD DUP11 DUP3 ADD MSTORE SWAP1 DUP5 ADD SWAP1 DUP9 ADD PUSH2 0x19D0 JUMP JUMPDEST POP POP DUP4 DUP9 ADD SWAP6 POP JUMPDEST POP SWAP4 SWAP12 SWAP11 POP POP POP POP POP POP POP POP POP POP POP JUMP JUMPDEST PUSH1 0x1 PUSH1 0x1 PUSH1 0xA0 SHL SUB DUP6 DUP2 AND DUP3 MSTORE DUP5 AND PUSH1 0x20 DUP3 ADD MSTORE PUSH1 0x40 DUP2 ADD DUP4 SWAP1 MSTORE PUSH1 0x80 PUSH1 0x60 DUP3 ADD DUP2 SWAP1 MSTORE PUSH1 0x0 SWAP1 PUSH2 0x1A35 SWAP1 DUP4 ADD DUP5 PUSH2 0x1912 JUMP JUMPDEST SWAP7 SWAP6 POP POP POP POP POP POP JUMP JUMPDEST PUSH1 0x20 DUP2 MSTORE PUSH1 0x0 PUSH2 0xB47 PUSH1 0x20 DUP4 ADD DUP5 PUSH2 0x1912 JUMP JUMPDEST PUSH1 0x20 DUP1 DUP3 MSTORE PUSH1 0x32 SWAP1 DUP3 ADD MSTORE PUSH32 0x4552433732313A207472616E7366657220746F206E6F6E204552433732315265 PUSH1 0x40 DUP3 ADD MSTORE PUSH18 0x31B2B4BB32B91034B6B83632B6B2B73A32B9 PUSH1 0x71 SHL PUSH1 0x60 DUP3 ADD MSTORE PUSH1 0x80 ADD SWAP1 JUMP JUMPDEST PUSH1 0x20 DUP1 DUP3 MSTORE PUSH1 0x31 SWAP1 DUP3 ADD MSTORE PUSH32 0x4552433732313A207472616E736665722063616C6C6572206973206E6F74206F PUSH1 0x40 DUP3 ADD MSTORE PUSH17 0x1DDB995C881B9BDC88185C1C1C9BDD9959 PUSH1 0x7A SHL PUSH1 0x60 DUP3 ADD MSTORE PUSH1 0x80 ADD SWAP1 JUMP JUMPDEST PUSH1 0x0 DUP3 NOT DUP3 GT ISZERO PUSH2 0x1B08 JUMPI PUSH2 0x1B08 PUSH2 0x1BCE JUMP JUMPDEST POP ADD SWAP1 JUMP JUMPDEST PUSH1 0x0 DUP3 PUSH2 0x1B1C JUMPI PUSH2 0x1B1C PUSH2 0x1BE4 JUMP JUMPDEST POP DIV SWAP1 JUMP JUMPDEST PUSH1 0x0 DUP3 DUP3 LT ISZERO PUSH2 0x1B33 JUMPI PUSH2 0x1B33 PUSH2 0x1BCE JUMP JUMPDEST POP SUB SWAP1 JUMP JUMPDEST PUSH1 0x0 JUMPDEST DUP4 DUP2 LT ISZERO PUSH2 0x1B53 JUMPI DUP2 DUP2 ADD MLOAD DUP4 DUP3 ADD MSTORE PUSH1 0x20 ADD PUSH2 0x1B3B JUMP JUMPDEST DUP4 DUP2 GT ISZERO PUSH2 0xA5D JUMPI POP POP PUSH1 0x0 SWAP2 ADD MSTORE JUMP JUMPDEST PUSH1 0x1 DUP2 DUP2 SHR SWAP1 DUP3 AND DUP1 PUSH2 0x1B78 JUMPI PUSH1 0x7F DUP3 AND SWAP2 POP JUMPDEST PUSH1 0x20 DUP3 LT DUP2 EQ ISZERO PUSH2 0x1B99 JUMPI PUSH4 0x4E487B71 PUSH1 0xE0 SHL PUSH1 0x0 MSTORE PUSH1 0x22 PUSH1 0x4 MSTORE PUSH1 0x24 PUSH1 0x0 REVERT JUMPDEST POP SWAP2 SWAP1 POP JUMP JUMPDEST PUSH1 0x0 PUSH1 0x0 NOT DUP3 EQ ISZERO PUSH2 0x1BB3 JUMPI PUSH2 0x1BB3 PUSH2 0x1BCE JUMP JUMPDEST POP PUSH1 0x1 ADD SWAP1 JUMP JUMPDEST PUSH1 0x0 DUP3 PUSH2 0x1BC9 JUMPI PUSH2 0x1BC9 PUSH2 0x1BE4 JUMP JUMPDEST POP MOD SWAP1 JUMP JUMPDEST PUSH4 0x4E487B71 PUSH1 0xE0 SHL PUSH1 0x0 MSTORE PUSH1 0x11 PUSH1 0x4 MSTORE PUSH1 0x24 PUSH1 0x0 REVERT JUMPDEST PUSH4 0x4E487B71 PUSH1 0xE0 SHL PUSH1 0x0 MSTORE PUSH1 0x12 PUSH1 0x4 MSTORE PUSH1 0x24 PUSH1 0x0 REVERT JUMPDEST PUSH4 0x4E487B71 PUSH1 0xE0 SHL PUSH1 0x0 MSTORE PUSH1 0x31 PUSH1 0x4 MSTORE PUSH1 0x24 PUSH1 0x0 REVERT JUMPDEST PUSH4 0x4E487B71 PUSH1 0xE0 SHL PUSH1 0x0 MSTORE PUSH1 0x32 PUSH1 0x4 MSTORE PUSH1 0x24 PUSH1 0x0 REVERT JUMPDEST PUSH4 0x4E487B71 PUSH1 0xE0 SHL PUSH1 0x0 MSTORE PUSH1 0x41 PUSH1 0x4 MSTORE PUSH1 0x24 PUSH1 0x0 REVERT JUMPDEST PUSH1 0x1 PUSH1 0x1 PUSH1 0xE0 SHL SUB NOT DUP2 AND DUP2 EQ PUSH2 0xC16 JUMPI PUSH1 0x0 DUP1 REVERT INVALID PUSH9 0x747470733A2F2F6970 PUSH7 0x732E696F2F6970 PUSH7 0x732F516D5A6A67 0x4E MSTORE 0x4E COINBASE JUMP PUSH5 0x5761564B46 CALLDATACOPY PUSH16 0x436F4C556B686F356836545A676B7374 POP CODECOPY PUSH26 0x4C35447775753231682FA2646970667358221220D1434AE910B7 PUSH28 0xB6C8CF9D1AEC3E72B78BA3415CA1BAFAE0D07AB0075ED22BE264736F PUSH13 0x63430008070033000000000000 "
				},
				"gasEstimates": {
					"creation": {
						"codeDepositCost": "1474400",
						"executionCost": "infinite",
						"totalCost": "infinite"
					},
					"external": {
						"approve(address,uint256)": "infinite",
						"balanceOf(address)": "2634",
						"baseExtension()": "infinite",
						"baseURI()": "infinite",
						"getApproved(uint256)": "4760",
						"isApprovedForAll(address,address)": "infinite",
						"mint(address)": "infinite",
						"name()": "infinite",
						"owner()": "2420",
						"ownerOf(uint256)": "2667",
						"renounceOwnership()": "28184",
						"safeTransferFrom(address,address,uint256)": "infinite",
						"safeTransferFrom(address,address,uint256,bytes)": "infinite",
						"setApprovalForAll(address,bool)": "26708",
						"supportsInterface(bytes4)": "infinite",
						"symbol()": "infinite",
						"tokenByIndex(uint256)": "6804",
						"tokenOfOwnerByIndex(address,uint256)": "4975",
						"tokenURI(uint256)": "infinite",
						"totalSupply()": "2393",
						"transferFrom(address,address,uint256)": "infinite",
						"transferOwnership(address)": "28444"
					},
					"internal": {
						"_baseURI()": "infinite"
					}
				},
				"methodIdentifiers": {
					"approve(address,uint256)": "095ea7b3",
					"balanceOf(address)": "70a08231",
					"baseExtension()": "c6682862",
					"baseURI()": "6c0360eb",
					"getApproved(uint256)": "081812fc",
					"isApprovedForAll(address,address)": "e985e9c5",
					"mint(address)": "6a627842",
					"name()": "06fdde03",
					"owner()": "8da5cb5b",
					"ownerOf(uint256)": "6352211e",
					"renounceOwnership()": "715018a6",
					"safeTransferFrom(address,address,uint256)": "42842e0e",
					"safeTransferFrom(address,address,uint256,bytes)": "b88d4fde",
					"setApprovalForAll(address,bool)": "a22cb465",
					"supportsInterface(bytes4)": "01ffc9a7",
					"symbol()": "95d89b41",
					"tokenByIndex(uint256)": "4f6ccce7",
					"tokenOfOwnerByIndex(address,uint256)": "2f745c59",
					"tokenURI(uint256)": "c87b56dd",
					"totalSupply()": "18160ddd",
					"transferFrom(address,address,uint256)": "23b872dd",
					"transferOwnership(address)": "f2fde38b"
				}
			},
			"userdoc": {
				"kind": "user",
				"methods": {},
				"version": 1
			}
		}
	}
}